{
  "_format": "hh-sol-artifact-1",
  "contractName": "MasterChef",
  "sourceName": "contracts/MasterChef.sol",
  "abi": [
    {
      "inputs": [
        {
          "internalType": "contract IERC20",
          "name": "_concur",
          "type": "address"
        },
        {
          "internalType": "uint256",
          "name": "_startBlock",
          "type": "uint256"
        },
        {
          "internalType": "uint256",
          "name": "_endBlock",
          "type": "uint256"
        }
      ],
      "stateMutability": "nonpayable",
      "type": "constructor"
    },
    {
      "anonymous": false,
      "inputs": [
        {
          "indexed": true,
          "internalType": "address",
          "name": "_user",
          "type": "address"
        },
        {
          "indexed": true,
          "internalType": "uint256",
          "name": "_pid",
          "type": "uint256"
        },
        {
          "indexed": false,
          "internalType": "uint256",
          "name": "_amount",
          "type": "uint256"
        }
      ],
      "name": "Deposit",
      "type": "event"
    },
    {
      "anonymous": false,
      "inputs": [
        {
          "indexed": true,
          "internalType": "address",
          "name": "user",
          "type": "address"
        },
        {
          "indexed": true,
          "internalType": "uint256",
          "name": "_pid",
          "type": "uint256"
        },
        {
          "indexed": false,
          "internalType": "uint256",
          "name": "_amount",
          "type": "uint256"
        }
      ],
      "name": "EmergencyWithdraw",
      "type": "event"
    },
    {
      "anonymous": false,
      "inputs": [
        {
          "indexed": true,
          "internalType": "address",
          "name": "previousOwner",
          "type": "address"
        },
        {
          "indexed": true,
          "internalType": "address",
          "name": "newOwner",
          "type": "address"
        }
      ],
      "name": "OwnershipTransferred",
      "type": "event"
    },
    {
      "anonymous": false,
      "inputs": [
        {
          "indexed": true,
          "internalType": "address",
          "name": "_user",
          "type": "address"
        },
        {
          "indexed": true,
          "internalType": "uint256",
          "name": "_pid",
          "type": "uint256"
        },
        {
          "indexed": false,
          "internalType": "uint256",
          "name": "_amount",
          "type": "uint256"
        }
      ],
      "name": "Withdraw",
      "type": "event"
    },
    {
      "inputs": [
        {
          "internalType": "address",
          "name": "_token",
          "type": "address"
        },
        {
          "internalType": "uint256",
          "name": "_allocationPoints",
          "type": "uint256"
        },
        {
          "internalType": "uint16",
          "name": "_depositFee",
          "type": "uint16"
        },
        {
          "internalType": "uint256",
          "name": "_startBlock",
          "type": "uint256"
        }
      ],
      "name": "add",
      "outputs": [],
      "stateMutability": "nonpayable",
      "type": "function"
    },
    {
      "inputs": [
        {
          "internalType": "address",
          "name": "_depositor",
          "type": "address"
        }
      ],
      "name": "addDepositor",
      "outputs": [],
      "stateMutability": "nonpayable",
      "type": "function"
    },
    {
      "inputs": [],
      "name": "concur",
      "outputs": [
        {
          "internalType": "contract IERC20",
          "name": "",
          "type": "address"
        }
      ],
      "stateMutability": "view",
      "type": "function"
    },
    {
      "inputs": [],
      "name": "concurPerBlock",
      "outputs": [
        {
          "internalType": "uint256",
          "name": "",
          "type": "uint256"
        }
      ],
      "stateMutability": "view",
      "type": "function"
    },
    {
      "inputs": [
        {
          "internalType": "address",
          "name": "_recipient",
          "type": "address"
        },
        {
          "internalType": "uint256",
          "name": "_pid",
          "type": "uint256"
        },
        {
          "internalType": "uint256",
          "name": "_amount",
          "type": "uint256"
        }
      ],
      "name": "deposit",
      "outputs": [],
      "stateMutability": "nonpayable",
      "type": "function"
    },
    {
      "inputs": [],
      "name": "endBlock",
      "outputs": [
        {
          "internalType": "uint256",
          "name": "",
          "type": "uint256"
        }
      ],
      "stateMutability": "view",
      "type": "function"
    },
    {
      "inputs": [
        {
          "internalType": "uint256",
          "name": "_from",
          "type": "uint256"
        },
        {
          "internalType": "uint256",
          "name": "_to",
          "type": "uint256"
        }
      ],
      "name": "getMultiplier",
      "outputs": [
        {
          "internalType": "uint256",
          "name": "",
          "type": "uint256"
        }
      ],
      "stateMutability": "pure",
      "type": "function"
    },
    {
      "inputs": [
        {
          "internalType": "address",
          "name": "",
          "type": "address"
        }
      ],
      "name": "isDepositor",
      "outputs": [
        {
          "internalType": "bool",
          "name": "",
          "type": "bool"
        }
      ],
      "stateMutability": "view",
      "type": "function"
    },
    {
      "inputs": [],
      "name": "massUpdatePools",
      "outputs": [],
      "stateMutability": "nonpayable",
      "type": "function"
    },
    {
      "inputs": [],
      "name": "owner",
      "outputs": [
        {
          "internalType": "address",
          "name": "",
          "type": "address"
        }
      ],
      "stateMutability": "view",
      "type": "function"
    },
    {
      "inputs": [
        {
          "internalType": "uint256",
          "name": "_pid",
          "type": "uint256"
        },
        {
          "internalType": "address",
          "name": "_user",
          "type": "address"
        }
      ],
      "name": "pendingConcur",
      "outputs": [
        {
          "internalType": "uint256",
          "name": "",
          "type": "uint256"
        }
      ],
      "stateMutability": "view",
      "type": "function"
    },
    {
      "inputs": [
        {
          "internalType": "address",
          "name": "",
          "type": "address"
        }
      ],
      "name": "pid",
      "outputs": [
        {
          "internalType": "uint256",
          "name": "",
          "type": "uint256"
        }
      ],
      "stateMutability": "view",
      "type": "function"
    },
    {
      "inputs": [
        {
          "internalType": "uint256",
          "name": "",
          "type": "uint256"
        }
      ],
      "name": "poolInfo",
      "outputs": [
        {
          "internalType": "contract IERC20",
          "name": "depositToken",
          "type": "address"
        },
        {
          "internalType": "uint256",
          "name": "allocPoint",
          "type": "uint256"
        },
        {
          "internalType": "uint256",
          "name": "lastRewardBlock",
          "type": "uint256"
        },
        {
          "internalType": "uint256",
          "name": "accConcurPerShare",
          "type": "uint256"
        },
        {
          "internalType": "uint16",
          "name": "depositFeeBP",
          "type": "uint16"
        }
      ],
      "stateMutability": "view",
      "type": "function"
    },
    {
      "inputs": [],
      "name": "poolLength",
      "outputs": [
        {
          "internalType": "uint256",
          "name": "",
          "type": "uint256"
        }
      ],
      "stateMutability": "view",
      "type": "function"
    },
    {
      "inputs": [
        {
          "internalType": "address",
          "name": "_depositor",
          "type": "address"
        }
      ],
      "name": "removeDepositor",
      "outputs": [],
      "stateMutability": "nonpayable",
      "type": "function"
    },
    {
      "inputs": [],
      "name": "renounceOwnership",
      "outputs": [],
      "stateMutability": "nonpayable",
      "type": "function"
    },
    {
      "inputs": [],
      "name": "startBlock",
      "outputs": [
        {
          "internalType": "uint256",
          "name": "",
          "type": "uint256"
        }
      ],
      "stateMutability": "view",
      "type": "function"
    },
    {
      "inputs": [],
      "name": "totalAllocPoint",
      "outputs": [
        {
          "internalType": "uint256",
          "name": "",
          "type": "uint256"
        }
      ],
      "stateMutability": "view",
      "type": "function"
    },
    {
      "inputs": [
        {
          "internalType": "address",
          "name": "newOwner",
          "type": "address"
        }
      ],
      "name": "transferOwnership",
      "outputs": [],
      "stateMutability": "nonpayable",
      "type": "function"
    },
    {
      "inputs": [
        {
          "internalType": "uint256",
          "name": "_pid",
          "type": "uint256"
        }
      ],
      "name": "updatePool",
      "outputs": [],
      "stateMutability": "nonpayable",
      "type": "function"
    },
    {
      "inputs": [
        {
          "internalType": "uint256",
          "name": "",
          "type": "uint256"
        },
        {
          "internalType": "address",
          "name": "",
          "type": "address"
        }
      ],
      "name": "userInfo",
      "outputs": [
        {
          "internalType": "uint128",
          "name": "amount",
          "type": "uint128"
        },
        {
          "internalType": "uint128",
          "name": "rewardDebt",
          "type": "uint128"
        }
      ],
      "stateMutability": "view",
      "type": "function"
    },
    {
      "inputs": [
        {
          "internalType": "address",
          "name": "_recipient",
          "type": "address"
        },
        {
          "internalType": "uint256",
          "name": "_pid",
          "type": "uint256"
        },
        {
          "internalType": "uint256",
          "name": "_amount",
          "type": "uint256"
        }
      ],
      "name": "withdraw",
      "outputs": [],
      "stateMutability": "nonpayable",
      "type": "function"
    }
  ],
  "bytecode": "0x6080604052655af3107a40006006556000600755670de0b6b3a7640000600b556103e8600c5534801561003157600080fd5b5060405161176a38038061176a833981016040819052610050916101f6565b610059336101a6565b60018080556008839055600991909155600a80546001600160a01b03199081166001600160a01b03958616179091556040805160a081018252600080825260208201818152928201958652606082018181526080830182815260028054978801815590925291517f405787fa12a823e0f2b7631cc41b3ba8828b3321ca811111fa75cd3aa3bb5ace60059096029586018054909516971696909617909255517f405787fa12a823e0f2b7631cc41b3ba8828b3321ca811111fa75cd3aa3bb5acf83015591517f405787fa12a823e0f2b7631cc41b3ba8828b3321ca811111fa75cd3aa3bb5ad082015590517f405787fa12a823e0f2b7631cc41b3ba8828b3321ca811111fa75cd3aa3bb5ad182015590517f405787fa12a823e0f2b7631cc41b3ba8828b3321ca811111fa75cd3aa3bb5ad2909101805461ffff191661ffff909216919091179055610239565b600080546001600160a01b038381166001600160a01b0319831681178455604051919092169283917f8be0079c531659141344cd1fd0a4f28419497f9722a3daafe3b4186f6b6457e09190a35050565b60008060006060848603121561020b57600080fd5b83516001600160a01b038116811461022257600080fd5b602085015160409095015190969495509392505050565b611522806102486000396000f3fe608060405234801561001057600080fd5b50600436106101425760003560e01c8063715018a6116100b8578063aeba7cf21161007c578063aeba7cf214610301578063b5c5f67214610314578063d8274d0a14610327578063f26b2b9114610347578063f2fde38b14610350578063fc8acba21461036357600080fd5b8063715018a6146102635780638b73e6061461026b5780638da5cb5b1461027e5780638dbb1e3a1461028f57806393f1a40b146102a257600080fd5b806317caf6f11161010a57806317caf6f1146101d85780632f70d1ba146101e157806348cd4cb1146102145780634ffbc79f1461021d57806351eb05a614610248578063630b5ba11461025b57600080fd5b8063081e3eda14610147578063083c63231461015e5780630deef2aa146101675780630efe6a8b1461017c5780631526fe271461018f575b600080fd5b6002545b6040519081526020015b60405180910390f35b61014b60095481565b61017a6101753660046112ec565b610376565b005b61017a61018a366004611339565b6105cc565b6101a261019d36600461136c565b61088c565b604080516001600160a01b039096168652602086019490945292840191909152606083015261ffff16608082015260a001610155565b61014b60075481565b6102046101ef366004611385565b60046020526000908152604090205460ff1681565b6040519015158152602001610155565b61014b60085481565b600a54610230906001600160a01b031681565b6040516001600160a01b039091168152602001610155565b61017a61025636600461136c565b6108db565b61017a610a2b565b61017a610a56565b61017a610279366004611385565b610a8c565b6000546001600160a01b0316610230565b61014b61029d3660046113a0565b610ad7565b6102e16102b03660046113c2565b60036020908152600092835260408084209091529082529020546001600160801b0380821691600160801b90041682565b604080516001600160801b03938416815292909116602083015201610155565b61014b61030f3660046113c2565b610aea565b61017a610322366004611339565b610c5b565b61014b610335366004611385565b60056020526000908152604090205481565b61014b60065481565b61017a61035e366004611385565b610f2a565b61017a610371366004611385565b610fc5565b6000546001600160a01b031633146103a95760405162461bcd60e51b81526004016103a0906113ee565b60405180910390fd5b6001600160a01b0384166103ee5760405162461bcd60e51b815260206004820152600c60248201526b7a65726f206164647265737360a01b60448201526064016103a0565b60008143116103fd57816103ff565b435b60075490915061040f9085611013565b6007556001600160a01b0385166000908152600560205260409020541561046d5760405162461bcd60e51b8152602060048201526012602482015271185b1c9958591e481c9959da5cdd195c995960721b60448201526064016103a0565b6040805160a0810182526001600160a01b0387811682526020820187815292820184815260006060840181815261ffff8981166080870190815260028054600180820183559582905297517f405787fa12a823e0f2b7631cc41b3ba8828b3321ca811111fa75cd3aa3bb5ace600590990298890180546001600160a01b031916919098161790965596517f405787fa12a823e0f2b7631cc41b3ba8828b3321ca811111fa75cd3aa3bb5acf87015592517f405787fa12a823e0f2b7631cc41b3ba8828b3321ca811111fa75cd3aa3bb5ad0860155517f405787fa12a823e0f2b7631cc41b3ba8828b3321ca811111fa75cd3aa3bb5ad185015593517f405787fa12a823e0f2b7631cc41b3ba8828b3321ca811111fa75cd3aa3bb5ad2909301805461ffff19169390911692909217909155546105a99190611439565b6001600160a01b0390951660009081526005602052604090209490945550505050565b6002600154141561061f5760405162461bcd60e51b815260206004820152601f60248201527f5265656e7472616e637947756172643a207265656e7472616e742063616c6c0060448201526064016103a0565b60026001553360009081526004602052604090205460ff166106705760405162461bcd60e51b815260206004820152600a60248201526910b232b837b9b4ba37b960b11b60448201526064016103a0565b60006002838154811061068557610685611450565b600091825260208083208684526003909152604083206005909202019250816106ab3390565b6001600160a01b03166001600160a01b0316815260200190815260200160002090506106d6846108db565b80546001600160801b03161561073a578054600b5460038401546000926001600160801b03600160801b82048116939261071292909116611466565b61071c9190611485565b6107269190611439565b9050801561073857610738868261101f565b505b82156107f757600482015461ffff16156107c157600c5460048301546000916107729161076c90879061ffff166111ef565b906111fb565b82549091506107a09082906107919087906001600160801b03166114a7565b61079b9190611439565b611207565b82546001600160801b0319166001600160801b0391909116178255506107f7565b80546107db9061079b9085906001600160801b03166114a7565b81546001600160801b0319166001600160801b03919091161781555b600b54600383015482546108229291610818916001600160801b0316611466565b61079b9190611485565b81546001600160801b03918216600160801b02911617815560405184906001600160a01b038716907f90890809c654f11d6e72a28fa60149770a0d11ec6c92319d6ceb2bb0a4ea1a15906108799087815260200190565b60405180910390a3505060018055505050565b6002818154811061089c57600080fd5b6000918252602090912060059091020180546001820154600283015460038401546004909401546001600160a01b0390931694509092909161ffff1685565b6000600282815481106108f0576108f0611450565b906000526020600020906005020190508060020154431161090f575050565b80546040516370a0823160e01b81523060048201526000916001600160a01b0316906370a0823190602401602060405180830381865afa158015610957573d6000803e3d6000fd5b505050506040513d601f19601f8201168201806040525081019061097b91906114bf565b905080158061098c57506001820154155b1561099c57504360029091015550565b60095443106109b057504360029091015550565b60006109c0836002015443610ad7565b905060006109ed60075461076c86600101546109e7600654876111ef90919063ffffffff16565b906111ef565b9050610a16610a0b8461076c600b54856111ef90919063ffffffff16565b600386015490611013565b60038501555050436002909201919091555050565b60025460005b81811015610a5257610a42816108db565b610a4b816114d8565b9050610a31565b5050565b6000546001600160a01b03163314610a805760405162461bcd60e51b81526004016103a0906113ee565b610a8a6000611274565b565b6000546001600160a01b03163314610ab65760405162461bcd60e51b81526004016103a0906113ee565b6001600160a01b03166000908152600460205260409020805460ff19169055565b6000610ae382846112c4565b9392505050565b60008060028481548110610b0057610b00611450565b60009182526020808320878452600380835260408086206001600160a01b038a81168852945280862060059590950290920190810154815492516370a0823160e01b815230600482015291965093949291909116906370a0823190602401602060405180830381865afa158015610b7b573d6000803e3d6000fd5b505050506040513d601f19601f82011682018060405250810190610b9f91906114bf565b9050836002015443118015610bb357508015155b15610c19576000610bc8856002015443610ad7565b90506000610bef60075461076c88600101546109e7600654876111ef90919063ffffffff16565b9050610c14610c0d8461076c600b54856111ef90919063ffffffff16565b8590611013565b935050505b8254600b546001600160801b03600160801b8304811692610c3c91869116611466565b610c469190611485565b610c509190611439565b979650505050505050565b60026001541415610cae5760405162461bcd60e51b815260206004820152601f60248201527f5265656e7472616e637947756172643a207265656e7472616e742063616c6c0060448201526064016103a0565b60026001553360009081526004602052604090205460ff16610cff5760405162461bcd60e51b815260206004820152600a60248201526910b232b837b9b4ba37b960b11b60448201526064016103a0565b600060028381548110610d1457610d14611450565b60009182526020808320868452600390915260408320600590920201925081610d3a3390565b6001600160a01b03168152602081019190915260400160002080549091506001600160801b0316610dad5760405162461bcd60e51b815260206004820152601f60248201527f4d6173746572436865663a206e6f7468696e6720746f2077697468647261770060448201526064016103a0565b80546001600160801b0316831115610e075760405162461bcd60e51b815260206004820181905260248201527f4d6173746572436865663a207769746864726177206e6f7420616c6c6f77656460448201526064016103a0565b610e10846108db565b8054600b5460038401546000926001600160801b03600160801b820481169392610e3c92909116611466565b610e469190611485565b610e509190611439565b90508015610e6257610e62868261101f565b8315610e9e578154610e829061079b9086906001600160801b0316611439565b82546001600160801b0319166001600160801b03919091161782555b600b5460038401548354610ebf9291610818916001600160801b0316611466565b82546001600160801b03918216600160801b02911617825560405185906001600160a01b038816907ff279e6a1f5e320cca91135676d9cb6e44ca8a08c0b88342bcdb1144f6511b56890610f169088815260200190565b60405180910390a350506001805550505050565b6000546001600160a01b03163314610f545760405162461bcd60e51b81526004016103a0906113ee565b6001600160a01b038116610fb95760405162461bcd60e51b815260206004820152602660248201527f4f776e61626c653a206e6577206f776e657220697320746865207a65726f206160448201526564647265737360d01b60648201526084016103a0565b610fc281611274565b50565b6000546001600160a01b03163314610fef5760405162461bcd60e51b81526004016103a0906113ee565b6001600160a01b03166000908152600460205260409020805460ff19166001179055565b6000610ae382846114a7565b600a546040516370a0823160e01b81523060048201526000916001600160a01b0316906370a0823190602401602060405180830381865afa158015611068573d6000803e3d6000fd5b505050506040513d601f19601f8201168201806040525081019061108c91906114bf565b905060008183111561111657600a5460405163a9059cbb60e01b81526001600160a01b038681166004830152602482018590529091169063a9059cbb906044016020604051808303816000875af11580156110eb573d6000803e3d6000fd5b505050506040513d601f19601f8201168201806040525081019061110f91906114f3565b9050611190565b600a5460405163a9059cbb60e01b81526001600160a01b038681166004830152602482018690529091169063a9059cbb906044016020604051808303816000875af1158015611169573d6000803e3d6000fd5b505050506040513d601f19601f8201168201806040525081019061118d91906114f3565b90505b806111e95760405162461bcd60e51b815260206004820152602360248201527f73616665436f6e6375725472616e736665723a207472616e73666572206661696044820152621b195960ea1b60648201526084016103a0565b50505050565b6000610ae38284611466565b6000610ae38284611485565b60006001600160801b038211156112705760405162461bcd60e51b815260206004820152602760248201527f53616665436173743a2076616c756520646f65736e27742066697420696e20316044820152663238206269747360c81b60648201526084016103a0565b5090565b600080546001600160a01b038381166001600160a01b0319831681178455604051919092169283917f8be0079c531659141344cd1fd0a4f28419497f9722a3daafe3b4186f6b6457e09190a35050565b6000610ae38284611439565b80356001600160a01b03811681146112e757600080fd5b919050565b6000806000806080858703121561130257600080fd5b61130b856112d0565b935060208501359250604085013561ffff8116811461132957600080fd5b9396929550929360600135925050565b60008060006060848603121561134e57600080fd5b611357846112d0565b95602085013595506040909401359392505050565b60006020828403121561137e57600080fd5b5035919050565b60006020828403121561139757600080fd5b610ae3826112d0565b600080604083850312156113b357600080fd5b50508035926020909101359150565b600080604083850312156113d557600080fd5b823591506113e5602084016112d0565b90509250929050565b6020808252818101527f4f776e61626c653a2063616c6c6572206973206e6f7420746865206f776e6572604082015260600190565b634e487b7160e01b600052601160045260246000fd5b60008282101561144b5761144b611423565b500390565b634e487b7160e01b600052603260045260246000fd5b600081600019048311821515161561148057611480611423565b500290565b6000826114a257634e487b7160e01b600052601260045260246000fd5b500490565b600082198211156114ba576114ba611423565b500190565b6000602082840312156114d157600080fd5b5051919050565b60006000198214156114ec576114ec611423565b5060010190565b60006020828403121561150557600080fd5b81518015158114610ae357600080fdfea164736f6c634300080b000a",
  "linkReferences": {},
  "deployedLinkReferences": {}
}