{
  "_format": "hh-sol-artifact-1",
  "contractName": "AaveV2Strategy",
  "sourceName": "contracts/managers/AaveV2Strategy.sol",
  "abi": [
    {
      "inputs": [
        {
          "internalType": "contract IAToken",
          "name": "_aWant",
          "type": "address"
        },
        {
          "internalType": "address",
          "name": "_aaveLmReceiver",
          "type": "address"
        }
      ],
      "stateMutability": "nonpayable",
      "type": "constructor"
    },
    {
      "inputs": [],
      "name": "InvalidArgument",
      "type": "error"
    },
    {
      "inputs": [],
      "name": "InvalidConditions",
      "type": "error"
    },
    {
      "inputs": [],
      "name": "InvalidSender",
      "type": "error"
    },
    {
      "inputs": [],
      "name": "ZeroArgument",
      "type": "error"
    },
    {
      "anonymous": false,
      "inputs": [
        {
          "indexed": true,
          "internalType": "address",
          "name": "previousOwner",
          "type": "address"
        },
        {
          "indexed": true,
          "internalType": "address",
          "name": "newOwner",
          "type": "address"
        }
      ],
      "name": "OwnershipTransferred",
      "type": "event"
    },
    {
      "anonymous": false,
      "inputs": [
        {
          "indexed": false,
          "internalType": "address",
          "name": "account",
          "type": "address"
        }
      ],
      "name": "Paused",
      "type": "event"
    },
    {
      "anonymous": false,
      "inputs": [
        {
          "indexed": false,
          "internalType": "contract ISherlock",
          "name": "sherlock",
          "type": "address"
        }
      ],
      "name": "SherlockCoreSet",
      "type": "event"
    },
    {
      "anonymous": false,
      "inputs": [
        {
          "indexed": false,
          "internalType": "address",
          "name": "account",
          "type": "address"
        }
      ],
      "name": "Unpaused",
      "type": "event"
    },
    {
      "inputs": [],
      "name": "LP_ADDRESS_PROVIDER",
      "outputs": [
        {
          "internalType": "contract ILendingPoolAddressesProvider",
          "name": "",
          "type": "address"
        }
      ],
      "stateMutability": "view",
      "type": "function"
    },
    {
      "inputs": [],
      "name": "aWant",
      "outputs": [
        {
          "internalType": "contract IAToken",
          "name": "",
          "type": "address"
        }
      ],
      "stateMutability": "view",
      "type": "function"
    },
    {
      "inputs": [],
      "name": "aaveIncentivesController",
      "outputs": [
        {
          "internalType": "contract IAaveIncentivesController",
          "name": "",
          "type": "address"
        }
      ],
      "stateMutability": "view",
      "type": "function"
    },
    {
      "inputs": [],
      "name": "aaveLmReceiver",
      "outputs": [
        {
          "internalType": "address",
          "name": "",
          "type": "address"
        }
      ],
      "stateMutability": "view",
      "type": "function"
    },
    {
      "inputs": [],
      "name": "balanceOf",
      "outputs": [
        {
          "internalType": "uint256",
          "name": "",
          "type": "uint256"
        }
      ],
      "stateMutability": "view",
      "type": "function"
    },
    {
      "inputs": [],
      "name": "claimRewards",
      "outputs": [],
      "stateMutability": "nonpayable",
      "type": "function"
    },
    {
      "inputs": [],
      "name": "deposit",
      "outputs": [],
      "stateMutability": "nonpayable",
      "type": "function"
    },
    {
      "inputs": [],
      "name": "isActive",
      "outputs": [
        {
          "internalType": "bool",
          "name": "",
          "type": "bool"
        }
      ],
      "stateMutability": "view",
      "type": "function"
    },
    {
      "inputs": [],
      "name": "owner",
      "outputs": [
        {
          "internalType": "address",
          "name": "",
          "type": "address"
        }
      ],
      "stateMutability": "view",
      "type": "function"
    },
    {
      "inputs": [],
      "name": "pause",
      "outputs": [],
      "stateMutability": "nonpayable",
      "type": "function"
    },
    {
      "inputs": [],
      "name": "paused",
      "outputs": [
        {
          "internalType": "bool",
          "name": "",
          "type": "bool"
        }
      ],
      "stateMutability": "view",
      "type": "function"
    },
    {
      "inputs": [],
      "name": "renounceOwnership",
      "outputs": [],
      "stateMutability": "nonpayable",
      "type": "function"
    },
    {
      "inputs": [
        {
          "internalType": "contract ISherlock",
          "name": "_sherlock",
          "type": "address"
        }
      ],
      "name": "setSherlockCoreAddress",
      "outputs": [],
      "stateMutability": "nonpayable",
      "type": "function"
    },
    {
      "inputs": [
        {
          "internalType": "address",
          "name": "_receiver",
          "type": "address"
        },
        {
          "internalType": "contract IERC20[]",
          "name": "_extraTokens",
          "type": "address[]"
        }
      ],
      "name": "sweep",
      "outputs": [],
      "stateMutability": "nonpayable",
      "type": "function"
    },
    {
      "inputs": [
        {
          "internalType": "address",
          "name": "newOwner",
          "type": "address"
        }
      ],
      "name": "transferOwnership",
      "outputs": [],
      "stateMutability": "nonpayable",
      "type": "function"
    },
    {
      "inputs": [],
      "name": "unpause",
      "outputs": [],
      "stateMutability": "nonpayable",
      "type": "function"
    },
    {
      "inputs": [],
      "name": "want",
      "outputs": [
        {
          "internalType": "contract IERC20",
          "name": "",
          "type": "address"
        }
      ],
      "stateMutability": "view",
      "type": "function"
    },
    {
      "inputs": [
        {
          "internalType": "uint256",
          "name": "_amount",
          "type": "uint256"
        }
      ],
      "name": "withdraw",
      "outputs": [],
      "stateMutability": "nonpayable",
      "type": "function"
    },
    {
      "inputs": [],
      "name": "withdrawAll",
      "outputs": [
        {
          "internalType": "uint256",
          "name": "",
          "type": "uint256"
        }
      ],
      "stateMutability": "nonpayable",
      "type": "function"
    }
  ],
  "bytecode": "0x6101006040523480156200001257600080fd5b50604051620022603803806200226083398101604081905262000035916200020e565b6200004033620001a5565b6000805460ff60a01b191690556001600160a01b038216620000755760405163b7852ebb60e01b815260040160405180910390fd5b6001600160a01b0381166200009d5760405163b7852ebb60e01b815260040160405180910390fd5b6001600160a01b03821660c0819052604080516358b50cef60e11b8152905163b16a19de916004808201926020929091908290030181865afa158015620000e8573d6000803e3d6000fd5b505050506040513d601f19601f820116820180604052508101906200010e91906200024d565b6001600160a01b031660a0816001600160a01b031681525050816001600160a01b03166375d264136040518163ffffffff1660e01b8152600401602060405180830381865afa15801562000166573d6000803e3d6000fd5b505050506040513d601f19601f820116820180604052508101906200018c91906200024d565b6001600160a01b039081166080521660e0525062000274565b600080546001600160a01b038381166001600160a01b0319831681178455604051919092169283917f8be0079c531659141344cd1fd0a4f28419497f9722a3daafe3b4186f6b6457e09190a35050565b6001600160a01b03811681146200020b57600080fd5b50565b600080604083850312156200022257600080fd5b82516200022f81620001f5565b60208401519092506200024281620001f5565b809150509250929050565b6000602082840312156200026057600080fd5b81516200026d81620001f5565b9392505050565b60805160a05160c05160e051611f6c620002f46000396000818161022b015261071c0152600081816101c40152818161064c015261089e01526000818161015b015281816104dc01528181610a2d01528181610e3601528181610f2701528181610fb4015261103801526000818161027501526106c90152611f6c6000f3fe608060405234801561001057600080fd5b50600436106101515760003560e01c80635f2475ca116100cd5780638a179be411610081578063ca70fb7611610066578063ca70fb76146102f6578063d0e30db014610309578063f2fde38b1461031157600080fd5b80638a179be4146102c55780638da5cb5b146102d857600080fd5b8063722713f7116100b2578063722713f71461029f5780638456cb59146102b5578063853828b6146102bd57600080fd5b80635f2475ca14610270578063715018a61461029757600080fd5b806335509c50116101245780633f4ba83a116101095780633f4ba83a1461021e57806351c499ae146102265780635c975abb1461024d57600080fd5b806335509c50146101fb578063372500ab1461021657600080fd5b80631f1fcd511461015657806322f3e2d4146101a75780632ac08115146101bf5780632e1a7d4d146101e6575b600080fd5b61017d7f000000000000000000000000000000000000000000000000000000000000000081565b60405173ffffffffffffffffffffffffffffffffffffffff90911681526020015b60405180910390f35b6101af610324565b604051901515815260200161019e565b61017d7f000000000000000000000000000000000000000000000000000000000000000081565b6101f96101f4366004611ba5565b6103ea565b005b61017d73b53c1a33016b2dc2ff3653530bff1848a515c8c581565b6101f961059e565b6101f9610787565b61017d7f000000000000000000000000000000000000000000000000000000000000000081565b60005474010000000000000000000000000000000000000000900460ff166101af565b61017d7f000000000000000000000000000000000000000000000000000000000000000081565b6101f96107e2565b6102a761086d565b60405190815260200161019e565b6101f9610923565b6102a761097c565b6101f96102d3366004611c1f565b610ad4565b60005473ffffffffffffffffffffffffffffffffffffffff1661017d565b6101f9610304366004611d17565b610beb565b6101f9610d5e565b6101f961031f366004611d17565b6110b4565b60003073ffffffffffffffffffffffffffffffffffffffff16600160009054906101000a900473ffffffffffffffffffffffffffffffffffffffff1673ffffffffffffffffffffffffffffffffffffffff166313f14fee6040518163ffffffff1660e01b8152600401602060405180830381865afa1580156103aa573d6000803e3d6000fd5b505050506040513d601f19601f820116820180604052508101906103ce9190611d34565b73ffffffffffffffffffffffffffffffffffffffff1614905090565b60015473ffffffffffffffffffffffffffffffffffffffff16331461043b576040517fddb5de5e00000000000000000000000000000000000000000000000000000000815260040160405180910390fd5b7fffffffffffffffffffffffffffffffffffffffffffffffffffffffffffffffff811415610495576040517fa9cb9e0d00000000000000000000000000000000000000000000000000000000815260040160405180910390fd5b600061049f6111e4565b6040517f69328dec00000000000000000000000000000000000000000000000000000000815273ffffffffffffffffffffffffffffffffffffffff7f0000000000000000000000000000000000000000000000000000000000000000811660048301526024820185905233604483015291925083918316906369328dec906064016020604051808303816000875af115801561053f573d6000803e3d6000fd5b505050506040513d601f19601f820116820180604052508101906105639190611d51565b1461059a576040517f3af36e0a00000000000000000000000000000000000000000000000000000000815260040160405180910390fd5b5050565b60005474010000000000000000000000000000000000000000900460ff1615610628576040517f08c379a000000000000000000000000000000000000000000000000000000000815260206004820152601060248201527f5061757361626c653a207061757365640000000000000000000000000000000060448201526064015b60405180910390fd5b604080516001808252818301909252600091602080830190803683370190505090507f00000000000000000000000000000000000000000000000000000000000000008160008151811061067e5761067e611d6a565b73ffffffffffffffffffffffffffffffffffffffff92831660209182029290920101526040517f3111e7b30000000000000000000000000000000000000000000000000000000081527f000000000000000000000000000000000000000000000000000000000000000090911690633111e7b3906107449084907fffffffffffffffffffffffffffffffffffffffffffffffffffffffffffffffff907f000000000000000000000000000000000000000000000000000000000000000090600401611d99565b6020604051808303816000875af1158015610763573d6000803e3d6000fd5b505050506040513d601f19601f8201168201806040525081019061059a9190611d51565b60015473ffffffffffffffffffffffffffffffffffffffff1633146107d8576040517fddb5de5e00000000000000000000000000000000000000000000000000000000815260040160405180910390fd5b6107e0611269565b565b60005473ffffffffffffffffffffffffffffffffffffffff163314610863576040517f08c379a000000000000000000000000000000000000000000000000000000000815260206004820181905260248201527f4f776e61626c653a2063616c6c6572206973206e6f7420746865206f776e6572604482015260640161061f565b6107e06000611362565b6040517f70a082310000000000000000000000000000000000000000000000000000000081523060048201526000907f000000000000000000000000000000000000000000000000000000000000000073ffffffffffffffffffffffffffffffffffffffff16906370a0823190602401602060405180830381865afa1580156108fa573d6000803e3d6000fd5b505050506040513d601f19601f8201168201806040525081019061091e9190611d51565b905090565b60015473ffffffffffffffffffffffffffffffffffffffff163314610974576040517fddb5de5e00000000000000000000000000000000000000000000000000000000815260040160405180910390fd5b6107e06113d7565b60015460009073ffffffffffffffffffffffffffffffffffffffff1633146109d0576040517fddb5de5e00000000000000000000000000000000000000000000000000000000815260040160405180910390fd5b60006109da6111e4565b90506109e461086d565b6109f057600091505090565b6040517f69328dec00000000000000000000000000000000000000000000000000000000815273ffffffffffffffffffffffffffffffffffffffff7f0000000000000000000000000000000000000000000000000000000000000000811660048301527fffffffffffffffffffffffffffffffffffffffffffffffffffffffffffffffff60248301523360448301528216906369328dec906064016020604051808303816000875af1158015610aaa573d6000803e3d6000fd5b505050506040513d601f19601f82011682018060405250810190610ace9190611d51565b91505090565b60005473ffffffffffffffffffffffffffffffffffffffff163314610b55576040517f08c379a000000000000000000000000000000000000000000000000000000000815260206004820181905260248201527f4f776e61626c653a2063616c6c6572206973206e6f7420746865206f776e6572604482015260640161061f565b73ffffffffffffffffffffffffffffffffffffffff8216610ba2576040517fb7852ebb00000000000000000000000000000000000000000000000000000000815260040160405180910390fd5b610baa610324565b15610be1576040517f3af36e0a00000000000000000000000000000000000000000000000000000000815260040160405180910390fd5b61059a82826114c3565b73ffffffffffffffffffffffffffffffffffffffff8116610c38576040517fb7852ebb00000000000000000000000000000000000000000000000000000000815260040160405180910390fd5b46617a6914158015610c5e57503373adbb28c2fee078440b7088bbcd68dcfa63e5562514155b15610c95576040517fddb5de5e00000000000000000000000000000000000000000000000000000000815260040160405180910390fd5b60015473ffffffffffffffffffffffffffffffffffffffff1615610ce5576040517f3af36e0a00000000000000000000000000000000000000000000000000000000815260040160405180910390fd5b600180547fffffffffffffffffffffffff00000000000000000000000000000000000000001673ffffffffffffffffffffffffffffffffffffffff83169081179091556040519081527ff200116515c6d70d53a45299bb7eba08ef985ec08bfe0baf31ad73907308a3189060200160405180910390a150565b60005474010000000000000000000000000000000000000000900460ff1615610de3576040517f08c379a000000000000000000000000000000000000000000000000000000000815260206004820152601060248201527f5061757361626c653a2070617573656400000000000000000000000000000000604482015260640161061f565b6000610ded6111e4565b6040517f70a0823100000000000000000000000000000000000000000000000000000000815230600482015290915060009073ffffffffffffffffffffffffffffffffffffffff7f000000000000000000000000000000000000000000000000000000000000000016906370a0823190602401602060405180830381865afa158015610e7d573d6000803e3d6000fd5b505050506040513d601f19601f82011682018060405250810190610ea19190611d51565b905080610eda576040517f3af36e0a00000000000000000000000000000000000000000000000000000000815260040160405180910390fd5b6040517fdd62ed3e00000000000000000000000000000000000000000000000000000000815230600482015273ffffffffffffffffffffffffffffffffffffffff838116602483015282917f00000000000000000000000000000000000000000000000000000000000000009091169063dd62ed3e90604401602060405180830381865afa158015610f70573d6000803e3d6000fd5b505050506040513d601f19601f82011682018060405250810190610f949190611d51565b1015610ffb57610ffb73ffffffffffffffffffffffffffffffffffffffff7f000000000000000000000000000000000000000000000000000000000000000016837fffffffffffffffffffffffffffffffffffffffffffffffffffffffffffffffff611657565b6040517fe8eda9df00000000000000000000000000000000000000000000000000000000815273ffffffffffffffffffffffffffffffffffffffff7f000000000000000000000000000000000000000000000000000000000000000081166004830152602482018390523060448301526000606483015283169063e8eda9df90608401600060405180830381600087803b15801561109857600080fd5b505af11580156110ac573d6000803e3d6000fd5b505050505050565b60005473ffffffffffffffffffffffffffffffffffffffff163314611135576040517f08c379a000000000000000000000000000000000000000000000000000000000815260206004820181905260248201527f4f776e61626c653a2063616c6c6572206973206e6f7420746865206f776e6572604482015260640161061f565b73ffffffffffffffffffffffffffffffffffffffff81166111d8576040517f08c379a000000000000000000000000000000000000000000000000000000000815260206004820152602660248201527f4f776e61626c653a206e6577206f776e657220697320746865207a65726f206160448201527f6464726573730000000000000000000000000000000000000000000000000000606482015260840161061f565b6111e181611362565b50565b600073b53c1a33016b2dc2ff3653530bff1848a515c8c573ffffffffffffffffffffffffffffffffffffffff16630261bf8b6040518163ffffffff1660e01b8152600401602060405180830381865afa158015611245573d6000803e3d6000fd5b505050506040513d601f19601f8201168201806040525081019061091e9190611d34565b60005474010000000000000000000000000000000000000000900460ff166112ed576040517f08c379a000000000000000000000000000000000000000000000000000000000815260206004820152601460248201527f5061757361626c653a206e6f7420706175736564000000000000000000000000604482015260640161061f565b600080547fffffffffffffffffffffff00ffffffffffffffffffffffffffffffffffffffff1690557f5db9ee0a495bf2e6ff9c91a7834c1ba4fdd244a5e8aa4e537bd38aeae4b073aa335b60405173ffffffffffffffffffffffffffffffffffffffff909116815260200160405180910390a1565b6000805473ffffffffffffffffffffffffffffffffffffffff8381167fffffffffffffffffffffffff0000000000000000000000000000000000000000831681178455604051919092169283917f8be0079c531659141344cd1fd0a4f28419497f9722a3daafe3b4186f6b6457e09190a35050565b60005474010000000000000000000000000000000000000000900460ff161561145c576040517f08c379a000000000000000000000000000000000000000000000000000000000815260206004820152601060248201527f5061757361626c653a2070617573656400000000000000000000000000000000604482015260640161061f565b600080547fffffffffffffffffffffff00ffffffffffffffffffffffffffffffffffffffff16740100000000000000000000000000000000000000001790557f62e78cea01bee320cd4e420270b5ea74000d11b0c9f74754ebdbfc544b05a2586113383390565b60005b81518110156115b65760008282815181106114e3576114e3611d6a565b60209081029190910101516040517f70a082310000000000000000000000000000000000000000000000000000000081523060048201529091506115a390859073ffffffffffffffffffffffffffffffffffffffff8416906370a0823190602401602060405180830381865afa158015611561573d6000803e3d6000fd5b505050506040513d601f19601f820116820180604052508101906115859190611d51565b73ffffffffffffffffffffffffffffffffffffffff84169190611857565b50806115ae81611e17565b9150506114c6565b5060008273ffffffffffffffffffffffffffffffffffffffff164760405160006040518083038185875af1925050503d8060008114611611576040519150601f19603f3d011682016040523d82523d6000602084013e611616565b606091505b509091505080611652576040517f3af36e0a00000000000000000000000000000000000000000000000000000000815260040160405180910390fd5b505050565b8015806116f757506040517fdd62ed3e00000000000000000000000000000000000000000000000000000000815230600482015273ffffffffffffffffffffffffffffffffffffffff838116602483015284169063dd62ed3e90604401602060405180830381865afa1580156116d1573d6000803e3d6000fd5b505050506040513d601f19601f820116820180604052508101906116f59190611d51565b155b611783576040517f08c379a000000000000000000000000000000000000000000000000000000000815260206004820152603660248201527f5361666545524332303a20617070726f76652066726f6d206e6f6e2d7a65726f60448201527f20746f206e6f6e2d7a65726f20616c6c6f77616e636500000000000000000000606482015260840161061f565b60405173ffffffffffffffffffffffffffffffffffffffff83166024820152604481018290526116529084907f095ea7b300000000000000000000000000000000000000000000000000000000906064015b604080517fffffffffffffffffffffffffffffffffffffffffffffffffffffffffffffffe08184030181529190526020810180517bffffffffffffffffffffffffffffffffffffffffffffffffffffffff167fffffffff00000000000000000000000000000000000000000000000000000000909316929092179091526118ad565b60405173ffffffffffffffffffffffffffffffffffffffff83166024820152604481018290526116529084907fa9059cbb00000000000000000000000000000000000000000000000000000000906064016117d5565b600061190f826040518060400160405280602081526020017f5361666545524332303a206c6f772d6c6576656c2063616c6c206661696c65648152508573ffffffffffffffffffffffffffffffffffffffff166119b99092919063ffffffff16565b805190915015611652578080602001905181019061192d9190611e77565b611652576040517f08c379a000000000000000000000000000000000000000000000000000000000815260206004820152602a60248201527f5361666545524332303a204552433230206f7065726174696f6e20646964206e60448201527f6f74207375636365656400000000000000000000000000000000000000000000606482015260840161061f565b60606119c884846000856119d2565b90505b9392505050565b606082471015611a64576040517f08c379a000000000000000000000000000000000000000000000000000000000815260206004820152602660248201527f416464726573733a20696e73756666696369656e742062616c616e636520666f60448201527f722063616c6c0000000000000000000000000000000000000000000000000000606482015260840161061f565b843b611acc576040517f08c379a000000000000000000000000000000000000000000000000000000000815260206004820152601d60248201527f416464726573733a2063616c6c20746f206e6f6e2d636f6e7472616374000000604482015260640161061f565b6000808673ffffffffffffffffffffffffffffffffffffffff168587604051611af59190611ec9565b60006040518083038185875af1925050503d8060008114611b32576040519150601f19603f3d011682016040523d82523d6000602084013e611b37565b606091505b5091509150611b47828286611b52565b979650505050505050565b60608315611b615750816119cb565b825115611b715782518084602001fd5b816040517f08c379a000000000000000000000000000000000000000000000000000000000815260040161061f9190611ee5565b600060208284031215611bb757600080fd5b5035919050565b73ffffffffffffffffffffffffffffffffffffffff811681146111e157600080fd5b7f4e487b7100000000000000000000000000000000000000000000000000000000600052604160045260246000fd5b8035611c1a81611bbe565b919050565b60008060408385031215611c3257600080fd5b8235611c3d81611bbe565b915060208381013567ffffffffffffffff80821115611c5b57600080fd5b818601915086601f830112611c6f57600080fd5b813581811115611c8157611c81611be0565b8060051b6040517fffffffffffffffffffffffffffffffffffffffffffffffffffffffffffffffe0603f83011681018181108582111715611cc457611cc4611be0565b604052918252848201925083810185019189831115611ce257600080fd5b938501935b82851015611d0757611cf885611c0f565b84529385019392850192611ce7565b8096505050505050509250929050565b600060208284031215611d2957600080fd5b81356119cb81611bbe565b600060208284031215611d4657600080fd5b81516119cb81611bbe565b600060208284031215611d6357600080fd5b5051919050565b7f4e487b7100000000000000000000000000000000000000000000000000000000600052603260045260246000fd5b606080825284519082018190526000906020906080840190828801845b82811015611de857815173ffffffffffffffffffffffffffffffffffffffff1684529284019290840190600101611db6565b505050908301949094525073ffffffffffffffffffffffffffffffffffffffff91909116604090910152919050565b60007fffffffffffffffffffffffffffffffffffffffffffffffffffffffffffffffff821415611e70577f4e487b7100000000000000000000000000000000000000000000000000000000600052601160045260246000fd5b5060010190565b600060208284031215611e8957600080fd5b815180151581146119cb57600080fd5b60005b83811015611eb4578181015183820152602001611e9c565b83811115611ec3576000848401525b50505050565b60008251611edb818460208701611e99565b9190910192915050565b6020815260008251806020840152611f04816040850160208701611e99565b601f017fffffffffffffffffffffffffffffffffffffffffffffffffffffffffffffffe016919091016040019291505056fea26469706673582212203afcd56e9793d117800d43424fd9234547cf603a6c2ecd75f2514230d129861864736f6c634300080a0033",
  "linkReferences": {},
  "deployedLinkReferences": {}
}