{
  "_format": "hh-sol-artifact-1",
  "contractName": "StrategyMock",
  "sourceName": "contracts/util/StrategyMock.sol",
  "abi": [
    {
      "inputs": [
        {
          "internalType": "contract IERC20",
          "name": "_token",
          "type": "address"
        }
      ],
      "stateMutability": "nonpayable",
      "type": "constructor"
    },
    {
      "inputs": [],
      "name": "InvalidArgument",
      "type": "error"
    },
    {
      "inputs": [],
      "name": "InvalidConditions",
      "type": "error"
    },
    {
      "inputs": [],
      "name": "InvalidSender",
      "type": "error"
    },
    {
      "inputs": [],
      "name": "ZeroArgument",
      "type": "error"
    },
    {
      "anonymous": false,
      "inputs": [
        {
          "indexed": true,
          "internalType": "address",
          "name": "previousOwner",
          "type": "address"
        },
        {
          "indexed": true,
          "internalType": "address",
          "name": "newOwner",
          "type": "address"
        }
      ],
      "name": "OwnershipTransferred",
      "type": "event"
    },
    {
      "anonymous": false,
      "inputs": [
        {
          "indexed": false,
          "internalType": "address",
          "name": "account",
          "type": "address"
        }
      ],
      "name": "Paused",
      "type": "event"
    },
    {
      "anonymous": false,
      "inputs": [
        {
          "indexed": false,
          "internalType": "contract ISherlock",
          "name": "sherlock",
          "type": "address"
        }
      ],
      "name": "SherlockCoreSet",
      "type": "event"
    },
    {
      "anonymous": false,
      "inputs": [
        {
          "indexed": false,
          "internalType": "address",
          "name": "account",
          "type": "address"
        }
      ],
      "name": "Unpaused",
      "type": "event"
    },
    {
      "inputs": [],
      "name": "balanceOf",
      "outputs": [
        {
          "internalType": "uint256",
          "name": "",
          "type": "uint256"
        }
      ],
      "stateMutability": "view",
      "type": "function"
    },
    {
      "inputs": [],
      "name": "deposit",
      "outputs": [],
      "stateMutability": "nonpayable",
      "type": "function"
    },
    {
      "inputs": [],
      "name": "depositCalled",
      "outputs": [
        {
          "internalType": "uint256",
          "name": "",
          "type": "uint256"
        }
      ],
      "stateMutability": "view",
      "type": "function"
    },
    {
      "inputs": [],
      "name": "fail",
      "outputs": [
        {
          "internalType": "bool",
          "name": "",
          "type": "bool"
        }
      ],
      "stateMutability": "view",
      "type": "function"
    },
    {
      "inputs": [],
      "name": "owner",
      "outputs": [
        {
          "internalType": "address",
          "name": "",
          "type": "address"
        }
      ],
      "stateMutability": "view",
      "type": "function"
    },
    {
      "inputs": [],
      "name": "pause",
      "outputs": [],
      "stateMutability": "nonpayable",
      "type": "function"
    },
    {
      "inputs": [],
      "name": "paused",
      "outputs": [
        {
          "internalType": "bool",
          "name": "",
          "type": "bool"
        }
      ],
      "stateMutability": "view",
      "type": "function"
    },
    {
      "inputs": [],
      "name": "renounceOwnership",
      "outputs": [],
      "stateMutability": "nonpayable",
      "type": "function"
    },
    {
      "inputs": [],
      "name": "setFail",
      "outputs": [],
      "stateMutability": "nonpayable",
      "type": "function"
    },
    {
      "inputs": [
        {
          "internalType": "contract ISherlock",
          "name": "_sherlock",
          "type": "address"
        }
      ],
      "name": "setSherlockCoreAddress",
      "outputs": [],
      "stateMutability": "nonpayable",
      "type": "function"
    },
    {
      "inputs": [
        {
          "internalType": "address",
          "name": "newOwner",
          "type": "address"
        }
      ],
      "name": "transferOwnership",
      "outputs": [],
      "stateMutability": "nonpayable",
      "type": "function"
    },
    {
      "inputs": [],
      "name": "unpause",
      "outputs": [],
      "stateMutability": "nonpayable",
      "type": "function"
    },
    {
      "inputs": [],
      "name": "want",
      "outputs": [
        {
          "internalType": "contract IERC20",
          "name": "",
          "type": "address"
        }
      ],
      "stateMutability": "view",
      "type": "function"
    },
    {
      "inputs": [
        {
          "internalType": "uint256",
          "name": "_amount",
          "type": "uint256"
        }
      ],
      "name": "withdraw",
      "outputs": [],
      "stateMutability": "nonpayable",
      "type": "function"
    },
    {
      "inputs": [],
      "name": "withdrawAll",
      "outputs": [
        {
          "internalType": "uint256",
          "name": "b",
          "type": "uint256"
        }
      ],
      "stateMutability": "nonpayable",
      "type": "function"
    },
    {
      "inputs": [],
      "name": "withdrawAllCalled",
      "outputs": [
        {
          "internalType": "uint256",
          "name": "",
          "type": "uint256"
        }
      ],
      "stateMutability": "view",
      "type": "function"
    },
    {
      "inputs": [],
      "name": "withdrawCalled",
      "outputs": [
        {
          "internalType": "uint256",
          "name": "",
          "type": "uint256"
        }
      ],
      "stateMutability": "view",
      "type": "function"
    }
  ],
  "bytecode": "0x608060405234801561001057600080fd5b50604051610d8b380380610d8b83398101604081905261002f916100ba565b6100383361006a565b6000805460ff60a01b19169055600280546001600160a01b0319166001600160a01b03929092169190911790556100ea565b600080546001600160a01b038381166001600160a01b0319831681178455604051919092169283917f8be0079c531659141344cd1fd0a4f28419497f9722a3daafe3b4186f6b6457e09190a35050565b6000602082840312156100cc57600080fd5b81516001600160a01b03811681146100e357600080fd5b9392505050565b610c92806100f96000396000f3fe608060405234801561001057600080fd5b506004361061011b5760003560e01c80638456cb59116100b2578063c2918b5611610081578063d0e30db011610066578063d0e30db014610264578063db254bbc1461026c578063f2fde38b1461027557600080fd5b8063c2918b5614610248578063ca70fb761461025157600080fd5b80638456cb591461020d578063853828b6146102155780638da5cb5b1461021d578063a9cc47181461023b57600080fd5b80635c975abb116100ee5780635c975abb146101b7578063715018a6146101e6578063722713f7146101ee5780637577dec11461020457600080fd5b80631f1fcd51146101205780632e1a7d4d1461016a5780633c24328d1461017f5780633f4ba83a146101af575b600080fd5b6002546101409073ffffffffffffffffffffffffffffffffffffffff1681565b60405173ffffffffffffffffffffffffffffffffffffffff90911681526020015b60405180910390f35b61017d610178366004610b62565b610288565b005b61017d600680547fffffffffffffffffffffffffffffffffffffffffffffffffffffffffffffff00166001179055565b61017d61033c565b60005474010000000000000000000000000000000000000000900460ff165b6040519015158152602001610161565b61017d610397565b6101f6610427565b604051908152602001610161565b6101f660055481565b61017d6104bf565b6101f6610518565b60005473ffffffffffffffffffffffffffffffffffffffff16610140565b6006546101d69060ff1681565b6101f660045481565b61017d61025f366004610b9d565b61064e565b61017d6107c1565b6101f660035481565b61017d610283366004610b9d565b6107d8565b6002546040517fa9059cbb0000000000000000000000000000000000000000000000000000000081523360048201526024810183905273ffffffffffffffffffffffffffffffffffffffff9091169063a9059cbb906044016020604051808303816000875af11580156102ff573d6000803e3d6000fd5b505050506040513d601f19601f820116820180604052508101906103239190610bc1565b506004805490600061033483610be3565b919050555050565b60015473ffffffffffffffffffffffffffffffffffffffff16331461038d576040517fddb5de5e00000000000000000000000000000000000000000000000000000000815260040160405180910390fd5b610395610908565b565b60005473ffffffffffffffffffffffffffffffffffffffff16331461041d576040517f08c379a000000000000000000000000000000000000000000000000000000000815260206004820181905260248201527f4f776e61626c653a2063616c6c6572206973206e6f7420746865206f776e657260448201526064015b60405180910390fd5b6103956000610a01565b6002546040517f70a0823100000000000000000000000000000000000000000000000000000000815230600482015260009173ffffffffffffffffffffffffffffffffffffffff16906370a0823190602401602060405180830381865afa158015610496573d6000803e3d6000fd5b505050506040513d601f19601f820116820180604052508101906104ba9190610c43565b905090565b60015473ffffffffffffffffffffffffffffffffffffffff163314610510576040517fddb5de5e00000000000000000000000000000000000000000000000000000000815260040160405180910390fd5b610395610a76565b6000610522610427565b905080156105c7576002546040517fa9059cbb0000000000000000000000000000000000000000000000000000000081523360048201526024810183905273ffffffffffffffffffffffffffffffffffffffff9091169063a9059cbb906044016020604051808303816000875af11580156105a1573d6000803e3d6000fd5b505050506040513d601f19601f820116820180604052508101906105c59190610bc1565b505b600580549060006105d783610be3565b909155505060065460ff161561064b576040517f08c379a00000000000000000000000000000000000000000000000000000000081526004016104149060208082526004908201527f4641494c00000000000000000000000000000000000000000000000000000000604082015260600190565b90565b73ffffffffffffffffffffffffffffffffffffffff811661069b576040517fb7852ebb00000000000000000000000000000000000000000000000000000000815260040160405180910390fd5b46617a69141580156106c157503373adbb28c2fee078440b7088bbcd68dcfa63e5562514155b156106f8576040517fddb5de5e00000000000000000000000000000000000000000000000000000000815260040160405180910390fd5b60015473ffffffffffffffffffffffffffffffffffffffff1615610748576040517f3af36e0a00000000000000000000000000000000000000000000000000000000815260040160405180910390fd5b600180547fffffffffffffffffffffffff00000000000000000000000000000000000000001673ffffffffffffffffffffffffffffffffffffffff83169081179091556040519081527ff200116515c6d70d53a45299bb7eba08ef985ec08bfe0baf31ad73907308a3189060200160405180910390a150565b600380549060006107d183610be3565b9190505550565b60005473ffffffffffffffffffffffffffffffffffffffff163314610859576040517f08c379a000000000000000000000000000000000000000000000000000000000815260206004820181905260248201527f4f776e61626c653a2063616c6c6572206973206e6f7420746865206f776e65726044820152606401610414565b73ffffffffffffffffffffffffffffffffffffffff81166108fc576040517f08c379a000000000000000000000000000000000000000000000000000000000815260206004820152602660248201527f4f776e61626c653a206e6577206f776e657220697320746865207a65726f206160448201527f64647265737300000000000000000000000000000000000000000000000000006064820152608401610414565b61090581610a01565b50565b60005474010000000000000000000000000000000000000000900460ff1661098c576040517f08c379a000000000000000000000000000000000000000000000000000000000815260206004820152601460248201527f5061757361626c653a206e6f74207061757365640000000000000000000000006044820152606401610414565b600080547fffffffffffffffffffffff00ffffffffffffffffffffffffffffffffffffffff1690557f5db9ee0a495bf2e6ff9c91a7834c1ba4fdd244a5e8aa4e537bd38aeae4b073aa335b60405173ffffffffffffffffffffffffffffffffffffffff909116815260200160405180910390a1565b6000805473ffffffffffffffffffffffffffffffffffffffff8381167fffffffffffffffffffffffff0000000000000000000000000000000000000000831681178455604051919092169283917f8be0079c531659141344cd1fd0a4f28419497f9722a3daafe3b4186f6b6457e09190a35050565b60005474010000000000000000000000000000000000000000900460ff1615610afb576040517f08c379a000000000000000000000000000000000000000000000000000000000815260206004820152601060248201527f5061757361626c653a20706175736564000000000000000000000000000000006044820152606401610414565b600080547fffffffffffffffffffffff00ffffffffffffffffffffffffffffffffffffffff16740100000000000000000000000000000000000000001790557f62e78cea01bee320cd4e420270b5ea74000d11b0c9f74754ebdbfc544b05a2586109d73390565b600060208284031215610b7457600080fd5b5035919050565b73ffffffffffffffffffffffffffffffffffffffff8116811461090557600080fd5b600060208284031215610baf57600080fd5b8135610bba81610b7b565b9392505050565b600060208284031215610bd357600080fd5b81518015158114610bba57600080fd5b60007fffffffffffffffffffffffffffffffffffffffffffffffffffffffffffffffff821415610c3c577f4e487b7100000000000000000000000000000000000000000000000000000000600052601160045260246000fd5b5060010190565b600060208284031215610c5557600080fd5b505191905056fea2646970667358221220f8037fe49c6db58f947dfd5f07283943c99ef5af23d0f92c2231dfd1a9bce68a64736f6c634300080a0033",
  "linkReferences": {},
  "deployedLinkReferences": {}
}