{
  "_format": "hh-sol-artifact-1",
  "contractName": "Shelter",
  "sourceName": "contracts/Shelter.sol",
  "abi": [
    {
      "inputs": [
        {
          "internalType": "contract IShelterClient",
          "name": "_client",
          "type": "address"
        }
      ],
      "stateMutability": "nonpayable",
      "type": "constructor"
    },
    {
      "anonymous": false,
      "inputs": [
        {
          "indexed": true,
          "internalType": "contract IERC20",
          "name": "token",
          "type": "address"
        },
        {
          "indexed": true,
          "internalType": "address",
          "name": "refugee",
          "type": "address"
        },
        {
          "indexed": true,
          "internalType": "address",
          "name": "destination",
          "type": "address"
        },
        {
          "indexed": false,
          "internalType": "uint256",
          "name": "amount",
          "type": "uint256"
        }
      ],
      "name": "ExitShelter",
      "type": "event"
    },
    {
      "anonymous": false,
      "inputs": [
        {
          "indexed": true,
          "internalType": "contract IERC20",
          "name": "token",
          "type": "address"
        }
      ],
      "name": "ShelterActivated",
      "type": "event"
    },
    {
      "anonymous": false,
      "inputs": [
        {
          "indexed": true,
          "internalType": "contract IERC20",
          "name": "token",
          "type": "address"
        }
      ],
      "name": "ShelterDeactivated",
      "type": "event"
    },
    {
      "inputs": [],
      "name": "GRACE_PERIOD",
      "outputs": [
        {
          "internalType": "uint256",
          "name": "",
          "type": "uint256"
        }
      ],
      "stateMutability": "view",
      "type": "function"
    },
    {
      "inputs": [
        {
          "internalType": "contract IERC20",
          "name": "_token",
          "type": "address"
        }
      ],
      "name": "activate",
      "outputs": [],
      "stateMutability": "nonpayable",
      "type": "function"
    },
    {
      "inputs": [
        {
          "internalType": "contract IERC20",
          "name": "",
          "type": "address"
        }
      ],
      "name": "activated",
      "outputs": [
        {
          "internalType": "uint256",
          "name": "",
          "type": "uint256"
        }
      ],
      "stateMutability": "view",
      "type": "function"
    },
    {
      "inputs": [
        {
          "internalType": "contract IERC20",
          "name": "",
          "type": "address"
        },
        {
          "internalType": "address",
          "name": "",
          "type": "address"
        }
      ],
      "name": "claimed",
      "outputs": [
        {
          "internalType": "bool",
          "name": "",
          "type": "bool"
        }
      ],
      "stateMutability": "view",
      "type": "function"
    },
    {
      "inputs": [],
      "name": "client",
      "outputs": [
        {
          "internalType": "contract IShelterClient",
          "name": "",
          "type": "address"
        }
      ],
      "stateMutability": "view",
      "type": "function"
    },
    {
      "inputs": [
        {
          "internalType": "contract IERC20",
          "name": "_token",
          "type": "address"
        }
      ],
      "name": "deactivate",
      "outputs": [],
      "stateMutability": "nonpayable",
      "type": "function"
    },
    {
      "inputs": [
        {
          "internalType": "contract IERC20",
          "name": "_token",
          "type": "address"
        },
        {
          "internalType": "uint256",
          "name": "_amount",
          "type": "uint256"
        }
      ],
      "name": "donate",
      "outputs": [],
      "stateMutability": "nonpayable",
      "type": "function"
    },
    {
      "inputs": [
        {
          "internalType": "contract IERC20",
          "name": "",
          "type": "address"
        }
      ],
      "name": "savedTokens",
      "outputs": [
        {
          "internalType": "uint256",
          "name": "",
          "type": "uint256"
        }
      ],
      "stateMutability": "view",
      "type": "function"
    },
    {
      "inputs": [
        {
          "internalType": "contract IERC20",
          "name": "_token",
          "type": "address"
        },
        {
          "internalType": "address",
          "name": "_to",
          "type": "address"
        }
      ],
      "name": "withdraw",
      "outputs": [],
      "stateMutability": "nonpayable",
      "type": "function"
    }
  ],
  "bytecode": "0x60a060405234801561001057600080fd5b50604051610cf3380380610cf383398101604081905261002f91610040565b6001600160a01b0316608052610070565b60006020828403121561005257600080fd5b81516001600160a01b038116811461006957600080fd5b9392505050565b608051610c4d6100a66000396000818160dd015281816101c8015281816102ee015281816105e8015261067a0152610c4d6000f3fe608060405234801561001057600080fd5b50600436106100935760003560e01c80633ea053eb116100665780633ea053eb1461015a578063779d86771461016d578063c1a287e21461018d578063e69d849d14610197578063f940e385146101aa57600080fd5b80630c9cbf0e14610098578063109e94cf146100d85780631c5a9d9c1461011757806327ba1af01461012c575b600080fd5b6100c36100a6366004610a99565b600060208181529281526040808220909352908152205460ff1681565b60405190151581526020015b60405180910390f35b6100ff7f000000000000000000000000000000000000000000000000000000000000000081565b6040516001600160a01b0390911681526020016100cf565b61012a610125366004610ad2565b6101bd565b005b61014c61013a366004610ad2565b60026020526000908152604090205481565b6040519081526020016100cf565b61012a610168366004610ad2565b6102e3565b61014c61017b366004610ad2565b60016020526000908152604090205481565b61014c62093a8081565b61012a6101a5366004610aef565b61049c565b61012a6101b8366004610a99565b610535565b336001600160a01b037f000000000000000000000000000000000000000000000000000000000000000016146102245760405162461bcd60e51b81526020600482015260076024820152660858db1a595b9d60ca1b60448201526064015b60405180910390fd5b6001600160a01b03811660008181526001602052604090819020429055516370a0823160e01b81523060048201526370a0823190602401602060405180830381865afa158015610278573d6000803e3d6000fd5b505050506040513d601f19601f8201168201806040525081019061029c9190610b1b565b6001600160a01b03821660008181526002602052604080822093909355915190917f0b2f6211c0089bc53c246cd6b88eed3255b5462ae91414723c241982b129cf7291a250565b336001600160a01b037f000000000000000000000000000000000000000000000000000000000000000016146103455760405162461bcd60e51b81526020600482015260076024820152660858db1a595b9d60ca1b604482015260640161021b565b6001600160a01b0381166000908152600160205260409020541580159061039257506001600160a01b03811660009081526001602052604090205442906103909062093a8090610b4a565b115b6103c95760405162461bcd60e51b8152602060048201526008602482015267746f6f206c61746560c01b604482015260640161021b565b6001600160a01b0381166000818152600160209081526040808320839055600290915280822091909155516370a0823160e01b81523060048201526104659133916370a0823190602401602060405180830381865afa158015610430573d6000803e3d6000fd5b505050506040513d601f19601f820116820180604052508101906104549190610b1b565b6001600160a01b0384169190610794565b6040516001600160a01b038216907fc6633d99d035f0ec7793e94266ffdd9a650ac742639b50ecaf559ee649e3da7e90600090a250565b6001600160a01b0382166000908152600160205260409020546104ee5760405162461bcd60e51b815260206004820152600a602482015269085858dd1a5d985d195960b21b604482015260640161021b565b6001600160a01b03821660009081526002602052604081208054839290610516908490610b4a565b9091555061053190506001600160a01b0383163330846107f7565b5050565b6001600160a01b0382166000908152600160205260409020541580159061058257506001600160a01b03821660009081526001602052604090205442906105809062093a8090610b4a565b105b6105c65760405162461bcd60e51b81526020600482015260156024820152741cda195b1d195c881b9bdd081858dd1a5d985d1959605a1b604482015260640161021b565b604051631f10c7eb60e21b81526001600160a01b0383811660048301526000917f000000000000000000000000000000000000000000000000000000000000000090911690637c431fac90602401602060405180830381865afa158015610631573d6000803e3d6000fd5b505050506040513d601f19601f820116820180604052508101906106559190610b1b565b60405163159aba8b60e31b81526001600160a01b0385811660048301523360248301527f0000000000000000000000000000000000000000000000000000000000000000169063acd5d45890604401602060405180830381865afa1580156106c1573d6000803e3d6000fd5b505050506040513d601f19601f820116820180604052508101906106e59190610b1b565b6001600160a01b0385166000908152600260205260409020546107089190610b62565b6107129190610b81565b6001600160a01b0384811660008181526020818152604080832094881680845294825291829020805460ff191660011790559051848152939450919233927f0d3cfed29be87ddae7a5a39ef3afb962484cd4ffa1616a5390439e99586de3ff910160405180910390a461078f6001600160a01b0384168383610794565b505050565b6040516001600160a01b03831660248201526044810182905261078f90849063a9059cbb60e01b906064015b60408051601f198184030181529190526020810180516001600160e01b03166001600160e01b031990931692909217909152610835565b6040516001600160a01b038085166024830152831660448201526064810182905261082f9085906323b872dd60e01b906084016107c0565b50505050565b600061088a826040518060400160405280602081526020017f5361666545524332303a206c6f772d6c6576656c2063616c6c206661696c6564815250856001600160a01b03166109079092919063ffffffff16565b80519091501561078f57808060200190518101906108a89190610ba3565b61078f5760405162461bcd60e51b815260206004820152602a60248201527f5361666545524332303a204552433230206f7065726174696f6e20646964206e6044820152691bdd081cdd58d8d9595960b21b606482015260840161021b565b60606109168484600085610920565b90505b9392505050565b6060824710156109815760405162461bcd60e51b815260206004820152602660248201527f416464726573733a20696e73756666696369656e742062616c616e636520666f6044820152651c8818d85b1b60d21b606482015260840161021b565b843b6109cf5760405162461bcd60e51b815260206004820152601d60248201527f416464726573733a2063616c6c20746f206e6f6e2d636f6e7472616374000000604482015260640161021b565b600080866001600160a01b031685876040516109eb9190610bf1565b60006040518083038185875af1925050503d8060008114610a28576040519150601f19603f3d011682016040523d82523d6000602084013e610a2d565b606091505b5091509150610a3d828286610a48565b979650505050505050565b60608315610a57575081610919565b825115610a675782518084602001fd5b8160405162461bcd60e51b815260040161021b9190610c0d565b6001600160a01b0381168114610a9657600080fd5b50565b60008060408385031215610aac57600080fd5b8235610ab781610a81565b91506020830135610ac781610a81565b809150509250929050565b600060208284031215610ae457600080fd5b813561091981610a81565b60008060408385031215610b0257600080fd5b8235610b0d81610a81565b946020939093013593505050565b600060208284031215610b2d57600080fd5b5051919050565b634e487b7160e01b600052601160045260246000fd5b60008219821115610b5d57610b5d610b34565b500190565b6000816000190483118215151615610b7c57610b7c610b34565b500290565b600082610b9e57634e487b7160e01b600052601260045260246000fd5b500490565b600060208284031215610bb557600080fd5b8151801515811461091957600080fd5b60005b83811015610be0578181015183820152602001610bc8565b8381111561082f5750506000910152565b60008251610c03818460208701610bc5565b9190910192915050565b6020815260008251806020840152610c2c816040850160208701610bc5565b601f01601f1916919091016040019291505056fea164736f6c634300080b000a",
  "linkReferences": {},
  "deployedLinkReferences": {}
}