{
  "_format": "hh-sol-artifact-1",
  "contractName": "VoteProxy",
  "sourceName": "contracts/VoteProxy.sol",
  "abi": [
    {
      "anonymous": false,
      "inputs": [
        {
          "indexed": true,
          "internalType": "address",
          "name": "previousOwner",
          "type": "address"
        },
        {
          "indexed": true,
          "internalType": "address",
          "name": "newOwner",
          "type": "address"
        }
      ],
      "name": "OwnershipTransferred",
      "type": "event"
    },
    {
      "inputs": [],
      "name": "auctioneer",
      "outputs": [
        {
          "internalType": "contract Iauction",
          "name": "",
          "type": "address"
        }
      ],
      "stateMutability": "view",
      "type": "function"
    },
    {
      "inputs": [
        {
          "internalType": "address",
          "name": "_to",
          "type": "address"
        },
        {
          "internalType": "uint256",
          "name": "_value",
          "type": "uint256"
        },
        {
          "internalType": "bytes",
          "name": "_data",
          "type": "bytes"
        }
      ],
      "name": "execute",
      "outputs": [
        {
          "internalType": "bool",
          "name": "",
          "type": "bool"
        },
        {
          "internalType": "bytes",
          "name": "",
          "type": "bytes"
        }
      ],
      "stateMutability": "nonpayable",
      "type": "function"
    },
    {
      "inputs": [
        {
          "internalType": "bytes32",
          "name": "_hash",
          "type": "bytes32"
        },
        {
          "internalType": "bytes",
          "name": "_signature",
          "type": "bytes"
        }
      ],
      "name": "isValidSignature",
      "outputs": [
        {
          "internalType": "bytes4",
          "name": "",
          "type": "bytes4"
        }
      ],
      "stateMutability": "view",
      "type": "function"
    },
    {
      "inputs": [],
      "name": "owner",
      "outputs": [
        {
          "internalType": "address",
          "name": "",
          "type": "address"
        }
      ],
      "stateMutability": "view",
      "type": "function"
    },
    {
      "inputs": [],
      "name": "renounceOwnership",
      "outputs": [],
      "stateMutability": "nonpayable",
      "type": "function"
    },
    {
      "inputs": [
        {
          "internalType": "address",
          "name": "newOwner",
          "type": "address"
        }
      ],
      "name": "transferOwnership",
      "outputs": [],
      "stateMutability": "nonpayable",
      "type": "function"
    },
    {
      "inputs": [
        {
          "internalType": "address",
          "name": "_auctioneer",
          "type": "address"
        }
      ],
      "name": "updateAuctioneer",
      "outputs": [],
      "stateMutability": "nonpayable",
      "type": "function"
    }
  ],
  "bytecode": "0x608060405234801561001057600080fd5b5061001a3361001f565b61006f565b600080546001600160a01b038381166001600160a01b0319831681178455604051919092169283917f8be0079c531659141344cd1fd0a4f28419497f9722a3daafe3b4186f6b6457e09190a35050565b6106238061007e6000396000f3fe608060405234801561001057600080fd5b506004361061007d5760003560e01c8063796a80761161005b578063796a8076146100e85780638da5cb5b146100fb578063b61d27f61461010c578063f2fde38b1461012d57600080fd5b80631626ba7e146100825780635ec2c7bf146100b3578063715018a6146100de575b600080fd5b61009561009036600461043d565b610140565b6040516001600160e01b031990911681526020015b60405180910390f35b6001546100c6906001600160a01b031681565b6040516001600160a01b0390911681526020016100aa565b6100e66101e0565b005b6100e66100f63660046104a5565b61021f565b6000546001600160a01b03166100c6565b61011f61011a3660046104c0565b61026b565b6040516100aa92919061051a565b6100e661013b3660046104a5565b610309565b600154604051635d3a899960e01b81526000916001600160a01b031690635d3a89999061017590879087908790600401610579565b602060405180830381865afa158015610192573d6000803e3d6000fd5b505050506040513d601f19601f820116820180604052508101906101b691906105af565b1515600114156101ce5750630b135d3f60e11b6101d9565b506001600160e01b03195b9392505050565b6000546001600160a01b031633146102135760405162461bcd60e51b815260040161020a906105d1565b60405180910390fd5b61021d60006103a4565b565b6000546001600160a01b031633146102495760405162461bcd60e51b815260040161020a906105d1565b600180546001600160a01b0319166001600160a01b0392909216919091179055565b600080546060906001600160a01b031633146102995760405162461bcd60e51b815260040161020a906105d1565b600080876001600160a01b03168787876040516102b7929190610606565b60006040518083038185875af1925050503d80600081146102f4576040519150601f19603f3d011682016040523d82523d6000602084013e6102f9565b606091505b5090999098509650505050505050565b6000546001600160a01b031633146103335760405162461bcd60e51b815260040161020a906105d1565b6001600160a01b0381166103985760405162461bcd60e51b815260206004820152602660248201527f4f776e61626c653a206e6577206f776e657220697320746865207a65726f206160448201526564647265737360d01b606482015260840161020a565b6103a1816103a4565b50565b600080546001600160a01b038381166001600160a01b0319831681178455604051919092169283917f8be0079c531659141344cd1fd0a4f28419497f9722a3daafe3b4186f6b6457e09190a35050565b60008083601f84011261040657600080fd5b50813567ffffffffffffffff81111561041e57600080fd5b60208301915083602082850101111561043657600080fd5b9250929050565b60008060006040848603121561045257600080fd5b83359250602084013567ffffffffffffffff81111561047057600080fd5b61047c868287016103f4565b9497909650939450505050565b80356001600160a01b03811681146104a057600080fd5b919050565b6000602082840312156104b757600080fd5b6101d982610489565b600080600080606085870312156104d657600080fd5b6104df85610489565b935060208501359250604085013567ffffffffffffffff81111561050257600080fd5b61050e878288016103f4565b95989497509550505050565b821515815260006020604081840152835180604085015260005b8181101561055057858101830151858201606001528201610534565b81811115610562576000606083870101525b50601f01601f191692909201606001949350505050565b83815260406020820152816040820152818360608301376000818301606090810191909152601f909201601f1916010192915050565b6000602082840312156105c157600080fd5b815180151581146101d957600080fd5b6020808252818101527f4f776e61626c653a2063616c6c6572206973206e6f7420746865206f776e6572604082015260600190565b818382376000910190815291905056fea164736f6c634300080b000a",
  "linkReferences": {},
  "deployedLinkReferences": {}
}