{
  "_format": "hh-sol-artifact-1",
  "contractName": "EasySign",
  "sourceName": "contracts/EasySign.sol",
  "abi": [
    {
      "inputs": [],
      "stateMutability": "nonpayable",
      "type": "constructor"
    },
    {
      "anonymous": false,
      "inputs": [
        {
          "indexed": true,
          "internalType": "address",
          "name": "previousOwner",
          "type": "address"
        },
        {
          "indexed": true,
          "internalType": "address",
          "name": "newOwner",
          "type": "address"
        }
      ],
      "name": "OwnershipTransferred",
      "type": "event"
    },
    {
      "inputs": [
        {
          "internalType": "address",
          "name": "",
          "type": "address"
        }
      ],
      "name": "approvedTeam",
      "outputs": [
        {
          "internalType": "bool",
          "name": "",
          "type": "bool"
        }
      ],
      "stateMutability": "view",
      "type": "function"
    },
    {
      "inputs": [
        {
          "internalType": "bytes32",
          "name": "_hash",
          "type": "bytes32"
        },
        {
          "internalType": "bytes",
          "name": "_signature",
          "type": "bytes"
        }
      ],
      "name": "isWinningSignature",
      "outputs": [
        {
          "internalType": "bool",
          "name": "",
          "type": "bool"
        }
      ],
      "stateMutability": "view",
      "type": "function"
    },
    {
      "inputs": [
        {
          "internalType": "address",
          "name": "_member",
          "type": "address"
        },
        {
          "internalType": "bool",
          "name": "_approval",
          "type": "bool"
        }
      ],
      "name": "modifyTeam",
      "outputs": [],
      "stateMutability": "nonpayable",
      "type": "function"
    },
    {
      "inputs": [],
      "name": "owner",
      "outputs": [
        {
          "internalType": "address",
          "name": "",
          "type": "address"
        }
      ],
      "stateMutability": "view",
      "type": "function"
    },
    {
      "inputs": [],
      "name": "renounceOwnership",
      "outputs": [],
      "stateMutability": "nonpayable",
      "type": "function"
    },
    {
      "inputs": [
        {
          "internalType": "address",
          "name": "newOwner",
          "type": "address"
        }
      ],
      "name": "transferOwnership",
      "outputs": [],
      "stateMutability": "nonpayable",
      "type": "function"
    }
  ],
  "bytecode": "0x608060405234801561001057600080fd5b5061001a3361003c565b336000908152600160208190526040909120805460ff1916909117905561008c565b600080546001600160a01b038381166001600160a01b0319831681178455604051919092169283917f8be0079c531659141344cd1fd0a4f28419497f9722a3daafe3b4186f6b6457e09190a35050565b6107ba8061009b6000396000f3fe608060405234801561001057600080fd5b50600436106100625760003560e01c80635d3a899914610067578063715018a61461008f5780638da5cb5b146100995780638f3b80b2146100b4578063ac0679a6146100d7578063f2fde38b146100ea575b600080fd5b61007a61007536600461062d565b6100fd565b60405190151581526020015b60405180910390f35b61009761012d565b005b6000546040516001600160a01b039091168152602001610086565b61007a6100c2366004610704565b60016020526000908152604090205460ff1681565b6100976100e5366004610726565b61016c565b6100976100f8366004610704565b6101c1565b60008061010a848461025c565b6001600160a01b031660009081526001602052604090205460ff16949350505050565b6000546001600160a01b031633146101605760405162461bcd60e51b815260040161015790610762565b60405180910390fd5b61016a6000610280565b565b6000546001600160a01b031633146101965760405162461bcd60e51b815260040161015790610762565b6001600160a01b03919091166000908152600160205260409020805460ff1916911515919091179055565b6000546001600160a01b031633146101eb5760405162461bcd60e51b815260040161015790610762565b6001600160a01b0381166102505760405162461bcd60e51b815260206004820152602660248201527f4f776e61626c653a206e6577206f776e657220697320746865207a65726f206160448201526564647265737360d01b6064820152608401610157565b61025981610280565b50565b600080600061026b85856102d0565b9150915061027881610340565b509392505050565b600080546001600160a01b038381166001600160a01b0319831681178455604051919092169283917f8be0079c531659141344cd1fd0a4f28419497f9722a3daafe3b4186f6b6457e09190a35050565b6000808251604114156103075760208301516040840151606085015160001a6102fb878285856104fb565b94509450505050610339565b82516040141561033157602083015160408401516103268683836105e8565b935093505050610339565b506000905060025b9250929050565b600081600481111561035457610354610797565b141561035d5750565b600181600481111561037157610371610797565b14156103bf5760405162461bcd60e51b815260206004820152601860248201527f45434453413a20696e76616c6964207369676e617475726500000000000000006044820152606401610157565b60028160048111156103d3576103d3610797565b14156104215760405162461bcd60e51b815260206004820152601f60248201527f45434453413a20696e76616c6964207369676e6174757265206c656e677468006044820152606401610157565b600381600481111561043557610435610797565b141561048e5760405162461bcd60e51b815260206004820152602260248201527f45434453413a20696e76616c6964207369676e6174757265202773272076616c604482015261756560f01b6064820152608401610157565b60048160048111156104a2576104a2610797565b14156102595760405162461bcd60e51b815260206004820152602260248201527f45434453413a20696e76616c6964207369676e6174757265202776272076616c604482015261756560f01b6064820152608401610157565b6000807f7fffffffffffffffffffffffffffffff5d576e7357a4501ddfe92f46681b20a083111561053257506000905060036105df565b8460ff16601b1415801561054a57508460ff16601c14155b1561055b57506000905060046105df565b6040805160008082526020820180845289905260ff881692820192909252606081018690526080810185905260019060a0016020604051602081039080840390855afa1580156105af573d6000803e3d6000fd5b5050604051601f1901519150506001600160a01b0381166105d8576000600192509250506105df565b9150600090505b94509492505050565b6000806001600160ff1b03831660ff84901c601b01610609878288856104fb565b935093505050935093915050565b634e487b7160e01b600052604160045260246000fd5b6000806040838503121561064057600080fd5b82359150602083013567ffffffffffffffff8082111561065f57600080fd5b818501915085601f83011261067357600080fd5b81358181111561068557610685610617565b604051601f8201601f19908116603f011681019083821181831017156106ad576106ad610617565b816040528281528860208487010111156106c657600080fd5b8260208601602083013760006020848301015280955050505050509250929050565b80356001600160a01b03811681146106ff57600080fd5b919050565b60006020828403121561071657600080fd5b61071f826106e8565b9392505050565b6000806040838503121561073957600080fd5b610742836106e8565b91506020830135801515811461075757600080fd5b809150509250929050565b6020808252818101527f4f776e61626c653a2063616c6c6572206973206e6f7420746865206f776e6572604082015260600190565b634e487b7160e01b600052602160045260246000fdfea164736f6c634300080b000a",
  "linkReferences": {},
  "deployedLinkReferences": {}
}