{
  "_format": "hh-sol-artifact-1",
  "contractName": "SherlockMock",
  "sourceName": "contracts/util/SherlockMock.sol",
  "abi": [
    {
      "inputs": [],
      "stateMutability": "nonpayable",
      "type": "constructor"
    },
    {
      "inputs": [],
      "name": "InvalidArgument",
      "type": "error"
    },
    {
      "inputs": [],
      "name": "InvalidConditions",
      "type": "error"
    },
    {
      "inputs": [
        {
          "internalType": "uint256",
          "name": "expected",
          "type": "uint256"
        },
        {
          "internalType": "uint256",
          "name": "actual",
          "type": "uint256"
        }
      ],
      "name": "InvalidSherAmount",
      "type": "error"
    },
    {
      "inputs": [],
      "name": "NonExistent",
      "type": "error"
    },
    {
      "inputs": [],
      "name": "Unauthorized",
      "type": "error"
    },
    {
      "inputs": [],
      "name": "ZeroArgument",
      "type": "error"
    },
    {
      "anonymous": false,
      "inputs": [
        {
          "indexed": true,
          "internalType": "address",
          "name": "owner",
          "type": "address"
        },
        {
          "indexed": true,
          "internalType": "address",
          "name": "approved",
          "type": "address"
        },
        {
          "indexed": true,
          "internalType": "uint256",
          "name": "tokenId",
          "type": "uint256"
        }
      ],
      "name": "Approval",
      "type": "event"
    },
    {
      "anonymous": false,
      "inputs": [
        {
          "indexed": true,
          "internalType": "address",
          "name": "owner",
          "type": "address"
        },
        {
          "indexed": true,
          "internalType": "address",
          "name": "operator",
          "type": "address"
        },
        {
          "indexed": false,
          "internalType": "bool",
          "name": "approved",
          "type": "bool"
        }
      ],
      "name": "ApprovalForAll",
      "type": "event"
    },
    {
      "anonymous": false,
      "inputs": [
        {
          "indexed": true,
          "internalType": "uint256",
          "name": "tokenID",
          "type": "uint256"
        },
        {
          "indexed": false,
          "internalType": "uint256",
          "name": "reward",
          "type": "uint256"
        }
      ],
      "name": "ArbRestaked",
      "type": "event"
    },
    {
      "anonymous": false,
      "inputs": [
        {
          "indexed": false,
          "internalType": "contract ISherlockClaimManager",
          "name": "previous",
          "type": "address"
        },
        {
          "indexed": false,
          "internalType": "contract ISherlockClaimManager",
          "name": "current",
          "type": "address"
        }
      ],
      "name": "ClaimManagerUpdated",
      "type": "event"
    },
    {
      "anonymous": false,
      "inputs": [
        {
          "indexed": false,
          "internalType": "address",
          "name": "receiver",
          "type": "address"
        },
        {
          "indexed": false,
          "internalType": "uint256",
          "name": "amount",
          "type": "uint256"
        }
      ],
      "name": "ClaimPayout",
      "type": "event"
    },
    {
      "anonymous": false,
      "inputs": [
        {
          "indexed": false,
          "internalType": "address",
          "name": "previous",
          "type": "address"
        },
        {
          "indexed": false,
          "internalType": "address",
          "name": "current",
          "type": "address"
        }
      ],
      "name": "NonStakerAddressUpdated",
      "type": "event"
    },
    {
      "anonymous": false,
      "inputs": [
        {
          "indexed": true,
          "internalType": "address",
          "name": "previousOwner",
          "type": "address"
        },
        {
          "indexed": true,
          "internalType": "address",
          "name": "newOwner",
          "type": "address"
        }
      ],
      "name": "OwnershipTransferred",
      "type": "event"
    },
    {
      "anonymous": false,
      "inputs": [
        {
          "indexed": false,
          "internalType": "contract ISherlockProtocolManager",
          "name": "previous",
          "type": "address"
        },
        {
          "indexed": false,
          "internalType": "contract ISherlockProtocolManager",
          "name": "current",
          "type": "address"
        }
      ],
      "name": "ProtocolManagerUpdated",
      "type": "event"
    },
    {
      "anonymous": false,
      "inputs": [
        {
          "indexed": true,
          "internalType": "uint256",
          "name": "tokenID",
          "type": "uint256"
        }
      ],
      "name": "Restaked",
      "type": "event"
    },
    {
      "anonymous": false,
      "inputs": [
        {
          "indexed": false,
          "internalType": "contract ISherDistributionManager",
          "name": "previous",
          "type": "address"
        },
        {
          "indexed": false,
          "internalType": "contract ISherDistributionManager",
          "name": "current",
          "type": "address"
        }
      ],
      "name": "SherDistributionManagerUpdated",
      "type": "event"
    },
    {
      "anonymous": false,
      "inputs": [
        {
          "indexed": false,
          "internalType": "uint256",
          "name": "period",
          "type": "uint256"
        }
      ],
      "name": "StakingPeriodDisabled",
      "type": "event"
    },
    {
      "anonymous": false,
      "inputs": [
        {
          "indexed": false,
          "internalType": "uint256",
          "name": "period",
          "type": "uint256"
        }
      ],
      "name": "StakingPeriodEnabled",
      "type": "event"
    },
    {
      "anonymous": false,
      "inputs": [
        {
          "indexed": true,
          "internalType": "address",
          "name": "from",
          "type": "address"
        },
        {
          "indexed": true,
          "internalType": "address",
          "name": "to",
          "type": "address"
        },
        {
          "indexed": true,
          "internalType": "uint256",
          "name": "tokenId",
          "type": "uint256"
        }
      ],
      "name": "Transfer",
      "type": "event"
    },
    {
      "anonymous": false,
      "inputs": [
        {
          "indexed": false,
          "internalType": "bytes",
          "name": "error",
          "type": "bytes"
        }
      ],
      "name": "YieldStrategyUpdateWithdrawAllError",
      "type": "event"
    },
    {
      "anonymous": false,
      "inputs": [
        {
          "indexed": false,
          "internalType": "contract IStrategyManager",
          "name": "previous",
          "type": "address"
        },
        {
          "indexed": false,
          "internalType": "contract IStrategyManager",
          "name": "current",
          "type": "address"
        }
      ],
      "name": "YieldStrategyUpdated",
      "type": "event"
    },
    {
      "inputs": [
        {
          "internalType": "address",
          "name": "to",
          "type": "address"
        },
        {
          "internalType": "uint256",
          "name": "tokenId",
          "type": "uint256"
        }
      ],
      "name": "approve",
      "outputs": [],
      "stateMutability": "nonpayable",
      "type": "function"
    },
    {
      "inputs": [
        {
          "internalType": "uint256",
          "name": "_id",
          "type": "uint256"
        }
      ],
      "name": "arbRestake",
      "outputs": [
        {
          "internalType": "uint256",
          "name": "_sher",
          "type": "uint256"
        },
        {
          "internalType": "uint256",
          "name": "_arbReward",
          "type": "uint256"
        }
      ],
      "stateMutability": "nonpayable",
      "type": "function"
    },
    {
      "inputs": [
        {
          "internalType": "address",
          "name": "owner",
          "type": "address"
        }
      ],
      "name": "balanceOf",
      "outputs": [
        {
          "internalType": "uint256",
          "name": "",
          "type": "uint256"
        }
      ],
      "stateMutability": "view",
      "type": "function"
    },
    {
      "inputs": [
        {
          "internalType": "uint256",
          "name": "_period",
          "type": "uint256"
        }
      ],
      "name": "disableStakingPeriod",
      "outputs": [],
      "stateMutability": "nonpayable",
      "type": "function"
    },
    {
      "inputs": [
        {
          "internalType": "uint256",
          "name": "_period",
          "type": "uint256"
        }
      ],
      "name": "enableStakingPeriod",
      "outputs": [],
      "stateMutability": "nonpayable",
      "type": "function"
    },
    {
      "inputs": [
        {
          "internalType": "uint256",
          "name": "tokenId",
          "type": "uint256"
        }
      ],
      "name": "getApproved",
      "outputs": [
        {
          "internalType": "address",
          "name": "",
          "type": "address"
        }
      ],
      "stateMutability": "view",
      "type": "function"
    },
    {
      "inputs": [
        {
          "internalType": "uint256",
          "name": "_amount",
          "type": "uint256"
        },
        {
          "internalType": "uint256",
          "name": "_period",
          "type": "uint256"
        },
        {
          "internalType": "address",
          "name": "_receiver",
          "type": "address"
        }
      ],
      "name": "initialStake",
      "outputs": [
        {
          "internalType": "uint256",
          "name": "_id",
          "type": "uint256"
        },
        {
          "internalType": "uint256",
          "name": "_sher",
          "type": "uint256"
        }
      ],
      "stateMutability": "nonpayable",
      "type": "function"
    },
    {
      "inputs": [
        {
          "internalType": "address",
          "name": "owner",
          "type": "address"
        },
        {
          "internalType": "address",
          "name": "operator",
          "type": "address"
        }
      ],
      "name": "isApprovedForAll",
      "outputs": [
        {
          "internalType": "bool",
          "name": "",
          "type": "bool"
        }
      ],
      "stateMutability": "view",
      "type": "function"
    },
    {
      "inputs": [
        {
          "internalType": "uint256",
          "name": "",
          "type": "uint256"
        }
      ],
      "name": "lockupEnd",
      "outputs": [
        {
          "internalType": "uint256",
          "name": "",
          "type": "uint256"
        }
      ],
      "stateMutability": "view",
      "type": "function"
    },
    {
      "inputs": [],
      "name": "name",
      "outputs": [
        {
          "internalType": "string",
          "name": "",
          "type": "string"
        }
      ],
      "stateMutability": "view",
      "type": "function"
    },
    {
      "inputs": [],
      "name": "nonStakersAddress",
      "outputs": [
        {
          "internalType": "address",
          "name": "",
          "type": "address"
        }
      ],
      "stateMutability": "view",
      "type": "function"
    },
    {
      "inputs": [],
      "name": "owner",
      "outputs": [
        {
          "internalType": "address",
          "name": "",
          "type": "address"
        }
      ],
      "stateMutability": "view",
      "type": "function"
    },
    {
      "inputs": [
        {
          "internalType": "uint256",
          "name": "tokenId",
          "type": "uint256"
        }
      ],
      "name": "ownerOf",
      "outputs": [
        {
          "internalType": "address",
          "name": "",
          "type": "address"
        }
      ],
      "stateMutability": "view",
      "type": "function"
    },
    {
      "inputs": [
        {
          "internalType": "uint256",
          "name": "_id",
          "type": "uint256"
        },
        {
          "internalType": "uint256",
          "name": "_period",
          "type": "uint256"
        }
      ],
      "name": "ownerRestake",
      "outputs": [
        {
          "internalType": "uint256",
          "name": "_sher",
          "type": "uint256"
        }
      ],
      "stateMutability": "nonpayable",
      "type": "function"
    },
    {
      "inputs": [
        {
          "internalType": "address",
          "name": "_receiver",
          "type": "address"
        },
        {
          "internalType": "uint256",
          "name": "_amount",
          "type": "uint256"
        }
      ],
      "name": "payoutClaim",
      "outputs": [],
      "stateMutability": "nonpayable",
      "type": "function"
    },
    {
      "inputs": [
        {
          "internalType": "uint256",
          "name": "_amount",
          "type": "uint256"
        },
        {
          "internalType": "uint256",
          "name": "_period",
          "type": "uint256"
        },
        {
          "internalType": "uint256",
          "name": "_id",
          "type": "uint256"
        },
        {
          "internalType": "address",
          "name": "_receiver",
          "type": "address"
        }
      ],
      "name": "pullSherReward",
      "outputs": [],
      "stateMutability": "nonpayable",
      "type": "function"
    },
    {
      "inputs": [
        {
          "internalType": "uint256",
          "name": "_id",
          "type": "uint256"
        }
      ],
      "name": "redeemNFT",
      "outputs": [
        {
          "internalType": "uint256",
          "name": "_amount",
          "type": "uint256"
        }
      ],
      "stateMutability": "nonpayable",
      "type": "function"
    },
    {
      "inputs": [],
      "name": "removeSherDistributionManager",
      "outputs": [],
      "stateMutability": "nonpayable",
      "type": "function"
    },
    {
      "inputs": [],
      "name": "renounceOwnership",
      "outputs": [],
      "stateMutability": "nonpayable",
      "type": "function"
    },
    {
      "inputs": [
        {
          "internalType": "address",
          "name": "from",
          "type": "address"
        },
        {
          "internalType": "address",
          "name": "to",
          "type": "address"
        },
        {
          "internalType": "uint256",
          "name": "tokenId",
          "type": "uint256"
        }
      ],
      "name": "safeTransferFrom",
      "outputs": [],
      "stateMutability": "nonpayable",
      "type": "function"
    },
    {
      "inputs": [
        {
          "internalType": "address",
          "name": "from",
          "type": "address"
        },
        {
          "internalType": "address",
          "name": "to",
          "type": "address"
        },
        {
          "internalType": "uint256",
          "name": "tokenId",
          "type": "uint256"
        },
        {
          "internalType": "bytes",
          "name": "_data",
          "type": "bytes"
        }
      ],
      "name": "safeTransferFrom",
      "outputs": [],
      "stateMutability": "nonpayable",
      "type": "function"
    },
    {
      "inputs": [
        {
          "internalType": "address",
          "name": "operator",
          "type": "address"
        },
        {
          "internalType": "bool",
          "name": "approved",
          "type": "bool"
        }
      ],
      "name": "setApprovalForAll",
      "outputs": [],
      "stateMutability": "nonpayable",
      "type": "function"
    },
    {
      "inputs": [
        {
          "internalType": "address",
          "name": "_a",
          "type": "address"
        }
      ],
      "name": "setNonStakersAddress",
      "outputs": [],
      "stateMutability": "nonpayable",
      "type": "function"
    },
    {
      "inputs": [
        {
          "internalType": "contract IERC20",
          "name": "_token",
          "type": "address"
        }
      ],
      "name": "setToken",
      "outputs": [],
      "stateMutability": "nonpayable",
      "type": "function"
    },
    {
      "inputs": [],
      "name": "sherDistributionManager",
      "outputs": [
        {
          "internalType": "contract ISherDistributionManager",
          "name": "",
          "type": "address"
        }
      ],
      "stateMutability": "view",
      "type": "function"
    },
    {
      "inputs": [
        {
          "internalType": "uint256",
          "name": "",
          "type": "uint256"
        }
      ],
      "name": "sherRewards",
      "outputs": [
        {
          "internalType": "uint256",
          "name": "",
          "type": "uint256"
        }
      ],
      "stateMutability": "view",
      "type": "function"
    },
    {
      "inputs": [],
      "name": "sherlockClaimManager",
      "outputs": [
        {
          "internalType": "contract ISherlockClaimManager",
          "name": "",
          "type": "address"
        }
      ],
      "stateMutability": "view",
      "type": "function"
    },
    {
      "inputs": [],
      "name": "sherlockProtocolManager",
      "outputs": [
        {
          "internalType": "contract ISherlockProtocolManager",
          "name": "",
          "type": "address"
        }
      ],
      "stateMutability": "view",
      "type": "function"
    },
    {
      "inputs": [
        {
          "internalType": "uint256",
          "name": "",
          "type": "uint256"
        }
      ],
      "name": "stakingPeriods",
      "outputs": [
        {
          "internalType": "bool",
          "name": "",
          "type": "bool"
        }
      ],
      "stateMutability": "view",
      "type": "function"
    },
    {
      "inputs": [
        {
          "internalType": "bytes4",
          "name": "interfaceId",
          "type": "bytes4"
        }
      ],
      "name": "supportsInterface",
      "outputs": [
        {
          "internalType": "bool",
          "name": "",
          "type": "bool"
        }
      ],
      "stateMutability": "view",
      "type": "function"
    },
    {
      "inputs": [],
      "name": "symbol",
      "outputs": [
        {
          "internalType": "string",
          "name": "",
          "type": "string"
        }
      ],
      "stateMutability": "view",
      "type": "function"
    },
    {
      "inputs": [
        {
          "internalType": "uint256",
          "name": "_tokenID",
          "type": "uint256"
        }
      ],
      "name": "tokenBalanceOf",
      "outputs": [
        {
          "internalType": "uint256",
          "name": "",
          "type": "uint256"
        }
      ],
      "stateMutability": "view",
      "type": "function"
    },
    {
      "inputs": [
        {
          "internalType": "address",
          "name": "_staker",
          "type": "address"
        }
      ],
      "name": "tokenBalanceOfAddress",
      "outputs": [
        {
          "internalType": "uint256",
          "name": "",
          "type": "uint256"
        }
      ],
      "stateMutability": "view",
      "type": "function"
    },
    {
      "inputs": [
        {
          "internalType": "uint256",
          "name": "tokenId",
          "type": "uint256"
        }
      ],
      "name": "tokenURI",
      "outputs": [
        {
          "internalType": "string",
          "name": "",
          "type": "string"
        }
      ],
      "stateMutability": "view",
      "type": "function"
    },
    {
      "inputs": [],
      "name": "totalTokenBalanceStakers",
      "outputs": [
        {
          "internalType": "uint256",
          "name": "",
          "type": "uint256"
        }
      ],
      "stateMutability": "view",
      "type": "function"
    },
    {
      "inputs": [
        {
          "internalType": "address",
          "name": "from",
          "type": "address"
        },
        {
          "internalType": "address",
          "name": "to",
          "type": "address"
        },
        {
          "internalType": "uint256",
          "name": "tokenId",
          "type": "uint256"
        }
      ],
      "name": "transferFrom",
      "outputs": [],
      "stateMutability": "nonpayable",
      "type": "function"
    },
    {
      "inputs": [
        {
          "internalType": "address",
          "name": "newOwner",
          "type": "address"
        }
      ],
      "name": "transferOwnership",
      "outputs": [],
      "stateMutability": "nonpayable",
      "type": "function"
    },
    {
      "inputs": [
        {
          "internalType": "address",
          "name": "_nonStakers",
          "type": "address"
        }
      ],
      "name": "updateNonStakersAddress",
      "outputs": [],
      "stateMutability": "nonpayable",
      "type": "function"
    },
    {
      "inputs": [
        {
          "internalType": "contract ISherDistributionManager",
          "name": "_manager",
          "type": "address"
        }
      ],
      "name": "updateSherDistributionManager",
      "outputs": [],
      "stateMutability": "nonpayable",
      "type": "function"
    },
    {
      "inputs": [
        {
          "internalType": "contract ISherlockClaimManager",
          "name": "_sherlockClaimManager",
          "type": "address"
        }
      ],
      "name": "updateSherlockClaimManager",
      "outputs": [],
      "stateMutability": "nonpayable",
      "type": "function"
    },
    {
      "inputs": [
        {
          "internalType": "contract ISherlockProtocolManager",
          "name": "_protocolManager",
          "type": "address"
        }
      ],
      "name": "updateSherlockProtocolManager",
      "outputs": [],
      "stateMutability": "nonpayable",
      "type": "function"
    },
    {
      "inputs": [
        {
          "internalType": "contract IStrategyManager",
          "name": "_yieldStrategy",
          "type": "address"
        }
      ],
      "name": "updateYieldStrategy",
      "outputs": [],
      "stateMutability": "nonpayable",
      "type": "function"
    },
    {
      "inputs": [
        {
          "internalType": "uint256",
          "name": "_id",
          "type": "uint256"
        }
      ],
      "name": "viewRewardForArbRestake",
      "outputs": [
        {
          "internalType": "uint256",
          "name": "",
          "type": "uint256"
        }
      ],
      "stateMutability": "view",
      "type": "function"
    },
    {
      "inputs": [],
      "name": "yieldStrategy",
      "outputs": [
        {
          "internalType": "contract IStrategyManager",
          "name": "",
          "type": "address"
        }
      ],
      "stateMutability": "view",
      "type": "function"
    },
    {
      "inputs": [
        {
          "internalType": "uint256",
          "name": "_amount",
          "type": "uint256"
        }
      ],
      "name": "yieldStrategyDeposit",
      "outputs": [],
      "stateMutability": "nonpayable",
      "type": "function"
    },
    {
      "inputs": [
        {
          "internalType": "uint256",
          "name": "_amount",
          "type": "uint256"
        }
      ],
      "name": "yieldStrategyWithdraw",
      "outputs": [],
      "stateMutability": "nonpayable",
      "type": "function"
    },
    {
      "inputs": [],
      "name": "yieldStrategyWithdrawAll",
      "outputs": [],
      "stateMutability": "nonpayable",
      "type": "function"
    }
  ],
  "bytecode": "0x60806040523480156200001157600080fd5b5060408051808201825260048152636d6f636b60e01b6020808301918252835180850190945260018452606d60f81b9084015281519192916200005791600091620000e6565b5080516200006d906001906020840190620000e6565b5050506200008a620000846200009060201b60201c565b62000094565b620001c9565b3390565b600680546001600160a01b038381166001600160a01b0319831681179093556040519116919082907f8be0079c531659141344cd1fd0a4f28419497f9722a3daafe3b4186f6b6457e090600090a35050565b828054620000f4906200018c565b90600052602060002090601f01602090048101928262000118576000855562000163565b82601f106200013357805160ff191683800117855562000163565b8280016001018555821562000163579182015b828111156200016357825182559160200191906001019062000146565b506200017192915062000175565b5090565b5b8082111562000171576000815560010162000176565b600181811c90821680620001a157607f821691505b60208210811415620001c357634e487b7160e01b600052602260045260246000fd5b50919050565b61264e80620001d96000396000f3fe608060405234801561001057600080fd5b50600436106103155760003560e01c80636733643f116101a7578063a22cb465116100ee578063c87b56dd11610097578063e68b775711610071578063e68b775714610722578063e985e9c514610730578063f2fde38b1461077957600080fd5b8063c87b56dd146106a7578063d2b15286146106ba578063e28df53d1461070f57600080fd5b8063b88d4fde116100c8578063b88d4fde14610661578063bb3f372414610674578063bf362cb91461068757600080fd5b8063a22cb4651461062e578063abb8129814610641578063ac96058f1461046757600080fd5b80638da5cb5b1161015057806396a7392d1161012a57806396a7392d146105ee578063975a8b021461060e57806398ec930f1461046757600080fd5b80638da5cb5b146105b25780639047acef146105d057806395d89b41146105e657600080fd5b8063756921161161018157806375692116146104bb578063863a43d51461056f5780638af92c931461058f57600080fd5b80636733643f1461046757806370a0823114610554578063715018a61461056757600080fd5b80631a9b9c771161026b57806356e24d371161021457806362409011116101ee578063624090111461050f5780636352211e146105215780636422c6291461053457600080fd5b806356e24d37146104e957806358dc2cdb146103575780635ea09ae7146104fc57600080fd5b806330179ceb1161024557806330179ceb146104bb57806342842e0e146104c357806354972fc3146104d657600080fd5b80631a9b9c771461046757806323b872dd1461047a5780632f5cf62b1461048d57600080fd5b80630f2ecba4116102cd57806313f4dd25116102a757806313f4dd2514610357578063144fa6d71461040a5780631878fbf31461045f57600080fd5b80630f2ecba4146103c657806310099abf146103d457806313f14fee146103ea57600080fd5b806307441979116102fe5780630744197914610357578063081812fc14610379578063095ea7b3146103b157600080fd5b806301ffc9a71461031a57806306fdde0314610342575b600080fd5b61032d610328366004612059565b61078c565b60405190151581526020015b60405180910390f35b61034a610871565b60405161033991906120ec565b61036b6103653660046120ff565b50600090565b604051908152602001610339565b61038c6103873660046120ff565b610903565b60405173ffffffffffffffffffffffffffffffffffffffff9091168152602001610339565b6103c46103bf36600461213a565b6109e2565b005b61036b610365366004612166565b61036b6103e2366004612183565b600092915050565b600a5461038c9073ffffffffffffffffffffffffffffffffffffffff1681565b6103c4610418366004612166565b600f80547fffffffffffffffffffffffff00000000000000000000000000000000000000001673ffffffffffffffffffffffffffffffffffffffff92909216919091179055565b61036b610b6f565b6103c46104753660046120ff565b610c07565b6103c46104883660046121a5565b610c8b565b6104a661049b3660046121e6565b600080935093915050565b60408051928352602083019190915201610339565b6103c4610d2c565b6103c46104d13660046121a5565b610daf565b6103c46104e4366004612166565b610dca565b6103c46104f7366004612166565b610e4b565b6103c461050a366004612166565b610f13565b6103c461051d36600461213a565b5050565b61038c61052f3660046120ff565b610fdb565b61036b6105423660046120ff565b60096020526000908152604090205481565b61036b610562366004612166565b61108d565b6103c461115b565b600d5461038c9073ffffffffffffffffffffffffffffffffffffffff1681565b61032d61059d3660046120ff565b60076020526000908152604090205460ff1681565b60065473ffffffffffffffffffffffffffffffffffffffff1661038c565b6104a66105de3660046120ff565b600080915091565b61034a6111e6565b600c5461038c9073ffffffffffffffffffffffffffffffffffffffff1681565b600e5461038c9073ffffffffffffffffffffffffffffffffffffffff1681565b6103c461063c36600461221f565b6111f5565b600b5461038c9073ffffffffffffffffffffffffffffffffffffffff1681565b6103c461066f36600461228c565b61130c565b6103c4610682366004612166565b6113b4565b61036b6106953660046120ff565b60086020526000908152604090205481565b61034a6106b53660046120ff565b61147c565b6103c46106c8366004612166565b600c80547fffffffffffffffffffffffff00000000000000000000000000000000000000001673ffffffffffffffffffffffffffffffffffffffff92909216919091179055565b6103c461071d36600461238a565b611599565b6103c4610475366004612166565b61032d61073e3660046123cb565b73ffffffffffffffffffffffffffffffffffffffff918216600090815260056020908152604080832093909416825291909152205460ff1690565b6103c4610787366004612166565b61164b565b60007fffffffff0000000000000000000000000000000000000000000000000000000082167f80ac58cd00000000000000000000000000000000000000000000000000000000148061081f57507fffffffff0000000000000000000000000000000000000000000000000000000082167f5b5e139f00000000000000000000000000000000000000000000000000000000145b8061086b57507f01ffc9a7000000000000000000000000000000000000000000000000000000007fffffffff000000000000000000000000000000000000000000000000000000008316145b92915050565b606060008054610880906123f9565b80601f01602080910402602001604051908101604052809291908181526020018280546108ac906123f9565b80156108f95780601f106108ce576101008083540402835291602001916108f9565b820191906000526020600020905b8154815290600101906020018083116108dc57829003601f168201915b5050505050905090565b60008181526002602052604081205473ffffffffffffffffffffffffffffffffffffffff166109b9576040517f08c379a000000000000000000000000000000000000000000000000000000000815260206004820152602c60248201527f4552433732313a20617070726f76656420717565727920666f72206e6f6e657860448201527f697374656e7420746f6b656e000000000000000000000000000000000000000060648201526084015b60405180910390fd5b5060009081526004602052604090205473ffffffffffffffffffffffffffffffffffffffff1690565b60006109ed82610fdb565b90508073ffffffffffffffffffffffffffffffffffffffff168373ffffffffffffffffffffffffffffffffffffffff161415610aab576040517f08c379a000000000000000000000000000000000000000000000000000000000815260206004820152602160248201527f4552433732313a20617070726f76616c20746f2063757272656e74206f776e6560448201527f720000000000000000000000000000000000000000000000000000000000000060648201526084016109b0565b3373ffffffffffffffffffffffffffffffffffffffff82161480610ad45750610ad4813361073e565b610b60576040517f08c379a000000000000000000000000000000000000000000000000000000000815260206004820152603860248201527f4552433732313a20617070726f76652063616c6c6572206973206e6f74206f7760448201527f6e6572206e6f7220617070726f76656420666f7220616c6c000000000000000060648201526084016109b0565b610b6a8383611778565b505050565b600f546040517f70a0823100000000000000000000000000000000000000000000000000000000815230600482015260009173ffffffffffffffffffffffffffffffffffffffff16906370a0823190602401602060405180830381865afa158015610bde573d6000803e3d6000fd5b505050506040513d601f19601f82011682018060405250810190610c02919061244d565b905090565b60065473ffffffffffffffffffffffffffffffffffffffff163314610c88576040517f08c379a000000000000000000000000000000000000000000000000000000000815260206004820181905260248201527f4f776e61626c653a2063616c6c6572206973206e6f7420746865206f776e657260448201526064016109b0565b50565b610c953382611818565b610d21576040517f08c379a000000000000000000000000000000000000000000000000000000000815260206004820152603160248201527f4552433732313a207472616e736665722063616c6c6572206973206e6f74206f60448201527f776e6572206e6f7220617070726f76656400000000000000000000000000000060648201526084016109b0565b610b6a838383611988565b60065473ffffffffffffffffffffffffffffffffffffffff163314610dad576040517f08c379a000000000000000000000000000000000000000000000000000000000815260206004820181905260248201527f4f776e61626c653a2063616c6c6572206973206e6f7420746865206f776e657260448201526064016109b0565b565b610b6a8383836040518060200160405280600081525061130c565b60065473ffffffffffffffffffffffffffffffffffffffff1633146106c8576040517f08c379a000000000000000000000000000000000000000000000000000000000815260206004820181905260248201527f4f776e61626c653a2063616c6c6572206973206e6f7420746865206f776e657260448201526064016109b0565b60065473ffffffffffffffffffffffffffffffffffffffff163314610ecc576040517f08c379a000000000000000000000000000000000000000000000000000000000815260206004820181905260248201527f4f776e61626c653a2063616c6c6572206973206e6f7420746865206f776e657260448201526064016109b0565b600b80547fffffffffffffffffffffffff00000000000000000000000000000000000000001673ffffffffffffffffffffffffffffffffffffffff92909216919091179055565b60065473ffffffffffffffffffffffffffffffffffffffff163314610f94576040517f08c379a000000000000000000000000000000000000000000000000000000000815260206004820181905260248201527f4f776e61626c653a2063616c6c6572206973206e6f7420746865206f776e657260448201526064016109b0565b600d80547fffffffffffffffffffffffff00000000000000000000000000000000000000001673ffffffffffffffffffffffffffffffffffffffff92909216919091179055565b60008181526002602052604081205473ffffffffffffffffffffffffffffffffffffffff168061086b576040517f08c379a000000000000000000000000000000000000000000000000000000000815260206004820152602960248201527f4552433732313a206f776e657220717565727920666f72206e6f6e657869737460448201527f656e7420746f6b656e000000000000000000000000000000000000000000000060648201526084016109b0565b600073ffffffffffffffffffffffffffffffffffffffff8216611132576040517f08c379a000000000000000000000000000000000000000000000000000000000815260206004820152602a60248201527f4552433732313a2062616c616e636520717565727920666f7220746865207a6560448201527f726f20616464726573730000000000000000000000000000000000000000000060648201526084016109b0565b5073ffffffffffffffffffffffffffffffffffffffff1660009081526003602052604090205490565b60065473ffffffffffffffffffffffffffffffffffffffff1633146111dc576040517f08c379a000000000000000000000000000000000000000000000000000000000815260206004820181905260248201527f4f776e61626c653a2063616c6c6572206973206e6f7420746865206f776e657260448201526064016109b0565b610dad6000611bef565b606060018054610880906123f9565b73ffffffffffffffffffffffffffffffffffffffff8216331415611275576040517f08c379a000000000000000000000000000000000000000000000000000000000815260206004820152601960248201527f4552433732313a20617070726f766520746f2063616c6c65720000000000000060448201526064016109b0565b33600081815260056020908152604080832073ffffffffffffffffffffffffffffffffffffffff87168085529083529281902080547fffffffffffffffffffffffffffffffffffffffffffffffffffffffffffffff001686151590811790915590519081529192917f17307eab39ab6107e8899845ad3d59bd9653f200f220920489ca2b5937696c31910160405180910390a35050565b6113163383611818565b6113a2576040517f08c379a000000000000000000000000000000000000000000000000000000000815260206004820152603160248201527f4552433732313a207472616e736665722063616c6c6572206973206e6f74206f60448201527f776e6572206e6f7220617070726f76656400000000000000000000000000000060648201526084016109b0565b6113ae84848484611c66565b50505050565b60065473ffffffffffffffffffffffffffffffffffffffff163314611435576040517f08c379a000000000000000000000000000000000000000000000000000000000815260206004820181905260248201527f4f776e61626c653a2063616c6c6572206973206e6f7420746865206f776e657260448201526064016109b0565b600e80547fffffffffffffffffffffffff00000000000000000000000000000000000000001673ffffffffffffffffffffffffffffffffffffffff92909216919091179055565b60008181526002602052604090205460609073ffffffffffffffffffffffffffffffffffffffff16611530576040517f08c379a000000000000000000000000000000000000000000000000000000000815260206004820152602f60248201527f4552433732314d657461646174613a2055524920717565727920666f72206e6f60448201527f6e6578697374656e7420746f6b656e000000000000000000000000000000000060648201526084016109b0565b600061154760408051602081019091526000815290565b905060008151116115675760405180602001604052806000815250611592565b8061157184611d09565b604051602001611582929190612466565b6040516020818303038152906040525b9392505050565b600b546040517fd353b94c00000000000000000000000000000000000000000000000000000000815260048101869052602481018590526044810184905273ffffffffffffffffffffffffffffffffffffffff83811660648301529091169063d353b94c906084016020604051808303816000875af1158015611620573d6000803e3d6000fd5b505050506040513d601f19601f82011682018060405250810190611644919061244d565b5050505050565b60065473ffffffffffffffffffffffffffffffffffffffff1633146116cc576040517f08c379a000000000000000000000000000000000000000000000000000000000815260206004820181905260248201527f4f776e61626c653a2063616c6c6572206973206e6f7420746865206f776e657260448201526064016109b0565b73ffffffffffffffffffffffffffffffffffffffff811661176f576040517f08c379a000000000000000000000000000000000000000000000000000000000815260206004820152602660248201527f4f776e61626c653a206e6577206f776e657220697320746865207a65726f206160448201527f646472657373000000000000000000000000000000000000000000000000000060648201526084016109b0565b610c8881611bef565b600081815260046020526040902080547fffffffffffffffffffffffff00000000000000000000000000000000000000001673ffffffffffffffffffffffffffffffffffffffff841690811790915581906117d282610fdb565b73ffffffffffffffffffffffffffffffffffffffff167f8c5be1e5ebec7d5bd14f71427d1e84f3dd0314c0f7b2291e5b200ac8c7c3b92560405160405180910390a45050565b60008181526002602052604081205473ffffffffffffffffffffffffffffffffffffffff166118c9576040517f08c379a000000000000000000000000000000000000000000000000000000000815260206004820152602c60248201527f4552433732313a206f70657261746f7220717565727920666f72206e6f6e657860448201527f697374656e7420746f6b656e000000000000000000000000000000000000000060648201526084016109b0565b60006118d483610fdb565b90508073ffffffffffffffffffffffffffffffffffffffff168473ffffffffffffffffffffffffffffffffffffffff16148061194357508373ffffffffffffffffffffffffffffffffffffffff1661192b84610903565b73ffffffffffffffffffffffffffffffffffffffff16145b80611980575073ffffffffffffffffffffffffffffffffffffffff80821660009081526005602090815260408083209388168352929052205460ff165b949350505050565b8273ffffffffffffffffffffffffffffffffffffffff166119a882610fdb565b73ffffffffffffffffffffffffffffffffffffffff1614611a4b576040517f08c379a000000000000000000000000000000000000000000000000000000000815260206004820152602960248201527f4552433732313a207472616e73666572206f6620746f6b656e2074686174206960448201527f73206e6f74206f776e000000000000000000000000000000000000000000000060648201526084016109b0565b73ffffffffffffffffffffffffffffffffffffffff8216611aed576040517f08c379a0000000000000000000000000000000000000000000000000000000008152602060048201526024808201527f4552433732313a207472616e7366657220746f20746865207a65726f2061646460448201527f726573730000000000000000000000000000000000000000000000000000000060648201526084016109b0565b611af8600082611778565b73ffffffffffffffffffffffffffffffffffffffff83166000908152600360205260408120805460019290611b2e9084906124c4565b909155505073ffffffffffffffffffffffffffffffffffffffff82166000908152600360205260408120805460019290611b699084906124db565b909155505060008181526002602052604080822080547fffffffffffffffffffffffff00000000000000000000000000000000000000001673ffffffffffffffffffffffffffffffffffffffff86811691821790925591518493918716917fddf252ad1be2c89b69c2b068fc378daa952ba7f163c4a11628f55a4df523b3ef91a4505050565b6006805473ffffffffffffffffffffffffffffffffffffffff8381167fffffffffffffffffffffffff0000000000000000000000000000000000000000831681179093556040519116919082907f8be0079c531659141344cd1fd0a4f28419497f9722a3daafe3b4186f6b6457e090600090a35050565b611c71848484611988565b611c7d84848484611e3b565b6113ae576040517f08c379a000000000000000000000000000000000000000000000000000000000815260206004820152603260248201527f4552433732313a207472616e7366657220746f206e6f6e20455243373231526560448201527f63656976657220696d706c656d656e746572000000000000000000000000000060648201526084016109b0565b606081611d4957505060408051808201909152600181527f3000000000000000000000000000000000000000000000000000000000000000602082015290565b8160005b8115611d735780611d5d816124f3565b9150611d6c9050600a8361255b565b9150611d4d565b60008167ffffffffffffffff811115611d8e57611d8e61225d565b6040519080825280601f01601f191660200182016040528015611db8576020820181803683370190505b5090505b841561198057611dcd6001836124c4565b9150611dda600a8661256f565b611de59060306124db565b60f81b818381518110611dfa57611dfa612583565b60200101907effffffffffffffffffffffffffffffffffffffffffffffffffffffffffffff1916908160001a905350611e34600a8661255b565b9450611dbc565b600073ffffffffffffffffffffffffffffffffffffffff84163b15612020576040517f150b7a0200000000000000000000000000000000000000000000000000000000815273ffffffffffffffffffffffffffffffffffffffff85169063150b7a0290611eb29033908990889088906004016125b2565b6020604051808303816000875af1925050508015611f0b575060408051601f3d9081017fffffffffffffffffffffffffffffffffffffffffffffffffffffffffffffffe0168201909252611f08918101906125fb565b60015b611fd5573d808015611f39576040519150601f19603f3d011682016040523d82523d6000602084013e611f3e565b606091505b508051611fcd576040517f08c379a000000000000000000000000000000000000000000000000000000000815260206004820152603260248201527f4552433732313a207472616e7366657220746f206e6f6e20455243373231526560448201527f63656976657220696d706c656d656e746572000000000000000000000000000060648201526084016109b0565b805181602001fd5b7fffffffff00000000000000000000000000000000000000000000000000000000167f150b7a0200000000000000000000000000000000000000000000000000000000149050611980565b506001949350505050565b7fffffffff0000000000000000000000000000000000000000000000000000000081168114610c8857600080fd5b60006020828403121561206b57600080fd5b81356115928161202b565b60005b83811015612091578181015183820152602001612079565b838111156113ae5750506000910152565b600081518084526120ba816020860160208601612076565b601f017fffffffffffffffffffffffffffffffffffffffffffffffffffffffffffffffe0169290920160200192915050565b60208152600061159260208301846120a2565b60006020828403121561211157600080fd5b5035919050565b73ffffffffffffffffffffffffffffffffffffffff81168114610c8857600080fd5b6000806040838503121561214d57600080fd5b823561215881612118565b946020939093013593505050565b60006020828403121561217857600080fd5b813561159281612118565b6000806040838503121561219657600080fd5b50508035926020909101359150565b6000806000606084860312156121ba57600080fd5b83356121c581612118565b925060208401356121d581612118565b929592945050506040919091013590565b6000806000606084860312156121fb57600080fd5b8335925060208401359150604084013561221481612118565b809150509250925092565b6000806040838503121561223257600080fd5b823561223d81612118565b91506020830135801515811461225257600080fd5b809150509250929050565b7f4e487b7100000000000000000000000000000000000000000000000000000000600052604160045260246000fd5b600080600080608085870312156122a257600080fd5b84356122ad81612118565b935060208501356122bd81612118565b925060408501359150606085013567ffffffffffffffff808211156122e157600080fd5b818701915087601f8301126122f557600080fd5b8135818111156123075761230761225d565b604051601f82017fffffffffffffffffffffffffffffffffffffffffffffffffffffffffffffffe0908116603f0116810190838211818310171561234d5761234d61225d565b816040528281528a602084870101111561236657600080fd5b82602086016020830137600060208483010152809550505050505092959194509250565b600080600080608085870312156123a057600080fd5b84359350602085013592506040850135915060608501356123c081612118565b939692955090935050565b600080604083850312156123de57600080fd5b82356123e981612118565b9150602083013561225281612118565b600181811c9082168061240d57607f821691505b60208210811415612447577f4e487b7100000000000000000000000000000000000000000000000000000000600052602260045260246000fd5b50919050565b60006020828403121561245f57600080fd5b5051919050565b60008351612478818460208801612076565b83519083019061248c818360208801612076565b01949350505050565b7f4e487b7100000000000000000000000000000000000000000000000000000000600052601160045260246000fd5b6000828210156124d6576124d6612495565b500390565b600082198211156124ee576124ee612495565b500190565b60007fffffffffffffffffffffffffffffffffffffffffffffffffffffffffffffffff82141561252557612525612495565b5060010190565b7f4e487b7100000000000000000000000000000000000000000000000000000000600052601260045260246000fd5b60008261256a5761256a61252c565b500490565b60008261257e5761257e61252c565b500690565b7f4e487b7100000000000000000000000000000000000000000000000000000000600052603260045260246000fd5b600073ffffffffffffffffffffffffffffffffffffffff8087168352808616602084015250836040830152608060608301526125f160808301846120a2565b9695505050505050565b60006020828403121561260d57600080fd5b81516115928161202b56fea26469706673582212204820b58dac824f7fc5afd394f52ac46f0bb59be40031d5fd73a00281ae95f1e264736f6c634300080a0033",
  "linkReferences": {},
  "deployedLinkReferences": {}
}