{
  "_format": "hh-sol-artifact-1",
  "contractName": "SherlockClaimManagerTest",
  "sourceName": "contracts/test/SherlockClaimManagerTest.sol",
  "abi": [
    {
      "inputs": [
        {
          "internalType": "address",
          "name": "_umaho",
          "type": "address"
        },
        {
          "internalType": "address",
          "name": "_spcc",
          "type": "address"
        }
      ],
      "stateMutability": "nonpayable",
      "type": "constructor"
    },
    {
      "inputs": [],
      "name": "ClaimActive",
      "type": "error"
    },
    {
      "inputs": [],
      "name": "InvalidArgument",
      "type": "error"
    },
    {
      "inputs": [],
      "name": "InvalidConditions",
      "type": "error"
    },
    {
      "inputs": [],
      "name": "InvalidSender",
      "type": "error"
    },
    {
      "inputs": [],
      "name": "InvalidState",
      "type": "error"
    },
    {
      "inputs": [],
      "name": "ZeroArgument",
      "type": "error"
    },
    {
      "anonymous": false,
      "inputs": [
        {
          "indexed": false,
          "internalType": "contract ISherlockClaimManagerCallbackReceiver",
          "name": "callback",
          "type": "address"
        }
      ],
      "name": "CallbackAdded",
      "type": "event"
    },
    {
      "anonymous": false,
      "inputs": [
        {
          "indexed": false,
          "internalType": "contract ISherlockClaimManagerCallbackReceiver",
          "name": "callback",
          "type": "address"
        }
      ],
      "name": "CallbackRemoved",
      "type": "event"
    },
    {
      "anonymous": false,
      "inputs": [
        {
          "indexed": false,
          "internalType": "uint256",
          "name": "claimID",
          "type": "uint256"
        },
        {
          "indexed": true,
          "internalType": "bytes32",
          "name": "protocol",
          "type": "bytes32"
        },
        {
          "indexed": false,
          "internalType": "uint256",
          "name": "amount",
          "type": "uint256"
        },
        {
          "indexed": false,
          "internalType": "address",
          "name": "receiver",
          "type": "address"
        },
        {
          "indexed": false,
          "internalType": "bool",
          "name": "previousCoverageUsed",
          "type": "bool"
        }
      ],
      "name": "ClaimCreated",
      "type": "event"
    },
    {
      "anonymous": false,
      "inputs": [
        {
          "indexed": false,
          "internalType": "uint256",
          "name": "claimID",
          "type": "uint256"
        }
      ],
      "name": "ClaimHalted",
      "type": "event"
    },
    {
      "anonymous": false,
      "inputs": [
        {
          "indexed": false,
          "internalType": "uint256",
          "name": "claimID",
          "type": "uint256"
        },
        {
          "indexed": false,
          "internalType": "address",
          "name": "receiver",
          "type": "address"
        },
        {
          "indexed": false,
          "internalType": "uint256",
          "name": "amount",
          "type": "uint256"
        }
      ],
      "name": "ClaimPayout",
      "type": "event"
    },
    {
      "anonymous": false,
      "inputs": [
        {
          "indexed": true,
          "internalType": "uint256",
          "name": "claimID",
          "type": "uint256"
        },
        {
          "indexed": false,
          "internalType": "enum ISherlockClaimManager.State",
          "name": "previousState",
          "type": "uint8"
        },
        {
          "indexed": false,
          "internalType": "enum ISherlockClaimManager.State",
          "name": "currentState",
          "type": "uint8"
        }
      ],
      "name": "ClaimStatusChanged",
      "type": "event"
    },
    {
      "anonymous": false,
      "inputs": [
        {
          "indexed": true,
          "internalType": "address",
          "name": "previousOwner",
          "type": "address"
        },
        {
          "indexed": true,
          "internalType": "address",
          "name": "newOwner",
          "type": "address"
        }
      ],
      "name": "OwnershipTransferred",
      "type": "event"
    },
    {
      "anonymous": false,
      "inputs": [
        {
          "indexed": false,
          "internalType": "address",
          "name": "account",
          "type": "address"
        }
      ],
      "name": "Paused",
      "type": "event"
    },
    {
      "anonymous": false,
      "inputs": [
        {
          "indexed": false,
          "internalType": "contract ISherlock",
          "name": "sherlock",
          "type": "address"
        }
      ],
      "name": "SherlockCoreSet",
      "type": "event"
    },
    {
      "anonymous": false,
      "inputs": [],
      "name": "UMAHORenounced",
      "type": "event"
    },
    {
      "anonymous": false,
      "inputs": [
        {
          "indexed": false,
          "internalType": "address",
          "name": "account",
          "type": "address"
        }
      ],
      "name": "Unpaused",
      "type": "event"
    },
    {
      "inputs": [],
      "name": "ESCALATE_TIME",
      "outputs": [
        {
          "internalType": "uint256",
          "name": "",
          "type": "uint256"
        }
      ],
      "stateMutability": "view",
      "type": "function"
    },
    {
      "inputs": [],
      "name": "MAX_CALLBACKS",
      "outputs": [
        {
          "internalType": "uint256",
          "name": "",
          "type": "uint256"
        }
      ],
      "stateMutability": "view",
      "type": "function"
    },
    {
      "inputs": [],
      "name": "SPCC_TIME",
      "outputs": [
        {
          "internalType": "uint256",
          "name": "",
          "type": "uint256"
        }
      ],
      "stateMutability": "view",
      "type": "function"
    },
    {
      "inputs": [],
      "name": "TOKEN",
      "outputs": [
        {
          "internalType": "contract IERC20",
          "name": "",
          "type": "address"
        }
      ],
      "stateMutability": "view",
      "type": "function"
    },
    {
      "inputs": [],
      "name": "UMA",
      "outputs": [
        {
          "internalType": "contract SkinnyOptimisticOracleInterface",
          "name": "",
          "type": "address"
        }
      ],
      "stateMutability": "view",
      "type": "function"
    },
    {
      "inputs": [],
      "name": "UMAHO_TIME",
      "outputs": [
        {
          "internalType": "uint256",
          "name": "",
          "type": "uint256"
        }
      ],
      "stateMutability": "view",
      "type": "function"
    },
    {
      "inputs": [],
      "name": "UMA_IDENTIFIER",
      "outputs": [
        {
          "internalType": "bytes32",
          "name": "",
          "type": "bytes32"
        }
      ],
      "stateMutability": "view",
      "type": "function"
    },
    {
      "inputs": [
        {
          "internalType": "uint256",
          "name": "_claimID",
          "type": "uint256"
        },
        {
          "internalType": "uint256",
          "name": "_updated",
          "type": "uint256"
        }
      ],
      "name": "_setClaimUpdate",
      "outputs": [],
      "stateMutability": "nonpayable",
      "type": "function"
    },
    {
      "inputs": [
        {
          "internalType": "contract ISherlockClaimManagerCallbackReceiver",
          "name": "_callback",
          "type": "address"
        }
      ],
      "name": "addCallback",
      "outputs": [],
      "stateMutability": "nonpayable",
      "type": "function"
    },
    {
      "inputs": [
        {
          "internalType": "uint256",
          "name": "_claimID",
          "type": "uint256"
        }
      ],
      "name": "claim",
      "outputs": [
        {
          "components": [
            {
              "internalType": "uint256",
              "name": "created",
              "type": "uint256"
            },
            {
              "internalType": "uint256",
              "name": "updated",
              "type": "uint256"
            },
            {
              "internalType": "address",
              "name": "initiator",
              "type": "address"
            },
            {
              "internalType": "bytes32",
              "name": "protocol",
              "type": "bytes32"
            },
            {
              "internalType": "uint256",
              "name": "amount",
              "type": "uint256"
            },
            {
              "internalType": "address",
              "name": "receiver",
              "type": "address"
            },
            {
              "internalType": "uint32",
              "name": "timestamp",
              "type": "uint32"
            },
            {
              "internalType": "enum ISherlockClaimManager.State",
              "name": "state",
              "type": "uint8"
            },
            {
              "internalType": "bytes",
              "name": "ancillaryData",
              "type": "bytes"
            }
          ],
          "internalType": "struct ISherlockClaimManager.Claim",
          "name": "claim_",
          "type": "tuple"
        }
      ],
      "stateMutability": "view",
      "type": "function"
    },
    {
      "inputs": [
        {
          "internalType": "uint256",
          "name": "",
          "type": "uint256"
        }
      ],
      "name": "claimCallbacks",
      "outputs": [
        {
          "internalType": "contract ISherlockClaimManagerCallbackReceiver",
          "name": "",
          "type": "address"
        }
      ],
      "stateMutability": "view",
      "type": "function"
    },
    {
      "inputs": [
        {
          "internalType": "bytes32",
          "name": "_protocol",
          "type": "bytes32"
        },
        {
          "internalType": "uint256",
          "name": "_claimID",
          "type": "uint256"
        }
      ],
      "name": "cleanUp",
      "outputs": [],
      "stateMutability": "nonpayable",
      "type": "function"
    },
    {
      "inputs": [
        {
          "internalType": "uint256",
          "name": "_claimID",
          "type": "uint256"
        },
        {
          "internalType": "uint256",
          "name": "_amount",
          "type": "uint256"
        }
      ],
      "name": "escalate",
      "outputs": [],
      "stateMutability": "nonpayable",
      "type": "function"
    },
    {
      "inputs": [
        {
          "internalType": "uint256",
          "name": "_claimID",
          "type": "uint256"
        }
      ],
      "name": "executeHalt",
      "outputs": [],
      "stateMutability": "nonpayable",
      "type": "function"
    },
    {
      "inputs": [
        {
          "internalType": "enum ISherlockClaimManager.State",
          "name": "_oldState",
          "type": "uint8"
        }
      ],
      "name": "isCleanupState",
      "outputs": [
        {
          "internalType": "bool",
          "name": "",
          "type": "bool"
        }
      ],
      "stateMutability": "view",
      "type": "function"
    },
    {
      "inputs": [
        {
          "internalType": "enum ISherlockClaimManager.State",
          "name": "_oldState",
          "type": "uint8"
        },
        {
          "internalType": "uint256",
          "name": "updated",
          "type": "uint256"
        }
      ],
      "name": "isEscalateState",
      "outputs": [
        {
          "internalType": "bool",
          "name": "",
          "type": "bool"
        }
      ],
      "stateMutability": "view",
      "type": "function"
    },
    {
      "inputs": [
        {
          "internalType": "enum ISherlockClaimManager.State",
          "name": "_oldState",
          "type": "uint8"
        },
        {
          "internalType": "uint256",
          "name": "updated",
          "type": "uint256"
        }
      ],
      "name": "isPayoutState",
      "outputs": [
        {
          "internalType": "bool",
          "name": "",
          "type": "bool"
        }
      ],
      "stateMutability": "view",
      "type": "function"
    },
    {
      "inputs": [],
      "name": "owner",
      "outputs": [
        {
          "internalType": "address",
          "name": "",
          "type": "address"
        }
      ],
      "stateMutability": "view",
      "type": "function"
    },
    {
      "inputs": [],
      "name": "pause",
      "outputs": [],
      "stateMutability": "nonpayable",
      "type": "function"
    },
    {
      "inputs": [],
      "name": "paused",
      "outputs": [
        {
          "internalType": "bool",
          "name": "",
          "type": "bool"
        }
      ],
      "stateMutability": "view",
      "type": "function"
    },
    {
      "inputs": [
        {
          "internalType": "uint256",
          "name": "_claimID",
          "type": "uint256"
        }
      ],
      "name": "payoutClaim",
      "outputs": [],
      "stateMutability": "nonpayable",
      "type": "function"
    },
    {
      "inputs": [
        {
          "internalType": "bytes32",
          "name": "identifier",
          "type": "bytes32"
        },
        {
          "internalType": "uint32",
          "name": "timestamp",
          "type": "uint32"
        },
        {
          "internalType": "bytes",
          "name": "ancillaryData",
          "type": "bytes"
        },
        {
          "components": [
            {
              "internalType": "address",
              "name": "proposer",
              "type": "address"
            },
            {
              "internalType": "address",
              "name": "disputer",
              "type": "address"
            },
            {
              "internalType": "contract IERC20",
              "name": "currency",
              "type": "address"
            },
            {
              "internalType": "bool",
              "name": "settled",
              "type": "bool"
            },
            {
              "internalType": "int256",
              "name": "proposedPrice",
              "type": "int256"
            },
            {
              "internalType": "int256",
              "name": "resolvedPrice",
              "type": "int256"
            },
            {
              "internalType": "uint256",
              "name": "expirationTime",
              "type": "uint256"
            },
            {
              "internalType": "uint256",
              "name": "reward",
              "type": "uint256"
            },
            {
              "internalType": "uint256",
              "name": "finalFee",
              "type": "uint256"
            },
            {
              "internalType": "uint256",
              "name": "bond",
              "type": "uint256"
            },
            {
              "internalType": "uint256",
              "name": "customLiveness",
              "type": "uint256"
            }
          ],
          "internalType": "struct SkinnyOptimisticOracleInterface.Request",
          "name": "request",
          "type": "tuple"
        }
      ],
      "name": "priceDisputed",
      "outputs": [],
      "stateMutability": "nonpayable",
      "type": "function"
    },
    {
      "inputs": [
        {
          "internalType": "bytes32",
          "name": "identifier",
          "type": "bytes32"
        },
        {
          "internalType": "uint32",
          "name": "timestamp",
          "type": "uint32"
        },
        {
          "internalType": "bytes",
          "name": "ancillaryData",
          "type": "bytes"
        },
        {
          "components": [
            {
              "internalType": "address",
              "name": "proposer",
              "type": "address"
            },
            {
              "internalType": "address",
              "name": "disputer",
              "type": "address"
            },
            {
              "internalType": "contract IERC20",
              "name": "currency",
              "type": "address"
            },
            {
              "internalType": "bool",
              "name": "settled",
              "type": "bool"
            },
            {
              "internalType": "int256",
              "name": "proposedPrice",
              "type": "int256"
            },
            {
              "internalType": "int256",
              "name": "resolvedPrice",
              "type": "int256"
            },
            {
              "internalType": "uint256",
              "name": "expirationTime",
              "type": "uint256"
            },
            {
              "internalType": "uint256",
              "name": "reward",
              "type": "uint256"
            },
            {
              "internalType": "uint256",
              "name": "finalFee",
              "type": "uint256"
            },
            {
              "internalType": "uint256",
              "name": "bond",
              "type": "uint256"
            },
            {
              "internalType": "uint256",
              "name": "customLiveness",
              "type": "uint256"
            }
          ],
          "internalType": "struct SkinnyOptimisticOracleInterface.Request",
          "name": "request",
          "type": "tuple"
        }
      ],
      "name": "priceProposed",
      "outputs": [],
      "stateMutability": "nonpayable",
      "type": "function"
    },
    {
      "inputs": [
        {
          "internalType": "bytes32",
          "name": "identifier",
          "type": "bytes32"
        },
        {
          "internalType": "uint32",
          "name": "timestamp",
          "type": "uint32"
        },
        {
          "internalType": "bytes",
          "name": "ancillaryData",
          "type": "bytes"
        },
        {
          "components": [
            {
              "internalType": "address",
              "name": "proposer",
              "type": "address"
            },
            {
              "internalType": "address",
              "name": "disputer",
              "type": "address"
            },
            {
              "internalType": "contract IERC20",
              "name": "currency",
              "type": "address"
            },
            {
              "internalType": "bool",
              "name": "settled",
              "type": "bool"
            },
            {
              "internalType": "int256",
              "name": "proposedPrice",
              "type": "int256"
            },
            {
              "internalType": "int256",
              "name": "resolvedPrice",
              "type": "int256"
            },
            {
              "internalType": "uint256",
              "name": "expirationTime",
              "type": "uint256"
            },
            {
              "internalType": "uint256",
              "name": "reward",
              "type": "uint256"
            },
            {
              "internalType": "uint256",
              "name": "finalFee",
              "type": "uint256"
            },
            {
              "internalType": "uint256",
              "name": "bond",
              "type": "uint256"
            },
            {
              "internalType": "uint256",
              "name": "customLiveness",
              "type": "uint256"
            }
          ],
          "internalType": "struct SkinnyOptimisticOracleInterface.Request",
          "name": "request",
          "type": "tuple"
        }
      ],
      "name": "priceSettled",
      "outputs": [],
      "stateMutability": "nonpayable",
      "type": "function"
    },
    {
      "inputs": [
        {
          "internalType": "bytes32",
          "name": "",
          "type": "bytes32"
        }
      ],
      "name": "protocolClaimActive",
      "outputs": [
        {
          "internalType": "bool",
          "name": "",
          "type": "bool"
        }
      ],
      "stateMutability": "view",
      "type": "function"
    },
    {
      "inputs": [
        {
          "internalType": "contract ISherlockClaimManagerCallbackReceiver",
          "name": "_callback",
          "type": "address"
        },
        {
          "internalType": "uint256",
          "name": "_index",
          "type": "uint256"
        }
      ],
      "name": "removeCallback",
      "outputs": [],
      "stateMutability": "nonpayable",
      "type": "function"
    },
    {
      "inputs": [],
      "name": "renounceOwnership",
      "outputs": [],
      "stateMutability": "nonpayable",
      "type": "function"
    },
    {
      "inputs": [],
      "name": "renounceUmaHaltOperator",
      "outputs": [],
      "stateMutability": "nonpayable",
      "type": "function"
    },
    {
      "inputs": [
        {
          "internalType": "contract ISherlock",
          "name": "_sherlock",
          "type": "address"
        }
      ],
      "name": "setSherlockCoreAddress",
      "outputs": [],
      "stateMutability": "nonpayable",
      "type": "function"
    },
    {
      "inputs": [],
      "name": "sherlockProtocolClaimsCommittee",
      "outputs": [
        {
          "internalType": "address",
          "name": "",
          "type": "address"
        }
      ],
      "stateMutability": "view",
      "type": "function"
    },
    {
      "inputs": [
        {
          "internalType": "uint256",
          "name": "_claimID",
          "type": "uint256"
        }
      ],
      "name": "spccApprove",
      "outputs": [],
      "stateMutability": "nonpayable",
      "type": "function"
    },
    {
      "inputs": [
        {
          "internalType": "uint256",
          "name": "_claimID",
          "type": "uint256"
        }
      ],
      "name": "spccRefuse",
      "outputs": [],
      "stateMutability": "nonpayable",
      "type": "function"
    },
    {
      "inputs": [
        {
          "internalType": "bytes32",
          "name": "_protocol",
          "type": "bytes32"
        },
        {
          "internalType": "uint256",
          "name": "_amount",
          "type": "uint256"
        },
        {
          "internalType": "address",
          "name": "_receiver",
          "type": "address"
        },
        {
          "internalType": "uint32",
          "name": "_timestamp",
          "type": "uint32"
        },
        {
          "internalType": "bytes",
          "name": "ancillaryData",
          "type": "bytes"
        }
      ],
      "name": "startClaim",
      "outputs": [],
      "stateMutability": "nonpayable",
      "type": "function"
    },
    {
      "inputs": [
        {
          "internalType": "address",
          "name": "newOwner",
          "type": "address"
        }
      ],
      "name": "transferOwnership",
      "outputs": [],
      "stateMutability": "nonpayable",
      "type": "function"
    },
    {
      "inputs": [],
      "name": "umaHaltOperator",
      "outputs": [
        {
          "internalType": "address",
          "name": "",
          "type": "address"
        }
      ],
      "stateMutability": "view",
      "type": "function"
    },
    {
      "inputs": [],
      "name": "unpause",
      "outputs": [],
      "stateMutability": "nonpayable",
      "type": "function"
    },
    {
      "inputs": [
        {
          "internalType": "bytes32",
          "name": "id",
          "type": "bytes32"
        }
      ],
      "name": "viewClaims",
      "outputs": [
        {
          "components": [
            {
              "internalType": "uint256",
              "name": "created",
              "type": "uint256"
            },
            {
              "internalType": "uint256",
              "name": "updated",
              "type": "uint256"
            },
            {
              "internalType": "address",
              "name": "initiator",
              "type": "address"
            },
            {
              "internalType": "bytes32",
              "name": "protocol",
              "type": "bytes32"
            },
            {
              "internalType": "uint256",
              "name": "amount",
              "type": "uint256"
            },
            {
              "internalType": "address",
              "name": "receiver",
              "type": "address"
            },
            {
              "internalType": "uint32",
              "name": "timestamp",
              "type": "uint32"
            },
            {
              "internalType": "enum ISherlockClaimManager.State",
              "name": "state",
              "type": "uint8"
            },
            {
              "internalType": "bytes",
              "name": "ancillaryData",
              "type": "bytes"
            }
          ],
          "internalType": "struct ISherlockClaimManager.Claim",
          "name": "",
          "type": "tuple"
        }
      ],
      "stateMutability": "view",
      "type": "function"
    },
    {
      "inputs": [
        {
          "internalType": "bytes32",
          "name": "id",
          "type": "bytes32"
        }
      ],
      "name": "viewInternalToPublicID",
      "outputs": [
        {
          "internalType": "uint256",
          "name": "",
          "type": "uint256"
        }
      ],
      "stateMutability": "view",
      "type": "function"
    },
    {
      "inputs": [],
      "name": "viewLastClaimID",
      "outputs": [
        {
          "internalType": "uint256",
          "name": "",
          "type": "uint256"
        }
      ],
      "stateMutability": "view",
      "type": "function"
    },
    {
      "inputs": [
        {
          "internalType": "uint256",
          "name": "id",
          "type": "uint256"
        }
      ],
      "name": "viewPublicToInternalID",
      "outputs": [
        {
          "internalType": "bytes32",
          "name": "",
          "type": "bytes32"
        }
      ],
      "stateMutability": "view",
      "type": "function"
    }
  ],
  "bytecode": "0x60a06040523480156200001157600080fd5b50604051620050173803806200501783398101604081905262000034916200013b565b600160005581816200004633620000cc565b6001805460ff60a01b191690556001600160a01b0382166200007b5760405163b7852ebb60e01b815260040160405180910390fd5b6001600160a01b038116620000a35760405163b7852ebb60e01b815260040160405180910390fd5b600380546001600160a01b0319166001600160a01b039384161790551660805250620001739050565b600180546001600160a01b038381166001600160a01b0319831681179093556040519116919082907f8be0079c531659141344cd1fd0a4f28419497f9722a3daafe3b4186f6b6457e090600090a35050565b80516001600160a01b03811681146200013657600080fd5b919050565b600080604083850312156200014f57600080fd5b6200015a836200011e565b91506200016a602084016200011e565b90509250929050565b608051614e7a6200019d6000396000818161064401528181613046015261338f0152614e7a6000f3fe608060405234801561001057600080fd5b50600436106102c85760003560e01c80637238421f1161017b578063db2546ed116100d8578063f2fde38b1161008c578063f64a1e2f11610071578063f64a1e2f14610601578063f678d9241461061c578063f870715b1461063f57600080fd5b8063f2fde38b146105e6578063f35f99e8146105f957600080fd5b8063e5d75a12116100bd578063e5d75a12146105ab578063ec76a068146105cb578063f2037d74146105de57600080fd5b8063db2546ed14610568578063dde889231461057b57600080fd5b80638456cb591161012f578063acd59ceb11610114578063acd59ceb14610538578063c5efc2c61461054b578063ca70fb761461055557600080fd5b80638456cb59146105125780638da5cb5b1461051a57600080fd5b80637a1047dd116101605780637a1047dd146104d1578063827e7f3e146104e457806382bfefc8146104f757600080fd5b80637238421f1461049e578063724f1814146104be57600080fd5b80633f8c2b4d116102295780635f620f85116101dd5780636ea8eb40116101c25780636ea8eb4014610470578063702388fa14610483578063715018a61461049657600080fd5b80635f620f851461043f57806366917de01461044957600080fd5b806347619afa1161020e57806347619afa146103f65780634e3a3334146104095780635c975abb1461041c57600080fd5b80633f8c2b4d1461039e57806343bcb309146103e357600080fd5b8063195689f61161028057806333657836116102655780633365783614610363578063379607f5146103765780633f4ba83a1461039657600080fd5b8063195689f61461032d57806330c82fc11461034057600080fd5b80630c0374b8116102b15780630c0374b8146102f25780630d13fa5a1461030757806311bad40a1461031a57600080fd5b8063017eb8d9146102cd578063058f62b2146102e8575b600080fd5b6102d5600481565b6040519081526020015b60405180910390f35b6102d562093a8081565b610305610300366004614435565b610666565b005b610305610315366004614457565b610cfc565b6103056103283660046145d3565b611181565b61030561033b3660046146fe565b611348565b61035361034e366004614739565b611637565b60405190151581526020016102df565b610305610371366004614755565b61164c565b610389610384366004614457565b6118e7565b6040516102df9190614852565b610305611b56565b6003546103be9073ffffffffffffffffffffffffffffffffffffffff1681565b60405173ffffffffffffffffffffffffffffffffffffffff90911681526020016102df565b6103536103f1366004614915565b611bb1565b610305610404366004614930565b611bbc565b6103be610417366004614457565b612462565b60015474010000000000000000000000000000000000000000900460ff16610353565b6102d56224ea0081565b6102d57f534845524c4f434b5f434c41494d00000000000000000000000000000000000081565b61035361047e366004614739565b612499565b610305610491366004614457565b6124a5565b6103056126d9565b6102d56104ac366004614457565b60009081526006602052604090205490565b6103056104cc3660046145d3565b61274a565b6103056104df366004614435565b6129fc565b6103056104f23660046145d3565b612d3b565b6103be73a0b86991c6218b36c1d19d4a2e9eb0ce3606eb4881565b610305612f6a565b60015473ffffffffffffffffffffffffffffffffffffffff166103be565b610305610546366004614457565b612fc3565b6102d56201518081565b610305610563366004614755565b613199565b610305610576366004614457565b61330c565b610305610589366004614435565b6000918252600560209081526040808420548452600790915290912060010155565b6102d56105b9366004614457565b60009081526005602052604090205490565b6103896105d9366004614457565b613491565b610305613658565b6103056105f4366004614755565b613761565b6008546102d5565b6103be73ee3afe347d5c74317041e2618c49534daf887c2481565b61035361062a366004614457565b60046020526000908152604090205460ff1681565b6103be7f000000000000000000000000000000000000000000000000000000000000000081565b600260005414156106be5760405162461bcd60e51b815260206004820152601f60248201527f5265656e7472616e637947756172643a207265656e7472616e742063616c6c0060448201526064015b60405180910390fd5b600260005560015474010000000000000000000000000000000000000000900460ff161561072e5760405162461bcd60e51b815260206004820152601060248201527f5061757361626c653a207061757365640000000000000000000000000000000060448201526064016106b5565b64023c34600081101561076d576040517fa9cb9e0d00000000000000000000000000000000000000000000000000000000815260040160405180910390fd5b600082815260056020526040902054806107b3576040517fa9cb9e0d00000000000000000000000000000000000000000000000000000000815260040160405180910390fd5b6000818152600760205260409020600281015473ffffffffffffffffffffffffffffffffffffffff163314610814576040517fddb5de5e00000000000000000000000000000000000000000000000000000000815260040160405180910390fd5b6001810154600061082684600461385d565b90506108328183613986565b610868576040517fbaf3f0f700000000000000000000000000000000000000000000000000000000815260040160405180910390fd5b61088873a0b86991c6218b36c1d19d4a2e9eb0ce3606eb48333088613a24565b6108bb73a0b86991c6218b36c1d19d4a2e9eb0ce3606eb4873ee3afe347d5c74317041e2618c49534daf887c2487613b06565b60058301546002546040517faf355d1e00000000000000000000000000000000000000000000000000000000815273ee3afe347d5c74317041e2618c49534daf887c249263af355d1e92610996927f534845524c4f434b5f434c41494d0000000000000000000000000000000000009274010000000000000000000000000000000000000000900463ffffffff169160068a019173a0b86991c6218b36c1d19d4a2e9eb0ce3606eb489160009164023c34600091611c209173ffffffffffffffffffffffffffffffffffffffff909116908490600401614ac9565b6020604051808303816000875af11580156109b5573d6000803e3d6000fd5b505050506040513d601f19601f820116820180604052508101906109d99190614b3d565b5060056109e785600661385d565b600b8111156109f8576109f8614772565b14610a2f576040517fbaf3f0f700000000000000000000000000000000000000000000000000000000815260040160405180910390fd5b60058301546040517f9ce320c800000000000000000000000000000000000000000000000000000000815273ee3afe347d5c74317041e2618c49534daf887c2491639ce320c891610ad0917f534845524c4f434b5f434c41494d000000000000000000000000000000000000917401000000000000000000000000000000000000000090910463ffffffff1690600689019060099033903090600401614b56565b6020604051808303816000875af1158015610aef573d6000803e3d6000fd5b505050506040513d601f19601f82011682018060405250810190610b139190614b3d565b50600760058401547801000000000000000000000000000000000000000000000000900460ff16600b811115610b4b57610b4b614772565b14610b82576040517fbaf3f0f700000000000000000000000000000000000000000000000000000000815260040160405180910390fd5b600980547fffffffffffffffffffffffff0000000000000000000000000000000000000000908116909155600a80549091169055600b80547fffffffffffffffffffffff0000000000000000000000000000000000000000001690556000600c819055600d819055600e819055600f819055601081905560118190556012819055610c389073a0b86991c6218b36c1d19d4a2e9eb0ce3606eb489073ee3afe347d5c74317041e2618c49534daf887c2490613b06565b6040517f70a0823100000000000000000000000000000000000000000000000000000000815230600482015260009073a0b86991c6218b36c1d19d4a2e9eb0ce3606eb48906370a0823190602401602060405180830381865afa158015610ca3573d6000803e3d6000fd5b505050506040513d601f19601f82011682018060405250810190610cc79190614b3d565b90508015610cee57610cee73a0b86991c6218b36c1d19d4a2e9eb0ce3606eb483383613c73565b505060016000555050505050565b60026000541415610d4f5760405162461bcd60e51b815260206004820152601f60248201527f5265656e7472616e637947756172643a207265656e7472616e742063616c6c0060448201526064016106b5565b600260005560015474010000000000000000000000000000000000000000900460ff1615610dbf5760405162461bcd60e51b815260206004820152601060248201527f5061757361626c653a207061757365640000000000000000000000000000000060448201526064016106b5565b60008181526005602052604090205480610e05576040517fa9cb9e0d00000000000000000000000000000000000000000000000000000000815260040160405180910390fd5b6000818152600760205260409020600281015473ffffffffffffffffffffffffffffffffffffffff163314610e66576040517fddb5de5e00000000000000000000000000000000000000000000000000000000815260040160405180910390fd5b600381015460058201546004830154600184015473ffffffffffffffffffffffffffffffffffffffff909216916000610e9f878261385d565b9050610eab8183613cc9565b610ee1576040517fbaf3f0f700000000000000000000000000000000000000000000000000000000815260040160405180910390fd5b60005b601354811015610faf5760138181548110610f0157610f01614ca7565b6000918252602090912001546040517f1c45dde000000000000000000000000000000000000000000000000000000000815260048101889052602481018b90526044810186905273ffffffffffffffffffffffffffffffffffffffff90911690631c45dde090606401600060405180830381600087803b158015610f8457600080fd5b505af1158015610f98573d6000803e3d6000fd5b505050508080610fa790614d05565b915050610ee4565b506040805189815273ffffffffffffffffffffffffffffffffffffffff861660208201529081018490527fd821d0aeb565103d334a4682afaddb77a21313f36e8886593baaf6b2594e198c9060600160405180910390a16040517f70a0823100000000000000000000000000000000000000000000000000000000815230600482015260009073a0b86991c6218b36c1d19d4a2e9eb0ce3606eb48906370a0823190602401602060405180830381865afa158015611071573d6000803e3d6000fd5b505050506040513d601f19601f820116820180604052508101906110959190614b3d565b905080156110bc576110bc73a0b86991c6218b36c1d19d4a2e9eb0ce3606eb488683613c73565b838110156111715760025473ffffffffffffffffffffffffffffffffffffffff166362409011866110ed8488614d3e565b6040517fffffffff0000000000000000000000000000000000000000000000000000000060e085901b16815273ffffffffffffffffffffffffffffffffffffffff90921660048301526024820152604401600060405180830381600087803b15801561115857600080fd5b505af115801561116c573d6000803e3d6000fd5b505050505b5050600160005550505050505050565b60015474010000000000000000000000000000000000000000900460ff16156111ec5760405162461bcd60e51b815260206004820152601060248201527f5061757361626c653a207061757365640000000000000000000000000000000060448201526064016106b5565b837f534845524c4f434b5f434c41494d0000000000000000000000000000000000008114611246576040517fa9cb9e0d00000000000000000000000000000000000000000000000000000000815260040160405180910390fd5b3373ee3afe347d5c74317041e2618c49534daf887c2414611293576040517fddb5de5e00000000000000000000000000000000000000000000000000000000815260040160405180910390fd5b8251602080850191909120600081815260079092526040909120600181015442146112ea576040517f3af36e0a00000000000000000000000000000000000000000000000000000000815260040160405180910390fd5b60066112f783600761385d565b600b81111561130857611308614772565b1461133f576040517fbaf3f0f700000000000000000000000000000000000000000000000000000000815260040160405180910390fd5b50505050505050565b60015473ffffffffffffffffffffffffffffffffffffffff1633146113af5760405162461bcd60e51b815260206004820181905260248201527f4f776e61626c653a2063616c6c6572206973206e6f7420746865206f776e657260448201526064016106b5565b600260005414156114025760405162461bcd60e51b815260206004820152601f60248201527f5265656e7472616e637947756172643a207265656e7472616e742063616c6c0060448201526064016106b5565b600260005573ffffffffffffffffffffffffffffffffffffffff8216611454576040517fb7852ebb00000000000000000000000000000000000000000000000000000000815260040160405180910390fd5b8173ffffffffffffffffffffffffffffffffffffffff166013828154811061147e5761147e614ca7565b60009182526020909120015473ffffffffffffffffffffffffffffffffffffffff16146114d7576040517fa9cb9e0d00000000000000000000000000000000000000000000000000000000815260040160405180910390fd5b601380546114e790600190614d3e565b815481106114f7576114f7614ca7565b6000918252602090912001546013805473ffffffffffffffffffffffffffffffffffffffff909216918390811061153057611530614ca7565b9060005260206000200160006101000a81548173ffffffffffffffffffffffffffffffffffffffff021916908373ffffffffffffffffffffffffffffffffffffffff160217905550601380548061158957611589614d55565b60008281526020908190207fffffffffffffffffffffffffffffffffffffffffffffffffffffffffffffffff908301810180547fffffffffffffffffffffffff000000000000000000000000000000000000000016905590910190915560405173ffffffffffffffffffffffffffffffffffffffff841681527ffb6c51f2be3d7773b505e38661540db3f8479f63b5d173fe2ecae1edc7562b5d91015b60405180910390a150506001600055565b60006116438383613986565b90505b92915050565b60015473ffffffffffffffffffffffffffffffffffffffff1633146116b35760405162461bcd60e51b815260206004820181905260248201527f4f776e61626c653a2063616c6c6572206973206e6f7420746865206f776e657260448201526064016106b5565b600260005414156117065760405162461bcd60e51b815260206004820152601f60248201527f5265656e7472616e637947756172643a207265656e7472616e742063616c6c0060448201526064016106b5565b600260005573ffffffffffffffffffffffffffffffffffffffff8116611758576040517fb7852ebb00000000000000000000000000000000000000000000000000000000815260040160405180910390fd5b60135460041415611795576040517fbaf3f0f700000000000000000000000000000000000000000000000000000000815260040160405180910390fd5b60005b601354811015611838578173ffffffffffffffffffffffffffffffffffffffff16601382815481106117cc576117cc614ca7565b60009182526020909120015473ffffffffffffffffffffffffffffffffffffffff161415611826576040517fa9cb9e0d00000000000000000000000000000000000000000000000000000000815260040160405180910390fd5b8061183081614d05565b915050611798565b50601380546001810182556000919091527f66de8ffda797e3de9c05e8fc57b3bf0ec28a930d40b0d285d93c06501cf6a0900180547fffffffffffffffffffffffff00000000000000000000000000000000000000001673ffffffffffffffffffffffffffffffffffffffff83169081179091556040519081527f3206984d30c94bcf064cb1df53d334a1fe97a7931023e3c1ea98fa76a973cc809060200160405180910390a1506001600055565b6119366040805161012081018252600080825260208201819052918101829052606081018290526080810182905260a0810182905260c081018290529060e08201908152602001606081525090565b6000828152600560205260409020548061197c576040517fa9cb9e0d00000000000000000000000000000000000000000000000000000000815260040160405180910390fd5b60008181526007602090815260409182902082516101208101845281548152600182015492810192909252600281015473ffffffffffffffffffffffffffffffffffffffff908116938301939093526003810154606083015260048101546080830152600581015492831660a083015274010000000000000000000000000000000000000000830463ffffffff1660c0830152909160e08301907801000000000000000000000000000000000000000000000000900460ff16600b811115611a4657611a46614772565b600b811115611a5757611a57614772565b8152602001600682018054611a6b906149a4565b80601f0160208091040260200160405190810160405280929190818152602001828054611a97906149a4565b8015611ae45780601f10611ab957610100808354040283529160200191611ae4565b820191906000526020600020905b815481529060010190602001808311611ac757829003601f168201915b50505050508152505091506000600b811115611b0257611b02614772565b8260e00151600b811115611b1857611b18614772565b1415611b50576040517fa9cb9e0d00000000000000000000000000000000000000000000000000000000815260040160405180910390fd5b50919050565b60025473ffffffffffffffffffffffffffffffffffffffff163314611ba7576040517fddb5de5e00000000000000000000000000000000000000000000000000000000815260040160405180910390fd5b611baf613d73565b565b600061164682613e52565b60026000541415611c0f5760405162461bcd60e51b815260206004820152601f60248201527f5265656e7472616e637947756172643a207265656e7472616e742063616c6c0060448201526064016106b5565b600260005560015474010000000000000000000000000000000000000000900460ff1615611c7f5760405162461bcd60e51b815260206004820152601060248201527f5061757361626c653a207061757365640000000000000000000000000000000060448201526064016106b5565b84611cb6576040517fb7852ebb00000000000000000000000000000000000000000000000000000000815260040160405180910390fd5b83611ced576040517fb7852ebb00000000000000000000000000000000000000000000000000000000815260040160405180910390fd5b73ffffffffffffffffffffffffffffffffffffffff8316611d3a576040517fb7852ebb00000000000000000000000000000000000000000000000000000000815260040160405180910390fd5b63ffffffff8216611d77576040517fb7852ebb00000000000000000000000000000000000000000000000000000000815260040160405180910390fd5b428263ffffffff1610611db6576040517fa9cb9e0d00000000000000000000000000000000000000000000000000000000815260040160405180910390fd5b8051611dee576040517fb7852ebb00000000000000000000000000000000000000000000000000000000815260040160405180910390fd5b60025473ffffffffffffffffffffffffffffffffffffffff16611e3d576040517f3af36e0a00000000000000000000000000000000000000000000000000000000815260040160405180910390fd5b60008581526004602052604090205460ff1615611e86576040517f2ae8a9f800000000000000000000000000000000000000000000000000000000815260040160405180910390fd5b80516020820120600080828152600760205260409020600501547801000000000000000000000000000000000000000000000000900460ff16600b811115611ed057611ed0614772565b14611f07576040517fa9cb9e0d00000000000000000000000000000000000000000000000000000000815260040160405180910390fd5b600254604080517f863a43d5000000000000000000000000000000000000000000000000000000008152905160009273ffffffffffffffffffffffffffffffffffffffff169163863a43d59160048083019260209291908290030181865afa158015611f77573d6000803e3d6000fd5b505050506040513d601f19601f82011682018060405250810190611f9b9190614d84565b6040517fc46060d40000000000000000000000000000000000000000000000000000000081526004810189905290915060009073ffffffffffffffffffffffffffffffffffffffff83169063c46060d490602401602060405180830381865afa15801561200c573d6000803e3d6000fd5b505050506040513d601f19601f820116820180604052508101906120309190614d84565b90503373ffffffffffffffffffffffffffffffffffffffff821614612081576040517fddb5de5e00000000000000000000000000000000000000000000000000000000815260040160405180910390fd5b6040517fcaef4f1b00000000000000000000000000000000000000000000000000000000815260048101899052600090819073ffffffffffffffffffffffffffffffffffffffff85169063caef4f1b906024016040805180830381865afa1580156120f0573d6000803e3d6000fd5b505050506040513d601f19601f820116820180604052508101906121149190614da1565b9150915060008183116121275781612129565b825b9050828a11818b1115612168576040517fa9cb9e0d00000000000000000000000000000000000000000000000000000000815260040160405180910390fd5b600060086000815461217990614d05565b91905081905590506001600460008f815260200190815260200160002060006101000a81548160ff02191690831515021790555087600560008381526020019081526020016000208190555080600660008a8152602001908152602001600020819055506040518061012001604052804281526020014281526020013373ffffffffffffffffffffffffffffffffffffffff1681526020018e81526020018d81526020018c73ffffffffffffffffffffffffffffffffffffffff1681526020018b63ffffffff1681526020016001600b81111561225857612258614772565b815260209081018b905260008a8152600782526040908190208351815591830151600183015582015160028201805473ffffffffffffffffffffffffffffffffffffffff9283167fffffffffffffffffffffffff0000000000000000000000000000000000000000909116179055606083015160038301556080830151600483015560a083015160058301805460c086015163ffffffff1674010000000000000000000000000000000000000000027fffffffffffffffff00000000000000000000000000000000000000000000000090911692909316919091179190911780825560e084015191907fffffffffffffff00ffffffffffffffffffffffffffffffffffffffffffffffff16780100000000000000000000000000000000000000000000000083600b81111561238f5761238f614772565b021790555061010082015180516123b0916006840191602090910190614366565b505060408051838152602081018f905273ffffffffffffffffffffffffffffffffffffffff8e1681830152841515606082015290518f92507fa9554fcda31212dfb9fc1180820bd0bffc960baad3d9d1daa6c361ccfa8477be9181900360800190a2807f2d8b91cd39b91d452a6c29034de86e9ac2ff4936f8fe3a2aa319a662f4206ece60006001604051612446929190614dc5565b60405180910390a2505060016000555050505050505050505050565b6013818154811061247257600080fd5b60009182526020909120015473ffffffffffffffffffffffffffffffffffffffff16905081565b60006116438383613cc9565b60015474010000000000000000000000000000000000000000900460ff16156125105760405162461bcd60e51b815260206004820152601060248201527f5061757361626c653a207061757365640000000000000000000000000000000060448201526064016106b5565b60035473ffffffffffffffffffffffffffffffffffffffff163314612561576040517fddb5de5e00000000000000000000000000000000000000000000000000000000815260040160405180910390fd5b600260005414156125b45760405162461bcd60e51b815260206004820152601f60248201527f5265656e7472616e637947756172643a207265656e7472616e742063616c6c0060448201526064016106b5565b6002600090815581815260056020526040902054806125ff576040517fa9cb9e0d00000000000000000000000000000000000000000000000000000000815260040160405180910390fd5b600861260c82600a61385d565b600b81111561261d5761261d614772565b14612654576040517fbaf3f0f700000000000000000000000000000000000000000000000000000000815260040160405180910390fd5b600a61266182600061385d565b600b81111561267257612672614772565b146126a9576040517fbaf3f0f700000000000000000000000000000000000000000000000000000000815260040160405180910390fd5b6040518281527f1d5afae6999ee19e72635fe41333d99c8dc5dd052e08fcc93058b0706364421d90602001611626565b60015473ffffffffffffffffffffffffffffffffffffffff1633146127405760405162461bcd60e51b815260206004820181905260248201527f4f776e61626c653a2063616c6c6572206973206e6f7420746865206f776e657260448201526064016106b5565b611baf6000613ea0565b60015474010000000000000000000000000000000000000000900460ff16156127b55760405162461bcd60e51b815260206004820152601060248201527f5061757361626c653a207061757365640000000000000000000000000000000060448201526064016106b5565b837f534845524c4f434b5f434c41494d000000000000000000000000000000000000811461280f576040517fa9cb9e0d00000000000000000000000000000000000000000000000000000000815260040160405180910390fd5b3373ee3afe347d5c74317041e2618c49534daf887c241461285c576040517fddb5de5e00000000000000000000000000000000000000000000000000000000815260040160405180910390fd5b8251602080850191909120600081815260079092526040909120600181015442146128b3576040517f3af36e0a00000000000000000000000000000000000000000000000000000000815260040160405180910390fd5b60046128c083600561385d565b600b8111156128d1576128d1614772565b14612908576040517fbaf3f0f700000000000000000000000000000000000000000000000000000000815260040160405180910390fd5b505081516009805473ffffffffffffffffffffffffffffffffffffffff9283167fffffffffffffffffffffffff0000000000000000000000000000000000000000918216179091556020840151600a8054918416919092161790556040830151600b80546060860151151574010000000000000000000000000000000000000000027fffffffffffffffffffffff0000000000000000000000000000000000000000009091169290931691909117919091179055506080810151600c5560a0810151600d5560c0810151600e5560e0810151600f556101008101516010556101208101516011556101400151601255505050565b60015474010000000000000000000000000000000000000000900460ff1615612a675760405162461bcd60e51b815260206004820152601060248201527f5061757361626c653a207061757365640000000000000000000000000000000060448201526064016106b5565b81612a9e576040517fb7852ebb00000000000000000000000000000000000000000000000000000000815260040160405180910390fd5b80612ad5576040517fb7852ebb00000000000000000000000000000000000000000000000000000000815260040160405180910390fd5b600254604080517f863a43d5000000000000000000000000000000000000000000000000000000008152905160009273ffffffffffffffffffffffffffffffffffffffff169163863a43d59160048083019260209291908290030181865afa158015612b45573d6000803e3d6000fd5b505050506040513d601f19601f82011682018060405250810190612b699190614d84565b6040517fc46060d40000000000000000000000000000000000000000000000000000000081526004810185905290915060009073ffffffffffffffffffffffffffffffffffffffff83169063c46060d490602401602060405180830381865afa158015612bda573d6000803e3d6000fd5b505050506040513d601f19601f82011682018060405250810190612bfe9190614d84565b90503373ffffffffffffffffffffffffffffffffffffffff821614612c4f576040517fddb5de5e00000000000000000000000000000000000000000000000000000000815260040160405180910390fd5b60008381526005602052604090205480612c95576040517fa9cb9e0d00000000000000000000000000000000000000000000000000000000815260040160405180910390fd5b600081815260076020526040902060038101548614612ce0576040517fa9cb9e0d00000000000000000000000000000000000000000000000000000000815260040160405180910390fd5b6000612ced83600b61385d565b9050612cf881613e52565b612d2e576040517fbaf3f0f700000000000000000000000000000000000000000000000000000000815260040160405180910390fd5b600b6112f784600061385d565b837f534845524c4f434b5f434c41494d0000000000000000000000000000000000008114612d95576040517fa9cb9e0d00000000000000000000000000000000000000000000000000000000815260040160405180910390fd5b3373ee3afe347d5c74317041e2618c49534daf887c2414612de2576040517fddb5de5e00000000000000000000000000000000000000000000000000000000815260040160405180910390fd5b60026000541415612e355760405162461bcd60e51b815260206004820152601f60248201527f5265656e7472616e637947756172643a207265656e7472616e742063616c6c0060448201526064016106b5565b6002600090815583516020808601919091208083526007909152604090912060a0840151600482015481148015612ec0576007612e7385600861385d565b600b811115612e8457612e84614772565b14612ebb576040517fbaf3f0f700000000000000000000000000000000000000000000000000000000815260040160405180910390fd5b611171565b6007612ecd85600961385d565b600b811115612ede57612ede614772565b14612f15576040517fbaf3f0f700000000000000000000000000000000000000000000000000000000815260040160405180910390fd5b6009612f2285600061385d565b600b811115612f3357612f33614772565b14611171576040517fbaf3f0f700000000000000000000000000000000000000000000000000000000815260040160405180910390fd5b60025473ffffffffffffffffffffffffffffffffffffffff163314612fbb576040517fddb5de5e00000000000000000000000000000000000000000000000000000000815260040160405180910390fd5b611baf613f17565b60015474010000000000000000000000000000000000000000900460ff161561302e5760405162461bcd60e51b815260206004820152601060248201527f5061757361626c653a207061757365640000000000000000000000000000000060448201526064016106b5565b3373ffffffffffffffffffffffffffffffffffffffff7f0000000000000000000000000000000000000000000000000000000000000000161461309d576040517fddb5de5e00000000000000000000000000000000000000000000000000000000815260040160405180910390fd5b600260005414156130f05760405162461bcd60e51b815260206004820152601f60248201527f5265656e7472616e637947756172643a207265656e7472616e742063616c6c0060448201526064016106b5565b60026000908155818152600560205260409020548061313b576040517fa9cb9e0d00000000000000000000000000000000000000000000000000000000815260040160405180910390fd5b600161314882600261385d565b600b81111561315957613159614772565b14613190576040517fbaf3f0f700000000000000000000000000000000000000000000000000000000815260040160405180910390fd5b50506001600055565b73ffffffffffffffffffffffffffffffffffffffff81166131e6576040517fb7852ebb00000000000000000000000000000000000000000000000000000000815260040160405180910390fd5b46617a691415801561320c57503373adbb28c2fee078440b7088bbcd68dcfa63e5562514155b15613243576040517fddb5de5e00000000000000000000000000000000000000000000000000000000815260040160405180910390fd5b60025473ffffffffffffffffffffffffffffffffffffffff1615613293576040517f3af36e0a00000000000000000000000000000000000000000000000000000000815260040160405180910390fd5b600280547fffffffffffffffffffffffff00000000000000000000000000000000000000001673ffffffffffffffffffffffffffffffffffffffff83169081179091556040519081527ff200116515c6d70d53a45299bb7eba08ef985ec08bfe0baf31ad73907308a3189060200160405180910390a150565b60015474010000000000000000000000000000000000000000900460ff16156133775760405162461bcd60e51b815260206004820152601060248201527f5061757361626c653a207061757365640000000000000000000000000000000060448201526064016106b5565b3373ffffffffffffffffffffffffffffffffffffffff7f000000000000000000000000000000000000000000000000000000000000000016146133e6576040517fddb5de5e00000000000000000000000000000000000000000000000000000000815260040160405180910390fd5b600260005414156134395760405162461bcd60e51b815260206004820152601f60248201527f5265656e7472616e637947756172643a207265656e7472616e742063616c6c0060448201526064016106b5565b600260009081558181526005602052604090205480613484576040517fa9cb9e0d00000000000000000000000000000000000000000000000000000000815260040160405180910390fd5b600161314882600361385d565b6134e06040805161012081018252600080825260208201819052918101829052606081018290526080810182905260a0810182905260c081018290529060e08201908152602001606081525090565b60008281526007602090815260409182902082516101208101845281548152600182015492810192909252600281015473ffffffffffffffffffffffffffffffffffffffff908116938301939093526003810154606083015260048101546080830152600581015492831660a083015274010000000000000000000000000000000000000000830463ffffffff1660c0830152909160e08301907801000000000000000000000000000000000000000000000000900460ff16600b8111156135aa576135aa614772565b600b8111156135bb576135bb614772565b81526020016006820180546135cf906149a4565b80601f01602080910402602001604051908101604052809291908181526020018280546135fb906149a4565b80156136485780601f1061361d57610100808354040283529160200191613648565b820191906000526020600020905b81548152906001019060200180831161362b57829003601f168201915b5050505050815250509050919050565b60015473ffffffffffffffffffffffffffffffffffffffff1633146136bf5760405162461bcd60e51b815260206004820181905260248201527f4f776e61626c653a2063616c6c6572206973206e6f7420746865206f776e657260448201526064016106b5565b60035473ffffffffffffffffffffffffffffffffffffffff1661370e576040517f3af36e0a00000000000000000000000000000000000000000000000000000000815260040160405180910390fd5b600380547fffffffffffffffffffffffff00000000000000000000000000000000000000001690556040517f36a0933bcc1c8c7ed7e8978ca49d792479a0262a8411115d4c90a07a784cf7cd90600090a1565b60015473ffffffffffffffffffffffffffffffffffffffff1633146137c85760405162461bcd60e51b815260206004820181905260248201527f4f776e61626c653a2063616c6c6572206973206e6f7420746865206f776e657260448201526064016106b5565b73ffffffffffffffffffffffffffffffffffffffff81166138515760405162461bcd60e51b815260206004820152602660248201527f4f776e61626c653a206e6577206f776e657220697320746865207a65726f206160448201527f646472657373000000000000000000000000000000000000000000000000000060648201526084016106b5565b61385a81613ea0565b50565b60008281526007602090815260408083206005810154600690935292819020549051780100000000000000000000000000000000000000000000000090920460ff1692917f2d8b91cd39b91d452a6c29034de86e9ac2ff4936f8fe3a2aa319a662f4206ece906138d09085908790614dc5565b60405180910390a2600083600b8111156138ec576138ec614772565b1415613900576138fb84613fe9565b61397f565b600084815260076020526040902060050180548491907fffffffffffffff00ffffffffffffffffffffffffffffffffffffffffffffffff16780100000000000000000000000000000000000000000000000083600b81111561396457613964614772565b02179055506000848152600760205260409020426001909101555b5092915050565b6000600383600b81111561399c5761399c614772565b1480156139b557506139b16224ea0083614de0565b4211155b156139c257506001611646565b60006139d162093a8084614de0565b9050600184600b8111156139e7576139e7614772565b1480156139f357504281105b8015613a0b5750613a076224ea0082614de0565b4211155b15613a1a576001915050611646565b5060009392505050565b60405173ffffffffffffffffffffffffffffffffffffffff80851660248301528316604482015260648101829052613b009085907f23b872dd00000000000000000000000000000000000000000000000000000000906084015b604080517fffffffffffffffffffffffffffffffffffffffffffffffffffffffffffffffe08184030181529190526020810180517bffffffffffffffffffffffffffffffffffffffffffffffffffffffff167fffffffff00000000000000000000000000000000000000000000000000000000909316929092179091526140d6565b50505050565b801580613ba657506040517fdd62ed3e00000000000000000000000000000000000000000000000000000000815230600482015273ffffffffffffffffffffffffffffffffffffffff838116602483015284169063dd62ed3e90604401602060405180830381865afa158015613b80573d6000803e3d6000fd5b505050506040513d601f19601f82011682018060405250810190613ba49190614b3d565b155b613c185760405162461bcd60e51b815260206004820152603660248201527f5361666545524332303a20617070726f76652066726f6d206e6f6e2d7a65726f60448201527f20746f206e6f6e2d7a65726f20616c6c6f77616e63650000000000000000000060648201526084016106b5565b60405173ffffffffffffffffffffffffffffffffffffffff8316602482015260448101829052613c6e9084907f095ea7b30000000000000000000000000000000000000000000000000000000090606401613a7e565b505050565b60405173ffffffffffffffffffffffffffffffffffffffff8316602482015260448101829052613c6e9084907fa9059cbb0000000000000000000000000000000000000000000000000000000090606401613a7e565b6000600283600b811115613cdf57613cdf614772565b1415613ced57506001611646565b60035473ffffffffffffffffffffffffffffffffffffffff16613d3157600883600b811115613d1e57613d1e614772565b1415613d2c57506001611646565b613d6a565b600883600b811115613d4557613d45614772565b148015613d5d575042613d5b6201518084614de0565b105b15613d6a57506001611646565b50600092915050565b60015474010000000000000000000000000000000000000000900460ff16613ddd5760405162461bcd60e51b815260206004820152601460248201527f5061757361626c653a206e6f742070617573656400000000000000000000000060448201526064016106b5565b600180547fffffffffffffffffffffff00ffffffffffffffffffffffffffffffffffffffff1690557f5db9ee0a495bf2e6ff9c91a7834c1ba4fdd244a5e8aa4e537bd38aeae4b073aa335b60405173ffffffffffffffffffffffffffffffffffffffff909116815260200160405180910390a1565b6000600382600b811115613e6857613e68614772565b1415613e7657506001919050565b600182600b811115613e8a57613e8a614772565b1415613e9857506001919050565b506000919050565b6001805473ffffffffffffffffffffffffffffffffffffffff8381167fffffffffffffffffffffffff0000000000000000000000000000000000000000831681179093556040519116919082907f8be0079c531659141344cd1fd0a4f28419497f9722a3daafe3b4186f6b6457e090600090a35050565b60015474010000000000000000000000000000000000000000900460ff1615613f825760405162461bcd60e51b815260206004820152601060248201527f5061757361626c653a207061757365640000000000000000000000000000000060448201526064016106b5565b600180547fffffffffffffffffffffff00ffffffffffffffffffffffffffffffffffffffff16740100000000000000000000000000000000000000001790557f62e78cea01bee320cd4e420270b5ea74000d11b0c9f74754ebdbfc544b05a258613e283390565b60008181526007602081815260408084206003810180548652600480855292862080547fffffffffffffffffffffffffffffffffffffffffffffffffffffffffffffff0016905586865293909252838255600182018490556002820180547fffffffffffffffffffffffff0000000000000000000000000000000000000000169055918390559081018290556005810180547fffffffffffffff00000000000000000000000000000000000000000000000000169055906140ad60068301826143ea565b505060008181526006602081815260408084208054855260058352908420849055938352529055565b6000614138826040518060400160405280602081526020017f5361666545524332303a206c6f772d6c6576656c2063616c6c206661696c65648152508573ffffffffffffffffffffffffffffffffffffffff166141c89092919063ffffffff16565b805190915015613c6e57808060200190518101906141569190614df8565b613c6e5760405162461bcd60e51b815260206004820152602a60248201527f5361666545524332303a204552433230206f7065726174696f6e20646964206e60448201527f6f7420737563636565640000000000000000000000000000000000000000000060648201526084016106b5565b60606141d784846000856141e1565b90505b9392505050565b6060824710156142595760405162461bcd60e51b815260206004820152602660248201527f416464726573733a20696e73756666696369656e742062616c616e636520666f60448201527f722063616c6c000000000000000000000000000000000000000000000000000060648201526084016106b5565b843b6142a75760405162461bcd60e51b815260206004820152601d60248201527f416464726573733a2063616c6c20746f206e6f6e2d636f6e747261637400000060448201526064016106b5565b6000808673ffffffffffffffffffffffffffffffffffffffff1685876040516142d09190614e15565b60006040518083038185875af1925050503d806000811461430d576040519150601f19603f3d011682016040523d82523d6000602084013e614312565b606091505b509150915061432282828661432d565b979650505050505050565b6060831561433c5750816141da565b82511561434c5782518084602001fd5b8160405162461bcd60e51b81526004016106b59190614e31565b828054614372906149a4565b90600052602060002090601f01602090048101928261439457600085556143da565b82601f106143ad57805160ff19168380011785556143da565b828001600101855582156143da579182015b828111156143da5782518255916020019190600101906143bf565b506143e6929150614420565b5090565b5080546143f6906149a4565b6000825580601f10614406575050565b601f01602090049060005260206000209081019061385a91905b5b808211156143e65760008155600101614421565b6000806040838503121561444857600080fd5b50508035926020909101359150565b60006020828403121561446957600080fd5b5035919050565b803563ffffffff8116811461448457600080fd5b919050565b7f4e487b7100000000000000000000000000000000000000000000000000000000600052604160045260246000fd5b604051610160810167ffffffffffffffff811182821017156144dc576144dc614489565b60405290565b600082601f8301126144f357600080fd5b813567ffffffffffffffff8082111561450e5761450e614489565b604051601f83017fffffffffffffffffffffffffffffffffffffffffffffffffffffffffffffffe0908116603f0116810190828211818310171561455457614554614489565b8160405283815286602085880101111561456d57600080fd5b836020870160208301376000602085830101528094505050505092915050565b73ffffffffffffffffffffffffffffffffffffffff8116811461385a57600080fd5b80356144848161458d565b801515811461385a57600080fd5b8035614484816145ba565b6000806000808486036101c08112156145eb57600080fd5b853594506145fb60208701614470565b9350604086013567ffffffffffffffff81111561461757600080fd5b614623888289016144e2565b935050610160807fffffffffffffffffffffffffffffffffffffffffffffffffffffffffffffffa08301121561465857600080fd5b6146606144b8565b915061466e606088016145af565b825261467c608088016145af565b602083015261468d60a088016145af565b604083015261469e60c088016145c8565b606083015260e087013560808301526101008088013560a08401526101208089013560c0850152610140808a013560e0860152838a0135838601526101808a0135828601526101a08a013581860152505050508091505092959194509250565b6000806040838503121561471157600080fd5b823561471c8161458d565b946020939093013593505050565b8035600c811061448457600080fd5b6000806040838503121561474c57600080fd5b61471c8361472a565b60006020828403121561476757600080fd5b81356141da8161458d565b7f4e487b7100000000000000000000000000000000000000000000000000000000600052602160045260246000fd5b600c81106147d8577f4e487b7100000000000000000000000000000000000000000000000000000000600052602160045260246000fd5b9052565b60005b838110156147f75781810151838201526020016147df565b83811115613b005750506000910152565b600081518084526148208160208601602086016147dc565b601f017fffffffffffffffffffffffffffffffffffffffffffffffffffffffffffffffe0169290920160200192915050565b60208152815160208201526020820151604082015260006040830151614890606084018273ffffffffffffffffffffffffffffffffffffffff169052565b5060608301516080830152608083015160a083015260a08301516148cc60c084018273ffffffffffffffffffffffffffffffffffffffff169052565b5060c083015163ffffffff811660e08401525060e08301516101006148f3818501836147a1565b84015161012084810152905061490d610140840182614808565b949350505050565b60006020828403121561492757600080fd5b6116438261472a565b600080600080600060a0868803121561494857600080fd5b853594506020860135935060408601356149618161458d565b925061496f60608701614470565b9150608086013567ffffffffffffffff81111561498b57600080fd5b614997888289016144e2565b9150509295509295909350565b600181811c908216806149b857607f821691505b60208210811415611b50577f4e487b7100000000000000000000000000000000000000000000000000000000600052602260045260246000fd5b8054600090600181811c9080831680614a0c57607f831692505b6020808410821415614a47577f4e487b7100000000000000000000000000000000000000000000000000000000600052602260045260246000fd5b83885260208801828015614a625760018114614a9157614abc565b7fffffffffffffffffffffffffffffffffffffffffffffffffffffffffffffff00871682528282019750614abc565b60008981526020902060005b87811015614ab657815484820152908601908401614a9d565b83019850505b5050505050505092915050565b60006101208b835263ffffffff8b166020840152806040840152614aef8184018b6149f2565b73ffffffffffffffffffffffffffffffffffffffff998a1660608501526080840198909852505060a081019490945260c084019290925290931660e082015261010001919091529392505050565b600060208284031215614b4f57600080fd5b5051919050565b600061020088835263ffffffff88166020840152806040840152614b7c818401886149f2565b915050614bbe60608301614ba4875473ffffffffffffffffffffffffffffffffffffffff1690565b73ffffffffffffffffffffffffffffffffffffffff169052565b600185015473ffffffffffffffffffffffffffffffffffffffff1673ffffffffffffffffffffffffffffffffffffffff8116608084015250600285015473ffffffffffffffffffffffffffffffffffffffff811660a0840152614c2b60c0840160ff8360a01c1615159052565b50600385015460e0830152600485015461010083015260058501546101208301526006850154610140830152600785015461016083015260088501546101808301526009909401546101a082015273ffffffffffffffffffffffffffffffffffffffff9283166101c082015291166101e0909101529392505050565b7f4e487b7100000000000000000000000000000000000000000000000000000000600052603260045260246000fd5b7f4e487b7100000000000000000000000000000000000000000000000000000000600052601160045260246000fd5b60007fffffffffffffffffffffffffffffffffffffffffffffffffffffffffffffffff821415614d3757614d37614cd6565b5060010190565b600082821015614d5057614d50614cd6565b500390565b7f4e487b7100000000000000000000000000000000000000000000000000000000600052603160045260246000fd5b600060208284031215614d9657600080fd5b81516141da8161458d565b60008060408385031215614db457600080fd5b505080516020909101519092909150565b60408101614dd382856147a1565b6141da60208301846147a1565b60008219821115614df357614df3614cd6565b500190565b600060208284031215614e0a57600080fd5b81516141da816145ba565b60008251614e278184602087016147dc565b9190910192915050565b602081526000611643602083018461480856fea26469706673582212204df565e57723de3778b53cacf99992839d9a5e438fc12fb6dd2748944b2bf11564736f6c634300080a0033",
  "linkReferences": {},
  "deployedLinkReferences": {}
}