{
  "_format": "hh-sol-artifact-1",
  "contractName": "StakingRewards",
  "sourceName": "contracts/StakingRewards.sol",
  "abi": [
    {
      "inputs": [
        {
          "internalType": "address",
          "name": "_rewardsDistribution",
          "type": "address"
        },
        {
          "internalType": "address",
          "name": "_rewardsToken",
          "type": "address"
        },
        {
          "internalType": "address",
          "name": "_stakingToken",
          "type": "address"
        },
        {
          "internalType": "contract MasterChef",
          "name": "_masterChef",
          "type": "address"
        }
      ],
      "stateMutability": "nonpayable",
      "type": "constructor"
    },
    {
      "anonymous": false,
      "inputs": [
        {
          "indexed": true,
          "internalType": "address",
          "name": "previousOwner",
          "type": "address"
        },
        {
          "indexed": true,
          "internalType": "address",
          "name": "newOwner",
          "type": "address"
        }
      ],
      "name": "OwnershipTransferred",
      "type": "event"
    },
    {
      "anonymous": false,
      "inputs": [
        {
          "indexed": false,
          "internalType": "address",
          "name": "account",
          "type": "address"
        }
      ],
      "name": "Paused",
      "type": "event"
    },
    {
      "anonymous": false,
      "inputs": [
        {
          "indexed": false,
          "internalType": "address",
          "name": "token",
          "type": "address"
        },
        {
          "indexed": false,
          "internalType": "uint256",
          "name": "amount",
          "type": "uint256"
        }
      ],
      "name": "Recovered",
      "type": "event"
    },
    {
      "anonymous": false,
      "inputs": [
        {
          "indexed": false,
          "internalType": "uint256",
          "name": "reward",
          "type": "uint256"
        }
      ],
      "name": "RewardAdded",
      "type": "event"
    },
    {
      "anonymous": false,
      "inputs": [
        {
          "indexed": true,
          "internalType": "address",
          "name": "user",
          "type": "address"
        },
        {
          "indexed": false,
          "internalType": "uint256",
          "name": "reward",
          "type": "uint256"
        }
      ],
      "name": "RewardPaid",
      "type": "event"
    },
    {
      "anonymous": false,
      "inputs": [
        {
          "indexed": true,
          "internalType": "address",
          "name": "newDistribution",
          "type": "address"
        }
      ],
      "name": "RewardsDistributionUpdated",
      "type": "event"
    },
    {
      "anonymous": false,
      "inputs": [
        {
          "indexed": false,
          "internalType": "uint256",
          "name": "newDuration",
          "type": "uint256"
        }
      ],
      "name": "RewardsDurationUpdated",
      "type": "event"
    },
    {
      "anonymous": false,
      "inputs": [
        {
          "indexed": true,
          "internalType": "address",
          "name": "user",
          "type": "address"
        },
        {
          "indexed": false,
          "internalType": "uint256",
          "name": "amount",
          "type": "uint256"
        }
      ],
      "name": "Staked",
      "type": "event"
    },
    {
      "anonymous": false,
      "inputs": [
        {
          "indexed": false,
          "internalType": "address",
          "name": "account",
          "type": "address"
        }
      ],
      "name": "Unpaused",
      "type": "event"
    },
    {
      "anonymous": false,
      "inputs": [
        {
          "indexed": true,
          "internalType": "address",
          "name": "user",
          "type": "address"
        },
        {
          "indexed": false,
          "internalType": "uint256",
          "name": "amount",
          "type": "uint256"
        }
      ],
      "name": "Withdrawn",
      "type": "event"
    },
    {
      "inputs": [
        {
          "internalType": "address",
          "name": "account",
          "type": "address"
        }
      ],
      "name": "balanceOf",
      "outputs": [
        {
          "internalType": "uint256",
          "name": "",
          "type": "uint256"
        }
      ],
      "stateMutability": "view",
      "type": "function"
    },
    {
      "inputs": [
        {
          "internalType": "address",
          "name": "account",
          "type": "address"
        }
      ],
      "name": "earned",
      "outputs": [
        {
          "internalType": "uint256",
          "name": "",
          "type": "uint256"
        }
      ],
      "stateMutability": "view",
      "type": "function"
    },
    {
      "inputs": [],
      "name": "exit",
      "outputs": [],
      "stateMutability": "nonpayable",
      "type": "function"
    },
    {
      "inputs": [],
      "name": "getReward",
      "outputs": [],
      "stateMutability": "nonpayable",
      "type": "function"
    },
    {
      "inputs": [],
      "name": "getRewardForDuration",
      "outputs": [
        {
          "internalType": "uint256",
          "name": "",
          "type": "uint256"
        }
      ],
      "stateMutability": "view",
      "type": "function"
    },
    {
      "inputs": [],
      "name": "lastTimeRewardApplicable",
      "outputs": [
        {
          "internalType": "uint256",
          "name": "",
          "type": "uint256"
        }
      ],
      "stateMutability": "view",
      "type": "function"
    },
    {
      "inputs": [],
      "name": "lastUpdateTime",
      "outputs": [
        {
          "internalType": "uint256",
          "name": "",
          "type": "uint256"
        }
      ],
      "stateMutability": "view",
      "type": "function"
    },
    {
      "inputs": [],
      "name": "masterChef",
      "outputs": [
        {
          "internalType": "contract MasterChef",
          "name": "",
          "type": "address"
        }
      ],
      "stateMutability": "view",
      "type": "function"
    },
    {
      "inputs": [
        {
          "internalType": "uint256",
          "name": "reward",
          "type": "uint256"
        }
      ],
      "name": "notifyRewardAmount",
      "outputs": [],
      "stateMutability": "nonpayable",
      "type": "function"
    },
    {
      "inputs": [],
      "name": "owner",
      "outputs": [
        {
          "internalType": "address",
          "name": "",
          "type": "address"
        }
      ],
      "stateMutability": "view",
      "type": "function"
    },
    {
      "inputs": [],
      "name": "paused",
      "outputs": [
        {
          "internalType": "bool",
          "name": "",
          "type": "bool"
        }
      ],
      "stateMutability": "view",
      "type": "function"
    },
    {
      "inputs": [],
      "name": "periodFinish",
      "outputs": [
        {
          "internalType": "uint256",
          "name": "",
          "type": "uint256"
        }
      ],
      "stateMutability": "view",
      "type": "function"
    },
    {
      "inputs": [
        {
          "internalType": "address",
          "name": "tokenAddress",
          "type": "address"
        },
        {
          "internalType": "uint256",
          "name": "tokenAmount",
          "type": "uint256"
        }
      ],
      "name": "recoverERC20",
      "outputs": [],
      "stateMutability": "nonpayable",
      "type": "function"
    },
    {
      "inputs": [],
      "name": "renounceOwnership",
      "outputs": [],
      "stateMutability": "nonpayable",
      "type": "function"
    },
    {
      "inputs": [],
      "name": "rewardPerToken",
      "outputs": [
        {
          "internalType": "uint256",
          "name": "",
          "type": "uint256"
        }
      ],
      "stateMutability": "view",
      "type": "function"
    },
    {
      "inputs": [],
      "name": "rewardPerTokenStored",
      "outputs": [
        {
          "internalType": "uint256",
          "name": "",
          "type": "uint256"
        }
      ],
      "stateMutability": "view",
      "type": "function"
    },
    {
      "inputs": [],
      "name": "rewardRate",
      "outputs": [
        {
          "internalType": "uint256",
          "name": "",
          "type": "uint256"
        }
      ],
      "stateMutability": "view",
      "type": "function"
    },
    {
      "inputs": [
        {
          "internalType": "address",
          "name": "",
          "type": "address"
        }
      ],
      "name": "rewards",
      "outputs": [
        {
          "internalType": "uint256",
          "name": "",
          "type": "uint256"
        }
      ],
      "stateMutability": "view",
      "type": "function"
    },
    {
      "inputs": [],
      "name": "rewardsDistribution",
      "outputs": [
        {
          "internalType": "address",
          "name": "",
          "type": "address"
        }
      ],
      "stateMutability": "view",
      "type": "function"
    },
    {
      "inputs": [],
      "name": "rewardsDuration",
      "outputs": [
        {
          "internalType": "uint256",
          "name": "",
          "type": "uint256"
        }
      ],
      "stateMutability": "view",
      "type": "function"
    },
    {
      "inputs": [],
      "name": "rewardsToken",
      "outputs": [
        {
          "internalType": "contract IERC20",
          "name": "",
          "type": "address"
        }
      ],
      "stateMutability": "view",
      "type": "function"
    },
    {
      "inputs": [
        {
          "internalType": "address",
          "name": "_rewardsDistribution",
          "type": "address"
        }
      ],
      "name": "setRewardsDistribution",
      "outputs": [],
      "stateMutability": "nonpayable",
      "type": "function"
    },
    {
      "inputs": [
        {
          "internalType": "uint256",
          "name": "_rewardsDuration",
          "type": "uint256"
        }
      ],
      "name": "setRewardsDuration",
      "outputs": [],
      "stateMutability": "nonpayable",
      "type": "function"
    },
    {
      "inputs": [
        {
          "internalType": "uint256",
          "name": "amount",
          "type": "uint256"
        }
      ],
      "name": "stake",
      "outputs": [],
      "stateMutability": "nonpayable",
      "type": "function"
    },
    {
      "inputs": [],
      "name": "stakingToken",
      "outputs": [
        {
          "internalType": "contract IERC20",
          "name": "",
          "type": "address"
        }
      ],
      "stateMutability": "view",
      "type": "function"
    },
    {
      "inputs": [],
      "name": "totalSupply",
      "outputs": [
        {
          "internalType": "uint256",
          "name": "",
          "type": "uint256"
        }
      ],
      "stateMutability": "view",
      "type": "function"
    },
    {
      "inputs": [
        {
          "internalType": "address",
          "name": "newOwner",
          "type": "address"
        }
      ],
      "name": "transferOwnership",
      "outputs": [],
      "stateMutability": "nonpayable",
      "type": "function"
    },
    {
      "inputs": [
        {
          "internalType": "address",
          "name": "",
          "type": "address"
        }
      ],
      "name": "userRewardPerTokenPaid",
      "outputs": [
        {
          "internalType": "uint256",
          "name": "",
          "type": "uint256"
        }
      ],
      "stateMutability": "view",
      "type": "function"
    },
    {
      "inputs": [
        {
          "internalType": "uint256",
          "name": "amount",
          "type": "uint256"
        }
      ],
      "name": "withdraw",
      "outputs": [],
      "stateMutability": "nonpayable",
      "type": "function"
    }
  ],
  "bytecode": "0x60a06040526000600455600060055562093a806006553480156200002257600080fd5b506040516200182538038062001825833981016040819052620000459162000110565b6200005033620000a7565b60018055600280546001600160a01b03948516610100026001600160a81b0319909116179055600380549284166001600160a01b0319938416179055600d8054948416949092169390931790551660805262000178565b600080546001600160a01b038381166001600160a01b0319831681178455604051919092169283917f8be0079c531659141344cd1fd0a4f28419497f9722a3daafe3b4186f6b6457e09190a35050565b6001600160a01b03811681146200010d57600080fd5b50565b600080600080608085870312156200012757600080fd5b84516200013481620000f7565b60208601519094506200014781620000f7565b60408601519093506200015a81620000f7565b60608601519092506200016d81620000f7565b939692955090935050565b608051611675620001b0600039600081816102a501528181610662015281816106f301528181610db60152610e4701526116756000f3fe608060405234801561001057600080fd5b50600436106101ce5760003560e01c806372f702f311610104578063c8f33c91116100a2578063df136d6511610071578063df136d65146103c5578063e9fad8ee146103ce578063ebe2b12b146103d6578063f2fde38b146103df57600080fd5b8063c8f33c9114610389578063cc1a378f14610392578063cd3daf9d146103a5578063d1af0c7d146103ad57600080fd5b80638980f11f116100de5780638980f11f146103325780638b876347146103455780638da5cb5b14610365578063a694fc3a1461037657600080fd5b806372f702f31461030e5780637b0a47ee1461032157806380faa57d1461032a57600080fd5b80633c6b16ab11610171578063575a86b21161014b578063575a86b2146102a05780635c975abb146102c757806370a08231146102dd578063715018a61461030657600080fd5b80633c6b16ab1461025a5780633d18b9121461026d5780633fc6df6e1461027557600080fd5b806319762143116101ad57806319762143146102215780631c1f78eb146102365780632e1a7d4d1461023e578063386a95251461025157600080fd5b80628cc262146101d35780630700037d146101f957806318160ddd14610219575b600080fd5b6101e66101e13660046113df565b6103f2565b6040519081526020015b60405180910390f35b6101e66102073660046113df565b600a6020526000908152604090205481565b600b546101e6565b61023461022f3660046113df565b61046f565b005b6101e661050d565b61023461024c3660046113fa565b610524565b6101e660065481565b6102346102683660046113fa565b610796565b6102346109df565b600d54610288906001600160a01b031681565b6040516001600160a01b0390911681526020016101f0565b6102887f000000000000000000000000000000000000000000000000000000000000000081565b60025460ff1660405190151581526020016101f0565b6101e66102eb3660046113df565b6001600160a01b03166000908152600c602052604090205490565b610234610ae3565b600354610288906001600160a01b031681565b6101e660055481565b6101e6610b19565b610234610340366004611413565b610b30565b6101e66103533660046113df565b60096020526000908152604090205481565b6000546001600160a01b0316610288565b6102346103843660046113fa565b610c2e565b6101e660075481565b6102346103a03660046113fa565b610edd565b6101e6610f63565b6002546102889061010090046001600160a01b031681565b6101e660085481565b610234610fc5565b6101e660045481565b6102346103ed3660046113df565b610fe6565b6001600160a01b0381166000908152600a60209081526040808320546009909252822054670de0b6b3a764000090610428610f63565b6104329190611453565b6001600160a01b0385166000908152600c6020526040902054610455919061146a565b61045f9190611489565b61046991906114ab565b92915050565b6000546001600160a01b031633146104a25760405162461bcd60e51b8152600401610499906114c3565b60405180910390fd5b60045442116104c35760405162461bcd60e51b8152600401610499906114f8565b600d80546001600160a01b0319166001600160a01b0383169081179091556040517f1c794a043683a294127c95bc365bae91b63b651eb9884a2c9120afee2bb690b490600090a250565b600060065460055461051f919061146a565b905090565b600260015414156105475760405162461bcd60e51b81526004016104999061157b565b600260015533610555610f63565b600855610560610b19565b6007556001600160a01b038116156105a75761057b816103f2565b6001600160a01b0382166000908152600a60209081526040808320939093556008546009909152919020555b600082116105eb5760405162461bcd60e51b8152602060048201526011602482015270043616e6e6f74207769746864726177203607c1b6044820152606401610499565b81600b60008282546105fd9190611453565b9091555050336000908152600c602052604081208054849290610621908490611453565b909155505060035461063d906001600160a01b03163384611081565b600354604051636c13a68560e11b81526001600160a01b0391821660048201526000917f0000000000000000000000000000000000000000000000000000000000000000169063d8274d0a90602401602060405180830381865afa1580156106a9573d6000803e3d6000fd5b505050506040513d601f19601f820116820180604052508101906106cd91906115b2565b604051635ae2fb3960e11b815233600482015260248101829052604481018590529091507f00000000000000000000000000000000000000000000000000000000000000006001600160a01b03169063b5c5f67290606401600060405180830381600087803b15801561073f57600080fd5b505af1158015610753573d6000803e3d6000fd5b50506040518581523392507f7084f5476618d8e60b11ef0d7d3f06914655adb8793e28ff7f018d4c76d505d591506020015b60405180910390a250506001805550565b60006107a0610f63565b6008556107ab610b19565b6007556001600160a01b038116156107f2576107c6816103f2565b6001600160a01b0382166000908152600a60209081526040808320939093556008546009909152919020555b600d546001600160a01b0316331461085f5760405162461bcd60e51b815260206004820152602a60248201527f43616c6c6572206973206e6f742052657761726473446973747269627574696f6044820152691b8818dbdb9d1c9858dd60b21b6064820152608401610499565b600454421061087d576006546108759083611489565b6005556108bf565b60004260045461088d9190611453565b905060006005548261089f919061146a565b6006549091506108af82866114ab565b6108b99190611489565b60055550505b6002546040516370a0823160e01b815230600482015260009161010090046001600160a01b0316906370a0823190602401602060405180830381865afa15801561090d573d6000803e3d6000fd5b505050506040513d601f19601f8201168201806040525081019061093191906115b2565b9050600654816109419190611489565b60055411156109925760405162461bcd60e51b815260206004820152601860248201527f50726f76696465642072657761726420746f6f206869676800000000000000006044820152606401610499565b4260078190556006546109a4916114ab565b6004556040518381527fde88a922e0d3b88b24e9623efeb464919c6bf9f66857a65e2bfcf2ce87a9433d9060200160405180910390a1505050565b60026001541415610a025760405162461bcd60e51b81526004016104999061157b565b600260015533610a10610f63565b600855610a1b610b19565b6007556001600160a01b03811615610a6257610a36816103f2565b6001600160a01b0382166000908152600a60209081526040808320939093556008546009909152919020555b336000908152600a60205260409020548015610adb57336000818152600a6020526040812055600254610aa5916101009091046001600160a01b03169083611081565b60405181815233907fe2403640ba68fed3a2f88b7557551d1993f84b99bb10ff833f0cf8db0c5e04869060200160405180910390a25b505060018055565b6000546001600160a01b03163314610b0d5760405162461bcd60e51b8152600401610499906114c3565b610b1760006110e9565b565b60006004544210610b2b575060045490565b504290565b6000546001600160a01b03163314610b5a5760405162461bcd60e51b8152600401610499906114c3565b6003546001600160a01b0383811691161415610bc25760405162461bcd60e51b815260206004820152602160248201527f43616e6e6f7420776974686472617720746865207374616b696e6720746f6b656044820152603760f91b6064820152608401610499565b610be8610bd76000546001600160a01b031690565b6001600160a01b0384169083611081565b604080516001600160a01b0384168152602081018390527f8c1256b8896378cd5044f80c202f9772b9d77dc85c8a6eb51967210b09bfaa28910160405180910390a15050565b60026001541415610c515760405162461bcd60e51b81526004016104999061157b565b6002600155610c6260025460ff1690565b15610ca25760405162461bcd60e51b815260206004820152601060248201526f14185d5cd8589b194e881c185d5cd95960821b6044820152606401610499565b33610cab610f63565b600855610cb6610b19565b6007556001600160a01b03811615610cfd57610cd1816103f2565b6001600160a01b0382166000908152600a60209081526040808320939093556008546009909152919020555b60008211610d3e5760405162461bcd60e51b815260206004820152600e60248201526d043616e6e6f74207374616b6520360941b6044820152606401610499565b81600b6000828254610d5091906114ab565b9091555050336000908152600c602052604081208054849290610d749084906114ab565b9091555050600354610d91906001600160a01b0316333085611139565b600354604051636c13a68560e11b81526001600160a01b0391821660048201526000917f0000000000000000000000000000000000000000000000000000000000000000169063d8274d0a90602401602060405180830381865afa158015610dfd573d6000803e3d6000fd5b505050506040513d601f19601f82011682018060405250810190610e2191906115b2565b604051630efe6a8b60e01b815233600482015260248101829052604481018590529091507f00000000000000000000000000000000000000000000000000000000000000006001600160a01b031690630efe6a8b90606401600060405180830381600087803b158015610e9357600080fd5b505af1158015610ea7573d6000803e3d6000fd5b50506040518581523392507f9e71bc8eea02a63969f509818f2dafb9254532904319f9dbda79b67bd34a5f3d9150602001610785565b6000546001600160a01b03163314610f075760405162461bcd60e51b8152600401610499906114c3565b6004544211610f285760405162461bcd60e51b8152600401610499906114f8565b60068190556040518181527ffb46ca5a5e06d4540d6387b930a7c978bce0db5f449ec6b3f5d07c6e1d44f2d39060200160405180910390a150565b6000600b5460001415610f77575060085490565b600b54600554600754610f88610b19565b610f929190611453565b610f9c919061146a565b610fae90670de0b6b3a764000061146a565b610fb89190611489565b60085461051f91906114ab565b336000908152600c6020526040902054610fde90610524565b610b176109df565b6000546001600160a01b031633146110105760405162461bcd60e51b8152600401610499906114c3565b6001600160a01b0381166110755760405162461bcd60e51b815260206004820152602660248201527f4f776e61626c653a206e6577206f776e657220697320746865207a65726f206160448201526564647265737360d01b6064820152608401610499565b61107e816110e9565b50565b6040516001600160a01b0383166024820152604481018290526110e490849063a9059cbb60e01b906064015b60408051601f198184030181529190526020810180516001600160e01b03166001600160e01b031990931692909217909152611177565b505050565b600080546001600160a01b038381166001600160a01b0319831681178455604051919092169283917f8be0079c531659141344cd1fd0a4f28419497f9722a3daafe3b4186f6b6457e09190a35050565b6040516001600160a01b03808516602483015283166044820152606481018290526111719085906323b872dd60e01b906084016110ad565b50505050565b60006111cc826040518060400160405280602081526020017f5361666545524332303a206c6f772d6c6576656c2063616c6c206661696c6564815250856001600160a01b03166112499092919063ffffffff16565b8051909150156110e457808060200190518101906111ea91906115cb565b6110e45760405162461bcd60e51b815260206004820152602a60248201527f5361666545524332303a204552433230206f7065726174696f6e20646964206e6044820152691bdd081cdd58d8d9595960b21b6064820152608401610499565b60606112588484600085611262565b90505b9392505050565b6060824710156112c35760405162461bcd60e51b815260206004820152602660248201527f416464726573733a20696e73756666696369656e742062616c616e636520666f6044820152651c8818d85b1b60d21b6064820152608401610499565b843b6113115760405162461bcd60e51b815260206004820152601d60248201527f416464726573733a2063616c6c20746f206e6f6e2d636f6e74726163740000006044820152606401610499565b600080866001600160a01b0316858760405161132d9190611619565b60006040518083038185875af1925050503d806000811461136a576040519150601f19603f3d011682016040523d82523d6000602084013e61136f565b606091505b509150915061137f82828661138a565b979650505050505050565b6060831561139957508161125b565b8251156113a95782518084602001fd5b8160405162461bcd60e51b81526004016104999190611635565b80356001600160a01b03811681146113da57600080fd5b919050565b6000602082840312156113f157600080fd5b61125b826113c3565b60006020828403121561140c57600080fd5b5035919050565b6000806040838503121561142657600080fd5b61142f836113c3565b946020939093013593505050565b634e487b7160e01b600052601160045260246000fd5b6000828210156114655761146561143d565b500390565b60008160001904831182151516156114845761148461143d565b500290565b6000826114a657634e487b7160e01b600052601260045260246000fd5b500490565b600082198211156114be576114be61143d565b500190565b6020808252818101527f4f776e61626c653a2063616c6c6572206973206e6f7420746865206f776e6572604082015260600190565b60208082526058908201527f50726576696f7573207265776172647320706572696f64206d7573742062652060408201527f636f6d706c657465206265666f7265206368616e67696e67207468652064757260608201527f6174696f6e20666f7220746865206e657720706572696f640000000000000000608082015260a00190565b6020808252601f908201527f5265656e7472616e637947756172643a207265656e7472616e742063616c6c00604082015260600190565b6000602082840312156115c457600080fd5b5051919050565b6000602082840312156115dd57600080fd5b8151801515811461125b57600080fd5b60005b838110156116085781810151838201526020016115f0565b838111156111715750506000910152565b6000825161162b8184602087016115ed565b9190910192915050565b60208152600082518060208401526116548160408501602087016115ed565b601f01601f1916919091016040019291505056fea164736f6c634300080b000a",
  "linkReferences": {},
  "deployedLinkReferences": {}
}