{
  "_format": "hh-sol-artifact-1",
  "contractName": "ConcurRewardPool",
  "sourceName": "contracts/ConcurRewardPool.sol",
  "abi": [
    {
      "inputs": [
        {
          "internalType": "address",
          "name": "_notifier",
          "type": "address"
        }
      ],
      "stateMutability": "nonpayable",
      "type": "constructor"
    },
    {
      "inputs": [
        {
          "internalType": "address[]",
          "name": "_tokens",
          "type": "address[]"
        }
      ],
      "name": "claimRewards",
      "outputs": [],
      "stateMutability": "nonpayable",
      "type": "function"
    },
    {
      "inputs": [
        {
          "internalType": "address",
          "name": "_recipient",
          "type": "address"
        },
        {
          "internalType": "address",
          "name": "_token",
          "type": "address"
        },
        {
          "internalType": "uint256",
          "name": "_amount",
          "type": "uint256"
        }
      ],
      "name": "pushReward",
      "outputs": [],
      "stateMutability": "nonpayable",
      "type": "function"
    },
    {
      "inputs": [
        {
          "internalType": "address",
          "name": "",
          "type": "address"
        },
        {
          "internalType": "address",
          "name": "",
          "type": "address"
        }
      ],
      "name": "reward",
      "outputs": [
        {
          "internalType": "uint256",
          "name": "",
          "type": "uint256"
        }
      ],
      "stateMutability": "view",
      "type": "function"
    },
    {
      "inputs": [],
      "name": "rewardNotifier",
      "outputs": [
        {
          "internalType": "address",
          "name": "",
          "type": "address"
        }
      ],
      "stateMutability": "view",
      "type": "function"
    }
  ],
  "bytecode": "0x60a060405234801561001057600080fd5b506040516107e43803806107e483398101604081905261002f91610040565b6001600160a01b0316608052610070565b60006020828403121561005257600080fd5b81516001600160a01b038116811461006957600080fd5b9392505050565b608051610754610090600039600081816056015260fe01526107546000f3fe608060405234801561001057600080fd5b506004361061004c5760003560e01c8063210749a6146100515780634d5b008114610095578063b2d2d5c1146100cb578063f9f031df146100e0575b600080fd5b6100787f000000000000000000000000000000000000000000000000000000000000000081565b6040516001600160a01b0390911681526020015b60405180910390f35b6100bd6100a3366004610548565b600060208181529281526040808220909352908152205481565b60405190815260200161008c565b6100de6100d936600461057b565b6100f3565b005b6100de6100ee3660046105b7565b61019b565b336001600160a01b037f0000000000000000000000000000000000000000000000000000000000000000161461015c5760405162461bcd60e51b815260206004820152600960248201526810b737ba34b334b2b960b91b60448201526064015b60405180910390fd5b6001600160a01b0380841660009081526020818152604080832093861683529290529081208054839290610191908490610642565b9091555050505050565b60005b818110156102a057336000908152602081905260408120818585858181106101c8576101c861065a565b90506020020160208101906101dd9190610670565b6001600160a01b03166001600160a01b0316815260200190815260200160002054905061023c33828686868181106102175761021761065a565b905060200201602081019061022c9190610670565b6001600160a01b031691906102a5565b3360009081526020819052604081208186868681811061025e5761025e61065a565b90506020020160208101906102739190610670565b6001600160a01b0316815260208101919091526040016000205550806102988161068b565b91505061019e565b505050565b604080516001600160a01b03848116602483015260448083018590528351808403909101815260649092018352602080830180516001600160e01b031663a9059cbb60e01b17905283518085019094528084527f5361666545524332303a206c6f772d6c6576656c2063616c6c206661696c6564908401526102a0928692916000916103359185169084906103b2565b8051909150156102a0578080602001905181019061035391906106a6565b6102a05760405162461bcd60e51b815260206004820152602a60248201527f5361666545524332303a204552433230206f7065726174696f6e20646964206e6044820152691bdd081cdd58d8d9595960b21b6064820152608401610153565b60606103c184846000856103cb565b90505b9392505050565b60608247101561042c5760405162461bcd60e51b815260206004820152602660248201527f416464726573733a20696e73756666696369656e742062616c616e636520666f6044820152651c8818d85b1b60d21b6064820152608401610153565b843b61047a5760405162461bcd60e51b815260206004820152601d60248201527f416464726573733a2063616c6c20746f206e6f6e2d636f6e74726163740000006044820152606401610153565b600080866001600160a01b0316858760405161049691906106f8565b60006040518083038185875af1925050503d80600081146104d3576040519150601f19603f3d011682016040523d82523d6000602084013e6104d8565b606091505b50915091506104e88282866104f3565b979650505050505050565b606083156105025750816103c4565b8251156105125782518084602001fd5b8160405162461bcd60e51b81526004016101539190610714565b80356001600160a01b038116811461054357600080fd5b919050565b6000806040838503121561055b57600080fd5b6105648361052c565b91506105726020840161052c565b90509250929050565b60008060006060848603121561059057600080fd5b6105998461052c565b92506105a76020850161052c565b9150604084013590509250925092565b600080602083850312156105ca57600080fd5b823567ffffffffffffffff808211156105e257600080fd5b818501915085601f8301126105f657600080fd5b81358181111561060557600080fd5b8660208260051b850101111561061a57600080fd5b60209290920196919550909350505050565b634e487b7160e01b600052601160045260246000fd5b600082198211156106555761065561062c565b500190565b634e487b7160e01b600052603260045260246000fd5b60006020828403121561068257600080fd5b6103c48261052c565b600060001982141561069f5761069f61062c565b5060010190565b6000602082840312156106b857600080fd5b815180151581146103c457600080fd5b60005b838110156106e35781810151838201526020016106cb565b838111156106f2576000848401525b50505050565b6000825161070a8184602087016106c8565b9190910192915050565b60208152600082518060208401526107338160408501602087016106c8565b601f01601f1916919091016040019291505056fea164736f6c634300080b000a",
  "linkReferences": {},
  "deployedLinkReferences": {}
}