{
  "_format": "hh-sol-artifact-1",
  "contractName": "SafeBalanceTest",
  "sourceName": "contracts/test/libraries/SafeBalanceTest.sol",
  "abi": [
    {
      "inputs": [
        {
          "internalType": "contract IERC20",
          "name": "token",
          "type": "address"
        }
      ],
      "name": "safeBalance",
      "outputs": [
        {
          "internalType": "uint256",
          "name": "",
          "type": "uint256"
        }
      ],
      "stateMutability": "view",
      "type": "function"
    }
  ],
  "bytecode": "0x608060405234801561001057600080fd5b5061031f806100206000396000f3fe608060405234801561001057600080fd5b506004361061002b5760003560e01c8063d6c4647b14610030575b600080fd5b61004361003e3660046101fe565b610055565b60405190815260200160405180910390f35b600061006082610066565b92915050565b60408051306024808301919091528251808303909101815260449091018252602080820180516001600160e01b03166370a0823160e01b179052825160608101909352602d80845260009384936100d2939092906102bd908301396001600160a01b03861691906100ef565b9050808060200190518101906100e89190610225565b9392505050565b6060833b6101505760405162461bcd60e51b8152602060048201526024808201527f416464726573733a207374617469632063616c6c20746f206e6f6e2d636f6e746044820152631c9858dd60e21b60648201526084015b60405180910390fd5b600080856001600160a01b03168560405161016b919061023d565b600060405180830381855afa9150503d80600081146101a6576040519150601f19603f3d011682016040523d82523d6000602084013e6101ab565b606091505b50915091506101bb8282866101c5565b9695505050505050565b606083156101d45750816100e8565b8251156101e45782518084602001fd5b8160405162461bcd60e51b81526004016101479190610259565b60006020828403121561020f578081fd5b81356001600160a01b03811681146100e8578182fd5b600060208284031215610236578081fd5b5051919050565b6000825161024f81846020870161028c565b9190910192915050565b602081526000825180602084015261027881604085016020870161028c565b601f01601f19169190910160400192915050565b60005b838110156102a757818101518382015260200161028f565b838111156102b6576000848401525b5050505056fe62616c616e63654f662043616c6c20746f2049455243323020746f6b656e206e6f74207375636365737366756ca2646970667358221220953a557b8e30c9b9bbdeff21d77df614e1bb7d3634c3351c68adb5602fb4725564736f6c63430008040033",
  "linkReferences": {},
  "deployedLinkReferences": {}
}