{
  "_format": "hh-sol-artifact-1",
  "contractName": "PayMathTest",
  "sourceName": "contracts/test/libraries/PayMathTest.sol",
  "abi": [
    {
      "inputs": [
        {
          "internalType": "uint112",
          "name": "assetIn",
          "type": "uint112"
        },
        {
          "internalType": "uint112",
          "name": "collateralOut",
          "type": "uint112"
        },
        {
          "components": [
            {
              "internalType": "uint112",
              "name": "debt",
              "type": "uint112"
            },
            {
              "internalType": "uint112",
              "name": "collateral",
              "type": "uint112"
            },
            {
              "internalType": "uint32",
              "name": "startBlock",
              "type": "uint32"
            }
          ],
          "internalType": "struct IPair.Due",
          "name": "due",
          "type": "tuple"
        }
      ],
      "name": "checkProportional",
      "outputs": [
        {
          "internalType": "bool",
          "name": "",
          "type": "bool"
        }
      ],
      "stateMutability": "pure",
      "type": "function"
    }
  ],
  "bytecode": "0x608060405234801561001057600080fd5b50610225806100206000396000f3fe608060405234801561001057600080fd5b506004361061002b5760003560e01c80636857f70714610030575b600080fd5b61004361003e36600461010a565b610057565b604051901515815260200160405180910390f35b600061006484848461006e565b5060019392505050565b8051610087906001600160701b039081169084166101c4565b81602001516001600160701b0316846001600160701b03166100a991906101c4565b10156100e95760405162461bcd60e51b81526004016100e0906020808252600490820152634533303360e01b604082015260600190565b60405180910390fd5b505050565b80356001600160701b038116811461010557600080fd5b919050565b600080600083850360a081121561011f578384fd5b610128856100ee565b9350610136602086016100ee565b92506060603f1982011215610149578182fd5b506040516060810181811067ffffffffffffffff8211171561017957634e487b7160e01b83526041600452602483fd5b806040525061018a604086016100ee565b8152610198606086016100ee565b6020820152608085013563ffffffff811681146101b3578283fd5b604082015292959194509192509050565b60008160001904831182151516156101ea57634e487b7160e01b81526011600452602481fd5b50029056fea264697066735822122041d3fbfb68e9bc251c8124e64b55fee7ccdfc16654b9d3a1ca9a179d4d3b639964736f6c63430008040033",
  "linkReferences": {},
  "deployedLinkReferences": {}
}