{
  "_format": "hh-sol-artifact-1",
  "contractName": "ManagerTest",
  "sourceName": "contracts/test/ManagerTest.sol",
  "abi": [
    {
      "inputs": [],
      "name": "InvalidArgument",
      "type": "error"
    },
    {
      "inputs": [],
      "name": "InvalidConditions",
      "type": "error"
    },
    {
      "inputs": [],
      "name": "InvalidSender",
      "type": "error"
    },
    {
      "inputs": [],
      "name": "ZeroArgument",
      "type": "error"
    },
    {
      "anonymous": false,
      "inputs": [
        {
          "indexed": true,
          "internalType": "address",
          "name": "previousOwner",
          "type": "address"
        },
        {
          "indexed": true,
          "internalType": "address",
          "name": "newOwner",
          "type": "address"
        }
      ],
      "name": "OwnershipTransferred",
      "type": "event"
    },
    {
      "anonymous": false,
      "inputs": [
        {
          "indexed": false,
          "internalType": "address",
          "name": "account",
          "type": "address"
        }
      ],
      "name": "Paused",
      "type": "event"
    },
    {
      "anonymous": false,
      "inputs": [
        {
          "indexed": false,
          "internalType": "contract ISherlock",
          "name": "sherlock",
          "type": "address"
        }
      ],
      "name": "SherlockCoreSet",
      "type": "event"
    },
    {
      "anonymous": false,
      "inputs": [
        {
          "indexed": false,
          "internalType": "address",
          "name": "account",
          "type": "address"
        }
      ],
      "name": "Unpaused",
      "type": "event"
    },
    {
      "inputs": [],
      "name": "owner",
      "outputs": [
        {
          "internalType": "address",
          "name": "",
          "type": "address"
        }
      ],
      "stateMutability": "view",
      "type": "function"
    },
    {
      "inputs": [],
      "name": "pause",
      "outputs": [],
      "stateMutability": "nonpayable",
      "type": "function"
    },
    {
      "inputs": [],
      "name": "paused",
      "outputs": [
        {
          "internalType": "bool",
          "name": "",
          "type": "bool"
        }
      ],
      "stateMutability": "view",
      "type": "function"
    },
    {
      "inputs": [],
      "name": "renounceOwnership",
      "outputs": [],
      "stateMutability": "nonpayable",
      "type": "function"
    },
    {
      "inputs": [],
      "name": "revertsIfNotCore",
      "outputs": [],
      "stateMutability": "nonpayable",
      "type": "function"
    },
    {
      "inputs": [
        {
          "internalType": "contract ISherlock",
          "name": "_sherlock",
          "type": "address"
        }
      ],
      "name": "setSherlockCoreAddress",
      "outputs": [],
      "stateMutability": "nonpayable",
      "type": "function"
    },
    {
      "inputs": [
        {
          "internalType": "address",
          "name": "_receiver",
          "type": "address"
        },
        {
          "internalType": "contract IERC20[]",
          "name": "_extraTokens",
          "type": "address[]"
        }
      ],
      "name": "sweep",
      "outputs": [],
      "stateMutability": "nonpayable",
      "type": "function"
    },
    {
      "inputs": [
        {
          "internalType": "address",
          "name": "newOwner",
          "type": "address"
        }
      ],
      "name": "transferOwnership",
      "outputs": [],
      "stateMutability": "nonpayable",
      "type": "function"
    },
    {
      "inputs": [],
      "name": "unpause",
      "outputs": [],
      "stateMutability": "nonpayable",
      "type": "function"
    },
    {
      "inputs": [],
      "name": "viewSherlockCore",
      "outputs": [
        {
          "internalType": "address",
          "name": "",
          "type": "address"
        }
      ],
      "stateMutability": "view",
      "type": "function"
    }
  ],
  "bytecode": "0x608060405234801561001057600080fd5b5061001a3361002c565b6000805460ff60a01b1916905561007c565b600080546001600160a01b038381166001600160a01b0319831681178455604051919092169283917f8be0079c531659141344cd1fd0a4f28419497f9722a3daafe3b4186f6b6457e09190a35050565b6110568061008b6000396000f3fe608060405234801561001057600080fd5b50600436106100be5760003560e01c80638a179be411610076578063ca70fb761161005b578063ca70fb7614610180578063ed2f16c014610193578063f2fde38b1461019b57600080fd5b80638a179be41461014f5780638da5cb5b1461016257600080fd5b8063715018a6116100a7578063715018a6146101005780638456cb591461010857806389907b0f1461011057600080fd5b80633f4ba83a146100c35780635c975abb146100cd575b600080fd5b6100cb6101ae565b005b60005474010000000000000000000000000000000000000000900460ff1660405190151581526020015b60405180910390f35b6100cb610209565b6100cb610299565b60015473ffffffffffffffffffffffffffffffffffffffff165b60405173ffffffffffffffffffffffffffffffffffffffff90911681526020016100f7565b6100cb61015d366004610da4565b6102f2565b60005473ffffffffffffffffffffffffffffffffffffffff1661012a565b6100cb61018e366004610e9c565b610300565b6100cb610473565b6100cb6101a9366004610e9c565b6104c4565b60015473ffffffffffffffffffffffffffffffffffffffff1633146101ff576040517fddb5de5e00000000000000000000000000000000000000000000000000000000815260040160405180910390fd5b6102076105f4565b565b60005473ffffffffffffffffffffffffffffffffffffffff16331461028f576040517f08c379a000000000000000000000000000000000000000000000000000000000815260206004820181905260248201527f4f776e61626c653a2063616c6c6572206973206e6f7420746865206f776e657260448201526064015b60405180910390fd5b61020760006106ed565b60015473ffffffffffffffffffffffffffffffffffffffff1633146102ea576040517fddb5de5e00000000000000000000000000000000000000000000000000000000815260040160405180910390fd5b610207610762565b6102fc828261084e565b5050565b73ffffffffffffffffffffffffffffffffffffffff811661034d576040517fb7852ebb00000000000000000000000000000000000000000000000000000000815260040160405180910390fd5b46617a691415801561037357503373adbb28c2fee078440b7088bbcd68dcfa63e5562514155b156103aa576040517fddb5de5e00000000000000000000000000000000000000000000000000000000815260040160405180910390fd5b60015473ffffffffffffffffffffffffffffffffffffffff16156103fa576040517f3af36e0a00000000000000000000000000000000000000000000000000000000815260040160405180910390fd5b600180547fffffffffffffffffffffffff00000000000000000000000000000000000000001673ffffffffffffffffffffffffffffffffffffffff83169081179091556040519081527ff200116515c6d70d53a45299bb7eba08ef985ec08bfe0baf31ad73907308a3189060200160405180910390a150565b60015473ffffffffffffffffffffffffffffffffffffffff163314610207576040517fddb5de5e00000000000000000000000000000000000000000000000000000000815260040160405180910390fd5b60005473ffffffffffffffffffffffffffffffffffffffff163314610545576040517f08c379a000000000000000000000000000000000000000000000000000000000815260206004820181905260248201527f4f776e61626c653a2063616c6c6572206973206e6f7420746865206f776e65726044820152606401610286565b73ffffffffffffffffffffffffffffffffffffffff81166105e8576040517f08c379a000000000000000000000000000000000000000000000000000000000815260206004820152602660248201527f4f776e61626c653a206e6577206f776e657220697320746865207a65726f206160448201527f64647265737300000000000000000000000000000000000000000000000000006064820152608401610286565b6105f1816106ed565b50565b60005474010000000000000000000000000000000000000000900460ff16610678576040517f08c379a000000000000000000000000000000000000000000000000000000000815260206004820152601460248201527f5061757361626c653a206e6f74207061757365640000000000000000000000006044820152606401610286565b600080547fffffffffffffffffffffff00ffffffffffffffffffffffffffffffffffffffff1690557f5db9ee0a495bf2e6ff9c91a7834c1ba4fdd244a5e8aa4e537bd38aeae4b073aa335b60405173ffffffffffffffffffffffffffffffffffffffff909116815260200160405180910390a1565b6000805473ffffffffffffffffffffffffffffffffffffffff8381167fffffffffffffffffffffffff0000000000000000000000000000000000000000831681178455604051919092169283917f8be0079c531659141344cd1fd0a4f28419497f9722a3daafe3b4186f6b6457e09190a35050565b60005474010000000000000000000000000000000000000000900460ff16156107e7576040517f08c379a000000000000000000000000000000000000000000000000000000000815260206004820152601060248201527f5061757361626c653a20706175736564000000000000000000000000000000006044820152606401610286565b600080547fffffffffffffffffffffff00ffffffffffffffffffffffffffffffffffffffff16740100000000000000000000000000000000000000001790557f62e78cea01bee320cd4e420270b5ea74000d11b0c9f74754ebdbfc544b05a2586106c33390565b60005b815181101561094157600082828151811061086e5761086e610eb9565b60209081029190910101516040517f70a0823100000000000000000000000000000000000000000000000000000000815230600482015290915061092e90859073ffffffffffffffffffffffffffffffffffffffff8416906370a0823190602401602060405180830381865afa1580156108ec573d6000803e3d6000fd5b505050506040513d601f19601f820116820180604052508101906109109190610ee8565b73ffffffffffffffffffffffffffffffffffffffff841691906109e2565b508061093981610f01565b915050610851565b5060008273ffffffffffffffffffffffffffffffffffffffff164760405160006040518083038185875af1925050503d806000811461099c576040519150601f19603f3d011682016040523d82523d6000602084013e6109a1565b606091505b5090915050806109dd576040517f3af36e0a00000000000000000000000000000000000000000000000000000000815260040160405180910390fd5b505050565b6040805173ffffffffffffffffffffffffffffffffffffffff848116602483015260448083018590528351808403909101815260649092018352602080830180517bffffffffffffffffffffffffffffffffffffffffffffffffffffffff167fa9059cbb0000000000000000000000000000000000000000000000000000000017905283518085019094528084527f5361666545524332303a206c6f772d6c6576656c2063616c6c206661696c6564908401526109dd92869291600091610aad918516908490610b57565b8051909150156109dd5780806020019051810190610acb9190610f61565b6109dd576040517f08c379a000000000000000000000000000000000000000000000000000000000815260206004820152602a60248201527f5361666545524332303a204552433230206f7065726174696f6e20646964206e60448201527f6f742073756363656564000000000000000000000000000000000000000000006064820152608401610286565b6060610b668484600085610b70565b90505b9392505050565b606082471015610c02576040517f08c379a000000000000000000000000000000000000000000000000000000000815260206004820152602660248201527f416464726573733a20696e73756666696369656e742062616c616e636520666f60448201527f722063616c6c00000000000000000000000000000000000000000000000000006064820152608401610286565b843b610c6a576040517f08c379a000000000000000000000000000000000000000000000000000000000815260206004820152601d60248201527f416464726573733a2063616c6c20746f206e6f6e2d636f6e74726163740000006044820152606401610286565b6000808673ffffffffffffffffffffffffffffffffffffffff168587604051610c939190610fb3565b60006040518083038185875af1925050503d8060008114610cd0576040519150601f19603f3d011682016040523d82523d6000602084013e610cd5565b606091505b5091509150610ce5828286610cf0565b979650505050505050565b60608315610cff575081610b69565b825115610d0f5782518084602001fd5b816040517f08c379a00000000000000000000000000000000000000000000000000000000081526004016102869190610fcf565b73ffffffffffffffffffffffffffffffffffffffff811681146105f157600080fd5b7f4e487b7100000000000000000000000000000000000000000000000000000000600052604160045260246000fd5b8035610d9f81610d43565b919050565b60008060408385031215610db757600080fd5b8235610dc281610d43565b915060208381013567ffffffffffffffff80821115610de057600080fd5b818601915086601f830112610df457600080fd5b813581811115610e0657610e06610d65565b8060051b6040517fffffffffffffffffffffffffffffffffffffffffffffffffffffffffffffffe0603f83011681018181108582111715610e4957610e49610d65565b604052918252848201925083810185019189831115610e6757600080fd5b938501935b82851015610e8c57610e7d85610d94565b84529385019392850192610e6c565b8096505050505050509250929050565b600060208284031215610eae57600080fd5b8135610b6981610d43565b7f4e487b7100000000000000000000000000000000000000000000000000000000600052603260045260246000fd5b600060208284031215610efa57600080fd5b5051919050565b60007fffffffffffffffffffffffffffffffffffffffffffffffffffffffffffffffff821415610f5a577f4e487b7100000000000000000000000000000000000000000000000000000000600052601160045260246000fd5b5060010190565b600060208284031215610f7357600080fd5b81518015158114610b6957600080fd5b60005b83811015610f9e578181015183820152602001610f86565b83811115610fad576000848401525b50505050565b60008251610fc5818460208701610f83565b9190910192915050565b6020815260008251806020840152610fee816040850160208701610f83565b601f017fffffffffffffffffffffffffffffffffffffffffffffffffffffffffffffffe016919091016040019291505056fea264697066735822122040534816930c2badf22068b986acfa0a34c09bc0176d59ef3e08c66f0f03b8f664736f6c634300080a0033",
  "linkReferences": {},
  "deployedLinkReferences": {}
}