{
  "_format": "hh-sol-artifact-1",
  "contractName": "USDMPegRecovery",
  "sourceName": "contracts/USDMPegRecovery.sol",
  "abi": [
    {
      "inputs": [
        {
          "internalType": "uint256",
          "name": "_startLiquidity",
          "type": "uint256"
        },
        {
          "internalType": "address",
          "name": "_kpiOracle",
          "type": "address"
        }
      ],
      "stateMutability": "nonpayable",
      "type": "constructor"
    },
    {
      "anonymous": false,
      "inputs": [
        {
          "indexed": true,
          "internalType": "address",
          "name": "depositor",
          "type": "address"
        },
        {
          "components": [
            {
              "internalType": "uint128",
              "name": "usdm",
              "type": "uint128"
            },
            {
              "internalType": "uint128",
              "name": "pool3",
              "type": "uint128"
            }
          ],
          "indexed": false,
          "internalType": "struct USDMPegRecovery.Liquidity",
          "name": "deposits",
          "type": "tuple"
        }
      ],
      "name": "Deposit",
      "type": "event"
    },
    {
      "anonymous": false,
      "inputs": [
        {
          "indexed": true,
          "internalType": "address",
          "name": "previousOwner",
          "type": "address"
        },
        {
          "indexed": true,
          "internalType": "address",
          "name": "newOwner",
          "type": "address"
        }
      ],
      "name": "OwnershipTransferred",
      "type": "event"
    },
    {
      "anonymous": false,
      "inputs": [
        {
          "indexed": true,
          "internalType": "address",
          "name": "withdrawer",
          "type": "address"
        },
        {
          "components": [
            {
              "internalType": "uint128",
              "name": "usdm",
              "type": "uint128"
            },
            {
              "internalType": "uint128",
              "name": "pool3",
              "type": "uint128"
            }
          ],
          "indexed": false,
          "internalType": "struct USDMPegRecovery.Liquidity",
          "name": "withdrawals",
          "type": "tuple"
        }
      ],
      "name": "Withdraw",
      "type": "event"
    },
    {
      "inputs": [
        {
          "internalType": "address",
          "name": "_guardian",
          "type": "address"
        }
      ],
      "name": "addGuardian",
      "outputs": [],
      "stateMutability": "nonpayable",
      "type": "function"
    },
    {
      "inputs": [
        {
          "components": [
            {
              "internalType": "uint128",
              "name": "usdm",
              "type": "uint128"
            },
            {
              "internalType": "uint128",
              "name": "pool3",
              "type": "uint128"
            }
          ],
          "internalType": "struct USDMPegRecovery.Liquidity",
          "name": "_deposits",
          "type": "tuple"
        }
      ],
      "name": "deposit",
      "outputs": [],
      "stateMutability": "nonpayable",
      "type": "function"
    },
    {
      "inputs": [],
      "name": "enableUnlock",
      "outputs": [],
      "stateMutability": "nonpayable",
      "type": "function"
    },
    {
      "inputs": [
        {
          "internalType": "address",
          "name": "",
          "type": "address"
        }
      ],
      "name": "isGuardian",
      "outputs": [
        {
          "internalType": "bool",
          "name": "",
          "type": "bool"
        }
      ],
      "stateMutability": "view",
      "type": "function"
    },
    {
      "inputs": [],
      "name": "kpiOracle",
      "outputs": [
        {
          "internalType": "address",
          "name": "",
          "type": "address"
        }
      ],
      "stateMutability": "view",
      "type": "function"
    },
    {
      "inputs": [],
      "name": "owner",
      "outputs": [
        {
          "internalType": "address",
          "name": "",
          "type": "address"
        }
      ],
      "stateMutability": "view",
      "type": "function"
    },
    {
      "inputs": [],
      "name": "pool3",
      "outputs": [
        {
          "internalType": "contract IERC20",
          "name": "",
          "type": "address"
        }
      ],
      "stateMutability": "view",
      "type": "function"
    },
    {
      "inputs": [
        {
          "internalType": "uint256",
          "name": "_minimumLP",
          "type": "uint256"
        }
      ],
      "name": "provide",
      "outputs": [],
      "stateMutability": "nonpayable",
      "type": "function"
    },
    {
      "inputs": [
        {
          "internalType": "address",
          "name": "_guardian",
          "type": "address"
        }
      ],
      "name": "removeGuardian",
      "outputs": [],
      "stateMutability": "nonpayable",
      "type": "function"
    },
    {
      "inputs": [
        {
          "internalType": "uint256",
          "name": "_steps",
          "type": "uint256"
        },
        {
          "internalType": "uint256",
          "name": "_burningLPs",
          "type": "uint256"
        }
      ],
      "name": "removeLiquidity",
      "outputs": [],
      "stateMutability": "nonpayable",
      "type": "function"
    },
    {
      "inputs": [],
      "name": "renounceOwnership",
      "outputs": [],
      "stateMutability": "nonpayable",
      "type": "function"
    },
    {
      "inputs": [],
      "name": "startLiquidity",
      "outputs": [
        {
          "internalType": "uint256",
          "name": "",
          "type": "uint256"
        }
      ],
      "stateMutability": "view",
      "type": "function"
    },
    {
      "inputs": [],
      "name": "step",
      "outputs": [
        {
          "internalType": "uint256",
          "name": "",
          "type": "uint256"
        }
      ],
      "stateMutability": "view",
      "type": "function"
    },
    {
      "inputs": [],
      "name": "totalLiquidity",
      "outputs": [
        {
          "internalType": "uint128",
          "name": "usdm",
          "type": "uint128"
        },
        {
          "internalType": "uint128",
          "name": "pool3",
          "type": "uint128"
        }
      ],
      "stateMutability": "view",
      "type": "function"
    },
    {
      "inputs": [
        {
          "internalType": "address",
          "name": "newOwner",
          "type": "address"
        }
      ],
      "name": "transferOwnership",
      "outputs": [],
      "stateMutability": "nonpayable",
      "type": "function"
    },
    {
      "inputs": [],
      "name": "unlockable",
      "outputs": [
        {
          "internalType": "bool",
          "name": "",
          "type": "bool"
        }
      ],
      "stateMutability": "view",
      "type": "function"
    },
    {
      "inputs": [],
      "name": "usdm",
      "outputs": [
        {
          "internalType": "contract IERC20",
          "name": "",
          "type": "address"
        }
      ],
      "stateMutability": "view",
      "type": "function"
    },
    {
      "inputs": [],
      "name": "usdm3crv",
      "outputs": [
        {
          "internalType": "contract ICurveMetaPool",
          "name": "",
          "type": "address"
        }
      ],
      "stateMutability": "view",
      "type": "function"
    },
    {
      "inputs": [
        {
          "internalType": "address",
          "name": "",
          "type": "address"
        }
      ],
      "name": "userLiquidity",
      "outputs": [
        {
          "internalType": "uint128",
          "name": "usdm",
          "type": "uint128"
        },
        {
          "internalType": "uint128",
          "name": "pool3",
          "type": "uint128"
        }
      ],
      "stateMutability": "view",
      "type": "function"
    },
    {
      "inputs": [
        {
          "components": [
            {
              "internalType": "uint128",
              "name": "usdm",
              "type": "uint128"
            },
            {
              "internalType": "uint128",
              "name": "pool3",
              "type": "uint128"
            }
          ],
          "internalType": "struct USDMPegRecovery.Liquidity",
          "name": "_withdrawal",
          "type": "tuple"
        }
      ],
      "name": "withdraw",
      "outputs": [],
      "stateMutability": "nonpayable",
      "type": "function"
    }
  ],
  "bytecode": "0x61010060405234801561001157600080fd5b50604051611724380380611724833981016040819052610030916100f6565b610039336100a6565b6002919091557331d4eb09a216e181ec8a43ce79226a487d6f0ba9608052736c3f90f043a72fa612cbac8115ee7e52bde6e49060a052735b3b5df2bf2b6543f78e053bd91c4bdd820929f160c0526934f086f3b33b684000006001556001600160a01b031660e052610133565b600080546001600160a01b038381166001600160a01b0319831681178455604051919092169283917f8be0079c531659141344cd1fd0a4f28419497f9722a3daafe3b4186f6b6457e09190a35050565b6000806040838503121561010957600080fd5b825160208401519092506001600160a01b038116811461012857600080fd5b809150509250929050565b60805160a05160c05160e05161155d6101c76000396000818161032f0152610e400152600081816102cb015281816105540152818161060d015281816106c10152610d780152600081816101c10152818161063c015281816108d00152610bee015260008181610308015281816103d8015281816104ac01528181610588015281816107bc0152610b2e015261155d6000f3fe608060405234801561001057600080fd5b506004361061012c5760003560e01c80639d7de6b3116100ad578063dbef5fbf11610071578063dbef5fbf146102ed578063e25fe175146102fa578063ee138d0f14610303578063ef148a3f1461032a578063f2fde38b1461035157600080fd5b80639d7de6b314610264578063a526d83b14610277578063ba4c28c31461028a578063ce2cb1e3146102be578063d05a236d146102c657600080fd5b806371404156116100f4578063714041561461020e578063715018a6146102215780637739ec98146102295780638da5cb5b1461023c57806396e3369b1461024d57600080fd5b80630c68ba211461013157806315770f92146101695780632e2ebe06146101a757806353ce36a9146101bc578063705c8a6d146101fb575b600080fd5b61015461013f366004611283565b60056020526000908152604090205460ff1681565b60405190151581526020015b60405180910390f35b600354610187906001600160801b0380821691600160801b90041682565b604080516001600160801b03938416815292909116602083015201610160565b6101ba6101b53660046112ac565b610364565b005b6101e37f000000000000000000000000000000000000000000000000000000000000000081565b6040516001600160a01b039091168152602001610160565b6101ba6102093660046112c5565b61072f565b6101ba61021c366004611283565b6109e0565b6101ba610a2b565b6101ba6102373660046112c5565b610a61565b6000546001600160a01b03166101e3565b61025660025481565b604051908152602001610160565b6101ba6102723660046112dd565b610cf0565b6101ba610285366004611283565b610de7565b610187610298366004611283565b6004602052600090815260409020546001600160801b0380821691600160801b90041682565b6101ba610e35565b6101e37f000000000000000000000000000000000000000000000000000000000000000081565b6006546101549060ff1681565b61025660015481565b6101e37f000000000000000000000000000000000000000000000000000000000000000081565b6101e37f000000000000000000000000000000000000000000000000000000000000000081565b6101ba61035f366004611283565b610ea6565b3360009081526005602052604090205460ff166103b45760405162461bcd60e51b815260206004820152600960248201526810b3bab0b93234b0b760b91b60448201526064015b60405180910390fd5b6003546040516370a0823160e01b81523060048201526001600160801b03909116907f00000000000000000000000000000000000000000000000000000000000000006001600160a01b0316906370a0823190602401602060405180830381865afa158015610427573d6000803e3d6000fd5b505050506040513d601f19601f8201168201806040525081019061044b91906112ff565b10156104865760405162461bcd60e51b815260206004820152600a6024820152693c6c697175696469747960b01b60448201526064016103ab565b6001546040516370a0823160e01b81523060048201526000919081906001600160a01b037f000000000000000000000000000000000000000000000000000000000000000016906370a0823190602401602060405180830381865afa1580156104f3573d6000803e3d6000fd5b505050506040513d601f19601f8201168201806040525081019061051791906112ff565b610521919061132e565b61052b9190611350565b60408051808201825282815260208101839052905163095ea7b360e01b81526001600160a01b037f0000000000000000000000000000000000000000000000000000000000000000811660048301526024820184905292935090917f0000000000000000000000000000000000000000000000000000000000000000169063095ea7b3906044016020604051808303816000875af11580156105d1573d6000803e3d6000fd5b505050506040513d601f19601f820116820180604052508101906105f5919061136f565b5060405163095ea7b360e01b81526001600160a01b037f000000000000000000000000000000000000000000000000000000000000000081166004830152602482018490527f0000000000000000000000000000000000000000000000000000000000000000169063095ea7b3906044016020604051808303816000875af1158015610685573d6000803e3d6000fd5b505050506040513d601f19601f820116820180604052508101906106a9919061136f565b50604051630b4c7e4d60e01b81526001600160a01b037f00000000000000000000000000000000000000000000000000000000000000001690630b4c7e4d906106f890849087906004016113b4565b600060405180830381600087803b15801561071257600080fd5b505af1158015610726573d6000803e3d6000fd5b50505050505050565b6040805180820182526003546001600160801b038082168352600160801b9182900481166020808501919091523360009081526004825285812086518088019097525480841687529390930490911684820152919291610791908501856113eb565b6001600160801b0316111561083e576107ed33306107b260208701876113eb565b6001600160a01b037f0000000000000000000000000000000000000000000000000000000000000000169291906001600160801b0316610f41565b6107fa60208401846113eb565b82518390610809908390611406565b6001600160801b031690525061082260208401846113eb565b81518290610831908390611406565b6001600160801b03169052505b600061085060408501602086016113eb565b6001600160801b0316111561095c576003546a034f086f3b33b6840000006001600160801b03909116116108b15760405162461bcd60e51b81526020600482015260086024820152677573646d206c6f7760c01b60448201526064016103ab565b61090133306108c660408701602088016113eb565b6001600160a01b037f0000000000000000000000000000000000000000000000000000000000000000169291906001600160801b0316610f41565b61091160408401602085016113eb565b826020018181516109229190611406565b6001600160801b031690525061093e60408401602085016113eb565b8160200181815161094f9190611406565b6001600160801b03169052505b81516020808401516001600160801b03928316600160801b91841682021760035533600081815260048452604090819020865194870151948616949095169092029290921790925590517fff00c58df7568a9bfd50959282c8b0df75b0ecce0b503bd4c3fc443c2eb60518906109d3908690611431565b60405180910390a2505050565b6000546001600160a01b03163314610a0a5760405162461bcd60e51b81526004016103ab90611464565b6001600160a01b03166000908152600560205260409020805460ff19169055565b6000546001600160a01b03163314610a555760405162461bcd60e51b81526004016103ab90611464565b610a5f6000610fb2565b565b6040805180820182526003546001600160801b038082168352600160801b9182900481166020808501919091523360009081526004825285812086518088019097525480841687529390930490911684820152919291610ac3908501856113eb565b6001600160801b03161115610baf5760065460ff16610b135760405162461bcd60e51b815260206004820152600c60248201526b21756e6c6f636b207573646d60a01b60448201526064016103ab565b610b5e33610b2460208601866113eb565b6001600160a01b037f00000000000000000000000000000000000000000000000000000000000000001691906001600160801b0316611002565b610b6b60208401846113eb565b82518390610b7a908390611499565b6001600160801b0316905250610b9360208401846113eb565b81518290610ba2908390611499565b6001600160801b03169052505b6000610bc160408501602086016113eb565b6001600160801b03161115610c7957610c1e33610be460408601602087016113eb565b6001600160a01b037f00000000000000000000000000000000000000000000000000000000000000001691906001600160801b0316611002565b610c2e60408401602085016113eb565b82602001818151610c3f9190611499565b6001600160801b0316905250610c5b60408401602085016113eb565b81602001818151610c6c9190611499565b6001600160801b03169052505b81516020808401516001600160801b03928316600160801b91841682021760035533600081815260048452604090819020865194870151948616949095169092029290921790925590517f80db6e714dc095518776df88784ba6590bcb6df065313e6a989e3dad353c833d906109d3908690611431565b3360009081526005602052604090205460ff16610d3b5760405162461bcd60e51b815260206004820152600960248201526810b3bab0b93234b0b760b91b60448201526064016103ab565b600060015483610d4b9190611350565b6040805180820182528281526020810183905290516316cd8e2760e21b8152919250906001600160a01b037f00000000000000000000000000000000000000000000000000000000000000001690635b36389c90610daf90869085906004016114c1565b600060405180830381600087803b158015610dc957600080fd5b505af1158015610ddd573d6000803e3d6000fd5b5050505050505050565b6000546001600160a01b03163314610e115760405162461bcd60e51b81526004016103ab90611464565b6001600160a01b03166000908152600560205260409020805460ff19166001179055565b336001600160a01b037f00000000000000000000000000000000000000000000000000000000000000001614610e975760405162461bcd60e51b8152602060048201526007602482015266216f7261636c6560c81b60448201526064016103ab565b6006805460ff19166001179055565b6000546001600160a01b03163314610ed05760405162461bcd60e51b81526004016103ab90611464565b6001600160a01b038116610f355760405162461bcd60e51b815260206004820152602660248201527f4f776e61626c653a206e6577206f776e657220697320746865207a65726f206160448201526564647265737360d01b60648201526084016103ab565b610f3e81610fb2565b50565b6040516001600160a01b0380851660248301528316604482015260648101829052610fac9085906323b872dd60e01b906084015b60408051601f198184030181529190526020810180516001600160e01b03166001600160e01b031990931692909217909152611037565b50505050565b600080546001600160a01b038381166001600160a01b0319831681178455604051919092169283917f8be0079c531659141344cd1fd0a4f28419497f9722a3daafe3b4186f6b6457e09190a35050565b6040516001600160a01b03831660248201526044810182905261103290849063a9059cbb60e01b90606401610f75565b505050565b600061108c826040518060400160405280602081526020017f5361666545524332303a206c6f772d6c6576656c2063616c6c206661696c6564815250856001600160a01b03166111099092919063ffffffff16565b80519091501561103257808060200190518101906110aa919061136f565b6110325760405162461bcd60e51b815260206004820152602a60248201527f5361666545524332303a204552433230206f7065726174696f6e20646964206e6044820152691bdd081cdd58d8d9595960b21b60648201526084016103ab565b60606111188484600085611122565b90505b9392505050565b6060824710156111835760405162461bcd60e51b815260206004820152602660248201527f416464726573733a20696e73756666696369656e742062616c616e636520666f6044820152651c8818d85b1b60d21b60648201526084016103ab565b843b6111d15760405162461bcd60e51b815260206004820152601d60248201527f416464726573733a2063616c6c20746f206e6f6e2d636f6e747261637400000060448201526064016103ab565b600080866001600160a01b031685876040516111ed9190611501565b60006040518083038185875af1925050503d806000811461122a576040519150601f19603f3d011682016040523d82523d6000602084013e61122f565b606091505b509150915061123f82828661124a565b979650505050505050565b6060831561125957508161111b565b8251156112695782518084602001fd5b8160405162461bcd60e51b81526004016103ab919061151d565b60006020828403121561129557600080fd5b81356001600160a01b038116811461111b57600080fd5b6000602082840312156112be57600080fd5b5035919050565b6000604082840312156112d757600080fd5b50919050565b600080604083850312156112f057600080fd5b50508035926020909101359150565b60006020828403121561131157600080fd5b5051919050565b634e487b7160e01b600052601160045260246000fd5b60008261134b57634e487b7160e01b600052601260045260246000fd5b500490565b600081600019048311821515161561136a5761136a611318565b500290565b60006020828403121561138157600080fd5b8151801515811461111b57600080fd5b8060005b6002811015610fac578151845260209384019390910190600101611395565b606081016113c28285611391565b8260408301529392505050565b80356001600160801b03811681146113e657600080fd5b919050565b6000602082840312156113fd57600080fd5b61111b826113cf565b60006001600160801b0380831681851680830382111561142857611428611318565b01949350505050565b604081016001600160801b0380611447856113cf565b16835280611457602086016113cf565b1660208401525092915050565b6020808252818101527f4f776e61626c653a2063616c6c6572206973206e6f7420746865206f776e6572604082015260600190565b60006001600160801b03838116908316818110156114b9576114b9611318565b039392505050565b8281526060810161111b6020830184611391565b60005b838110156114f05781810151838201526020016114d8565b83811115610fac5750506000910152565b600082516115138184602087016114d5565b9190910192915050565b602081526000825180602084015261153c8160408501602087016114d5565b601f01601f1916919091016040019291505056fea164736f6c634300080b000a",
  "linkReferences": {},
  "deployedLinkReferences": {}
}