{
  "_format": "hh-sol-artifact-1",
  "contractName": "TimeswapPair",
  "sourceName": "contracts/TimeswapPair.sol",
  "abi": [
    {
      "inputs": [
        {
          "internalType": "contract IERC20",
          "name": "_asset",
          "type": "address"
        },
        {
          "internalType": "contract IERC20",
          "name": "_collateral",
          "type": "address"
        },
        {
          "internalType": "uint16",
          "name": "_fee",
          "type": "uint16"
        },
        {
          "internalType": "uint16",
          "name": "_protocolFee",
          "type": "uint16"
        }
      ],
      "stateMutability": "nonpayable",
      "type": "constructor"
    },
    {
      "anonymous": false,
      "inputs": [
        {
          "indexed": false,
          "internalType": "uint256",
          "name": "maturity",
          "type": "uint256"
        },
        {
          "indexed": true,
          "internalType": "address",
          "name": "sender",
          "type": "address"
        },
        {
          "indexed": true,
          "internalType": "address",
          "name": "assetTo",
          "type": "address"
        },
        {
          "indexed": true,
          "internalType": "address",
          "name": "dueTo",
          "type": "address"
        },
        {
          "indexed": false,
          "internalType": "uint112",
          "name": "xDecrease",
          "type": "uint112"
        },
        {
          "indexed": false,
          "internalType": "uint256",
          "name": "id",
          "type": "uint256"
        },
        {
          "components": [
            {
              "internalType": "uint112",
              "name": "debt",
              "type": "uint112"
            },
            {
              "internalType": "uint112",
              "name": "collateral",
              "type": "uint112"
            },
            {
              "internalType": "uint32",
              "name": "startBlock",
              "type": "uint32"
            }
          ],
          "indexed": false,
          "internalType": "struct IPair.Due",
          "name": "dueOut",
          "type": "tuple"
        }
      ],
      "name": "Borrow",
      "type": "event"
    },
    {
      "anonymous": false,
      "inputs": [
        {
          "indexed": false,
          "internalType": "uint256",
          "name": "maturity",
          "type": "uint256"
        },
        {
          "indexed": true,
          "internalType": "address",
          "name": "sender",
          "type": "address"
        },
        {
          "indexed": true,
          "internalType": "address",
          "name": "assetTo",
          "type": "address"
        },
        {
          "indexed": true,
          "internalType": "address",
          "name": "collateralTo",
          "type": "address"
        },
        {
          "indexed": false,
          "internalType": "uint256",
          "name": "liquidityIn",
          "type": "uint256"
        },
        {
          "components": [
            {
              "internalType": "uint128",
              "name": "asset",
              "type": "uint128"
            },
            {
              "internalType": "uint128",
              "name": "collateral",
              "type": "uint128"
            }
          ],
          "indexed": false,
          "internalType": "struct IPair.Tokens",
          "name": "tokensOut",
          "type": "tuple"
        }
      ],
      "name": "Burn",
      "type": "event"
    },
    {
      "anonymous": false,
      "inputs": [
        {
          "indexed": false,
          "internalType": "uint256",
          "name": "maturity",
          "type": "uint256"
        },
        {
          "indexed": true,
          "internalType": "address",
          "name": "sender",
          "type": "address"
        },
        {
          "indexed": true,
          "internalType": "address",
          "name": "bondTo",
          "type": "address"
        },
        {
          "indexed": true,
          "internalType": "address",
          "name": "insuranceTo",
          "type": "address"
        },
        {
          "indexed": false,
          "internalType": "uint112",
          "name": "xIncrease",
          "type": "uint112"
        },
        {
          "components": [
            {
              "internalType": "uint128",
              "name": "bond",
              "type": "uint128"
            },
            {
              "internalType": "uint128",
              "name": "insurance",
              "type": "uint128"
            }
          ],
          "indexed": false,
          "internalType": "struct IPair.Claims",
          "name": "claimsOut",
          "type": "tuple"
        }
      ],
      "name": "Lend",
      "type": "event"
    },
    {
      "anonymous": false,
      "inputs": [
        {
          "indexed": false,
          "internalType": "uint256",
          "name": "maturity",
          "type": "uint256"
        },
        {
          "indexed": true,
          "internalType": "address",
          "name": "sender",
          "type": "address"
        },
        {
          "indexed": true,
          "internalType": "address",
          "name": "liquidityTo",
          "type": "address"
        },
        {
          "indexed": true,
          "internalType": "address",
          "name": "dueTo",
          "type": "address"
        },
        {
          "indexed": false,
          "internalType": "uint112",
          "name": "xIncrease",
          "type": "uint112"
        },
        {
          "indexed": false,
          "internalType": "uint256",
          "name": "liquidityOut",
          "type": "uint256"
        },
        {
          "indexed": false,
          "internalType": "uint256",
          "name": "id",
          "type": "uint256"
        },
        {
          "components": [
            {
              "internalType": "uint112",
              "name": "debt",
              "type": "uint112"
            },
            {
              "internalType": "uint112",
              "name": "collateral",
              "type": "uint112"
            },
            {
              "internalType": "uint32",
              "name": "startBlock",
              "type": "uint32"
            }
          ],
          "indexed": false,
          "internalType": "struct IPair.Due",
          "name": "dueOut",
          "type": "tuple"
        }
      ],
      "name": "Mint",
      "type": "event"
    },
    {
      "anonymous": false,
      "inputs": [
        {
          "indexed": false,
          "internalType": "uint256",
          "name": "maturity",
          "type": "uint256"
        },
        {
          "indexed": true,
          "internalType": "address",
          "name": "sender",
          "type": "address"
        },
        {
          "indexed": true,
          "internalType": "address",
          "name": "to",
          "type": "address"
        },
        {
          "indexed": true,
          "internalType": "address",
          "name": "owner",
          "type": "address"
        },
        {
          "indexed": false,
          "internalType": "uint256[]",
          "name": "ids",
          "type": "uint256[]"
        },
        {
          "indexed": false,
          "internalType": "uint112[]",
          "name": "assetsIn",
          "type": "uint112[]"
        },
        {
          "indexed": false,
          "internalType": "uint112[]",
          "name": "collateralsOut",
          "type": "uint112[]"
        },
        {
          "indexed": false,
          "internalType": "uint128",
          "name": "assetIn",
          "type": "uint128"
        },
        {
          "indexed": false,
          "internalType": "uint128",
          "name": "collateralOut",
          "type": "uint128"
        }
      ],
      "name": "Pay",
      "type": "event"
    },
    {
      "anonymous": false,
      "inputs": [
        {
          "indexed": true,
          "internalType": "uint256",
          "name": "maturity",
          "type": "uint256"
        },
        {
          "indexed": false,
          "internalType": "uint112",
          "name": "x",
          "type": "uint112"
        },
        {
          "indexed": false,
          "internalType": "uint112",
          "name": "y",
          "type": "uint112"
        },
        {
          "indexed": false,
          "internalType": "uint112",
          "name": "z",
          "type": "uint112"
        }
      ],
      "name": "Sync",
      "type": "event"
    },
    {
      "anonymous": false,
      "inputs": [
        {
          "indexed": false,
          "internalType": "uint256",
          "name": "maturity",
          "type": "uint256"
        },
        {
          "indexed": true,
          "internalType": "address",
          "name": "sender",
          "type": "address"
        },
        {
          "indexed": true,
          "internalType": "address",
          "name": "assetTo",
          "type": "address"
        },
        {
          "indexed": true,
          "internalType": "address",
          "name": "collateralTo",
          "type": "address"
        },
        {
          "components": [
            {
              "internalType": "uint128",
              "name": "bond",
              "type": "uint128"
            },
            {
              "internalType": "uint128",
              "name": "insurance",
              "type": "uint128"
            }
          ],
          "indexed": false,
          "internalType": "struct IPair.Claims",
          "name": "claimsIn",
          "type": "tuple"
        },
        {
          "components": [
            {
              "internalType": "uint128",
              "name": "asset",
              "type": "uint128"
            },
            {
              "internalType": "uint128",
              "name": "collateral",
              "type": "uint128"
            }
          ],
          "indexed": false,
          "internalType": "struct IPair.Tokens",
          "name": "tokensOut",
          "type": "tuple"
        }
      ],
      "name": "Withdraw",
      "type": "event"
    },
    {
      "inputs": [],
      "name": "asset",
      "outputs": [
        {
          "internalType": "contract IERC20",
          "name": "",
          "type": "address"
        }
      ],
      "stateMutability": "view",
      "type": "function"
    },
    {
      "inputs": [
        {
          "internalType": "uint256",
          "name": "maturity",
          "type": "uint256"
        },
        {
          "internalType": "address",
          "name": "assetTo",
          "type": "address"
        },
        {
          "internalType": "address",
          "name": "dueTo",
          "type": "address"
        },
        {
          "internalType": "uint112",
          "name": "xDecrease",
          "type": "uint112"
        },
        {
          "internalType": "uint112",
          "name": "yIncrease",
          "type": "uint112"
        },
        {
          "internalType": "uint112",
          "name": "zIncrease",
          "type": "uint112"
        },
        {
          "internalType": "bytes",
          "name": "data",
          "type": "bytes"
        }
      ],
      "name": "borrow",
      "outputs": [
        {
          "internalType": "uint256",
          "name": "id",
          "type": "uint256"
        },
        {
          "components": [
            {
              "internalType": "uint112",
              "name": "debt",
              "type": "uint112"
            },
            {
              "internalType": "uint112",
              "name": "collateral",
              "type": "uint112"
            },
            {
              "internalType": "uint32",
              "name": "startBlock",
              "type": "uint32"
            }
          ],
          "internalType": "struct IPair.Due",
          "name": "dueOut",
          "type": "tuple"
        }
      ],
      "stateMutability": "nonpayable",
      "type": "function"
    },
    {
      "inputs": [
        {
          "internalType": "uint256",
          "name": "maturity",
          "type": "uint256"
        },
        {
          "internalType": "address",
          "name": "assetTo",
          "type": "address"
        },
        {
          "internalType": "address",
          "name": "collateralTo",
          "type": "address"
        },
        {
          "internalType": "uint256",
          "name": "liquidityIn",
          "type": "uint256"
        }
      ],
      "name": "burn",
      "outputs": [
        {
          "components": [
            {
              "internalType": "uint128",
              "name": "asset",
              "type": "uint128"
            },
            {
              "internalType": "uint128",
              "name": "collateral",
              "type": "uint128"
            }
          ],
          "internalType": "struct IPair.Tokens",
          "name": "tokensOut",
          "type": "tuple"
        }
      ],
      "stateMutability": "nonpayable",
      "type": "function"
    },
    {
      "inputs": [
        {
          "internalType": "uint256",
          "name": "maturity",
          "type": "uint256"
        },
        {
          "internalType": "address",
          "name": "owner",
          "type": "address"
        }
      ],
      "name": "claimsOf",
      "outputs": [
        {
          "components": [
            {
              "internalType": "uint128",
              "name": "bond",
              "type": "uint128"
            },
            {
              "internalType": "uint128",
              "name": "insurance",
              "type": "uint128"
            }
          ],
          "internalType": "struct IPair.Claims",
          "name": "",
          "type": "tuple"
        }
      ],
      "stateMutability": "view",
      "type": "function"
    },
    {
      "inputs": [],
      "name": "collateral",
      "outputs": [
        {
          "internalType": "contract IERC20",
          "name": "",
          "type": "address"
        }
      ],
      "stateMutability": "view",
      "type": "function"
    },
    {
      "inputs": [
        {
          "internalType": "uint256",
          "name": "maturity",
          "type": "uint256"
        }
      ],
      "name": "constantProduct",
      "outputs": [
        {
          "internalType": "uint112",
          "name": "x",
          "type": "uint112"
        },
        {
          "internalType": "uint112",
          "name": "y",
          "type": "uint112"
        },
        {
          "internalType": "uint112",
          "name": "z",
          "type": "uint112"
        }
      ],
      "stateMutability": "view",
      "type": "function"
    },
    {
      "inputs": [
        {
          "internalType": "uint256",
          "name": "maturity",
          "type": "uint256"
        },
        {
          "internalType": "address",
          "name": "owner",
          "type": "address"
        },
        {
          "internalType": "uint256",
          "name": "id",
          "type": "uint256"
        }
      ],
      "name": "dueOf",
      "outputs": [
        {
          "components": [
            {
              "internalType": "uint112",
              "name": "debt",
              "type": "uint112"
            },
            {
              "internalType": "uint112",
              "name": "collateral",
              "type": "uint112"
            },
            {
              "internalType": "uint32",
              "name": "startBlock",
              "type": "uint32"
            }
          ],
          "internalType": "struct IPair.Due",
          "name": "",
          "type": "tuple"
        }
      ],
      "stateMutability": "view",
      "type": "function"
    },
    {
      "inputs": [],
      "name": "factory",
      "outputs": [
        {
          "internalType": "contract IFactory",
          "name": "",
          "type": "address"
        }
      ],
      "stateMutability": "view",
      "type": "function"
    },
    {
      "inputs": [],
      "name": "fee",
      "outputs": [
        {
          "internalType": "uint16",
          "name": "",
          "type": "uint16"
        }
      ],
      "stateMutability": "view",
      "type": "function"
    },
    {
      "inputs": [
        {
          "internalType": "uint256",
          "name": "maturity",
          "type": "uint256"
        },
        {
          "internalType": "address",
          "name": "bondTo",
          "type": "address"
        },
        {
          "internalType": "address",
          "name": "insuranceTo",
          "type": "address"
        },
        {
          "internalType": "uint112",
          "name": "xIncrease",
          "type": "uint112"
        },
        {
          "internalType": "uint112",
          "name": "yDecrease",
          "type": "uint112"
        },
        {
          "internalType": "uint112",
          "name": "zDecrease",
          "type": "uint112"
        },
        {
          "internalType": "bytes",
          "name": "data",
          "type": "bytes"
        }
      ],
      "name": "lend",
      "outputs": [
        {
          "components": [
            {
              "internalType": "uint128",
              "name": "bond",
              "type": "uint128"
            },
            {
              "internalType": "uint128",
              "name": "insurance",
              "type": "uint128"
            }
          ],
          "internalType": "struct IPair.Claims",
          "name": "claimsOut",
          "type": "tuple"
        }
      ],
      "stateMutability": "nonpayable",
      "type": "function"
    },
    {
      "inputs": [
        {
          "internalType": "uint256",
          "name": "maturity",
          "type": "uint256"
        },
        {
          "internalType": "address",
          "name": "owner",
          "type": "address"
        }
      ],
      "name": "liquidityOf",
      "outputs": [
        {
          "internalType": "uint256",
          "name": "",
          "type": "uint256"
        }
      ],
      "stateMutability": "view",
      "type": "function"
    },
    {
      "inputs": [
        {
          "internalType": "uint256",
          "name": "maturity",
          "type": "uint256"
        },
        {
          "internalType": "address",
          "name": "liquidityTo",
          "type": "address"
        },
        {
          "internalType": "address",
          "name": "dueTo",
          "type": "address"
        },
        {
          "internalType": "uint112",
          "name": "xIncrease",
          "type": "uint112"
        },
        {
          "internalType": "uint112",
          "name": "yIncrease",
          "type": "uint112"
        },
        {
          "internalType": "uint112",
          "name": "zIncrease",
          "type": "uint112"
        },
        {
          "internalType": "bytes",
          "name": "data",
          "type": "bytes"
        }
      ],
      "name": "mint",
      "outputs": [
        {
          "internalType": "uint256",
          "name": "liquidityOut",
          "type": "uint256"
        },
        {
          "internalType": "uint256",
          "name": "id",
          "type": "uint256"
        },
        {
          "components": [
            {
              "internalType": "uint112",
              "name": "debt",
              "type": "uint112"
            },
            {
              "internalType": "uint112",
              "name": "collateral",
              "type": "uint112"
            },
            {
              "internalType": "uint32",
              "name": "startBlock",
              "type": "uint32"
            }
          ],
          "internalType": "struct IPair.Due",
          "name": "dueOut",
          "type": "tuple"
        }
      ],
      "stateMutability": "nonpayable",
      "type": "function"
    },
    {
      "inputs": [
        {
          "internalType": "uint256",
          "name": "maturity",
          "type": "uint256"
        },
        {
          "internalType": "address",
          "name": "to",
          "type": "address"
        },
        {
          "internalType": "address",
          "name": "owner",
          "type": "address"
        },
        {
          "internalType": "uint256[]",
          "name": "ids",
          "type": "uint256[]"
        },
        {
          "internalType": "uint112[]",
          "name": "assetsIn",
          "type": "uint112[]"
        },
        {
          "internalType": "uint112[]",
          "name": "collateralsOut",
          "type": "uint112[]"
        },
        {
          "internalType": "bytes",
          "name": "data",
          "type": "bytes"
        }
      ],
      "name": "pay",
      "outputs": [
        {
          "internalType": "uint128",
          "name": "assetIn",
          "type": "uint128"
        },
        {
          "internalType": "uint128",
          "name": "collateralOut",
          "type": "uint128"
        }
      ],
      "stateMutability": "nonpayable",
      "type": "function"
    },
    {
      "inputs": [],
      "name": "protocolFee",
      "outputs": [
        {
          "internalType": "uint16",
          "name": "",
          "type": "uint16"
        }
      ],
      "stateMutability": "view",
      "type": "function"
    },
    {
      "inputs": [
        {
          "internalType": "uint256",
          "name": "maturity",
          "type": "uint256"
        }
      ],
      "name": "totalClaims",
      "outputs": [
        {
          "components": [
            {
              "internalType": "uint128",
              "name": "bond",
              "type": "uint128"
            },
            {
              "internalType": "uint128",
              "name": "insurance",
              "type": "uint128"
            }
          ],
          "internalType": "struct IPair.Claims",
          "name": "",
          "type": "tuple"
        }
      ],
      "stateMutability": "view",
      "type": "function"
    },
    {
      "inputs": [
        {
          "internalType": "uint256",
          "name": "maturity",
          "type": "uint256"
        }
      ],
      "name": "totalDebtCreated",
      "outputs": [
        {
          "internalType": "uint120",
          "name": "",
          "type": "uint120"
        }
      ],
      "stateMutability": "view",
      "type": "function"
    },
    {
      "inputs": [
        {
          "internalType": "uint256",
          "name": "maturity",
          "type": "uint256"
        }
      ],
      "name": "totalLiquidity",
      "outputs": [
        {
          "internalType": "uint256",
          "name": "",
          "type": "uint256"
        }
      ],
      "stateMutability": "view",
      "type": "function"
    },
    {
      "inputs": [
        {
          "internalType": "uint256",
          "name": "maturity",
          "type": "uint256"
        }
      ],
      "name": "totalReserves",
      "outputs": [
        {
          "components": [
            {
              "internalType": "uint128",
              "name": "asset",
              "type": "uint128"
            },
            {
              "internalType": "uint128",
              "name": "collateral",
              "type": "uint128"
            }
          ],
          "internalType": "struct IPair.Tokens",
          "name": "",
          "type": "tuple"
        }
      ],
      "stateMutability": "view",
      "type": "function"
    },
    {
      "inputs": [
        {
          "internalType": "uint256",
          "name": "maturity",
          "type": "uint256"
        },
        {
          "internalType": "address",
          "name": "assetTo",
          "type": "address"
        },
        {
          "internalType": "address",
          "name": "collateralTo",
          "type": "address"
        },
        {
          "components": [
            {
              "internalType": "uint128",
              "name": "bond",
              "type": "uint128"
            },
            {
              "internalType": "uint128",
              "name": "insurance",
              "type": "uint128"
            }
          ],
          "internalType": "struct IPair.Claims",
          "name": "claimsIn",
          "type": "tuple"
        }
      ],
      "name": "withdraw",
      "outputs": [
        {
          "components": [
            {
              "internalType": "uint128",
              "name": "asset",
              "type": "uint128"
            },
            {
              "internalType": "uint128",
              "name": "collateral",
              "type": "uint128"
            }
          ],
          "internalType": "struct IPair.Tokens",
          "name": "tokensOut",
          "type": "tuple"
        }
      ],
      "stateMutability": "nonpayable",
      "type": "function"
    }
  ],
  "bytecode": "0x6101206040523480156200001257600080fd5b5060405162004b4f38038062004b4f8339810160408190526200003591620000a9565b33606090811b6080526001600160601b031994811b851660a0529290921b90921660c0526001600160f01b031960f092831b811660e052911b166101005262000105565b80516001600160a01b03811681146200009157600080fd5b919050565b805161ffff811681146200009157600080fd5b60008060008060808587031215620000bf578384fd5b620000ca8562000079565b9350620000da6020860162000079565b9250620000ea6040860162000096565b9150620000fa6060860162000096565b905092959194509250565b60805160601c60a05160601c60c05160601c60e05160f01c6101005160f01c61497f620001d0600039600081816102c601528181610cf50152610ed401526000818161056901528181611bfd015261226a01526000818161052101528181610a8f015281816110c5015281816118b5015281816123800152612aae0152600081816101ce01528181610a38015281816110a3015281816117f101528181611cfc015281816125ba0152612a570152600081816104fa01528181610d4a0152610f29015261497f6000f3fe608060405234801561001057600080fd5b50600436106101215760003560e01c8063b3466a68116100ad578063c45a015511610071578063c45a0155146104f5578063d8dfeb451461051c578063dccda5b814610543578063ddca3f4314610564578063ebdc8e731461058b57600080fd5b8063b3466a68146102fb578063b5e60c3c1461030e578063b77ee83914610331578063baadc6fe1461039d578063bbc538fb1461049957600080fd5b806360553a09116100f457806360553a09146102085780636761f92c1461024c5780639ee33ef21461026e578063aae6fcb4146102a1578063b0e21e8a146102c157600080fd5b80630967ba45146101265780630f79fca51461014f5780631eb9cd431461017057806338d52e0f146101c9575b600080fd5b6101396101343660046140ef565b61059e565b6040516101469190614417565b60405180910390f35b61016261015d366004613fe7565b610b28565b604051908152602001610146565b61013961017e366004613fb7565b604080518082019091526000808252602082015250600090815260208181526040918290208251808401909352546001600160801b038082168452600160801b909104169082015290565b6101f07f000000000000000000000000000000000000000000000000000000000000000081565b6040516001600160a01b039091168152602001610146565b610234610216366004613fb7565b6000908152602081905260409020600301546001600160781b031690565b6040516001600160781b039091168152602001610146565b61025f61025a36600461418b565b610b53565b60405161014693929190614641565b61028161027c366004614016565b6113c5565b604080516001600160801b03938416815292909116602083015201610146565b6102b46102af366004614260565b61195a565b604051610146919061443b565b6102e87f000000000000000000000000000000000000000000000000000000000000000081565b60405161ffff9091168152602001610146565b61013961030936600461418b565b611a0a565b61016261031c366004613fb7565b60009081526020819052604090206001015490565b61013961033f366004613fe7565b604080518082018252600080825260209182018190529384528381528184206001600160a01b0393909316845260069092018252918290208251808401909352546001600160801b038082168452600160801b909104169082015290565b61046f6103ab366004613fb7565b6000818152602081815260409182902082516101208101845281546001600160801b0380821660e08401908152600160801b928390048216610100850152835260018401548386015285518087018752600285015480831682529290920416938101939093529283019190915260038101546001600160781b03811660608401526001600160701b03600160781b90910481166080840181905260049092015480821660a08501819052600160701b90910490911660c09093018390529093909250565b604080516001600160701b0394851681529284166020840152921691810191909152606001610146565b6101396104a7366004613fb7565b604080518082019091526000808252602082015250600090815260208181526040918290208251808401909352600201546001600160801b038082168452600160801b909104169082015290565b6101f07f000000000000000000000000000000000000000000000000000000000000000081565b6101f07f000000000000000000000000000000000000000000000000000000000000000081565b61055661055136600461418b565b61206f565b604051610146929190614599565b6102e87f000000000000000000000000000000000000000000000000000000000000000081565b610139610599366004614219565b6126ca565b6040805180820190915260008082526020820152600154156105db5760405162461bcd60e51b81526004016105d2906143bd565b60405180910390fd5b60018055428511156106185760405162461bcd60e51b81526004016105d2906020808252600490820152634532303360e01b604082015260600190565b6001600160a01b0384161580159061063857506001600160a01b03831615155b6106545760405162461bcd60e51b81526004016105d2906143f9565b6001600160a01b038416301480159061067657506001600160a01b0383163014155b6106925760405162461bcd60e51b81526004016105d2906143db565b81516001600160801b03161515806106b75750600082602001516001600160801b0316115b6106d35760405162461bcd60e51b81526004016105d290614381565b6000858152602081815260409182902082516101208101845281546001600160801b0380821660e08401908152600160801b928390048216610100850152835260018401548386015285518087018752600285015480831682529290920416938101939093529283019190915260038101546001600160781b03811660608401526001600160701b03600160781b90910481166080840152600482015480821660a0850152600160701b90041660c08301528351909161079291612b46565b6001600160801b0390811683526040805161012081018252835480841660e08301908152600160801b91829004851661010084015282526001850154602080840191909152835180850185526002870154808716825292909204909416818501529181019190915260038301546001600160781b03811660608301526001600160701b03600160781b90910481166080830152600484015480821660a0840152600160701b90041660c08201529084015161084d9190612bb4565b6001600160801b03908116602084015283516002830180549192909160009161087891859116614810565b92506101000a8154816001600160801b0302191690836001600160801b0316021790555082602001518160000160020160000160108282829054906101000a90046001600160801b03166108cc9190614810565b82546101009290920a6001600160801b038181021990931691831602179091553360009081526006840160205260408120865181549194509284929161091491859116614810565b92506101000a8154816001600160801b0302191690836001600160801b0316021790555083602001518160000160108282829054906101000a90046001600160801b03166109629190614810565b82546101009290920a6001600160801b0381810219909316918316021790915584518454909250849160009161099a91859116614810565b92506101000a8154816001600160801b0302191690836001600160801b0316021790555082602001518260000160000160000160108282829054906101000a90046001600160801b03166109ee9190614810565b92506101000a8154816001600160801b0302191690836001600160801b03160217905550600083600001516001600160801b03161115610a69578251610a69906001600160a01b037f0000000000000000000000000000000000000000000000000000000000000000169088906001600160801b0316612cd2565b60208301516001600160801b031615610ac0576020830151610ac0906001600160a01b037f0000000000000000000000000000000000000000000000000000000000000000169087906001600160801b0316612cd2565b846001600160a01b0316866001600160a01b0316336001600160a01b03167fb1781228918ad6271826e772c0a688b2c4f86fe3258aa373c06a49cc49a4215a8a8888604051610b119392919061454d565b60405180910390a450506000600155949350505050565b6000828152602081815260408083206001600160a01b03851684526005019091529020545b92915050565b60408051606081018252600080825260208201819052918101829052819060015415610b915760405162461bcd60e51b81526004016105d2906143bd565b60018055428b11610bb45760405162461bcd60e51b81526004016105d29061439f565b640100000000610bc4428d61484c565b10610bfa5760405162461bcd60e51b81526004016105d29060208082526004908201526308a6460760e31b604082015260600190565b6001600160a01b038a1615801590610c1a57506001600160a01b03891615155b610c365760405162461bcd60e51b81526004016105d2906143f9565b6001600160a01b038a163014801590610c5857506001600160a01b0389163014155b610c745760405162461bcd60e51b81526004016105d2906143db565b6000886001600160701b0316118015610c9657506000876001600160701b0316115b8015610cab57506000866001600160701b0316115b610cc75760405162461bcd60e51b81526004016105d290614381565b60008b81526020819052604090206001810154610e145762010000600160801b0360108a901b16610d198d827f0000000000000000000000000000000000000000000000000000000000000000612ceb565b945080826000016001016000828254610d32919061476e565b90915550610d429050858261484c565b8260050160007f00000000000000000000000000000000000000000000000000000000000000006001600160a01b0316638da5cb5b6040518163ffffffff1660e01b815260040160206040518083038186803b158015610da157600080fd5b505afa158015610db5573d6000803e3d6000fd5b505050506040513d601f19601f82011682018060405250810190610dd99190613f7b565b6001600160a01b03166001600160a01b031681526020019081526020016000206000828254610e08919061476e565b90915550610fee915050565b604080516101208101825282546001600160801b0380821660e08401908152600160801b92839004821661010085015283526001850154602080850191909152845180860186526002870154808416825293909304909116908201529181019190915260038201546001600160781b03811660608301526001600160701b03600160781b90910481166080830152600483015480821660a0840152600160701b90041660c0820152600090610ecb908b8b8b612d2d565b9050610ef88d827f0000000000000000000000000000000000000000000000000000000000000000612ceb565b945080826000016001016000828254610f11919061476e565b90915550610f219050858261484c565b8260050160007f00000000000000000000000000000000000000000000000000000000000000006001600160a01b0316638da5cb5b6040518163ffffffff1660e01b815260040160206040518083038186803b158015610f8057600080fd5b505afa158015610f94573d6000803e3d6000fd5b505050506040513d601f19601f82011682018060405250810190610fb89190613f7b565b6001600160a01b03166001600160a01b031681526020019081526020016000206000828254610fe7919061476e565b9091555050505b600084116110275760405162461bcd60e51b81526004016105d2906020808252600490820152632299189960e11b604082015260600190565b6001600160a01b038b1660009081526005820160205260408120805486929061105190849061476e565b9091555061106290508c8a8a612da6565b6001600160701b031682526110778c88612df5565b6001600160701b0316602083015261108d612e44565b63ffffffff16604083015260208201516110ee907f0000000000000000000000000000000000000000000000000000000000000000907f0000000000000000000000000000000000000000000000000000000000000000908c908a8a612e54565b6001600160a01b038a16600090815260078201602052604090206111129083612faa565b81549093506001600160701b038a1690829060009061113b9084906001600160801b031661472e565b92506101000a8154816001600160801b0302191690836001600160801b0316021790555081602001516001600160701b03168160000160000160000160108282829054906101000a90046001600160801b0316611198919061472e565b82546001600160801b039182166101009390930a92830291909202199091161790555081516003820180546001600160701b03909216916000906111e69084906001600160781b031661470c565b92506101000a8154816001600160781b0302191690836001600160781b031602179055508881600001600301600f8282829054906101000a90046001600160701b031661123391906146e1565b92506101000a8154816001600160701b0302191690836001600160701b03160217905550878160000160040160008282829054906101000a90046001600160701b031661128091906146e1565b92506101000a8154816001600160701b0302191690836001600160701b031602179055508681600001600401600e8282829054906101000a90046001600160701b03166112cd91906146e1565b82546101009290920a6001600160701b038181021990931691831602179091556003830154600484015460408051600160781b909304841683528184166020840152600160701b909104909216918101919091528d91507f1147bcb0e71ebff15e66fd21a23234fe9acc1891f46595062d71501b0cacbdaa9060600160405180910390a2896001600160a01b03168b6001600160a01b0316336001600160a01b03167f9c05d261a45407efeed5f9c9a8beeebc34bb15e93578bdeb7caf5a808b5488028f8d8989896040516113a6959493929190614610565b60405180910390a4506000600181905550985098509895505050505050565b6000806001546000146113ea5760405162461bcd60e51b81526004016105d2906143bd565b60018055428a1161140d5760405162461bcd60e51b81526004016105d29061439f565b8551875114801561141f575084518751145b61143b5760405162461bcd60e51b81526004016105d290614381565b6001600160a01b0389166114615760405162461bcd60e51b81526004016105d2906143f9565b6001600160a01b03891630141561148a5760405162461bcd60e51b81526004016105d2906143db565b60008a8152602081815260408083206001600160a01b038c16845260078101909252822090915b89518110156117dc576000828b83815181106114dd57634e487b7160e01b600052603260045260246000fd5b60200260200101518154811061150357634e487b7160e01b600052603260045260246000fd5b906000526020600020019050611517612e44565b8154600160e01b900463ffffffff908116911614156115615760405162461bcd60e51b81526004016105d2906020808252600490820152634532303760e01b604082015260600190565b6001600160a01b038c1633146115da5788828151811061159157634e487b7160e01b600052603260045260246000fd5b60200260200101516001600160701b03166000146115da5760405162461bcd60e51b81526004016105d2906020808252600490820152634532313360e01b604082015260600190565b6116718a83815181106115fd57634e487b7160e01b600052603260045260246000fd5b60200260200101518a848151811061162557634e487b7160e01b600052603260045260246000fd5b6020908102919091018101516040805160608101825286546001600160701b038082168352600160701b82041694820194909452600160e01b90930463ffffffff169083015290613016565b89828151811061169157634e487b7160e01b600052603260045260246000fd5b6020908102919091010151815482906000906116b79084906001600160701b03166147e8565b92506101000a8154816001600160701b0302191690836001600160701b031602179055508882815181106116fb57634e487b7160e01b600052603260045260246000fd5b602002602001015181600001600e8282829054906101000a90046001600160701b031661172891906147e8565b92506101000a8154816001600160701b0302191690836001600160701b0316021790555089828151811061176c57634e487b7160e01b600052603260045260246000fd5b60200260200101516001600160701b031686611788919061472e565b95508882815181106117aa57634e487b7160e01b600052603260045260246000fd5b60200260200101516001600160701b0316856117c6919061472e565b94505080806117d490614893565b9150506114b1565b506001600160801b03841615611818576118187f0000000000000000000000000000000000000000000000000000000000000000858888613088565b8154849083906000906118359084906001600160801b031661472e565b82546101009290920a6001600160801b0381810219909316918316021790915583548592508491601091611872918591600160801b900416614810565b92506101000a8154816001600160801b0302191690836001600160801b031602179055506000836001600160801b031611156118e5576118e56001600160a01b037f0000000000000000000000000000000000000000000000000000000000000000168c6001600160801b038616612cd2565b896001600160a01b03168b6001600160a01b0316336001600160a01b03167f5a01dee47555c7f01c7780ac1365c62953080831de57e9f8c683842a8f05103c8f8d8d8d8b8b60405161193c969594939291906144bc565b60405180910390a45050600060015590999098509650505050505050565b60408051606081018252600080825260208083018290528284018290528682528181528382206001600160a01b03871683526007019052919091208054839081106119b557634e487b7160e01b600052603260045260246000fd5b60009182526020918290206040805160608101825291909201546001600160701b038082168352600160701b8204169382019390935263ffffffff600160e01b909304929092169082015290505b9392505050565b604080518082019091526000808252602082015260015415611a3e5760405162461bcd60e51b81526004016105d2906143bd565b60018055428911611a615760405162461bcd60e51b81526004016105d29061439f565b6001600160a01b03881615801590611a8157506001600160a01b03871615155b611a9d5760405162461bcd60e51b81526004016105d2906143f9565b6001600160a01b0388163014801590611abf57506001600160a01b0387163014155b611adb5760405162461bcd60e51b81526004016105d2906143db565b6000866001600160701b031611611b045760405162461bcd60e51b81526004016105d290614381565b60008981526020819052604090206001810154611b4c5760405162461bcd60e51b81526004016105d2906020808252600490820152632299181b60e11b604082015260600190565b604080516101208101825282546001600160801b0380821660e08401908152600160801b92839004821661010085015283526001850154602080850191909152845180860186526002870154808416825293909304909116908201529181019190915260038201546001600160781b03811660608301526001600160701b03600160781b90910481166080830152600483015480821660a0840152600160701b90041660c0820152611c21908888887f0000000000000000000000000000000000000000000000000000000000000000613161565b611c2c8a888861325c565b6001600160801b0390811683526040805161012081018252835480841660e08301908152600160801b91829004851661010084015282526001850154602080840191909152835180850185526002870154808716825292909204909416938101939093529081019190915260038201546001600160781b03811660608301526001600160701b03600160781b90910481166080830152600483015480821660a0840152600160701b90041660c0820152611ce9908b908988613296565b6001600160801b03166020830152611d237f000000000000000000000000000000000000000000000000000000000000000088868661332c565b8151600282018054600090611d429084906001600160801b031661472e565b92506101000a8154816001600160801b0302191690836001600160801b0316021790555081602001518160000160020160000160108282829054906101000a90046001600160801b0316611d96919061472e565b82546101009290920a6001600160801b0381810219909316918316021790915583516001600160a01b038c16600090815260068501602052604081208054929450929091611de69185911661472e565b92506101000a8154816001600160801b0302191690836001600160801b0316021790555081602001518160060160008a6001600160a01b03166001600160a01b0316815260200190815260200160002060000160108282829054906101000a90046001600160801b0316611e5a919061472e565b82546101009290920a6001600160801b0381810219909316918316021790915582546001600160701b038a1692508391600091611e999185911661472e565b92506101000a8154816001600160801b0302191690836001600160801b031602179055508681600001600301600f8282829054906101000a90046001600160701b0316611ee691906146e1565b92506101000a8154816001600160701b0302191690836001600160701b03160217905550858160000160040160008282829054906101000a90046001600160701b0316611f3391906147e8565b92506101000a8154816001600160701b0302191690836001600160701b031602179055508481600001600401600e8282829054906101000a90046001600160701b0316611f8091906147e8565b82546101009290920a6001600160701b038181021990931691831602179091556003830154600484015460408051600160781b909304841683528184166020840152600160701b909104909216918101919091528b91507f1147bcb0e71ebff15e66fd21a23234fe9acc1891f46595062d71501b0cacbdaa9060600160405180910390a2876001600160a01b0316896001600160a01b0316336001600160a01b03167fa22eb0c7b0eeea07be907f0202c88c497e4e748da09f590c90e48285b03a18068d8b87604051612055939291906145ad565b60405180910390a450600060015598975050505050505050565b60408051606081018252600080825260208201819052918101829052600154156120ab5760405162461bcd60e51b81526004016105d2906143bd565b60018055428a116120ce5760405162461bcd60e51b81526004016105d29061439f565b6001600160a01b038916158015906120ee57506001600160a01b03881615155b61210a5760405162461bcd60e51b81526004016105d2906143f9565b6001600160a01b038916301480159061212c57506001600160a01b0388163014155b6121485760405162461bcd60e51b81526004016105d2906143db565b6000876001600160701b0316116121715760405162461bcd60e51b81526004016105d290614381565b60008a815260208190526040902060018101546121b95760405162461bcd60e51b81526004016105d2906020808252600490820152632299181b60e11b604082015260600190565b604080516101208101825282546001600160801b0380821660e08401908152600160801b92839004821661010085015283526001850154602080850191909152845180860186526002870154808416825293909304909116908201529181019190915260038201546001600160781b03811660608301526001600160701b03600160781b90910481166080830152600483015480821660a0840152600160701b90041660c082015261228e908989897f00000000000000000000000000000000000000000000000000000000000000006133c5565b6122998b8989612da6565b6001600160701b039081168352604080516101208101825283546001600160801b0380821660e08401908152600160801b92839004821661010085015283526001860154602080850191909152845180860186526002880154808416825293909304909116908201529181019190915260038301546001600160781b0381166060830152600160781b900482166080820152600483015480831660a0830152600160701b900490911660c0820152612354908c908a8961346f565b6001600160701b0316602083015261236a612e44565b63ffffffff16604083015260208201516123a7907f0000000000000000000000000000000000000000000000000000000000000000908787613501565b6001600160a01b038916600090815260078201602052604090206123cb9083612faa565b81549093506001600160701b0389169082906000906123f49084906001600160801b0316614810565b92506101000a8154816001600160801b0302191690836001600160801b0316021790555081602001516001600160701b03168160000160000160000160108282829054906101000a90046001600160801b0316612451919061472e565b82546001600160801b039182166101009390930a92830291909202199091161790555081516003820180546001600160701b039092169160009061249f9084906001600160781b031661470c565b92506101000a8154816001600160781b0302191690836001600160781b031602179055508781600001600301600f8282829054906101000a90046001600160701b03166124ec91906147e8565b92506101000a8154816001600160701b0302191690836001600160701b03160217905550868160000160040160008282829054906101000a90046001600160701b031661253991906146e1565b92506101000a8154816001600160701b0302191690836001600160701b031602179055508581600001600401600e8282829054906101000a90046001600160701b031661258691906146e1565b92506101000a8154816001600160701b0302191690836001600160701b031602179055506125f18a896001600160701b03167f00000000000000000000000000000000000000000000000000000000000000006001600160a01b0316612cd29092919063ffffffff16565b6003810154600482015460408051600160781b9093046001600160701b0390811684528083166020850152600160701b909204909116908201528b907f1147bcb0e71ebff15e66fd21a23234fe9acc1891f46595062d71501b0cacbdaa9060600160405180910390a2886001600160a01b03168a6001600160a01b0316336001600160a01b03167fbc61adf62707a5898cf28ab52863bc46cc701d19377ce160f51628cc066e713a8e8c88886040516126ad94939291906145e6565b60405180910390a450600060015590999098509650505050505050565b6040805180820190915260008082526020820152600154156126fe5760405162461bcd60e51b81526004016105d2906143bd565b600180554285111561273b5760405162461bcd60e51b81526004016105d2906020808252600490820152634532303360e01b604082015260600190565b6001600160a01b0384161580159061275b57506001600160a01b03831615155b6127775760405162461bcd60e51b81526004016105d2906143f9565b6001600160a01b038416301480159061279957506001600160a01b0383163014155b6127b55760405162461bcd60e51b81526004016105d2906143db565b600082116127d55760405162461bcd60e51b81526004016105d290614381565b6000858152602081815260409182902082516101208101845281546001600160801b0380821660e08401908152600160801b928390048216610100850152835260018401548386015285518087018752600285015480831682529290920416938101939093529283019190915260038101546001600160781b03811660608401526001600160701b03600160781b90910481166080840152600482015480821660a0850152600160701b90041660c08301529061289290846135d2565b6001600160801b0390811683526040805161012081018252835480841660e08301908152600160801b91829004851661010084015282526001850154602080840191909152835180850185526002870154808716825292909204909416938101939093529081019190915260038201546001600160781b03811660608301526001600160701b03600160781b90910481166080830152600483015480821660a0840152600160701b90041660c082015261294c9084613630565b6001600160801b0316602083015260018101805484919060009061297190849061484c565b90915550503360009081526005820160205260408120805485929061299790849061484c565b90915550508151815482906000906129b99084906001600160801b0316614810565b92506101000a8154816001600160801b0302191690836001600160801b0316021790555081602001518160000160000160000160108282829054906101000a90046001600160801b0316612a0d9190614810565b92506101000a8154816001600160801b0302191690836001600160801b03160217905550600082600001516001600160801b03161115612a88578151612a88906001600160a01b037f0000000000000000000000000000000000000000000000000000000000000000169087906001600160801b0316612cd2565b60208201516001600160801b031615612adf576020820151612adf906001600160a01b037f0000000000000000000000000000000000000000000000000000000000000000169086906001600160801b0316612cd2565b836001600160a01b0316856001600160a01b0316336001600160a01b03167f6b18578fcaee867974e1ea7cc70575906dab2b1739d695d6250bd77733009eb8898787604051612b309392919061465c565b60405180910390a4506000600155949350505050565b6040820151518251516000916001600160801b03908116911610612b6b575080610b4d565b8251516001600160801b0380841691612b859116826147c9565b604085015151909150612ba1906001600160801b031682614786565b9050612bac81613761565b949350505050565b6040820151518251516000916001600160801b03908116911610612bd757610b4d565b6040830151518351516001600160801b0391821691612bf791168261484c565b90508360400151602001516001600160801b031681612c1691906147c9565b604085015151855160200151612c38916001600160801b0390811691166147c9565b10612c815780612c516001600160801b038516826147c9565b604086015151909150612c6d906001600160801b031682614786565b9050612c7881613761565b92505050610b4d565b8351602001516001600160801b0390811690612c9f908516826147c9565b90508460400151602001516001600160801b031681612cbe9190614786565b9050612cc981613761565b95945050505050565b612ce66001600160a01b038416838361377c565b505050565b600083612cf8428261484c565b9050612d0861ffff8416826147c9565b9050612d1a650100000000008261476e565b9050612cc98465010000000000836137ce565b6000612cc9612d61856001600160701b031687608001516001600160701b031688602001516137ce9092919063ffffffff16565b60a08701516020880151612d81916001600160701b0380891691166137ce565b60c08801516020890151612da1916001600160701b0380891691166137ce565b61387b565b600083612db3428261484c565b9050612dc86001600160701b038416826147c9565b9050612dd58160206138bc565b9050612dea6001600160701b0385168261476e565b9050612cc9816138d7565b600082612e02428261484c565b9050612e176001600160701b038416826147c9565b9050612e248160196138bc565b9050612e396001600160701b0384168261476e565b9050612bac816138d7565b6000612e4f436138ed565b905090565b6000612e68876001600160a01b03166138fe565b90506000612e7e876001600160a01b03166138fe565b60405163eeda4c9f60e01b8152909150339063eeda4c9f90612eaa90899089908990899060040161446c565b600060405180830381600087803b158015612ec457600080fd5b505af1158015612ed8573d6000803e3d6000fd5b505050506000612ef0896001600160a01b03166138fe565b90506000612f06896001600160a01b03166138fe565b9050612f1b6001600160701b0389168561476e565b821015612f535760405162461bcd60e51b81526004016105d290602080825260049082015263114ccc0d60e21b604082015260600190565b612f666001600160701b0388168461476e565b811015612f9e5760405162461bcd60e51b81526004016105d2906020808252600490820152634533303560e01b604082015260600190565b50505050505050505050565b81546001810183556000928352602092839020825190820180549484015160409094015163ffffffff16600160e01b026001600160e01b036001600160701b03958616600160701b026001600160e01b0319909716959093169490941794909417169190911790915590565b805161302f906001600160701b039081169084166147c9565b81602001516001600160701b0316846001600160701b031661305191906147c9565b1015612ce65760405162461bcd60e51b81526004016105d2906020808252600490820152634533303360e01b604082015260600190565b600061309c856001600160a01b03166138fe565b60405163c70449bf60e01b8152909150339063c70449bf906130c690879087908790600401614499565b600060405180830381600087803b1580156130e057600080fd5b505af11580156130f4573d6000803e3d6000fd5b50505050600061310c866001600160a01b03166138fe565b90506131216001600160801b0386168361476e565b8110156131595760405162461bcd60e51b81526004016105d290602080825260049082015263114ccc0d60e21b604082015260600190565b505050505050565b600061317461ffff831662010000614750565b62ffffff169050600085876080015161318d91906146e1565b905060006131a08860a001518785613980565b905060006131b38960c001518786613980565b90506131c1898484846139ad565b60a08901516001600160701b03808a16916131dd9116826147c9565b600c1b90506001600160701b0384166131ff6001600160801b038716826147c9565b905061320b8183614786565b915081896001600160701b0316101561324f5760405162461bcd60e51b81526004016105d2906020808252600490820152632299981960e11b604082015260600190565b5050505050505050505050565b600083613269428261484c565b905061327e6001600160701b038416826147c9565b60201c9050612cbe6001600160701b0385168261476e565b6000846132a3428261484c565b90506132b86001600160701b038416826147c9565b60c086015160199190911c91506001600160701b03908116906132dd908616826147c9565b60808701519091506001600160701b03908116906132fd9087168261476e565b90506133098183614786565b9150613315828461476e565b925061332083613761565b98975050505050505050565b6000613340856001600160a01b03166138fe565b604051630886fef960e31b81529091503390634437f7c89061336a90879087908790600401614449565b600060405180830381600087803b15801561338457600080fd5b505af1158015613398573d6000803e3d6000fd5b5050505060006133b0866001600160a01b03166138fe565b90506131216001600160701b0386168361476e565b60006133d861ffff831662010000614830565b62ffffff16905060008587608001516133f191906147e8565b905060006134048860a001518785613aa9565b905060006134178960c001518786613aa9565b9050613425898484846139ad565b60a08901516001600160701b03808a16916134419116826147c9565b600c1b90506001600160701b0384166134636001600160801b038716826147c9565b905061320b8282613ad6565b60008461347c428261484c565b90506134916001600160701b038416826147c9565b905061349e8160196138bc565b60c08601519091506001600160701b03908116906134be908616826147c9565b60808701519091506001600160701b03908116906134de9087168261484c565b90506134ea8282613ad6565b91506134f6828461476e565b9250613320836138d7565b6000613515856001600160a01b03166138fe565b6040516390e4d0b160e01b815290915033906390e4d0b19061353f90879087908790600401614449565b600060405180830381600087803b15801561355957600080fd5b505af115801561356d573d6000803e3d6000fd5b505050506000613585866001600160a01b03166138fe565b905061359a6001600160701b0386168361476e565b8110156131595760405162461bcd60e51b81526004016105d2906020808252600490820152634533303560e01b604082015260600190565b6040820151518251516000916001600160801b039081169116116135f557610b4d565b8251516040840151516001600160801b039182169161361591168261484c565b9050612ba1838560200151836137ce9092919063ffffffff16565b8151602081015160408401515191516000926001600160801b039283169290811691161061367d57602084015161366a90829085906137ce565b905061367581613761565b915050610b4d565b6040840151518451516001600160801b039182169161369d91168261484c565b90508460400151602001516001600160801b0316816136bc91906147c9565b6040860151518651602001516136de916001600160801b0390811691166147c9565b116136ea575050610b4d565b6040850151602001518190613708906001600160801b0316826147c9565b6040870151519091506137259082906001600160801b0316613ad6565b9050613731818461484c565b925061374c858760200151856137ce9092919063ffffffff16565b925061375783613761565b9695505050505050565b806001600160801b038116811461377757600080fd5b919050565b604080516001600160a01b038416602482015260448082018490528251808303909101815260649091019091526020810180516001600160e01b031663a9059cbb60e01b179052612ce6908490613b00565b60008060006137dd8686613bd2565b91509150806000141561380257600084116137f757600080fd5b508290049050611a03565b80841161380e57600080fd5b6000848688096000868103871696879004966002600389028118808a02820302808a02820302808a02820302808a02820302808a02820302808a02909103029181900381900460010186841190950394909402919094039290920491909117919091029150509392505050565b600082841115801561388d5750818411155b15613899575082611a03565b8383111580156138a95750818311155b156138b5575081611a03565b5092915050565b60ff811682811c9081901b8314610b4d5780612bac81614893565b806001600160701b038116811461377757600080fd5b6000610b4d640100000000836148ae565b60408051306024808301919091528251808303909101815260449091018252602080820180516001600160e01b03166370a0823160e01b179052825160608101909352602d808452600093849361396a9390929061491d908301396001600160a01b0386169190613bf1565b905080806020019051810190611a039190613fcf565b62010000600160801b03601084901b166139a36001600160701b0384168361479a565b612bac9082614810565b6000806139d96001600160701b0386166139d36001600160801b038087169088166147c9565b90613bd2565b91509150600080613a2188608001516001600160701b031660208a60c001516001600160701b03168b60a001516001600160701b0316613a1991906147c9565b901b90613bd2565b9150915080831015613a5e5760405162461bcd60e51b81526004016105d2906020808252600490820152634533303160e01b604082015260600190565b80831415613a9f5781841015613a9f5760405162461bcd60e51b81526004016105d2906020808252600490820152634533303160e01b604082015260600190565b5050505050505050565b62010000600160801b03601084901b16613acc6001600160701b0384168361479a565b612bac908261472e565b6000613ae28284614786565b90506000613af083856148ae565b1115610b4d5780612bac81614893565b6000613b55826040518060400160405280602081526020017f5361666545524332303a206c6f772d6c6576656c2063616c6c206661696c6564815250856001600160a01b0316613cb89092919063ffffffff16565b805190915015612ce65780806020019051810190613b739190613f97565b612ce65760405162461bcd60e51b815260206004820152602a60248201527f5361666545524332303a204552433230206f7065726174696f6e20646964206e6044820152691bdd081cdd58d8d9595960b21b60648201526084016105d2565b6000806000198385098385029250828110838203039150509250929050565b6060833b613c4d5760405162461bcd60e51b8152602060048201526024808201527f416464726573733a207374617469632063616c6c20746f206e6f6e2d636f6e746044820152631c9858dd60e21b60648201526084016105d2565b600080856001600160a01b031685604051613c689190614332565b600060405180830381855afa9150503d8060008114613ca3576040519150601f19603f3d011682016040523d82523d6000602084013e613ca8565b606091505b5091509150613757828286613cc7565b6060612bac8484600085613d00565b60608315613cd6575081611a03565b825115613ce65782518084602001fd5b8160405162461bcd60e51b81526004016105d2919061434e565b606082471015613d615760405162461bcd60e51b815260206004820152602660248201527f416464726573733a20696e73756666696369656e742062616c616e636520666f6044820152651c8818d85b1b60d21b60648201526084016105d2565b843b613daf5760405162461bcd60e51b815260206004820152601d60248201527f416464726573733a2063616c6c20746f206e6f6e2d636f6e747261637400000060448201526064016105d2565b600080866001600160a01b03168587604051613dcb9190614332565b60006040518083038185875af1925050503d8060008114613e08576040519150601f19603f3d011682016040523d82523d6000602084013e613e0d565b606091505b5091509150613e1d828286613cc7565b979650505050505050565b803561377781614904565b600082601f830112613e43578081fd5b81356020613e58613e53836146bd565b61468c565b80838252828201915082860187848660051b8901011115613e77578586fd5b855b85811015613e9c57613e8a82613f4d565b84529284019290840190600101613e79565b5090979650505050505050565b600082601f830112613eb9578081fd5b81356020613ec9613e53836146bd565b80838252828201915082860187848660051b8901011115613ee8578586fd5b855b85811015613e9c57813584529284019290840190600101613eea565b60008083601f840112613f17578182fd5b50813567ffffffffffffffff811115613f2e578182fd5b602083019150836020828501011115613f4657600080fd5b9250929050565b80356001600160701b038116811461377757600080fd5b80356001600160801b038116811461377757600080fd5b600060208284031215613f8c578081fd5b8151611a0381614904565b600060208284031215613fa8578081fd5b81518015158114611a03578182fd5b600060208284031215613fc8578081fd5b5035919050565b600060208284031215613fe0578081fd5b5051919050565b60008060408385031215613ff9578081fd5b82359150602083013561400b81614904565b809150509250929050565b60008060008060008060008060e0898b031215614031578384fd5b8835975061404160208a01613e28565b965061404f60408a01613e28565b9550606089013567ffffffffffffffff8082111561406b578586fd5b6140778c838d01613ea9565b965060808b013591508082111561408c578586fd5b6140988c838d01613e33565b955060a08b01359150808211156140ad578485fd5b6140b98c838d01613e33565b945060c08b01359150808211156140ce578384fd5b506140db8b828c01613f06565b999c989b5096995094979396929594505050565b60008060008084860360a0811215614105578485fd5b85359450602086013561411781614904565b9350604086013561412781614904565b92506040605f198201121561413a578182fd5b506040516040810181811067ffffffffffffffff8211171561415e5761415e6148ee565b60405261416d60608701613f64565b815261417b60808701613f64565b6020820152939692955090935050565b60008060008060008060008060e0898b0312156141a6578384fd5b8835975060208901356141b881614904565b965060408901356141c881614904565b95506141d660608a01613f4d565b94506141e460808a01613f4d565b93506141f260a08a01613f4d565b925060c089013567ffffffffffffffff81111561420d578283fd5b6140db8b828c01613f06565b6000806000806080858703121561422e578182fd5b84359350602085013561424081614904565b9250604085013561425081614904565b9396929550929360600135925050565b600080600060608486031215614274578081fd5b83359250602084013561428681614904565b929592945050506040919091013590565b6000815180845260208085019450808401835b838110156142cf5781516001600160701b0316875295820195908201906001016142aa565b509495945050505050565b81835281816020850137506000828201602090810191909152601f909101601f19169091010190565b6001600160701b038082511683528060208301511660208401525063ffffffff60408201511660408301525050565b60008251614344818460208701614863565b9190910192915050565b602081526000825180602084015261436d816040850160208701614863565b601f01601f19169190910160400192915050565b6020808252600490820152634532303560e01b604082015260600190565b6020808252600490820152632299181960e11b604082015260600190565b6020808252600490820152634532313160e01b604082015260600190565b602080825260049082015263114c8c0d60e21b604082015260600190565b6020808252600490820152634532303160e01b604082015260600190565b60408101610b4d828480516001600160801b03908116835260209182015116910152565b60608101610b4d8284614303565b6001600160701b0384168152604060208201526000612cc96040830184866142da565b60006001600160701b038087168352808616602084015250606060408301526137576060830184866142da565b6001600160801b0384168152604060208201526000612cc96040830184866142da565b600060c08201888352602060c08185015281895180845260e086019150828b019350845b818110156144fc578451835293830193918301916001016144e0565b50508481036040860152614510818a614297565b9250505082810360608401526145268187614297565b9150506001600160801b03808516608084015280841660a084015250979650505050505050565b83815260a08101614577602083018580516001600160801b03908116835260209182015116910152565b82516001600160801b0390811660608401526020840151166080830152612bac565b82815260808101611a036020830184614303565b8381526001600160701b038316602082015260808101612bac604083018480516001600160801b03908116835260209182015116910152565b8481526001600160701b03841660208201526040810183905260c08101612cc96060830184614303565b8581526001600160701b0385166020820152604081018490526060810183905260e081016137576080830184614303565b8381526020810183905260a08101612bac6040830184614303565b838152602080820184905282516001600160801b0390811660408401529083015116606082015260808101612bac565b604051601f8201601f1916810167ffffffffffffffff811182821017156146b5576146b56148ee565b604052919050565b600067ffffffffffffffff8211156146d7576146d76148ee565b5060051b60200190565b60006001600160701b03808316818516808303821115614703576147036148c2565b01949350505050565b60006001600160781b03808316818516808303821115614703576147036148c2565b60006001600160801b03808316818516808303821115614703576147036148c2565b600062ffffff808316818516808303821115614703576147036148c2565b60008219821115614781576147816148c2565b500190565b600082614795576147956148d8565b500490565b60006001600160801b03808316818516818304811182151516156147c0576147c06148c2565b02949350505050565b60008160001904831182151516156147e3576147e36148c2565b500290565b60006001600160701b0383811690831681811015614808576148086148c2565b039392505050565b60006001600160801b0383811690831681811015614808576148086148c2565b600062ffffff83811690831681811015614808576148086148c2565b60008282101561485e5761485e6148c2565b500390565b60005b8381101561487e578181015183820152602001614866565b8381111561488d576000848401525b50505050565b60006000198214156148a7576148a76148c2565b5060010190565b6000826148bd576148bd6148d8565b500690565b634e487b7160e01b600052601160045260246000fd5b634e487b7160e01b600052601260045260246000fd5b634e487b7160e01b600052604160045260246000fd5b6001600160a01b038116811461491957600080fd5b5056fe62616c616e63654f662043616c6c20746f2049455243323020746f6b656e206e6f74207375636365737366756ca26469706673582212201f99c60e93575cbc9fc94b39ccfd07c260afcf6e87f95cb09f124f5c79c9119164736f6c63430008040033",
  "linkReferences": {},
  "deployedLinkReferences": {}
}