{
  "_format": "hh-sol-artifact-1",
  "contractName": "Imports",
  "sourceName": "contracts/util/Import.sol",
  "abi": [
    {
      "inputs": [],
      "name": "tc",
      "outputs": [
        {
          "internalType": "contract TimelockController",
          "name": "",
          "type": "address"
        }
      ],
      "stateMutability": "view",
      "type": "function"
    }
  ],
  "bytecode": "0x6080604052348015600f57600080fd5b5060ab8061001e6000396000f3fe6080604052348015600f57600080fd5b506004361060285760003560e01c8063f6420e1514602d575b600080fd5b600054604c9073ffffffffffffffffffffffffffffffffffffffff1681565b60405173ffffffffffffffffffffffffffffffffffffffff909116815260200160405180910390f3fea2646970667358221220a97b1d220e6db8a5ed1d913d18b26d62deba9ee6b12abc4d79f7af2879055dd864736f6c634300080a0033",
  "linkReferences": {},
  "deployedLinkReferences": {}
}