{
  "_format": "hh-sol-artifact-1",
  "contractName": "ConvexStakingWrapper",
  "sourceName": "contracts/ConvexStakingWrapper.sol",
  "abi": [
    {
      "inputs": [
        {
          "internalType": "address",
          "name": "_treasury",
          "type": "address"
        },
        {
          "internalType": "contract MasterChef",
          "name": "_masterChef",
          "type": "address"
        }
      ],
      "stateMutability": "nonpayable",
      "type": "constructor"
    },
    {
      "anonymous": false,
      "inputs": [
        {
          "indexed": true,
          "internalType": "address",
          "name": "_user",
          "type": "address"
        },
        {
          "indexed": false,
          "internalType": "uint256",
          "name": "_amount",
          "type": "uint256"
        }
      ],
      "name": "Deposited",
      "type": "event"
    },
    {
      "anonymous": false,
      "inputs": [
        {
          "indexed": true,
          "internalType": "address",
          "name": "previousOwner",
          "type": "address"
        },
        {
          "indexed": true,
          "internalType": "address",
          "name": "newOwner",
          "type": "address"
        }
      ],
      "name": "OwnershipTransferred",
      "type": "event"
    },
    {
      "anonymous": false,
      "inputs": [
        {
          "indexed": false,
          "internalType": "address",
          "name": "account",
          "type": "address"
        }
      ],
      "name": "Paused",
      "type": "event"
    },
    {
      "anonymous": false,
      "inputs": [
        {
          "indexed": false,
          "internalType": "address",
          "name": "account",
          "type": "address"
        }
      ],
      "name": "Unpaused",
      "type": "event"
    },
    {
      "anonymous": false,
      "inputs": [
        {
          "indexed": true,
          "internalType": "address",
          "name": "_user",
          "type": "address"
        },
        {
          "indexed": false,
          "internalType": "uint256",
          "name": "_amount",
          "type": "uint256"
        }
      ],
      "name": "Withdrawn",
      "type": "event"
    },
    {
      "inputs": [],
      "name": "CRV_INDEX",
      "outputs": [
        {
          "internalType": "uint256",
          "name": "",
          "type": "uint256"
        }
      ],
      "stateMutability": "view",
      "type": "function"
    },
    {
      "inputs": [],
      "name": "CVX_INDEX",
      "outputs": [
        {
          "internalType": "uint256",
          "name": "",
          "type": "uint256"
        }
      ],
      "stateMutability": "view",
      "type": "function"
    },
    {
      "inputs": [],
      "name": "VOTECYCLE_START",
      "outputs": [
        {
          "internalType": "uint256",
          "name": "",
          "type": "uint256"
        }
      ],
      "stateMutability": "view",
      "type": "function"
    },
    {
      "inputs": [
        {
          "internalType": "uint256",
          "name": "_pid",
          "type": "uint256"
        }
      ],
      "name": "addRewards",
      "outputs": [],
      "stateMutability": "nonpayable",
      "type": "function"
    },
    {
      "inputs": [
        {
          "internalType": "address",
          "name": "_treasury",
          "type": "address"
        }
      ],
      "name": "changeTreasury",
      "outputs": [],
      "stateMutability": "nonpayable",
      "type": "function"
    },
    {
      "inputs": [],
      "name": "claimContract",
      "outputs": [
        {
          "internalType": "contract IConcurRewardClaim",
          "name": "",
          "type": "address"
        }
      ],
      "stateMutability": "view",
      "type": "function"
    },
    {
      "inputs": [],
      "name": "convexBooster",
      "outputs": [
        {
          "internalType": "address",
          "name": "",
          "type": "address"
        }
      ],
      "stateMutability": "view",
      "type": "function"
    },
    {
      "inputs": [
        {
          "internalType": "uint256",
          "name": "",
          "type": "uint256"
        }
      ],
      "name": "convexPool",
      "outputs": [
        {
          "internalType": "address",
          "name": "",
          "type": "address"
        }
      ],
      "stateMutability": "view",
      "type": "function"
    },
    {
      "inputs": [],
      "name": "crv",
      "outputs": [
        {
          "internalType": "address",
          "name": "",
          "type": "address"
        }
      ],
      "stateMutability": "view",
      "type": "function"
    },
    {
      "inputs": [],
      "name": "currentEpoch",
      "outputs": [
        {
          "internalType": "uint64",
          "name": "",
          "type": "uint64"
        }
      ],
      "stateMutability": "view",
      "type": "function"
    },
    {
      "inputs": [],
      "name": "cvx",
      "outputs": [
        {
          "internalType": "address",
          "name": "",
          "type": "address"
        }
      ],
      "stateMutability": "view",
      "type": "function"
    },
    {
      "inputs": [
        {
          "internalType": "uint256",
          "name": "_pid",
          "type": "uint256"
        },
        {
          "internalType": "uint256",
          "name": "_amount",
          "type": "uint256"
        }
      ],
      "name": "deposit",
      "outputs": [],
      "stateMutability": "nonpayable",
      "type": "function"
    },
    {
      "inputs": [
        {
          "internalType": "uint256",
          "name": "",
          "type": "uint256"
        },
        {
          "internalType": "address",
          "name": "",
          "type": "address"
        }
      ],
      "name": "deposits",
      "outputs": [
        {
          "internalType": "uint64",
          "name": "epoch",
          "type": "uint64"
        },
        {
          "internalType": "uint192",
          "name": "amount",
          "type": "uint192"
        }
      ],
      "stateMutability": "view",
      "type": "function"
    },
    {
      "inputs": [],
      "name": "masterChef",
      "outputs": [
        {
          "internalType": "contract MasterChef",
          "name": "",
          "type": "address"
        }
      ],
      "stateMutability": "view",
      "type": "function"
    },
    {
      "inputs": [],
      "name": "owner",
      "outputs": [
        {
          "internalType": "address",
          "name": "",
          "type": "address"
        }
      ],
      "stateMutability": "view",
      "type": "function"
    },
    {
      "inputs": [],
      "name": "pause",
      "outputs": [],
      "stateMutability": "nonpayable",
      "type": "function"
    },
    {
      "inputs": [],
      "name": "paused",
      "outputs": [
        {
          "internalType": "bool",
          "name": "",
          "type": "bool"
        }
      ],
      "stateMutability": "view",
      "type": "function"
    },
    {
      "inputs": [
        {
          "internalType": "address",
          "name": "",
          "type": "address"
        }
      ],
      "name": "pids",
      "outputs": [
        {
          "internalType": "uint256",
          "name": "",
          "type": "uint256"
        }
      ],
      "stateMutability": "view",
      "type": "function"
    },
    {
      "inputs": [
        {
          "internalType": "uint256",
          "name": "",
          "type": "uint256"
        },
        {
          "internalType": "address",
          "name": "",
          "type": "address"
        }
      ],
      "name": "registeredRewards",
      "outputs": [
        {
          "internalType": "uint256",
          "name": "",
          "type": "uint256"
        }
      ],
      "stateMutability": "view",
      "type": "function"
    },
    {
      "inputs": [],
      "name": "renounceOwnership",
      "outputs": [],
      "stateMutability": "nonpayable",
      "type": "function"
    },
    {
      "inputs": [
        {
          "internalType": "uint256",
          "name": "_pid",
          "type": "uint256"
        },
        {
          "internalType": "uint256",
          "name": "_amount",
          "type": "uint256"
        }
      ],
      "name": "requestWithdraw",
      "outputs": [],
      "stateMutability": "nonpayable",
      "type": "function"
    },
    {
      "inputs": [
        {
          "internalType": "uint256",
          "name": "_pid",
          "type": "uint256"
        }
      ],
      "name": "rewardLength",
      "outputs": [
        {
          "internalType": "uint256",
          "name": "",
          "type": "uint256"
        }
      ],
      "stateMutability": "view",
      "type": "function"
    },
    {
      "inputs": [
        {
          "internalType": "uint256",
          "name": "",
          "type": "uint256"
        },
        {
          "internalType": "uint256",
          "name": "",
          "type": "uint256"
        }
      ],
      "name": "rewards",
      "outputs": [
        {
          "internalType": "address",
          "name": "token",
          "type": "address"
        },
        {
          "internalType": "address",
          "name": "pool",
          "type": "address"
        },
        {
          "internalType": "uint128",
          "name": "integral",
          "type": "uint128"
        },
        {
          "internalType": "uint128",
          "name": "remaining",
          "type": "uint128"
        }
      ],
      "stateMutability": "view",
      "type": "function"
    },
    {
      "inputs": [
        {
          "internalType": "address",
          "name": "_claimContract",
          "type": "address"
        }
      ],
      "name": "setRewardPool",
      "outputs": [],
      "stateMutability": "nonpayable",
      "type": "function"
    },
    {
      "inputs": [
        {
          "internalType": "address",
          "name": "newOwner",
          "type": "address"
        }
      ],
      "name": "transferOwnership",
      "outputs": [],
      "stateMutability": "nonpayable",
      "type": "function"
    },
    {
      "inputs": [],
      "name": "treasury",
      "outputs": [
        {
          "internalType": "address",
          "name": "",
          "type": "address"
        }
      ],
      "stateMutability": "view",
      "type": "function"
    },
    {
      "inputs": [],
      "name": "unpause",
      "outputs": [],
      "stateMutability": "nonpayable",
      "type": "function"
    },
    {
      "inputs": [
        {
          "internalType": "uint256",
          "name": "",
          "type": "uint256"
        },
        {
          "internalType": "uint256",
          "name": "",
          "type": "uint256"
        },
        {
          "internalType": "address",
          "name": "",
          "type": "address"
        }
      ],
      "name": "userReward",
      "outputs": [
        {
          "internalType": "uint128",
          "name": "integral",
          "type": "uint128"
        }
      ],
      "stateMutability": "view",
      "type": "function"
    },
    {
      "inputs": [
        {
          "internalType": "uint256",
          "name": "_pid",
          "type": "uint256"
        },
        {
          "internalType": "uint256",
          "name": "_amount",
          "type": "uint256"
        }
      ],
      "name": "withdraw",
      "outputs": [],
      "stateMutability": "nonpayable",
      "type": "function"
    },
    {
      "inputs": [
        {
          "internalType": "uint256",
          "name": "",
          "type": "uint256"
        },
        {
          "internalType": "address",
          "name": "",
          "type": "address"
        }
      ],
      "name": "withdrawRequest",
      "outputs": [
        {
          "internalType": "uint64",
          "name": "epoch",
          "type": "uint64"
        },
        {
          "internalType": "uint192",
          "name": "amount",
          "type": "uint192"
        }
      ],
      "stateMutability": "view",
      "type": "function"
    }
  ],
  "bytecode": "0x60a06040523480156200001157600080fd5b50604051620029c4380380620029c48339810160408190526200003491620000dc565b6200003f3362000073565b600180556002805460ff19169055600780546001600160a01b0319166001600160a01b03938416179055166080526200011b565b600080546001600160a01b038381166001600160a01b0319831681178455604051919092169283917f8be0079c531659141344cd1fd0a4f28419497f9722a3daafe3b4186f6b6457e09190a35050565b6001600160a01b0381168114620000d957600080fd5b50565b60008060408385031215620000f057600080fd5b8251620000fd81620000c3565b60208401519092506200011081620000c3565b809150509250929050565b608051612871620001536000396000818161031101528181610946015281816109d901528181611702015261179501526128716000f3fe608060405234801561001057600080fd5b50600436106101da5760003560e01c806375ca482411610104578063beceed39116100a2578063df01df6f11610071578063df01df6f14610536578063e20cd4e314610556578063e2bbb15814610569578063f2fde38b1461057c57600080fd5b8063beceed391461046b578063c03f55dc1461047e578063c660078f1461049e578063cdee1292146104e457600080fd5b80638456cb59116100de5780638456cb59146104245780638da5cb5b1461042c578063923c1d611461043d578063b14f2a391461045857600080fd5b806375ca4824146103c857806376671808146103f157806378238c371461041157600080fd5b8063575a86b21161017c57806366345da41161014b57806366345da4146103875780636926f17c1461039a5780636a4874a1146103a5578063715018a6146103c057600080fd5b8063575a86b21461030c5780635c975abb1461033357806361d027b314610349578063659666261461035c57600080fd5b80633e7e366e116101b85780633e7e366e146102355780633f4ba83a14610282578063441a3e701461028c57806353a58de11461029f57600080fd5b80630637f78d146101df5780631a597a67146101fa5780632cdacb5014610202575b600080fd5b6101e7600081565b6040519081526020015b60405180910390f35b6101e7600181565b61021d73f403c135812408bfbe8713b5a23a04b3d48aae3181565b6040516001600160a01b0390911681526020016101f1565b610248610243366004612473565b61058f565b604080516001600160a01b0395861681529490931660208501526001600160801b03918216928401929092521660608201526080016101f1565b61028a6105f0565b005b61028a61029a366004612473565b61062d565b6102e56102ad3660046124aa565b600a6020908152600092835260408084209091529082529020546001600160401b03811690600160401b90046001600160c01b031682565b604080516001600160401b0390931683526001600160c01b039091166020830152016101f1565b61021d7f000000000000000000000000000000000000000000000000000000000000000081565b60025460ff1660405190151581526020016101f1565b60075461021d906001600160a01b031681565b6101e761036a3660046124aa565b600660209081526000928352604080842090915290825290205481565b60085461021d906001600160a01b031681565b6101e763620cbd1081565b61021d73d533a949740bb3306d119cc777fa900ba034cd5281565b61028a610a97565b61021d6103d63660046124da565b6003602052600090815260409020546001600160a01b031681565b6103f9610acb565b6040516001600160401b0390911681526020016101f1565b61028a61041f3660046124f3565b610af9565b61028a610b45565b6000546001600160a01b031661021d565b61021d734e3fbd56cd56c3e72c1403e103b45db9da5b9d2b81565b61028a6104663660046124f3565b610b77565b61028a6104793660046124da565b610bc3565b6101e761048c3660046124da565b60009081526004602052604090205490565b6102e56104ac3660046124aa565b600b6020908152600092835260408084209091529082529020546001600160401b03811690600160401b90046001600160c01b031682565b61051e6104f2366004612510565b60056020908152600093845260408085208252928452828420905282529020546001600160801b031681565b6040516001600160801b0390911681526020016101f1565b6101e76105443660046124f3565b60096020526000908152604090205481565b61028a610564366004612473565b61137d565b61028a610577366004612473565b611442565b61028a61058a3660046124f3565b611839565b600460205281600052604060002081815481106105ab57600080fd5b60009182526020909120600390910201805460018201546002909201546001600160a01b039182169450911691506001600160801b0380821691600160801b90041684565b6000546001600160a01b031633146106235760405162461bcd60e51b815260040161061a90612549565b60405180910390fd5b61062b6118d4565b565b600260015414156106805760405162461bcd60e51b815260206004820152601f60248201527f5265656e7472616e637947756172643a207265656e7472616e742063616c6c00604482015260640161061a565b60026001556000828152600b602090815260408083203384528252918290208251808401909352546001600160401b0381168352600160401b90046001600160c01b0316908201526106d0610acb565b6001600160401b031681600001516001600160401b031610801561073457506106f7610acb565b6000848152600a602090815260408083203384529091529020546001600160401b039182169161072991166001612594565b6001600160401b0316105b6107695760405162461bcd60e51b815260040161061a906020808252600490820152631dd85a5d60e21b604082015260600190565b8181602001516001600160c01b031610156107b15760405162461bcd60e51b81526020600482015260086024820152670e8dede40daeac6d60c31b604482015260640161061a565b6107bb8333611967565b6000838152600a60209081526040808320338452909152902080548391906008906107f7908490600160401b90046001600160c01b03166125bf565b92506101000a8154816001600160c01b0302191690836001600160c01b031602179055506000821115610a4057600083815260036020526040808220549051636197390160e11b81526004810185905260248101929092526001600160a01b03169063c32e720290604401600060405180830381600087803b15801561087c57600080fd5b505af1158015610890573d6000803e3d6000fd5b505050600084815260036020526040808220549051631526fe2760e01b8152600481018790529192506001600160a01b031690631526fe279060240160c060405180830381865afa1580156108e9573d6000803e3d6000fd5b505050506040513d601f19601f8201168201806040525081019061090d9190612607565b5190506109246001600160a01b0382163385611a6a565b604051636c13a68560e11b81526001600160a01b0382811660048301526000917f00000000000000000000000000000000000000000000000000000000000000009091169063d8274d0a90602401602060405180830381865afa15801561098f573d6000803e3d6000fd5b505050506040513d601f19601f820116820180604052508101906109b391906126b3565b604051635ae2fb3960e11b815233600482015260248101829052604481018690529091507f00000000000000000000000000000000000000000000000000000000000000006001600160a01b03169063b5c5f67290606401600060405180830381600087803b158015610a2557600080fd5b505af1158015610a39573d6000803e3d6000fd5b5050505050505b6000838152600b602090815260408083203380855290835281842093909355518481527f7084f5476618d8e60b11ef0d7d3f06914655adb8793e28ff7f018d4c76d505d5910160405180910390a250506001805550565b6000546001600160a01b03163314610ac15760405162461bcd60e51b815260040161061a90612549565b61062b6000611ad2565b600062127500610adf63620cbd10426126cc565b610ae991906126e3565b610af4906001612594565b905090565b6000546001600160a01b03163314610b235760405162461bcd60e51b815260040161061a90612549565b600880546001600160a01b0319166001600160a01b0392909216919091179055565b6000546001600160a01b03163314610b6f5760405162461bcd60e51b815260040161061a90612549565b61062b611b22565b6000546001600160a01b03163314610ba15760405162461bcd60e51b815260040161061a90612549565b600780546001600160a01b0319166001600160a01b0392909216919091179055565b604051631526fe2760e01b81526004810182905260009073f403c135812408bfbe8713b5a23a04b3d48aae3190631526fe279060240160c060405180830381865afa158015610c16573d6000803e3d6000fd5b505050506040513d601f19601f82011682018060405250810190610c3a9190612607565b6060015160008381526004602052604090205490915061104157604051631526fe2760e01b815260048101839052829060099060009073f403c135812408bfbe8713b5a23a04b3d48aae3190631526fe279060240160c060405180830381865afa158015610cac573d6000803e3d6000fd5b505050506040513d601f19601f82011682018060405250810190610cd09190612607565b600001516001600160a01b03166001600160a01b0316815260200190815260200160002081905550806003600084815260200190815260200160002060006101000a8154816001600160a01b0302191690836001600160a01b0316021790555060046000838152602001908152602001600020604051806080016040528073d533a949740bb3306d119cc777fa900ba034cd526001600160a01b03168152602001836001600160a01b0316815260200160006001600160801b0316815260200160006001600160801b0316815250908060018154018082558091505060019003906000526020600020906003020160009091909190915060008201518160000160006101000a8154816001600160a01b0302191690836001600160a01b0316021790555060208201518160010160006101000a8154816001600160a01b0302191690836001600160a01b0316021790555060408201518160020160006101000a8154816001600160801b0302191690836001600160801b0316021790555060608201518160020160106101000a8154816001600160801b0302191690836001600160801b031602179055505050600460008381526020019081526020016000206040518060800160405280734e3fbd56cd56c3e72c1403e103b45db9da5b9d2b6001600160a01b0316815260200160006001600160a01b0316815260200160006001600160801b0316815260200160006001600160801b0316815250908060018154018082558091505060019003906000526020600020906003020160009091909190915060008201518160000160006101000a8154816001600160a01b0302191690836001600160a01b0316021790555060208201518160010160006101000a8154816001600160a01b0302191690836001600160a01b0316021790555060408201518160020160006101000a8154816001600160801b0302191690836001600160801b0316021790555060608201518160020160106101000a8154816001600160801b0302191690836001600160801b03160217905550505060006001610fd99190612705565b600083815260066020908152604080832073d533a949740bb3306d119cc777fa900ba034cd528452909152902055611012600180612705565b6000838152600660209081526040808320734e3fbd56cd56c3e72c1403e103b45db9da5b9d2b84529091529020555b6000816001600160a01b031663d55a23f46040518163ffffffff1660e01b8152600401602060405180830381865afa158015611081573d6000803e3d6000fd5b505050506040513d601f19601f820116820180604052508101906110a591906126b3565b905060005b8181101561137757604051632061aa2360e11b8152600481018290526000906001600160a01b038516906340c3544690602401602060405180830381865afa1580156110fa573d6000803e3d6000fd5b505050506040513d601f19601f8201168201806040525081019061111e919061271d565b90506000816001600160a01b031663f7c618c16040518163ffffffff1660e01b8152600401602060405180830381865afa158015611160573d6000803e3d6000fd5b505050506040513d601f19601f82011682018060405250810190611184919061271d565b90506001600160a01b038116734e3fbd56cd56c3e72c1403e103b45db9da5b9d2b1415611209576000868152600460205260409020805483919060019081106111cf576111cf61273a565b906000526020600020906003020160010160006101000a8154816001600160a01b0302191690836001600160a01b03160217905550611362565b60008681526006602090815260408083206001600160a01b038516845290915290205461136257600460008781526020019081526020016000206040518060800160405280846001600160a01b031663f7c618c16040518163ffffffff1660e01b8152600401602060405180830381865afa15801561128c573d6000803e3d6000fd5b505050506040513d601f19601f820116820180604052508101906112b0919061271d565b6001600160a01b039081168252858116602080840191909152600060408085018290526060948501829052865460018181018955978352838320875160039092020180549186166001600160a01b0319928316178155878501519881018054998716999092169890981790558581015195909401516001600160801b03908116600160801b02951694909417600290950194909455898352600484528183205460068552828420918616845293529020555b5050808061136f90612750565b9150506110aa565b50505050565b6000828152600a60209081526040808320338452909152902054600160401b90046001600160c01b03168111156113e15760405162461bcd60e51b81526020600482015260086024820152670e8dede40daeac6d60c31b604482015260640161061a565b60405180604001604052806113f4610acb565b6001600160401b0390811682526001600160c01b039384166020928301526000948552600b82526040808620338752835290942082519290910151909216600160401b029216919091179055565b60025460ff16156114885760405162461bcd60e51b815260206004820152601060248201526f14185d5cd8589b194e881c185d5cd95960821b604482015260640161061a565b600260015414156114db5760405162461bcd60e51b815260206004820152601f60248201527f5265656e7472616e637947756172643a207265656e7472616e742063616c6c00604482015260640161061a565b60026001556114ea8233611967565b6114f2610acb565b6000838152600a602090815260408083203384529091529020805467ffffffffffffffff19166001600160401b03929092169190911780825582919060089061154c908490600160401b90046001600160c01b031661276b565b92506101000a8154816001600160c01b0302191690836001600160c01b0316021790555060008111156117fc57600082815260036020526040808220549051631526fe2760e01b8152600481018590526001600160a01b0390911690631526fe279060240160c060405180830381865afa1580156115ce573d6000803e3d6000fd5b505050506040513d601f19601f820116820180604052508101906115f29190612607565b51905061160a6001600160a01b038216333085611b9d565b6116326001600160a01b03821673f403c135812408bfbe8713b5a23a04b3d48aae3184611bd5565b6040516321d0683360e11b815260048101849052602481018390526001604482015273f403c135812408bfbe8713b5a23a04b3d48aae31906343a0d066906064016020604051808303816000875af1158015611692573d6000803e3d6000fd5b505050506040513d601f19601f820116820180604052508101906116b6919061278d565b506116e06001600160a01b03821673f403c135812408bfbe8713b5a23a04b3d48aae316000611bd5565b604051636c13a68560e11b81526001600160a01b0382811660048301526000917f00000000000000000000000000000000000000000000000000000000000000009091169063d8274d0a90602401602060405180830381865afa15801561174b573d6000803e3d6000fd5b505050506040513d601f19601f8201168201806040525081019061176f91906126b3565b604051630efe6a8b60e01b815233600482015260248101829052604481018590529091507f00000000000000000000000000000000000000000000000000000000000000006001600160a01b031690630efe6a8b90606401600060405180830381600087803b1580156117e157600080fd5b505af11580156117f5573d6000803e3d6000fd5b5050505050505b60405181815233907f2da466a7b24304f47e87fa2e1e5a81b9831ce54fec19055ce277ca2f39ba42c49060200160405180910390a2505060018055565b6000546001600160a01b031633146118635760405162461bcd60e51b815260040161061a90612549565b6001600160a01b0381166118c85760405162461bcd60e51b815260206004820152602660248201527f4f776e61626c653a206e6577206f776e657220697320746865207a65726f206160448201526564647265737360d01b606482015260840161061a565b6118d181611ad2565b50565b60025460ff1661191d5760405162461bcd60e51b815260206004820152601460248201527314185d5cd8589b194e881b9bdd081c185d5cd95960621b604482015260640161061a565b6002805460ff191690557f5db9ee0a495bf2e6ff9c91a7834c1ba4fdd244a5e8aa4e537bd38aeae4b073aa335b6040516001600160a01b03909116815260200160405180910390a1565b60025460ff1615611976575050565b600061198183611cea565b6000848152600a602090815260408083206001600160a01b038716845290915281205491925090600160401b90046001600160c01b031660008581526003602052604090819020549051637050ccd960e01b8152306004820152600160248201529192506001600160a01b031690637050ccd990604401600060405180830381600087803b158015611a1257600080fd5b505af1158015611a26573d6000803e3d6000fd5b50505060008581526004602052604081205491505b81811015611a6257611a508682878688611d68565b80611a5a81612750565b915050611a3b565b505050505050565b6040516001600160a01b038316602482015260448101829052611acd90849063a9059cbb60e01b906064015b60408051601f198184030181529190526020810180516001600160e01b03166001600160e01b031990931692909217909152612227565b505050565b600080546001600160a01b038381166001600160a01b0319831681178455604051919092169283917f8be0079c531659141344cd1fd0a4f28419497f9722a3daafe3b4186f6b6457e09190a35050565b60025460ff1615611b685760405162461bcd60e51b815260206004820152601060248201526f14185d5cd8589b194e881c185d5cd95960821b604482015260640161061a565b6002805460ff191660011790557f62e78cea01bee320cd4e420270b5ea74000d11b0c9f74754ebdbfc544b05a25861194a3390565b6040516001600160a01b03808516602483015283166044820152606481018290526113779085906323b872dd60e01b90608401611a96565b801580611c4f5750604051636eb1769f60e11b81523060048201526001600160a01b03838116602483015284169063dd62ed3e90604401602060405180830381865afa158015611c29573d6000803e3d6000fd5b505050506040513d601f19601f82011682018060405250810190611c4d91906126b3565b155b611cba5760405162461bcd60e51b815260206004820152603660248201527f5361666545524332303a20617070726f76652066726f6d206e6f6e2d7a65726f60448201527520746f206e6f6e2d7a65726f20616c6c6f77616e636560501b606482015260840161061a565b6040516001600160a01b038316602482015260448101829052611acd90849063095ea7b360e01b90606401611a96565b6000818152600360205260408082205490516370a0823160e01b81523060048201526001600160a01b03909116906370a0823190602401602060405180830381865afa158015611d3e573d6000803e3d6000fd5b505050506040513d601f19601f82011682018060405250810190611d6291906126b3565b92915050565b6000858152600460205260408120805486908110611d8857611d8861273a565b600091825260208083206040805160808101825260039490940290910180546001600160a01b03908116808652600183015490911693850193909352600201546001600160801b0380821685840152600160801b909104166060840152516370a0823160e01b8152306004820152919350906370a0823190602401602060405180830381865afa158015611e20573d6000803e3d6000fd5b505050506040513d601f19601f82011682018060405250810190611e4491906126b3565b9050600082606001516001600160801b031682611e6191906126cc565b83519091506001600160a01b0316734e3fbd56cd56c3e72c1403e103b45db9da5b9d2b1480611ead575082516001600160a01b031673d533a949740bb3306d119cc777fa900ba034cd52145b15611f5f5782516007546001600160a01b039182169163a9059cbb9116611ed56005856126e3565b6040516001600160e01b031960e085901b1681526001600160a01b03909216600483015260248201526044016020604051808303816000875af1158015611f20573d6000803e3d6000fd5b505050506040513d601f19601f82011682018060405250810190611f44919061278d565b506005611f528260046127a8565b611f5c91906126e3565b90505b825160085460405163a9059cbb60e01b81526001600160a01b0391821660048201526024810184905291169063a9059cbb906044016020604051808303816000875af1158015611fb3573d6000803e3d6000fd5b505050506040513d601f19601f82011682018060405250810190611fd7919061278d565b50600084118015611fe85750600081115b1561202957836120018268056bc75e2d631000006127a8565b61200b91906126e3565b836040015161201a91906127c7565b6001600160801b031660408401525b60008881526005602090815260408083208a845282528083206001600160a01b038a1684529091529081902054908401516001600160801b039182169116811015612168576040848101805160008c8152600560209081528482208d835281528482206001600160a01b038d81168452915293902080546fffffffffffffffffffffffffffffffff19166001600160801b039283161790556008548751925193169263b2d2d5c1928b92909168056bc75e2d63100000916120ec918891166126cc565b6120f6908c6127a8565b61210091906126e3565b6040516001600160e01b031960e086901b1681526001600160a01b0393841660048201529290911660248301526044820152606401600060405180830381600087803b15801561214f57600080fd5b505af1158015612163573d6000803e3d6000fd5b505050505b83606001516001600160801b0316831461218c576001600160801b03831660608501525b600089815260046020526040902080548591908a9081106121af576121af61273a565b6000918252602091829020835160039092020180546001600160a01b039283166001600160a01b03199182161782559284015160018201805491909316931692909217905560408201516060909201516001600160801b03908116600160801b02921691909117600290910155505050505050505050565b600061227c826040518060400160405280602081526020017f5361666545524332303a206c6f772d6c6576656c2063616c6c206661696c6564815250856001600160a01b03166122f99092919063ffffffff16565b805190915015611acd578080602001905181019061229a919061278d565b611acd5760405162461bcd60e51b815260206004820152602a60248201527f5361666545524332303a204552433230206f7065726174696f6e20646964206e6044820152691bdd081cdd58d8d9595960b21b606482015260840161061a565b60606123088484600085612312565b90505b9392505050565b6060824710156123735760405162461bcd60e51b815260206004820152602660248201527f416464726573733a20696e73756666696369656e742062616c616e636520666f6044820152651c8818d85b1b60d21b606482015260840161061a565b843b6123c15760405162461bcd60e51b815260206004820152601d60248201527f416464726573733a2063616c6c20746f206e6f6e2d636f6e7472616374000000604482015260640161061a565b600080866001600160a01b031685876040516123dd9190612815565b60006040518083038185875af1925050503d806000811461241a576040519150601f19603f3d011682016040523d82523d6000602084013e61241f565b606091505b509150915061242f82828661243a565b979650505050505050565b6060831561244957508161230b565b8251156124595782518084602001fd5b8160405162461bcd60e51b815260040161061a9190612831565b6000806040838503121561248657600080fd5b50508035926020909101359150565b6001600160a01b03811681146118d157600080fd5b600080604083850312156124bd57600080fd5b8235915060208301356124cf81612495565b809150509250929050565b6000602082840312156124ec57600080fd5b5035919050565b60006020828403121561250557600080fd5b813561230b81612495565b60008060006060848603121561252557600080fd5b8335925060208401359150604084013561253e81612495565b809150509250925092565b6020808252818101527f4f776e61626c653a2063616c6c6572206973206e6f7420746865206f776e6572604082015260600190565b634e487b7160e01b600052601160045260246000fd5b60006001600160401b038083168185168083038211156125b6576125b661257e565b01949350505050565b60006001600160c01b03838116908316818110156125df576125df61257e565b039392505050565b80516125f281612495565b919050565b805180151581146125f257600080fd5b600060c0828403121561261957600080fd5b60405160c081018181106001600160401b038211171561264957634e487b7160e01b600052604160045260246000fd5b604052612655836125e7565b8152612663602084016125e7565b6020820152612674604084016125e7565b6040820152612685606084016125e7565b6060820152612696608084016125e7565b60808201526126a760a084016125f7565b60a08201529392505050565b6000602082840312156126c557600080fd5b5051919050565b6000828210156126de576126de61257e565b500390565b60008261270057634e487b7160e01b600052601260045260246000fd5b500490565b600082198211156127185761271861257e565b500190565b60006020828403121561272f57600080fd5b815161230b81612495565b634e487b7160e01b600052603260045260246000fd5b60006000198214156127645761276461257e565b5060010190565b60006001600160c01b038281168482168083038211156125b6576125b661257e565b60006020828403121561279f57600080fd5b61230b826125f7565b60008160001904831182151516156127c2576127c261257e565b500290565b60006001600160801b038083168185168083038211156125b6576125b661257e565b60005b838110156128045781810151838201526020016127ec565b838111156113775750506000910152565b600082516128278184602087016127e9565b9190910192915050565b60208152600082518060208401526128508160408501602087016127e9565b601f01601f1916919091016040019291505056fea164736f6c634300080b000a",
  "linkReferences": {},
  "deployedLinkReferences": {}
}