{
  "_format": "hh-sol-artifact-1",
  "contractName": "SherlockTest",
  "sourceName": "contracts/test/SherlockTest.sol",
  "abi": [
    {
      "inputs": [
        {
          "internalType": "contract IERC20",
          "name": "_token",
          "type": "address"
        },
        {
          "internalType": "contract IERC20",
          "name": "_sher",
          "type": "address"
        },
        {
          "internalType": "string",
          "name": "_name",
          "type": "string"
        },
        {
          "internalType": "string",
          "name": "_symbol",
          "type": "string"
        },
        {
          "internalType": "contract IStrategyManager",
          "name": "_strategy",
          "type": "address"
        },
        {
          "internalType": "contract ISherDistributionManager",
          "name": "_sherDistributionManager",
          "type": "address"
        },
        {
          "internalType": "address",
          "name": "_nonStakersAddress",
          "type": "address"
        },
        {
          "internalType": "contract ISherlockProtocolManager",
          "name": "_sherlockProtocolManager",
          "type": "address"
        },
        {
          "internalType": "contract ISherlockClaimManager",
          "name": "_sherlockClaimManager",
          "type": "address"
        },
        {
          "internalType": "uint256[]",
          "name": "_initialPeriods",
          "type": "uint256[]"
        }
      ],
      "stateMutability": "nonpayable",
      "type": "constructor"
    },
    {
      "inputs": [],
      "name": "InvalidArgument",
      "type": "error"
    },
    {
      "inputs": [],
      "name": "InvalidConditions",
      "type": "error"
    },
    {
      "inputs": [
        {
          "internalType": "uint256",
          "name": "expected",
          "type": "uint256"
        },
        {
          "internalType": "uint256",
          "name": "actual",
          "type": "uint256"
        }
      ],
      "name": "InvalidSherAmount",
      "type": "error"
    },
    {
      "inputs": [],
      "name": "NonExistent",
      "type": "error"
    },
    {
      "inputs": [],
      "name": "Unauthorized",
      "type": "error"
    },
    {
      "inputs": [],
      "name": "ZeroArgument",
      "type": "error"
    },
    {
      "anonymous": false,
      "inputs": [
        {
          "indexed": true,
          "internalType": "address",
          "name": "owner",
          "type": "address"
        },
        {
          "indexed": true,
          "internalType": "address",
          "name": "approved",
          "type": "address"
        },
        {
          "indexed": true,
          "internalType": "uint256",
          "name": "tokenId",
          "type": "uint256"
        }
      ],
      "name": "Approval",
      "type": "event"
    },
    {
      "anonymous": false,
      "inputs": [
        {
          "indexed": true,
          "internalType": "address",
          "name": "owner",
          "type": "address"
        },
        {
          "indexed": true,
          "internalType": "address",
          "name": "operator",
          "type": "address"
        },
        {
          "indexed": false,
          "internalType": "bool",
          "name": "approved",
          "type": "bool"
        }
      ],
      "name": "ApprovalForAll",
      "type": "event"
    },
    {
      "anonymous": false,
      "inputs": [
        {
          "indexed": true,
          "internalType": "uint256",
          "name": "tokenID",
          "type": "uint256"
        },
        {
          "indexed": false,
          "internalType": "uint256",
          "name": "reward",
          "type": "uint256"
        }
      ],
      "name": "ArbRestaked",
      "type": "event"
    },
    {
      "anonymous": false,
      "inputs": [
        {
          "indexed": false,
          "internalType": "contract ISherlockClaimManager",
          "name": "previous",
          "type": "address"
        },
        {
          "indexed": false,
          "internalType": "contract ISherlockClaimManager",
          "name": "current",
          "type": "address"
        }
      ],
      "name": "ClaimManagerUpdated",
      "type": "event"
    },
    {
      "anonymous": false,
      "inputs": [
        {
          "indexed": false,
          "internalType": "address",
          "name": "receiver",
          "type": "address"
        },
        {
          "indexed": false,
          "internalType": "uint256",
          "name": "amount",
          "type": "uint256"
        }
      ],
      "name": "ClaimPayout",
      "type": "event"
    },
    {
      "anonymous": false,
      "inputs": [
        {
          "indexed": false,
          "internalType": "address",
          "name": "previous",
          "type": "address"
        },
        {
          "indexed": false,
          "internalType": "address",
          "name": "current",
          "type": "address"
        }
      ],
      "name": "NonStakerAddressUpdated",
      "type": "event"
    },
    {
      "anonymous": false,
      "inputs": [
        {
          "indexed": true,
          "internalType": "address",
          "name": "previousOwner",
          "type": "address"
        },
        {
          "indexed": true,
          "internalType": "address",
          "name": "newOwner",
          "type": "address"
        }
      ],
      "name": "OwnershipTransferred",
      "type": "event"
    },
    {
      "anonymous": false,
      "inputs": [
        {
          "indexed": false,
          "internalType": "address",
          "name": "account",
          "type": "address"
        }
      ],
      "name": "Paused",
      "type": "event"
    },
    {
      "anonymous": false,
      "inputs": [
        {
          "indexed": false,
          "internalType": "contract ISherlockProtocolManager",
          "name": "previous",
          "type": "address"
        },
        {
          "indexed": false,
          "internalType": "contract ISherlockProtocolManager",
          "name": "current",
          "type": "address"
        }
      ],
      "name": "ProtocolManagerUpdated",
      "type": "event"
    },
    {
      "anonymous": false,
      "inputs": [
        {
          "indexed": true,
          "internalType": "uint256",
          "name": "tokenID",
          "type": "uint256"
        }
      ],
      "name": "Restaked",
      "type": "event"
    },
    {
      "anonymous": false,
      "inputs": [
        {
          "indexed": false,
          "internalType": "contract ISherDistributionManager",
          "name": "previous",
          "type": "address"
        },
        {
          "indexed": false,
          "internalType": "contract ISherDistributionManager",
          "name": "current",
          "type": "address"
        }
      ],
      "name": "SherDistributionManagerUpdated",
      "type": "event"
    },
    {
      "anonymous": false,
      "inputs": [
        {
          "indexed": false,
          "internalType": "uint256",
          "name": "period",
          "type": "uint256"
        }
      ],
      "name": "StakingPeriodDisabled",
      "type": "event"
    },
    {
      "anonymous": false,
      "inputs": [
        {
          "indexed": false,
          "internalType": "uint256",
          "name": "period",
          "type": "uint256"
        }
      ],
      "name": "StakingPeriodEnabled",
      "type": "event"
    },
    {
      "anonymous": false,
      "inputs": [
        {
          "indexed": true,
          "internalType": "address",
          "name": "from",
          "type": "address"
        },
        {
          "indexed": true,
          "internalType": "address",
          "name": "to",
          "type": "address"
        },
        {
          "indexed": true,
          "internalType": "uint256",
          "name": "tokenId",
          "type": "uint256"
        }
      ],
      "name": "Transfer",
      "type": "event"
    },
    {
      "anonymous": false,
      "inputs": [
        {
          "indexed": false,
          "internalType": "address",
          "name": "account",
          "type": "address"
        }
      ],
      "name": "Unpaused",
      "type": "event"
    },
    {
      "anonymous": false,
      "inputs": [
        {
          "indexed": false,
          "internalType": "bytes",
          "name": "error",
          "type": "bytes"
        }
      ],
      "name": "YieldStrategyUpdateWithdrawAllError",
      "type": "event"
    },
    {
      "anonymous": false,
      "inputs": [
        {
          "indexed": false,
          "internalType": "contract IStrategyManager",
          "name": "previous",
          "type": "address"
        },
        {
          "indexed": false,
          "internalType": "contract IStrategyManager",
          "name": "current",
          "type": "address"
        }
      ],
      "name": "YieldStrategyUpdated",
      "type": "event"
    },
    {
      "inputs": [],
      "name": "ARB_RESTAKE_GROWTH_TIME",
      "outputs": [
        {
          "internalType": "uint256",
          "name": "",
          "type": "uint256"
        }
      ],
      "stateMutability": "view",
      "type": "function"
    },
    {
      "inputs": [],
      "name": "ARB_RESTAKE_MAX_PERCENTAGE",
      "outputs": [
        {
          "internalType": "uint256",
          "name": "",
          "type": "uint256"
        }
      ],
      "stateMutability": "view",
      "type": "function"
    },
    {
      "inputs": [],
      "name": "ARB_RESTAKE_PERIOD",
      "outputs": [
        {
          "internalType": "uint256",
          "name": "",
          "type": "uint256"
        }
      ],
      "stateMutability": "view",
      "type": "function"
    },
    {
      "inputs": [],
      "name": "ARB_RESTAKE_WAIT_TIME",
      "outputs": [
        {
          "internalType": "uint256",
          "name": "",
          "type": "uint256"
        }
      ],
      "stateMutability": "view",
      "type": "function"
    },
    {
      "inputs": [
        {
          "internalType": "address",
          "name": "to",
          "type": "address"
        },
        {
          "internalType": "uint256",
          "name": "tokenId",
          "type": "uint256"
        }
      ],
      "name": "approve",
      "outputs": [],
      "stateMutability": "nonpayable",
      "type": "function"
    },
    {
      "inputs": [
        {
          "internalType": "uint256",
          "name": "_id",
          "type": "uint256"
        }
      ],
      "name": "arbRestake",
      "outputs": [
        {
          "internalType": "uint256",
          "name": "_sher",
          "type": "uint256"
        },
        {
          "internalType": "uint256",
          "name": "_arbReward",
          "type": "uint256"
        }
      ],
      "stateMutability": "nonpayable",
      "type": "function"
    },
    {
      "inputs": [
        {
          "internalType": "address",
          "name": "owner",
          "type": "address"
        }
      ],
      "name": "balanceOf",
      "outputs": [
        {
          "internalType": "uint256",
          "name": "",
          "type": "uint256"
        }
      ],
      "stateMutability": "view",
      "type": "function"
    },
    {
      "inputs": [
        {
          "internalType": "uint256",
          "name": "_period",
          "type": "uint256"
        }
      ],
      "name": "disableStakingPeriod",
      "outputs": [],
      "stateMutability": "nonpayable",
      "type": "function"
    },
    {
      "inputs": [
        {
          "internalType": "uint256",
          "name": "_period",
          "type": "uint256"
        }
      ],
      "name": "enableStakingPeriod",
      "outputs": [],
      "stateMutability": "nonpayable",
      "type": "function"
    },
    {
      "inputs": [
        {
          "internalType": "uint256",
          "name": "tokenId",
          "type": "uint256"
        }
      ],
      "name": "getApproved",
      "outputs": [
        {
          "internalType": "address",
          "name": "",
          "type": "address"
        }
      ],
      "stateMutability": "view",
      "type": "function"
    },
    {
      "inputs": [
        {
          "internalType": "uint256",
          "name": "_amount",
          "type": "uint256"
        },
        {
          "internalType": "uint256",
          "name": "_period",
          "type": "uint256"
        },
        {
          "internalType": "address",
          "name": "_receiver",
          "type": "address"
        }
      ],
      "name": "initialStake",
      "outputs": [
        {
          "internalType": "uint256",
          "name": "_id",
          "type": "uint256"
        },
        {
          "internalType": "uint256",
          "name": "_sher",
          "type": "uint256"
        }
      ],
      "stateMutability": "nonpayable",
      "type": "function"
    },
    {
      "inputs": [
        {
          "internalType": "address",
          "name": "owner",
          "type": "address"
        },
        {
          "internalType": "address",
          "name": "operator",
          "type": "address"
        }
      ],
      "name": "isApprovedForAll",
      "outputs": [
        {
          "internalType": "bool",
          "name": "",
          "type": "bool"
        }
      ],
      "stateMutability": "view",
      "type": "function"
    },
    {
      "inputs": [
        {
          "internalType": "uint256",
          "name": "_tokenID",
          "type": "uint256"
        }
      ],
      "name": "lockupEnd",
      "outputs": [
        {
          "internalType": "uint256",
          "name": "",
          "type": "uint256"
        }
      ],
      "stateMutability": "view",
      "type": "function"
    },
    {
      "inputs": [],
      "name": "name",
      "outputs": [
        {
          "internalType": "string",
          "name": "",
          "type": "string"
        }
      ],
      "stateMutability": "view",
      "type": "function"
    },
    {
      "inputs": [],
      "name": "nonStakersAddress",
      "outputs": [
        {
          "internalType": "address",
          "name": "",
          "type": "address"
        }
      ],
      "stateMutability": "view",
      "type": "function"
    },
    {
      "inputs": [],
      "name": "owner",
      "outputs": [
        {
          "internalType": "address",
          "name": "",
          "type": "address"
        }
      ],
      "stateMutability": "view",
      "type": "function"
    },
    {
      "inputs": [
        {
          "internalType": "uint256",
          "name": "tokenId",
          "type": "uint256"
        }
      ],
      "name": "ownerOf",
      "outputs": [
        {
          "internalType": "address",
          "name": "",
          "type": "address"
        }
      ],
      "stateMutability": "view",
      "type": "function"
    },
    {
      "inputs": [
        {
          "internalType": "uint256",
          "name": "_id",
          "type": "uint256"
        },
        {
          "internalType": "uint256",
          "name": "_period",
          "type": "uint256"
        }
      ],
      "name": "ownerRestake",
      "outputs": [
        {
          "internalType": "uint256",
          "name": "_sher",
          "type": "uint256"
        }
      ],
      "stateMutability": "nonpayable",
      "type": "function"
    },
    {
      "inputs": [],
      "name": "pause",
      "outputs": [],
      "stateMutability": "nonpayable",
      "type": "function"
    },
    {
      "inputs": [],
      "name": "paused",
      "outputs": [
        {
          "internalType": "bool",
          "name": "",
          "type": "bool"
        }
      ],
      "stateMutability": "view",
      "type": "function"
    },
    {
      "inputs": [
        {
          "internalType": "address",
          "name": "_receiver",
          "type": "address"
        },
        {
          "internalType": "uint256",
          "name": "_amount",
          "type": "uint256"
        }
      ],
      "name": "payoutClaim",
      "outputs": [],
      "stateMutability": "nonpayable",
      "type": "function"
    },
    {
      "inputs": [
        {
          "internalType": "uint256",
          "name": "_id",
          "type": "uint256"
        }
      ],
      "name": "redeemNFT",
      "outputs": [
        {
          "internalType": "uint256",
          "name": "_amount",
          "type": "uint256"
        }
      ],
      "stateMutability": "nonpayable",
      "type": "function"
    },
    {
      "inputs": [],
      "name": "removeSherDistributionManager",
      "outputs": [],
      "stateMutability": "nonpayable",
      "type": "function"
    },
    {
      "inputs": [],
      "name": "renounceOwnership",
      "outputs": [],
      "stateMutability": "nonpayable",
      "type": "function"
    },
    {
      "inputs": [
        {
          "internalType": "address",
          "name": "from",
          "type": "address"
        },
        {
          "internalType": "address",
          "name": "to",
          "type": "address"
        },
        {
          "internalType": "uint256",
          "name": "tokenId",
          "type": "uint256"
        }
      ],
      "name": "safeTransferFrom",
      "outputs": [],
      "stateMutability": "nonpayable",
      "type": "function"
    },
    {
      "inputs": [
        {
          "internalType": "address",
          "name": "from",
          "type": "address"
        },
        {
          "internalType": "address",
          "name": "to",
          "type": "address"
        },
        {
          "internalType": "uint256",
          "name": "tokenId",
          "type": "uint256"
        },
        {
          "internalType": "bytes",
          "name": "_data",
          "type": "bytes"
        }
      ],
      "name": "safeTransferFrom",
      "outputs": [],
      "stateMutability": "nonpayable",
      "type": "function"
    },
    {
      "inputs": [
        {
          "internalType": "address",
          "name": "operator",
          "type": "address"
        },
        {
          "internalType": "bool",
          "name": "approved",
          "type": "bool"
        }
      ],
      "name": "setApprovalForAll",
      "outputs": [],
      "stateMutability": "nonpayable",
      "type": "function"
    },
    {
      "inputs": [],
      "name": "sher",
      "outputs": [
        {
          "internalType": "contract IERC20",
          "name": "",
          "type": "address"
        }
      ],
      "stateMutability": "view",
      "type": "function"
    },
    {
      "inputs": [],
      "name": "sherDistributionManager",
      "outputs": [
        {
          "internalType": "contract ISherDistributionManager",
          "name": "",
          "type": "address"
        }
      ],
      "stateMutability": "view",
      "type": "function"
    },
    {
      "inputs": [
        {
          "internalType": "uint256",
          "name": "_tokenID",
          "type": "uint256"
        }
      ],
      "name": "sherRewards",
      "outputs": [
        {
          "internalType": "uint256",
          "name": "",
          "type": "uint256"
        }
      ],
      "stateMutability": "view",
      "type": "function"
    },
    {
      "inputs": [],
      "name": "sherlockClaimManager",
      "outputs": [
        {
          "internalType": "contract ISherlockClaimManager",
          "name": "",
          "type": "address"
        }
      ],
      "stateMutability": "view",
      "type": "function"
    },
    {
      "inputs": [],
      "name": "sherlockProtocolManager",
      "outputs": [
        {
          "internalType": "contract ISherlockProtocolManager",
          "name": "",
          "type": "address"
        }
      ],
      "stateMutability": "view",
      "type": "function"
    },
    {
      "inputs": [
        {
          "internalType": "uint256",
          "name": "",
          "type": "uint256"
        }
      ],
      "name": "stakingPeriods",
      "outputs": [
        {
          "internalType": "bool",
          "name": "",
          "type": "bool"
        }
      ],
      "stateMutability": "view",
      "type": "function"
    },
    {
      "inputs": [
        {
          "internalType": "bytes4",
          "name": "interfaceId",
          "type": "bytes4"
        }
      ],
      "name": "supportsInterface",
      "outputs": [
        {
          "internalType": "bool",
          "name": "",
          "type": "bool"
        }
      ],
      "stateMutability": "view",
      "type": "function"
    },
    {
      "inputs": [],
      "name": "symbol",
      "outputs": [
        {
          "internalType": "string",
          "name": "",
          "type": "string"
        }
      ],
      "stateMutability": "view",
      "type": "function"
    },
    {
      "inputs": [],
      "name": "token",
      "outputs": [
        {
          "internalType": "contract IERC20",
          "name": "",
          "type": "address"
        }
      ],
      "stateMutability": "view",
      "type": "function"
    },
    {
      "inputs": [
        {
          "internalType": "uint256",
          "name": "_tokenID",
          "type": "uint256"
        }
      ],
      "name": "tokenBalanceOf",
      "outputs": [
        {
          "internalType": "uint256",
          "name": "",
          "type": "uint256"
        }
      ],
      "stateMutability": "view",
      "type": "function"
    },
    {
      "inputs": [
        {
          "internalType": "address",
          "name": "_staker",
          "type": "address"
        }
      ],
      "name": "tokenBalanceOfAddress",
      "outputs": [
        {
          "internalType": "uint256",
          "name": "",
          "type": "uint256"
        }
      ],
      "stateMutability": "view",
      "type": "function"
    },
    {
      "inputs": [
        {
          "internalType": "uint256",
          "name": "tokenId",
          "type": "uint256"
        }
      ],
      "name": "tokenURI",
      "outputs": [
        {
          "internalType": "string",
          "name": "",
          "type": "string"
        }
      ],
      "stateMutability": "view",
      "type": "function"
    },
    {
      "inputs": [],
      "name": "totalTokenBalanceStakers",
      "outputs": [
        {
          "internalType": "uint256",
          "name": "",
          "type": "uint256"
        }
      ],
      "stateMutability": "view",
      "type": "function"
    },
    {
      "inputs": [
        {
          "internalType": "address",
          "name": "_receiver",
          "type": "address"
        },
        {
          "internalType": "uint256",
          "name": "_amount",
          "type": "uint256"
        }
      ],
      "name": "transfer",
      "outputs": [],
      "stateMutability": "nonpayable",
      "type": "function"
    },
    {
      "inputs": [
        {
          "internalType": "address",
          "name": "from",
          "type": "address"
        },
        {
          "internalType": "address",
          "name": "to",
          "type": "address"
        },
        {
          "internalType": "uint256",
          "name": "tokenId",
          "type": "uint256"
        }
      ],
      "name": "transferFrom",
      "outputs": [],
      "stateMutability": "nonpayable",
      "type": "function"
    },
    {
      "inputs": [
        {
          "internalType": "address",
          "name": "newOwner",
          "type": "address"
        }
      ],
      "name": "transferOwnership",
      "outputs": [],
      "stateMutability": "nonpayable",
      "type": "function"
    },
    {
      "inputs": [],
      "name": "unpause",
      "outputs": [],
      "stateMutability": "nonpayable",
      "type": "function"
    },
    {
      "inputs": [
        {
          "internalType": "address",
          "name": "_nonStakers",
          "type": "address"
        }
      ],
      "name": "updateNonStakersAddress",
      "outputs": [],
      "stateMutability": "nonpayable",
      "type": "function"
    },
    {
      "inputs": [
        {
          "internalType": "contract ISherDistributionManager",
          "name": "_sherDistributionManager",
          "type": "address"
        }
      ],
      "name": "updateSherDistributionManager",
      "outputs": [],
      "stateMutability": "nonpayable",
      "type": "function"
    },
    {
      "inputs": [
        {
          "internalType": "contract ISherlockClaimManager",
          "name": "_claimManager",
          "type": "address"
        }
      ],
      "name": "updateSherlockClaimManager",
      "outputs": [],
      "stateMutability": "nonpayable",
      "type": "function"
    },
    {
      "inputs": [
        {
          "internalType": "contract ISherlockProtocolManager",
          "name": "_protocolManager",
          "type": "address"
        }
      ],
      "name": "updateSherlockProtocolManager",
      "outputs": [],
      "stateMutability": "nonpayable",
      "type": "function"
    },
    {
      "inputs": [
        {
          "internalType": "contract IStrategyManager",
          "name": "_yieldStrategy",
          "type": "address"
        }
      ],
      "name": "updateYieldStrategy",
      "outputs": [],
      "stateMutability": "nonpayable",
      "type": "function"
    },
    {
      "inputs": [
        {
          "internalType": "uint256",
          "name": "_id",
          "type": "uint256"
        }
      ],
      "name": "viewRewardForArbRestake",
      "outputs": [
        {
          "internalType": "uint256",
          "name": "profit",
          "type": "uint256"
        },
        {
          "internalType": "bool",
          "name": "able",
          "type": "bool"
        }
      ],
      "stateMutability": "view",
      "type": "function"
    },
    {
      "inputs": [
        {
          "internalType": "uint256",
          "name": "_id",
          "type": "uint256"
        }
      ],
      "name": "viewStakeShares",
      "outputs": [
        {
          "internalType": "uint256",
          "name": "",
          "type": "uint256"
        }
      ],
      "stateMutability": "view",
      "type": "function"
    },
    {
      "inputs": [],
      "name": "viewTotalStakeShares",
      "outputs": [
        {
          "internalType": "uint256",
          "name": "",
          "type": "uint256"
        }
      ],
      "stateMutability": "view",
      "type": "function"
    },
    {
      "inputs": [],
      "name": "yieldStrategy",
      "outputs": [
        {
          "internalType": "contract IStrategyManager",
          "name": "",
          "type": "address"
        }
      ],
      "stateMutability": "view",
      "type": "function"
    },
    {
      "inputs": [
        {
          "internalType": "uint256",
          "name": "_amount",
          "type": "uint256"
        }
      ],
      "name": "yieldStrategyDeposit",
      "outputs": [],
      "stateMutability": "nonpayable",
      "type": "function"
    },
    {
      "inputs": [
        {
          "internalType": "uint256",
          "name": "_amount",
          "type": "uint256"
        }
      ],
      "name": "yieldStrategyWithdraw",
      "outputs": [],
      "stateMutability": "nonpayable",
      "type": "function"
    },
    {
      "inputs": [],
      "name": "yieldStrategyWithdrawAll",
      "outputs": [],
      "stateMutability": "nonpayable",
      "type": "function"
    }
  ],
  "bytecode": "0x60c06040523480156200001157600080fd5b506040516200582c3803806200582c833981016040819052620000349162000748565b8989898989898989898987878160009080519060200190620000589291906200051f565b5080516200006e9060019060208401906200051f565b5050506200008b62000085620003c360201b60201c565b620003c7565b6006805460ff60a01b191690556001600160a01b038a16620000c05760405163b7852ebb60e01b815260040160405180910390fd5b6001600160a01b038916620000e85760405163b7852ebb60e01b815260040160405180910390fd5b6001600160a01b038616620001105760405163b7852ebb60e01b815260040160405180910390fd5b6001600160a01b038516620001385760405163b7852ebb60e01b815260040160405180910390fd5b6001600160a01b038416620001605760405163b7852ebb60e01b815260040160405180910390fd5b6001600160a01b038316620001885760405163b7852ebb60e01b815260040160405180910390fd5b6001600160a01b038216620001b05760405163b7852ebb60e01b815260040160405180910390fd5b6001600160a01b038a811660805289811660a052600d80546001600160a01b031990811689841617909155600e80548216888416179055601180548216878416179055600f805482168684161790556010805490911691841691909117905560005b81518110156200025e57620002498282815181106200023557620002356200085f565b60200260200101516200041960201b60201c565b80620002558162000875565b91505062000212565b5060408051600081526001600160a01b03881660208201527fbffd2f20a06ca0304329080309bdd314339b2a5afe9927f8b3100220b661c947910160405180910390a160408051600081526001600160a01b03871660208201527f24062d083f038a9c1aeff4eaa632dd2d026ce766bb41fa307198b6ab6cd003f7910160405180910390a160408051600081526001600160a01b03861660208201527f858040f45f3b8fa15a490ee8748c18344557eee85411d16032375a72ede42131910160405180910390a160408051600081526001600160a01b03851660208201527f73f2888686ab9a383b3e15e1af51c0bf844f02338c8d0b4b4e3f266a99c1e6ac910160405180910390a160408051600081526001600160a01b03841660208201527f4fb8c694740ad02d97e96c5bdd165d6e51d1a11e569be600ac432012b41ccf75910160405180910390a15050505050505050505050505050505050505050620008dc565b3390565b600680546001600160a01b038381166001600160a01b0319831681179093556040519116919082907f8be0079c531659141344cd1fd0a4f28419497f9722a3daafe3b4186f6b6457e090600090a35050565b6006546001600160a01b03163314620004785760405162461bcd60e51b815260206004820181905260248201527f4f776e61626c653a2063616c6c6572206973206e6f7420746865206f776e6572604482015260640160405180910390fd5b80620004975760405163b7852ebb60e01b815260040160405180910390fd5b60008181526007602052604090205460ff1615620004c85760405163a9cb9e0d60e01b815260040160405180910390fd5b60008181526007602052604090819020805460ff19166001179055517f3cc8bc2ec3ed67adce54f8d51791fff47b8bd6b911e75d2d5fefbde81e971d5c90620005149083815260200190565b60405180910390a150565b8280546200052d906200089f565b90600052602060002090601f0160209004810192826200055157600085556200059c565b82601f106200056c57805160ff19168380011785556200059c565b828001600101855582156200059c579182015b828111156200059c5782518255916020019190600101906200057f565b50620005aa929150620005ae565b5090565b5b80821115620005aa5760008155600101620005af565b80516001600160a01b0381168114620005dd57600080fd5b919050565b634e487b7160e01b600052604160045260246000fd5b604051601f8201601f191681016001600160401b0381118282101715620006235762000623620005e2565b604052919050565b600082601f8301126200063d57600080fd5b81516001600160401b03811115620006595762000659620005e2565b60206200066f601f8301601f19168201620005f8565b82815285828487010111156200068457600080fd5b60005b83811015620006a457858101830151828201840152820162000687565b83811115620006b65760008385840101525b5095945050505050565b600082601f830112620006d257600080fd5b815160206001600160401b03821115620006f057620006f0620005e2565b8160051b62000701828201620005f8565b92835284810182019282810190878511156200071c57600080fd5b83870192505b848310156200073d5782518252918301919083019062000722565b979650505050505050565b6000806000806000806000806000806101408b8d0312156200076957600080fd5b620007748b620005c5565b99506200078460208c01620005c5565b60408c01519099506001600160401b0380821115620007a257600080fd5b620007b08e838f016200062b565b995060608d0151915080821115620007c757600080fd5b620007d58e838f016200062b565b9850620007e560808e01620005c5565b9750620007f560a08e01620005c5565b96506200080560c08e01620005c5565b95506200081560e08e01620005c5565b9450620008266101008e01620005c5565b93506101208d01519150808211156200083e57600080fd5b506200084d8d828e01620006c0565b9150509295989b9194979a5092959850565b634e487b7160e01b600052603260045260246000fd5b60006000198214156200089857634e487b7160e01b600052601160045260246000fd5b5060010190565b600181811c90821680620008b457607f821691505b60208210811415620008d657634e487b7160e01b600052602260045260246000fd5b50919050565b60805160a051614eeb620009416000396000818161064201528181613873015281816139c40152613cd20152600081816107f101528181610e8a015281816112420152818161280d015281816129a901528181613da40152613e9b0152614eeb6000f3fe608060405234801561001057600080fd5b50600436106103785760003560e01c806375692116116101d3578063a9059cbb11610104578063bfbb8a8d116100a2578063e68b77571161007c578063e68b77571461078a578063e985e9c51461079d578063f2fde38b146107d9578063fc0c546a146107ec57600080fd5b8063bfbb8a8d1461075e578063c87b56dd14610768578063e4b89ee91461077b57600080fd5b8063ac96058f116100de578063ac96058f14610712578063b88d4fde14610725578063bb3f372414610738578063bf362cb91461074b57600080fd5b8063a9059cbb146106e2578063aaf5ced6146106f5578063abb81298146106ff57600080fd5b8063939dcc7e11610171578063975a8b021161014b578063975a8b021461068957806398ec930f1461069c578063a22cb465146106af578063a4dcfc76146106c257600080fd5b8063939dcc7e1461066457806395d89b411461066e57806396a7392d1461067657600080fd5b80638af92c93116101ad5780638af92c93146105f65780638da5cb5b146106195780639047acef1461062a578063937840b01461063d57600080fd5b806375692116146105d35780638456cb59146105db578063863a43d5146105e357600080fd5b80633f4ba83a116102ad578063624090111161024b5780636733643f116102255780636733643f1461059d5780636e9c70ea146105b057806370a08231146105b8578063715018a6146105cb57600080fd5b806362409011146105645780636352211e146105775780636422c6291461058a57600080fd5b806356e24d371161028757806356e24d371461050857806358dc2cdb1461051b5780635c975abb1461052e5780635ea09ae71461055157600080fd5b80633f4ba83a146104da57806342842e0e146104e257806354972fc3146104f557600080fd5b806313f14fee1161031a5780631a9b9c77116102f45780631a9b9c771461048457806323b872dd146104975780632f5cf62b146104aa57806330179ceb146104d257600080fd5b806313f14fee1461045657806313f4dd25146104695780631878fbf31461047c57600080fd5b8063081812fc11610356578063081812fc146103e2578063095ea7b31461040d5780630f2ecba41461042257806310099abf1461044357600080fd5b806301ffc9a71461037d57806306fdde03146103a557806307441979146103ba575b600080fd5b61039061038b3660046148d2565b610813565b60405190151581526020015b60405180910390f35b6103ad6108f8565b60405161039c9190614965565b6103cd6103c8366004614978565b61098a565b6040805192835290151560208301520161039c565b6103f56103f0366004614978565b6109ab565b6040516001600160a01b03909116815260200161039c565b61042061041b3660046149a6565b610a56565b005b6104356104303660046149d2565b610b88565b60405190815260200161039c565b6104356104513660046149ef565b610c18565b600d546103f5906001600160a01b031681565b610435610477366004614978565b610ce2565b610435610d5e565b610420610492366004614978565b610f16565b6104206104a5366004614a11565b611064565b6104bd6104b8366004614a52565b6110eb565b6040805192835260208301919091520161039c565b6104206112f3565b6104206113c9565b6104206104f0366004614a11565b6117d6565b6104206105033660046149d2565b6117f1565b6104206105163660046149d2565b611954565b610435610529366004614978565b611ab7565b60065474010000000000000000000000000000000000000000900460ff16610390565b61042061055f3660046149d2565b611b73565b6104206105723660046149a6565b611cd6565b6103f5610585366004614978565b611ddb565b610435610598366004614978565b611e66565b6104206105ab366004614978565b611ec7565b600c54610435565b6104356105c63660046149d2565b611fd2565b61042061206c565b6104206120d0565b6104206121dc565b600f546103f5906001600160a01b031681565b610390610604366004614978565b60076020526000908152604090205460ff1681565b6006546001600160a01b03166103f5565b6104bd610638366004614978565b6125cd565b6103f57f000000000000000000000000000000000000000000000000000000000000000081565b610435626ebe0081565b6103ad6126f5565b6011546103f5906001600160a01b031681565b6010546103f5906001600160a01b031681565b6104206106aa366004614978565b612704565b6104206106bd366004614a99565b612887565b6104356106d0366004614978565b6000908152600a602052604090205490565b6104206106f03660046149a6565b61296a565b61043562093a8081565b600e546103f5906001600160a01b031681565b610420610720366004614978565b612a66565b610420610733366004614b01565b612b6e565b6104206107463660046149d2565b612bf6565b610435610759366004614978565b612d59565b6104356212750081565b6103ad610776366004614978565b612dba565b6104356702c68af0bb14000081565b6104206107983660046149d2565b612eaf565b6103906107ab366004614bff565b6001600160a01b03918216600090815260056020908152604080832093909416825291909152205460ff1690565b6104206107e73660046149d2565b613114565b6103f57f000000000000000000000000000000000000000000000000000000000000000081565b60007fffffffff0000000000000000000000000000000000000000000000000000000082167f80ac58cd0000000000000000000000000000000000000000000000000000000014806108a657507fffffffff0000000000000000000000000000000000000000000000000000000082167f5b5e139f00000000000000000000000000000000000000000000000000000000145b806108f257507f01ffc9a7000000000000000000000000000000000000000000000000000000007fffffffff000000000000000000000000000000000000000000000000000000008316145b92915050565b60606000805461090790614c2d565b80601f016020809104026020016040519081016040528092919081815260200182805461093390614c2d565b80156109805780601f1061095557610100808354040283529160200191610980565b820191906000526020600020905b81548152906001019060200180831161096357829003601f168201915b5050505050905090565b600080610996836131f3565b90925090506109a4826132b7565b9150915091565b6000818152600260205260408120546001600160a01b0316610a3a5760405162461bcd60e51b815260206004820152602c60248201527f4552433732313a20617070726f76656420717565727920666f72206e6f6e657860448201527f697374656e7420746f6b656e000000000000000000000000000000000000000060648201526084015b60405180910390fd5b506000908152600460205260409020546001600160a01b031690565b6000610a6182611ddb565b9050806001600160a01b0316836001600160a01b03161415610aeb5760405162461bcd60e51b815260206004820152602160248201527f4552433732313a20617070726f76616c20746f2063757272656e74206f776e6560448201527f72000000000000000000000000000000000000000000000000000000000000006064820152608401610a31565b336001600160a01b0382161480610b075750610b0781336107ab565b610b795760405162461bcd60e51b815260206004820152603860248201527f4552433732313a20617070726f76652063616c6c6572206973206e6f74206f7760448201527f6e6572206e6f7220617070726f76656420666f7220616c6c00000000000000006064820152608401610a31565b610b8383836132ce565b505050565b60006001600160a01b038216610bca576040517fb7852ebb00000000000000000000000000000000000000000000000000000000815260040160405180910390fd5b600c5480610bdb5750600092915050565b80610be4610d5e565b6001600160a01b0385166000908152600b6020526040902054610c079190614cb0565b610c119190614d1c565b9392505050565b60065460009074010000000000000000000000000000000000000000900460ff1615610c865760405162461bcd60e51b815260206004820152601060248201527f5061757361626c653a20706175736564000000000000000000000000000000006044820152606401610a31565b610c8f83613354565b60008281526007602052604090205460ff16610cd7576040517fa9cb9e0d00000000000000000000000000000000000000000000000000000000815260040160405180910390fd5b610c118383336133e6565b6000818152600260205260408120546001600160a01b0316610d30576040517f2f9d01c500000000000000000000000000000000000000000000000000000000815260040160405180910390fd5b600c54610d3b610d5e565b6000848152600a6020526040902054610d549190614cb0565b6108f29190614d1c565b600f54604080517f9703879c00000000000000000000000000000000000000000000000000000000815290516000926001600160a01b031691639703879c9160048083019260209291908290030181865afa158015610dc1573d6000803e3d6000fd5b505050506040513d601f19601f82011682018060405250810190610de59190614d30565b600d60009054906101000a90046001600160a01b03166001600160a01b031663722713f76040518163ffffffff1660e01b8152600401602060405180830381865afa158015610e38573d6000803e3d6000fd5b505050506040513d601f19601f82011682018060405250810190610e5c9190614d30565b6040517f70a082310000000000000000000000000000000000000000000000000000000081523060048201527f00000000000000000000000000000000000000000000000000000000000000006001600160a01b0316906370a0823190602401602060405180830381865afa158015610ed9573d6000803e3d6000fd5b505050506040513d601f19601f82011682018060405250810190610efd9190614d30565b610f079190614d49565b610f119190614d49565b905090565b6006546001600160a01b03163314610f705760405162461bcd60e51b815260206004820181905260248201527f4f776e61626c653a2063616c6c6572206973206e6f7420746865206f776e65726044820152606401610a31565b80610fa7576040517fb7852ebb00000000000000000000000000000000000000000000000000000000815260040160405180910390fd5b60008181526007602052604090205460ff1615610ff0576040517fa9cb9e0d00000000000000000000000000000000000000000000000000000000815260040160405180910390fd5b6000818152600760205260409081902080547fffffffffffffffffffffffffffffffffffffffffffffffffffffffffffffff00166001179055517f3cc8bc2ec3ed67adce54f8d51791fff47b8bd6b911e75d2d5fefbde81e971d5c906110599083815260200190565b60405180910390a150565b61106e338261343b565b6110e05760405162461bcd60e51b815260206004820152603160248201527f4552433732313a207472616e736665722063616c6c6572206973206e6f74206f60448201527f776e6572206e6f7220617070726f7665640000000000000000000000000000006064820152608401610a31565b610b83838383613543565b60008061111360065460ff740100000000000000000000000000000000000000009091041690565b156111605760405162461bcd60e51b815260206004820152601060248201527f5061757361626c653a20706175736564000000000000000000000000000000006044820152606401610a31565b84611197576040517fb7852ebb00000000000000000000000000000000000000000000000000000000815260040160405180910390fd5b60008481526007602052604090205460ff166111df576040517fa9cb9e0d00000000000000000000000000000000000000000000000000000000815260040160405180910390fd5b6001600160a01b03831661121f576040517fb7852ebb00000000000000000000000000000000000000000000000000000000815260040160405180910390fd5b60126000815461122e90614d61565b9182905550915061126a6001600160a01b037f000000000000000000000000000000000000000000000000000000000000000016333088613733565b600c5460009080156112a4578661127f610d5e565b6112899190614d9a565b6112938289614cb0565b61129d9190614d1c565b91506112a8565b8691505b6000848152600a60205260408120839055600c80548492906112cb908490614d49565b909155506112dd905087878688613802565b92506112e98585613aa0565b5050935093915050565b6006546001600160a01b0316331461134d5760405162461bcd60e51b815260206004820181905260248201527f4f776e61626c653a2063616c6c6572206973206e6f7420746865206f776e65726044820152606401610a31565b600d60009054906101000a90046001600160a01b03166001600160a01b031663853828b66040518163ffffffff1660e01b81526004016020604051808303816000875af11580156113a2573d6000803e3d6000fd5b505050506040513d601f19601f820116820180604052508101906113c69190614d30565b50565b6006546001600160a01b031633146114235760405162461bcd60e51b815260206004820181905260248201527f4f776e61626c653a2063616c6c6572206973206e6f7420746865206f776e65726044820152606401610a31565b61142b613aba565b600d60009054906101000a90046001600160a01b03166001600160a01b0316635c975abb6040518163ffffffff1660e01b8152600401602060405180830381865afa15801561147e573d6000803e3d6000fd5b505050506040513d601f19601f820116820180604052508101906114a29190614db1565b1561151057600d60009054906101000a90046001600160a01b03166001600160a01b0316633f4ba83a6040518163ffffffff1660e01b8152600401600060405180830381600087803b1580156114f757600080fd5b505af115801561150b573d6000803e3d6000fd5b505050505b600e546001600160a01b03161580159061159c5750600e60009054906101000a90046001600160a01b03166001600160a01b0316635c975abb6040518163ffffffff1660e01b8152600401602060405180830381865afa158015611578573d6000803e3d6000fd5b505050506040513d601f19601f8201168201806040525081019061159c9190614db1565b1561160a57600e60009054906101000a90046001600160a01b03166001600160a01b0316633f4ba83a6040518163ffffffff1660e01b8152600401600060405180830381600087803b1580156115f157600080fd5b505af1158015611605573d6000803e3d6000fd5b505050505b600f60009054906101000a90046001600160a01b03166001600160a01b0316635c975abb6040518163ffffffff1660e01b8152600401602060405180830381865afa15801561165d573d6000803e3d6000fd5b505050506040513d601f19601f820116820180604052508101906116819190614db1565b156116ef57600f60009054906101000a90046001600160a01b03166001600160a01b0316633f4ba83a6040518163ffffffff1660e01b8152600401600060405180830381600087803b1580156116d657600080fd5b505af11580156116ea573d6000803e3d6000fd5b505050505b601060009054906101000a90046001600160a01b03166001600160a01b0316635c975abb6040518163ffffffff1660e01b8152600401602060405180830381865afa158015611742573d6000803e3d6000fd5b505050506040513d601f19601f820116820180604052508101906117669190614db1565b156117d457601060009054906101000a90046001600160a01b03166001600160a01b0316633f4ba83a6040518163ffffffff1660e01b8152600401600060405180830381600087803b1580156117bb57600080fd5b505af11580156117cf573d6000803e3d6000fd5b505050505b565b610b8383838360405180602001604052806000815250612b6e565b6006546001600160a01b0316331461184b5760405162461bcd60e51b815260206004820181905260248201527f4f776e61626c653a2063616c6c6572206973206e6f7420746865206f776e65726044820152606401610a31565b6001600160a01b03811661188b576040517fb7852ebb00000000000000000000000000000000000000000000000000000000815260040160405180910390fd5b6011546001600160a01b03828116911614156118d3576040517fa9cb9e0d00000000000000000000000000000000000000000000000000000000815260040160405180910390fd5b601154604080516001600160a01b03928316815291831660208301527f858040f45f3b8fa15a490ee8748c18344557eee85411d16032375a72ede42131910160405180910390a1601180547fffffffffffffffffffffffff0000000000000000000000000000000000000000166001600160a01b0392909216919091179055565b6006546001600160a01b031633146119ae5760405162461bcd60e51b815260206004820181905260248201527f4f776e61626c653a2063616c6c6572206973206e6f7420746865206f776e65726044820152606401610a31565b6001600160a01b0381166119ee576040517fb7852ebb00000000000000000000000000000000000000000000000000000000815260040160405180910390fd5b600e546001600160a01b0382811691161415611a36576040517fa9cb9e0d00000000000000000000000000000000000000000000000000000000815260040160405180910390fd5b600e54604080516001600160a01b03928316815291831660208301527f24062d083f038a9c1aeff4eaa632dd2d026ce766bb41fa307198b6ab6cd003f7910160405180910390a1600e80547fffffffffffffffffffffffff0000000000000000000000000000000000000000166001600160a01b0392909216919091179055565b60065460009074010000000000000000000000000000000000000000900460ff1615611b255760405162461bcd60e51b815260206004820152601060248201527f5061757361626c653a20706175736564000000000000000000000000000000006044820152606401610a31565b611b2e82613354565b611b3782613b8c565b6000828152600a6020526040902054611b5290839033613c4b565b9050611b5e8233613cac565b60009182526008602052604082209190915590565b6006546001600160a01b03163314611bcd5760405162461bcd60e51b815260206004820181905260248201527f4f776e61626c653a2063616c6c6572206973206e6f7420746865206f776e65726044820152606401610a31565b6001600160a01b038116611c0d576040517fb7852ebb00000000000000000000000000000000000000000000000000000000815260040160405180910390fd5b600f546001600160a01b0382811691161415611c55576040517fa9cb9e0d00000000000000000000000000000000000000000000000000000000815260040160405180910390fd5b600f54604080516001600160a01b03928316815291831660208301527f73f2888686ab9a383b3e15e1af51c0bf844f02338c8d0b4b4e3f266a99c1e6ac910160405180910390a1600f80547fffffffffffffffffffffffff0000000000000000000000000000000000000000166001600160a01b0392909216919091179055565b60065474010000000000000000000000000000000000000000900460ff1615611d415760405162461bcd60e51b815260206004820152601060248201527f5061757361626c653a20706175736564000000000000000000000000000000006044820152606401610a31565b6010546001600160a01b03163314611d85576040517f82b4290000000000000000000000000000000000000000000000000000000000815260040160405180910390fd5b8015611d9557611d958282613d0c565b604080516001600160a01b0384168152602081018390527f86d1859fdb12afcb2875bb01d9996ad35d9dd55f62a87e76d9853161111b19ce910160405180910390a15050565b6000818152600260205260408120546001600160a01b0316806108f25760405162461bcd60e51b815260206004820152602960248201527f4552433732313a206f776e657220717565727920666f72206e6f6e657869737460448201527f656e7420746f6b656e00000000000000000000000000000000000000000000006064820152608401610a31565b6000818152600260205260408120546001600160a01b0316611eb4576040517f2f9d01c500000000000000000000000000000000000000000000000000000000815260040160405180910390fd5b5060009081526009602052604090205490565b6006546001600160a01b03163314611f215760405162461bcd60e51b815260206004820181905260248201527f4f776e61626c653a2063616c6c6572206973206e6f7420746865206f776e65726044820152606401610a31565b80611f58576040517fb7852ebb00000000000000000000000000000000000000000000000000000000815260040160405180910390fd5b600d546040517f2e1a7d4d000000000000000000000000000000000000000000000000000000008152600481018390526001600160a01b0390911690632e1a7d4d90602401600060405180830381600087803b158015611fb757600080fd5b505af1158015611fcb573d6000803e3d6000fd5b5050505050565b60006001600160a01b0382166120505760405162461bcd60e51b815260206004820152602a60248201527f4552433732313a2062616c616e636520717565727920666f7220746865207a6560448201527f726f2061646472657373000000000000000000000000000000000000000000006064820152608401610a31565b506001600160a01b031660009081526003602052604090205490565b6006546001600160a01b031633146120c65760405162461bcd60e51b815260206004820181905260248201527f4f776e61626c653a2063616c6c6572206973206e6f7420746865206f776e65726044820152606401610a31565b6117d46000613ec2565b6006546001600160a01b0316331461212a5760405162461bcd60e51b815260206004820181905260248201527f4f776e61626c653a2063616c6c6572206973206e6f7420746865206f776e65726044820152606401610a31565b600e546001600160a01b031661216c576040517f3af36e0a00000000000000000000000000000000000000000000000000000000815260040160405180910390fd5b600e54604080516001600160a01b039092168252600060208301527f24062d083f038a9c1aeff4eaa632dd2d026ce766bb41fa307198b6ab6cd003f7910160405180910390a1600e80547fffffffffffffffffffffffff0000000000000000000000000000000000000000169055565b6006546001600160a01b031633146122365760405162461bcd60e51b815260206004820181905260248201527f4f776e61626c653a2063616c6c6572206973206e6f7420746865206f776e65726044820152606401610a31565b61223e613f2c565b600d60009054906101000a90046001600160a01b03166001600160a01b0316635c975abb6040518163ffffffff1660e01b8152600401602060405180830381865afa158015612291573d6000803e3d6000fd5b505050506040513d601f19601f820116820180604052508101906122b59190614db1565b61232257600d60009054906101000a90046001600160a01b03166001600160a01b0316638456cb596040518163ffffffff1660e01b8152600401600060405180830381600087803b15801561230957600080fd5b505af115801561231d573d6000803e3d6000fd5b505050505b600e546001600160a01b0316158015906123b05750600e60009054906101000a90046001600160a01b03166001600160a01b0316635c975abb6040518163ffffffff1660e01b8152600401602060405180830381865afa15801561238a573d6000803e3d6000fd5b505050506040513d601f19601f820116820180604052508101906123ae9190614db1565b155b1561241e57600e60009054906101000a90046001600160a01b03166001600160a01b0316638456cb596040518163ffffffff1660e01b8152600401600060405180830381600087803b15801561240557600080fd5b505af1158015612419573d6000803e3d6000fd5b505050505b600f60009054906101000a90046001600160a01b03166001600160a01b0316635c975abb6040518163ffffffff1660e01b8152600401602060405180830381865afa158015612471573d6000803e3d6000fd5b505050506040513d601f19601f820116820180604052508101906124959190614db1565b61250257600f60009054906101000a90046001600160a01b03166001600160a01b0316638456cb596040518163ffffffff1660e01b8152600401600060405180830381600087803b1580156124e957600080fd5b505af11580156124fd573d6000803e3d6000fd5b505050505b601060009054906101000a90046001600160a01b03166001600160a01b0316635c975abb6040518163ffffffff1660e01b8152600401602060405180830381865afa158015612555573d6000803e3d6000fd5b505050506040513d601f19601f820116820180604052508101906125799190614db1565b6117d457601060009054906101000a90046001600160a01b03166001600160a01b0316638456cb596040518163ffffffff1660e01b8152600401600060405180830381600087803b1580156117bb57600080fd5b6000806125f560065460ff740100000000000000000000000000000000000000009091041690565b156126425760405162461bcd60e51b815260206004820152601060248201527f5061757361626c653a20706175736564000000000000000000000000000000006044820152606401610a31565b600061264d84611ddb565b905060008061265b866131f3565b9150915080612696576040517f3af36e0a00000000000000000000000000000000000000000000000000000000815260040160405180910390fd5b6126a1868333613c4b565b93506126b186626ebe00856133e6565b9450857f55cf5b0b0c4865ff48ccec25327df9c608efaf77250f54b9dbb4a3833100fb4d856040516126e591815260200190565b60405180910390a2505050915091565b60606001805461090790614c2d565b6006546001600160a01b0316331461275e5760405162461bcd60e51b815260206004820181905260248201527f4f776e61626c653a2063616c6c6572206973206e6f7420746865206f776e65726044820152606401610a31565b80612795576040517fb7852ebb00000000000000000000000000000000000000000000000000000000815260040160405180910390fd5b600f60009054906101000a90046001600160a01b03166001600160a01b031663ce104f086040518163ffffffff1660e01b8152600401600060405180830381600087803b1580156127e557600080fd5b505af11580156127f9573d6000803e3d6000fd5b5050600d5461283792506001600160a01b037f0000000000000000000000000000000000000000000000000000000000000000811692501683613ffe565b600d60009054906101000a90046001600160a01b03166001600160a01b031663d0e30db06040518163ffffffff1660e01b8152600401600060405180830381600087803b158015611fb757600080fd5b6001600160a01b0382163314156128e05760405162461bcd60e51b815260206004820152601960248201527f4552433732313a20617070726f766520746f2063616c6c6572000000000000006044820152606401610a31565b3360008181526005602090815260408083206001600160a01b0387168085529083529281902080547fffffffffffffffffffffffffffffffffffffffffffffffffffffffffffffff001686151590811790915590519081529192917f17307eab39ab6107e8899845ad3d59bd9653f200f220920489ca2b5937696c31910160405180910390a35050565b6040517fa9059cbb0000000000000000000000000000000000000000000000000000000081526001600160a01b038381166004830152602482018390527f0000000000000000000000000000000000000000000000000000000000000000169063a9059cbb906044016020604051808303816000875af11580156129f2573d6000803e3d6000fd5b505050506040513d601f19601f82011682018060405250810190612a169190614db1565b612a625760405162461bcd60e51b815260206004820152600160248201527f46000000000000000000000000000000000000000000000000000000000000006044820152606401610a31565b5050565b6006546001600160a01b03163314612ac05760405162461bcd60e51b815260206004820181905260248201527f4f776e61626c653a2063616c6c6572206973206e6f7420746865206f776e65726044820152606401610a31565b60008181526007602052604090205460ff16612b08576040517fa9cb9e0d00000000000000000000000000000000000000000000000000000000815260040160405180910390fd5b6000818152600760205260409081902080547fffffffffffffffffffffffffffffffffffffffffffffffffffffffffffffff00169055517fa12571933ed68ec934e0a44f7702f6a8c284f907672c05b6eb02a6a1541a83a2906110599083815260200190565b612b78338361343b565b612bea5760405162461bcd60e51b815260206004820152603160248201527f4552433732313a207472616e736665722063616c6c6572206973206e6f74206f60448201527f776e6572206e6f7220617070726f7665640000000000000000000000000000006064820152608401610a31565b6117cf84848484614047565b6006546001600160a01b03163314612c505760405162461bcd60e51b815260206004820181905260248201527f4f776e61626c653a2063616c6c6572206973206e6f7420746865206f776e65726044820152606401610a31565b6001600160a01b038116612c90576040517fb7852ebb00000000000000000000000000000000000000000000000000000000815260040160405180910390fd5b6010546001600160a01b0382811691161415612cd8576040517fa9cb9e0d00000000000000000000000000000000000000000000000000000000815260040160405180910390fd5b601054604080516001600160a01b03928316815291831660208301527f4fb8c694740ad02d97e96c5bdd165d6e51d1a11e569be600ac432012b41ccf75910160405180910390a1601080547fffffffffffffffffffffffff0000000000000000000000000000000000000000166001600160a01b0392909216919091179055565b6000818152600260205260408120546001600160a01b0316612da7576040517f2f9d01c500000000000000000000000000000000000000000000000000000000815260040160405180910390fd5b5060009081526008602052604090205490565b6000818152600260205260409020546060906001600160a01b0316612e475760405162461bcd60e51b815260206004820152602f60248201527f4552433732314d657461646174613a2055524920717565727920666f72206e6f60448201527f6e6578697374656e7420746f6b656e00000000000000000000000000000000006064820152608401610a31565b6000612e5e60408051602081019091526000815290565b90506000815111612e7e5760405180602001604052806000815250610c11565b80612e88846140d0565b604051602001612e99929190614dce565b6040516020818303038152906040529392505050565b6006546001600160a01b03163314612f095760405162461bcd60e51b815260206004820181905260248201527f4f776e61626c653a2063616c6c6572206973206e6f7420746865206f776e65726044820152606401610a31565b6001600160a01b038116612f49576040517fb7852ebb00000000000000000000000000000000000000000000000000000000815260040160405180910390fd5b600d546001600160a01b0382811691161415612f91576040517fa9cb9e0d00000000000000000000000000000000000000000000000000000000815260040160405180910390fd5b600d60009054906101000a90046001600160a01b03166001600160a01b031663853828b66040518163ffffffff1660e01b81526004016020604051808303816000875af1925050508015613020575060408051601f3d9081017fffffffffffffffffffffffffffffffffffffffffffffffffffffffffffffffe016820190925261301d91810190614d30565b60015b613091573d80801561304e576040519150601f19603f3d011682016040523d82523d6000602084013e613053565b606091505b507ffe257ff0b8b9234a845b6da819fdd8bb73b1d3baf5ec0bfca0afdf884aaef543816040516130839190614965565b60405180910390a150613093565b505b600d54604080516001600160a01b03928316815291831660208301527fbffd2f20a06ca0304329080309bdd314339b2a5afe9927f8b3100220b661c947910160405180910390a1600d80547fffffffffffffffffffffffff0000000000000000000000000000000000000000166001600160a01b0392909216919091179055565b6006546001600160a01b0316331461316e5760405162461bcd60e51b815260206004820181905260248201527f4f776e61626c653a2063616c6c6572206973206e6f7420746865206f776e65726044820152606401610a31565b6001600160a01b0381166131ea5760405162461bcd60e51b815260206004820152602660248201527f4f776e61626c653a206e6577206f776e657220697320746865207a65726f206160448201527f64647265737300000000000000000000000000000000000000000000000000006064820152608401610a31565b6113c681613ec2565b60008181526008602052604081205481908190613214906212750090614d49565b90504281111561322a5750600093849350915050565b600061323962093a8083614d49565b9050600081421061324a578161324c565b425b6000878152600a602052604081205491925090613271906702c68af0bb140000614cb0565b9050670de0b6b3a764000062093a808261328b8786614d9a565b6132959190614cb0565b61329f9190614d1c565b6132a99190614d1c565b976001975095505050505050565b6000600c546132c4610d5e565b610d549084614cb0565b600081815260046020526040902080547fffffffffffffffffffffffff0000000000000000000000000000000000000000166001600160a01b038416908117909155819061331b82611ddb565b6001600160a01b03167f8c5be1e5ebec7d5bd14f71427d1e84f3dd0314c0f7b2291e5b200ac8c7c3b92560405160405180910390a45050565b3361335e82611ddb565b6001600160a01b03161461339e576040517f82b4290000000000000000000000000000000000000000000000000000000000815260040160405180910390fd5b6000818152600860205260409020544210156113c6576040517f3af36e0a00000000000000000000000000000000000000000000000000000000815260040160405180910390fd5b60006133f28483613cac565b6134066133fe85610ce2565b848685613802565b60405190915084907fd56ee5c2e47aa11e45be71e49c4d945f32b196e4d5689412bf45bb6ae6253d0190600090a29392505050565b6000818152600260205260408120546001600160a01b03166134c55760405162461bcd60e51b815260206004820152602c60248201527f4552433732313a206f70657261746f7220717565727920666f72206e6f6e657860448201527f697374656e7420746f6b656e00000000000000000000000000000000000000006064820152608401610a31565b60006134d083611ddb565b9050806001600160a01b0316846001600160a01b0316148061350b5750836001600160a01b0316613500846109ab565b6001600160a01b0316145b8061353b57506001600160a01b0380821660009081526005602090815260408083209388168352929052205460ff165b949350505050565b826001600160a01b031661355682611ddb565b6001600160a01b0316146135d25760405162461bcd60e51b815260206004820152602960248201527f4552433732313a207472616e73666572206f6620746f6b656e2074686174206960448201527f73206e6f74206f776e00000000000000000000000000000000000000000000006064820152608401610a31565b6001600160a01b03821661364d5760405162461bcd60e51b8152602060048201526024808201527f4552433732313a207472616e7366657220746f20746865207a65726f2061646460448201527f72657373000000000000000000000000000000000000000000000000000000006064820152608401610a31565b613658838383614202565b6136636000826132ce565b6001600160a01b038316600090815260036020526040812080546001929061368c908490614d9a565b90915550506001600160a01b03821660009081526003602052604081208054600192906136ba908490614d49565b909155505060008181526002602052604080822080547fffffffffffffffffffffffff0000000000000000000000000000000000000000166001600160a01b0386811691821790925591518493918716917fddf252ad1be2c89b69c2b068fc378daa952ba7f163c4a11628f55a4df523b3ef91a4505050565b6040516001600160a01b03808516602483015283166044820152606481018290526117cf9085907f23b872dd00000000000000000000000000000000000000000000000000000000906084015b604080517fffffffffffffffffffffffffffffffffffffffffffffffffffffffffffffffe08184030181529190526020810180517bffffffffffffffffffffffffffffffffffffffffffffffffffffffff167fffffffff0000000000000000000000000000000000000000000000000000000090931692909217909152614290565b600061380e8442614d49565b600084815260086020526040902055600e546001600160a01b03166138355750600061353b565b846138425750600061353b565b6040517f70a082310000000000000000000000000000000000000000000000000000000081523060048201526000907f00000000000000000000000000000000000000000000000000000000000000006001600160a01b0316906370a0823190602401602060405180830381865afa1580156138c2573d6000803e3d6000fd5b505050506040513d601f19601f820116820180604052508101906138e69190614d30565b600e546040517fd353b94c0000000000000000000000000000000000000000000000000000000081526004810189905260248101889052604481018790526001600160a01b03868116606483015292935091169063d353b94c906084016020604051808303816000875af1158015613962573d6000803e3d6000fd5b505050506040513d601f19601f820116820180604052508101906139869190614d30565b6040517f70a0823100000000000000000000000000000000000000000000000000000000815230600482015290925060009082906001600160a01b037f000000000000000000000000000000000000000000000000000000000000000016906370a0823190602401602060405180830381865afa158015613a0b573d6000803e3d6000fd5b505050506040513d601f19601f82011682018060405250810190613a2f9190614d30565b613a399190614d9a565b9050828114613a7e576040517f0c61d1f60000000000000000000000000000000000000000000000000000000081526004810184905260248101829052604401610a31565b8215613a965760008581526009602052604090208390555b5050949350505050565b612a62828260405180602001604052806000815250614375565b60065474010000000000000000000000000000000000000000900460ff16613b245760405162461bcd60e51b815260206004820152601460248201527f5061757361626c653a206e6f74207061757365640000000000000000000000006044820152606401610a31565b600680547fffffffffffffffffffffff00ffffffffffffffffffffffffffffffffffffffff1690557f5db9ee0a495bf2e6ff9c91a7834c1ba4fdd244a5e8aa4e537bd38aeae4b073aa335b6040516001600160a01b03909116815260200160405180910390a1565b6000613b9782611ddb565b9050613ba581600084614202565b613bb06000836132ce565b6001600160a01b0381166000908152600360205260408120805460019290613bd9908490614d9a565b909155505060008281526002602052604080822080547fffffffffffffffffffffffff0000000000000000000000000000000000000000169055518391906001600160a01b038416907fddf252ad1be2c89b69c2b068fc378daa952ba7f163c4a11628f55a4df523b3ef908390a45050565b6000613c56836132b7565b90508015613c6857613c688282613d0c565b6000848152600a602052604081208054859290613c86908490614d9a565b9250508190555082600c6000828254613c9f9190614d9a565b9091555090949350505050565b60008281526009602052604090205480613cc557505050565b613cf96001600160a01b037f0000000000000000000000000000000000000000000000000000000000000000168383613ffe565b5050600090815260096020526040812055565b600f60009054906101000a90046001600160a01b03166001600160a01b031663ce104f086040518163ffffffff1660e01b8152600401600060405180830381600087803b158015613d5c57600080fd5b505af1158015613d70573d6000803e3d6000fd5b50506040517f70a08231000000000000000000000000000000000000000000000000000000008152306004820152600092507f00000000000000000000000000000000000000000000000000000000000000006001600160a01b031691506370a0823190602401602060405180830381865afa158015613df4573d6000803e3d6000fd5b505050506040513d601f19601f82011682018060405250810190613e189190614d30565b905080821115613e8e57600d546001600160a01b0316632e1a7d4d613e3d8385614d9a565b6040518263ffffffff1660e01b8152600401613e5b91815260200190565b600060405180830381600087803b158015613e7557600080fd5b505af1158015613e89573d6000803e3d6000fd5b505050505b610b836001600160a01b037f0000000000000000000000000000000000000000000000000000000000000000168484613ffe565b600680546001600160a01b038381167fffffffffffffffffffffffff0000000000000000000000000000000000000000831681179093556040519116919082907f8be0079c531659141344cd1fd0a4f28419497f9722a3daafe3b4186f6b6457e090600090a35050565b60065474010000000000000000000000000000000000000000900460ff1615613f975760405162461bcd60e51b815260206004820152601060248201527f5061757361626c653a20706175736564000000000000000000000000000000006044820152606401610a31565b600680547fffffffffffffffffffffff00ffffffffffffffffffffffffffffffffffffffff16740100000000000000000000000000000000000000001790557f62e78cea01bee320cd4e420270b5ea74000d11b0c9f74754ebdbfc544b05a258613b6f3390565b6040516001600160a01b038316602482015260448101829052610b839084907fa9059cbb0000000000000000000000000000000000000000000000000000000090606401613780565b614052848484613543565b61405e848484846143fe565b6117cf5760405162461bcd60e51b815260206004820152603260248201527f4552433732313a207472616e7366657220746f206e6f6e20455243373231526560448201527f63656976657220696d706c656d656e74657200000000000000000000000000006064820152608401610a31565b60608161411057505060408051808201909152600181527f3000000000000000000000000000000000000000000000000000000000000000602082015290565b8160005b811561413a578061412481614d61565b91506141339050600a83614d1c565b9150614114565b60008167ffffffffffffffff81111561415557614155614ad2565b6040519080825280601f01601f19166020018201604052801561417f576020820181803683370190505b5090505b841561353b57614194600183614d9a565b91506141a1600a86614dfd565b6141ac906030614d49565b60f81b8183815181106141c1576141c1614e11565b60200101907effffffffffffffffffffffffffffffffffffffffffffffffffffffffffffff1916908160001a9053506141fb600a86614d1c565b9450614183565b6000818152600a60205260409020546001600160a01b0384161561424e576001600160a01b0384166000908152600b602052604081208054839290614248908490614d9a565b90915550505b6001600160a01b038316156117cf576001600160a01b0383166000908152600b602052604081208054839290614285908490614d49565b909155505050505050565b60006142e5826040518060400160405280602081526020017f5361666545524332303a206c6f772d6c6576656c2063616c6c206661696c6564815250856001600160a01b03166145b79092919063ffffffff16565b805190915015610b8357808060200190518101906143039190614db1565b610b835760405162461bcd60e51b815260206004820152602a60248201527f5361666545524332303a204552433230206f7065726174696f6e20646964206e60448201527f6f742073756363656564000000000000000000000000000000000000000000006064820152608401610a31565b61437f83836145c6565b61438c60008484846143fe565b610b835760405162461bcd60e51b815260206004820152603260248201527f4552433732313a207472616e7366657220746f206e6f6e20455243373231526560448201527f63656976657220696d706c656d656e74657200000000000000000000000000006064820152608401610a31565b60006001600160a01b0384163b156145af576040517f150b7a020000000000000000000000000000000000000000000000000000000081526001600160a01b0385169063150b7a029061445b903390899088908890600401614e40565b6020604051808303816000875af19250505080156144b4575060408051601f3d9081017fffffffffffffffffffffffffffffffffffffffffffffffffffffffffffffffe01682019092526144b191810190614e7c565b60015b614564573d8080156144e2576040519150601f19603f3d011682016040523d82523d6000602084013e6144e7565b606091505b50805161455c5760405162461bcd60e51b815260206004820152603260248201527f4552433732313a207472616e7366657220746f206e6f6e20455243373231526560448201527f63656976657220696d706c656d656e74657200000000000000000000000000006064820152608401610a31565b805181602001fd5b7fffffffff00000000000000000000000000000000000000000000000000000000167f150b7a020000000000000000000000000000000000000000000000000000000014905061353b565b50600161353b565b606061353b848460008561472c565b6001600160a01b03821661461c5760405162461bcd60e51b815260206004820181905260248201527f4552433732313a206d696e7420746f20746865207a65726f20616464726573736044820152606401610a31565b6000818152600260205260409020546001600160a01b0316156146815760405162461bcd60e51b815260206004820152601c60248201527f4552433732313a20746f6b656e20616c7265616479206d696e746564000000006044820152606401610a31565b61468d60008383614202565b6001600160a01b03821660009081526003602052604081208054600192906146b6908490614d49565b909155505060008181526002602052604080822080547fffffffffffffffffffffffff0000000000000000000000000000000000000000166001600160a01b03861690811790915590518392907fddf252ad1be2c89b69c2b068fc378daa952ba7f163c4a11628f55a4df523b3ef908290a45050565b6060824710156147a45760405162461bcd60e51b815260206004820152602660248201527f416464726573733a20696e73756666696369656e742062616c616e636520666f60448201527f722063616c6c00000000000000000000000000000000000000000000000000006064820152608401610a31565b843b6147f25760405162461bcd60e51b815260206004820152601d60248201527f416464726573733a2063616c6c20746f206e6f6e2d636f6e74726163740000006044820152606401610a31565b600080866001600160a01b0316858760405161480e9190614e99565b60006040518083038185875af1925050503d806000811461484b576040519150601f19603f3d011682016040523d82523d6000602084013e614850565b606091505b509150915061486082828661486b565b979650505050505050565b6060831561487a575081610c11565b82511561488a5782518084602001fd5b8160405162461bcd60e51b8152600401610a319190614965565b7fffffffff00000000000000000000000000000000000000000000000000000000811681146113c657600080fd5b6000602082840312156148e457600080fd5b8135610c11816148a4565b60005b8381101561490a5781810151838201526020016148f2565b838111156117cf5750506000910152565b600081518084526149338160208601602086016148ef565b601f017fffffffffffffffffffffffffffffffffffffffffffffffffffffffffffffffe0169290920160200192915050565b602081526000610c11602083018461491b565b60006020828403121561498a57600080fd5b5035919050565b6001600160a01b03811681146113c657600080fd5b600080604083850312156149b957600080fd5b82356149c481614991565b946020939093013593505050565b6000602082840312156149e457600080fd5b8135610c1181614991565b60008060408385031215614a0257600080fd5b50508035926020909101359150565b600080600060608486031215614a2657600080fd5b8335614a3181614991565b92506020840135614a4181614991565b929592945050506040919091013590565b600080600060608486031215614a6757600080fd5b83359250602084013591506040840135614a8081614991565b809150509250925092565b80151581146113c657600080fd5b60008060408385031215614aac57600080fd5b8235614ab781614991565b91506020830135614ac781614a8b565b809150509250929050565b7f4e487b7100000000000000000000000000000000000000000000000000000000600052604160045260246000fd5b60008060008060808587031215614b1757600080fd5b8435614b2281614991565b93506020850135614b3281614991565b925060408501359150606085013567ffffffffffffffff80821115614b5657600080fd5b818701915087601f830112614b6a57600080fd5b813581811115614b7c57614b7c614ad2565b604051601f82017fffffffffffffffffffffffffffffffffffffffffffffffffffffffffffffffe0908116603f01168101908382118183101715614bc257614bc2614ad2565b816040528281528a6020848701011115614bdb57600080fd5b82602086016020830137600060208483010152809550505050505092959194509250565b60008060408385031215614c1257600080fd5b8235614c1d81614991565b91506020830135614ac781614991565b600181811c90821680614c4157607f821691505b60208210811415614c7b577f4e487b7100000000000000000000000000000000000000000000000000000000600052602260045260246000fd5b50919050565b7f4e487b7100000000000000000000000000000000000000000000000000000000600052601160045260246000fd5b6000817fffffffffffffffffffffffffffffffffffffffffffffffffffffffffffffffff0483118215151615614ce857614ce8614c81565b500290565b7f4e487b7100000000000000000000000000000000000000000000000000000000600052601260045260246000fd5b600082614d2b57614d2b614ced565b500490565b600060208284031215614d4257600080fd5b5051919050565b60008219821115614d5c57614d5c614c81565b500190565b60007fffffffffffffffffffffffffffffffffffffffffffffffffffffffffffffffff821415614d9357614d93614c81565b5060010190565b600082821015614dac57614dac614c81565b500390565b600060208284031215614dc357600080fd5b8151610c1181614a8b565b60008351614de08184602088016148ef565b835190830190614df48183602088016148ef565b01949350505050565b600082614e0c57614e0c614ced565b500690565b7f4e487b7100000000000000000000000000000000000000000000000000000000600052603260045260246000fd5b60006001600160a01b03808716835280861660208401525083604083015260806060830152614e72608083018461491b565b9695505050505050565b600060208284031215614e8e57600080fd5b8151610c11816148a4565b60008251614eab8184602087016148ef565b919091019291505056fea26469706673582212207060fdc4711dfa20cd81d6d27f79cb00ac4e42f420ad179eee9f2b411b359a0864736f6c634300080a0033",
  "linkReferences": {},
  "deployedLinkReferences": {}
}