{
  "_format": "hh-sol-artifact-1",
  "contractName": "CvxMining",
  "sourceName": "contracts/library/CvxMining.sol",
  "abi": [
    {
      "inputs": [
        {
          "internalType": "uint256",
          "name": "_amount",
          "type": "uint256"
        }
      ],
      "name": "ConvertCrvToCvx",
      "outputs": [
        {
          "internalType": "uint256",
          "name": "",
          "type": "uint256"
        }
      ],
      "stateMutability": "view",
      "type": "function"
    },
    {
      "inputs": [],
      "name": "cvx",
      "outputs": [
        {
          "internalType": "contract ICvx",
          "name": "",
          "type": "ICvx"
        }
      ],
      "stateMutability": "view",
      "type": "function"
    }
  ],
  "bytecode": "0x6103a361003a600b82828239805160001a60731461002d57634e487b7160e01b600052600060045260246000fd5b30600052607381538281f3fe73000000000000000000000000000000000000000030146080604052600436106100405760003560e01c80638487474514610045578063923c1d611461006b575b600080fd5b6100586100533660046102f6565b61009e565b6040519081526020015b60405180910390f35b610086734e3fbd56cd56c3e72c1403e103b45db9da5b9d2b81565b6040516001600160a01b039091168152602001610062565b600080734e3fbd56cd56c3e72c1403e103b45db9da5b9d2b6001600160a01b03166318160ddd6040518163ffffffff1660e01b8152600401602060405180830381865afa1580156100f3573d6000803e3d6000fd5b505050506040513d601f19601f82011682018060405250810190610117919061030f565b90506000734e3fbd56cd56c3e72c1403e103b45db9da5b9d2b6001600160a01b031663aa74e6226040518163ffffffff1660e01b8152600401602060405180830381865afa15801561016d573d6000803e3d6000fd5b505050506040513d601f19601f82011682018060405250810190610191919061030f565b90506000734e3fbd56cd56c3e72c1403e103b45db9da5b9d2b6001600160a01b0316631f96e76f6040518163ffffffff1660e01b8152600401602060405180830381865afa1580156101e7573d6000803e3d6000fd5b505050506040513d601f19601f8201168201806040525081019061020b919061030f565b90506000734e3fbd56cd56c3e72c1403e103b45db9da5b9d2b6001600160a01b031663d5abeb016040518163ffffffff1660e01b8152600401602060405180830381865afa158015610261573d6000803e3d6000fd5b505050506040513d601f19601f82011682018060405250810190610285919061030f565b90506000610293848661033e565b9050828110156102e95760006102a98285610360565b9050836102b6828a610377565b6102c0919061033e565b975060006102ce8785610360565b9050808911156102dc578098505b5096979650505050505050565b5060009695505050505050565b60006020828403121561030857600080fd5b5035919050565b60006020828403121561032157600080fd5b5051919050565b634e487b7160e01b600052601160045260246000fd5b60008261035b57634e487b7160e01b600052601260045260246000fd5b500490565b60008282101561037257610372610328565b500390565b600081600019048311821515161561039157610391610328565b50029056fea164736f6c634300080b000a",
  "linkReferences": {},
  "deployedLinkReferences": {}
}