{
  "_format": "hh-sol-artifact-1",
  "contractName": "SherDistributionMock",
  "sourceName": "contracts/util/SherDistributionMock.sol",
  "abi": [
    {
      "inputs": [
        {
          "internalType": "contract IERC20",
          "name": "_token",
          "type": "address"
        },
        {
          "internalType": "contract IERC20",
          "name": "_sher",
          "type": "address"
        }
      ],
      "stateMutability": "nonpayable",
      "type": "constructor"
    },
    {
      "inputs": [],
      "name": "InvalidArgument",
      "type": "error"
    },
    {
      "inputs": [],
      "name": "InvalidConditions",
      "type": "error"
    },
    {
      "inputs": [],
      "name": "InvalidSender",
      "type": "error"
    },
    {
      "inputs": [],
      "name": "ZeroArgument",
      "type": "error"
    },
    {
      "anonymous": false,
      "inputs": [
        {
          "indexed": false,
          "internalType": "uint256",
          "name": "maxRewardsEndTVL",
          "type": "uint256"
        },
        {
          "indexed": false,
          "internalType": "uint256",
          "name": "zeroRewardsStartTVL",
          "type": "uint256"
        },
        {
          "indexed": false,
          "internalType": "uint256",
          "name": "maxRewardRate",
          "type": "uint256"
        }
      ],
      "name": "Initialized",
      "type": "event"
    },
    {
      "anonymous": false,
      "inputs": [
        {
          "indexed": true,
          "internalType": "address",
          "name": "previousOwner",
          "type": "address"
        },
        {
          "indexed": true,
          "internalType": "address",
          "name": "newOwner",
          "type": "address"
        }
      ],
      "name": "OwnershipTransferred",
      "type": "event"
    },
    {
      "anonymous": false,
      "inputs": [
        {
          "indexed": false,
          "internalType": "address",
          "name": "account",
          "type": "address"
        }
      ],
      "name": "Paused",
      "type": "event"
    },
    {
      "anonymous": false,
      "inputs": [
        {
          "indexed": false,
          "internalType": "contract ISherlock",
          "name": "sherlock",
          "type": "address"
        }
      ],
      "name": "SherlockCoreSet",
      "type": "event"
    },
    {
      "anonymous": false,
      "inputs": [
        {
          "indexed": false,
          "internalType": "address",
          "name": "account",
          "type": "address"
        }
      ],
      "name": "Unpaused",
      "type": "event"
    },
    {
      "inputs": [
        {
          "internalType": "uint256",
          "name": "_tvl",
          "type": "uint256"
        },
        {
          "internalType": "uint256",
          "name": "_amount",
          "type": "uint256"
        },
        {
          "internalType": "uint256",
          "name": "_period",
          "type": "uint256"
        }
      ],
      "name": "calcReward",
      "outputs": [
        {
          "internalType": "uint256",
          "name": "_sher",
          "type": "uint256"
        }
      ],
      "stateMutability": "view",
      "type": "function"
    },
    {
      "inputs": [],
      "name": "isActive",
      "outputs": [
        {
          "internalType": "bool",
          "name": "",
          "type": "bool"
        }
      ],
      "stateMutability": "view",
      "type": "function"
    },
    {
      "inputs": [],
      "name": "lastAmount",
      "outputs": [
        {
          "internalType": "uint256",
          "name": "",
          "type": "uint256"
        }
      ],
      "stateMutability": "view",
      "type": "function"
    },
    {
      "inputs": [],
      "name": "lastPeriod",
      "outputs": [
        {
          "internalType": "uint256",
          "name": "",
          "type": "uint256"
        }
      ],
      "stateMutability": "view",
      "type": "function"
    },
    {
      "inputs": [],
      "name": "owner",
      "outputs": [
        {
          "internalType": "address",
          "name": "",
          "type": "address"
        }
      ],
      "stateMutability": "view",
      "type": "function"
    },
    {
      "inputs": [],
      "name": "pause",
      "outputs": [],
      "stateMutability": "nonpayable",
      "type": "function"
    },
    {
      "inputs": [],
      "name": "paused",
      "outputs": [
        {
          "internalType": "bool",
          "name": "",
          "type": "bool"
        }
      ],
      "stateMutability": "view",
      "type": "function"
    },
    {
      "inputs": [
        {
          "internalType": "uint256",
          "name": "_amount",
          "type": "uint256"
        },
        {
          "internalType": "uint256",
          "name": "_period",
          "type": "uint256"
        },
        {
          "internalType": "uint256",
          "name": "_id",
          "type": "uint256"
        },
        {
          "internalType": "address",
          "name": "_receiver",
          "type": "address"
        }
      ],
      "name": "pullReward",
      "outputs": [
        {
          "internalType": "uint256",
          "name": "_sher",
          "type": "uint256"
        }
      ],
      "stateMutability": "nonpayable",
      "type": "function"
    },
    {
      "inputs": [],
      "name": "renounceOwnership",
      "outputs": [],
      "stateMutability": "nonpayable",
      "type": "function"
    },
    {
      "inputs": [],
      "name": "revertReward",
      "outputs": [
        {
          "internalType": "bool",
          "name": "",
          "type": "bool"
        }
      ],
      "stateMutability": "view",
      "type": "function"
    },
    {
      "inputs": [
        {
          "internalType": "uint256",
          "name": "_value",
          "type": "uint256"
        }
      ],
      "name": "setCustomRewardReturnValue",
      "outputs": [],
      "stateMutability": "nonpayable",
      "type": "function"
    },
    {
      "inputs": [
        {
          "internalType": "uint256",
          "name": "_reward",
          "type": "uint256"
        }
      ],
      "name": "setReward",
      "outputs": [],
      "stateMutability": "nonpayable",
      "type": "function"
    },
    {
      "inputs": [
        {
          "internalType": "bool",
          "name": "_revert",
          "type": "bool"
        }
      ],
      "name": "setRewardRevert",
      "outputs": [],
      "stateMutability": "nonpayable",
      "type": "function"
    },
    {
      "inputs": [
        {
          "internalType": "contract ISherlock",
          "name": "_sherlock",
          "type": "address"
        }
      ],
      "name": "setSherlockCoreAddress",
      "outputs": [],
      "stateMutability": "nonpayable",
      "type": "function"
    },
    {
      "inputs": [
        {
          "internalType": "address",
          "name": "newOwner",
          "type": "address"
        }
      ],
      "name": "transferOwnership",
      "outputs": [],
      "stateMutability": "nonpayable",
      "type": "function"
    },
    {
      "inputs": [],
      "name": "unpause",
      "outputs": [],
      "stateMutability": "nonpayable",
      "type": "function"
    },
    {
      "inputs": [],
      "name": "value",
      "outputs": [
        {
          "internalType": "uint256",
          "name": "",
          "type": "uint256"
        }
      ],
      "stateMutability": "view",
      "type": "function"
    }
  ],
  "bytecode": "0x608060405234801561001057600080fd5b50604051610cf6380380610cf683398101604081905261002f916100e8565b6100383361007c565b6000805460ff60a01b19169055600380546001600160a01b039384166001600160a01b0319918216179091556004805492909316911617905560001960075561011b565b600080546001600160a01b038381166001600160a01b0319831681178455604051919092169283917f8be0079c531659141344cd1fd0a4f28419497f9722a3daafe3b4186f6b6457e09190a35050565b80516001600160a01b03811681146100e357600080fd5b919050565b600080604083850312156100fb57600080fd5b610104836100cc565b9150610112602084016100cc565b90509250929050565b610bcc8061012a6000396000f3fe608060405234801561001057600080fd5b506004361061011b5760003560e01c80638456cb59116100b2578063959ee2a911610081578063d340ef8a11610066578063d340ef8a14610259578063d353b94c14610262578063f2fde38b1461027557600080fd5b8063959ee2a914610207578063ca70fb761461024657600080fd5b80638456cb59146101b75780638d67a3ec146101bf5780638da5cb5b146101cc578063937057ae146101f457600080fd5b806342b39a5e116100ee57806342b39a5e1461016c5780635c975abb14610183578063715018a6146101a6578063829a86d9146101ae57600080fd5b806322f3e2d414610120578063293be456146101385780633f4ba83a1461014d5780633fa4f24514610155575b600080fd5b60005b60405190151581526020015b60405180910390f35b61014b610146366004610a82565b600255565b005b61014b610288565b61015e60075481565b60405190815260200161012f565b61015e61017a366004610a9b565b60009392505050565b60005474010000000000000000000000000000000000000000900460ff16610123565b61014b6102e3565b61015e60055481565b61014b610373565b6008546101239060ff1681565b60005460405173ffffffffffffffffffffffffffffffffffffffff909116815260200161012f565b61014b610202366004610a82565b600755565b61014b610215366004610ad5565b600880547fffffffffffffffffffffffffffffffffffffffffffffffffffffffffffffff0016911515919091179055565b61014b610254366004610b1b565b6103cc565b61015e60065481565b61015e610270366004610b38565b61053f565b61014b610283366004610b1b565b6106f8565b60015473ffffffffffffffffffffffffffffffffffffffff1633146102d9576040517fddb5de5e00000000000000000000000000000000000000000000000000000000815260040160405180910390fd5b6102e1610828565b565b60005473ffffffffffffffffffffffffffffffffffffffff163314610369576040517f08c379a000000000000000000000000000000000000000000000000000000000815260206004820181905260248201527f4f776e61626c653a2063616c6c6572206973206e6f7420746865206f776e657260448201526064015b60405180910390fd5b6102e16000610921565b60015473ffffffffffffffffffffffffffffffffffffffff1633146103c4576040517fddb5de5e00000000000000000000000000000000000000000000000000000000815260040160405180910390fd5b6102e1610996565b73ffffffffffffffffffffffffffffffffffffffff8116610419576040517fb7852ebb00000000000000000000000000000000000000000000000000000000815260040160405180910390fd5b46617a691415801561043f57503373adbb28c2fee078440b7088bbcd68dcfa63e5562514155b15610476576040517fddb5de5e00000000000000000000000000000000000000000000000000000000815260040160405180910390fd5b60015473ffffffffffffffffffffffffffffffffffffffff16156104c6576040517f3af36e0a00000000000000000000000000000000000000000000000000000000815260040160405180910390fd5b600180547fffffffffffffffffffffffff00000000000000000000000000000000000000001673ffffffffffffffffffffffffffffffffffffffff83169081179091556040519081527ff200116515c6d70d53a45299bb7eba08ef985ec08bfe0baf31ad73907308a3189060200160405180910390a150565b6000846105aa576040517f08c379a00000000000000000000000000000000000000000000000000000000081526004016103609060208082526004908201527f5a45524f00000000000000000000000000000000000000000000000000000000604082015260600190565b60085460ff1615610617576040517f08c379a000000000000000000000000000000000000000000000000000000000815260206004820152600360248201527f52455600000000000000000000000000000000000000000000000000000000006044820152606401610360565b50600254600480546040517fa9059cbb00000000000000000000000000000000000000000000000000000000815233928101929092526024820183905273ffffffffffffffffffffffffffffffffffffffff169063a9059cbb906044016020604051808303816000875af1158015610693573d6000803e3d6000fd5b505050506040513d601f19601f820116820180604052508101906106b79190610b79565b50600585905560068490556007547fffffffffffffffffffffffffffffffffffffffffffffffffffffffffffffffff146106f057506007545b949350505050565b60005473ffffffffffffffffffffffffffffffffffffffff163314610779576040517f08c379a000000000000000000000000000000000000000000000000000000000815260206004820181905260248201527f4f776e61626c653a2063616c6c6572206973206e6f7420746865206f776e65726044820152606401610360565b73ffffffffffffffffffffffffffffffffffffffff811661081c576040517f08c379a000000000000000000000000000000000000000000000000000000000815260206004820152602660248201527f4f776e61626c653a206e6577206f776e657220697320746865207a65726f206160448201527f64647265737300000000000000000000000000000000000000000000000000006064820152608401610360565b61082581610921565b50565b60005474010000000000000000000000000000000000000000900460ff166108ac576040517f08c379a000000000000000000000000000000000000000000000000000000000815260206004820152601460248201527f5061757361626c653a206e6f74207061757365640000000000000000000000006044820152606401610360565b600080547fffffffffffffffffffffff00ffffffffffffffffffffffffffffffffffffffff1690557f5db9ee0a495bf2e6ff9c91a7834c1ba4fdd244a5e8aa4e537bd38aeae4b073aa335b60405173ffffffffffffffffffffffffffffffffffffffff909116815260200160405180910390a1565b6000805473ffffffffffffffffffffffffffffffffffffffff8381167fffffffffffffffffffffffff0000000000000000000000000000000000000000831681178455604051919092169283917f8be0079c531659141344cd1fd0a4f28419497f9722a3daafe3b4186f6b6457e09190a35050565b60005474010000000000000000000000000000000000000000900460ff1615610a1b576040517f08c379a000000000000000000000000000000000000000000000000000000000815260206004820152601060248201527f5061757361626c653a20706175736564000000000000000000000000000000006044820152606401610360565b600080547fffffffffffffffffffffff00ffffffffffffffffffffffffffffffffffffffff16740100000000000000000000000000000000000000001790557f62e78cea01bee320cd4e420270b5ea74000d11b0c9f74754ebdbfc544b05a2586108f73390565b600060208284031215610a9457600080fd5b5035919050565b600080600060608486031215610ab057600080fd5b505081359360208301359350604090920135919050565b801515811461082557600080fd5b600060208284031215610ae757600080fd5b8135610af281610ac7565b9392505050565b73ffffffffffffffffffffffffffffffffffffffff8116811461082557600080fd5b600060208284031215610b2d57600080fd5b8135610af281610af9565b60008060008060808587031215610b4e57600080fd5b8435935060208501359250604085013591506060850135610b6e81610af9565b939692955090935050565b600060208284031215610b8b57600080fd5b8151610af281610ac756fea26469706673582212201b8efc0ded22d7b5e711375f67cd703d6caeb8e8e946891cb89c1fe6d89466a564736f6c634300080a0033",
  "linkReferences": {},
  "deployedLinkReferences": {}
}