{
    "contractName": "XDEFIDistributionHelper",
    "abi": [
        {
            "inputs": [
                {
                    "internalType": "address",
                    "name": "xdefiDistribution_",
                    "type": "address"
                },
                {
                    "internalType": "address",
                    "name": "account_",
                    "type": "address"
                }
            ],
            "name": "getAllLockedPositionsForAccount",
            "outputs": [
                {
                    "internalType": "uint256[]",
                    "name": "tokenIds_",
                    "type": "uint256[]"
                },
                {
                    "components": [
                        {
                            "internalType": "uint96",
                            "name": "units",
                            "type": "uint96"
                        },
                        {
                            "internalType": "uint88",
                            "name": "depositedXDEFI",
                            "type": "uint88"
                        },
                        {
                            "internalType": "uint32",
                            "name": "expiry",
                            "type": "uint32"
                        },
                        {
                            "internalType": "uint32",
                            "name": "created",
                            "type": "uint32"
                        },
                        {
                            "internalType": "uint8",
                            "name": "bonusMultiplier",
                            "type": "uint8"
                        },
                        {
                            "internalType": "int256",
                            "name": "pointsCorrection",
                            "type": "int256"
                        }
                    ],
                    "internalType": "struct IXDEFIDistribution.Position[]",
                    "name": "positions_",
                    "type": "tuple[]"
                },
                {
                    "internalType": "uint256[]",
                    "name": "withdrawables_",
                    "type": "uint256[]"
                }
            ],
            "stateMutability": "view",
            "type": "function"
        },
        {
            "inputs": [
                {
                    "internalType": "address",
                    "name": "xdefiDistribution_",
                    "type": "address"
                },
                {
                    "internalType": "address",
                    "name": "account_",
                    "type": "address"
                }
            ],
            "name": "getAllTokensForAccount",
            "outputs": [
                {
                    "internalType": "uint256[]",
                    "name": "tokenIds_",
                    "type": "uint256[]"
                }
            ],
            "stateMutability": "view",
            "type": "function"
        }
    ],
    "bytecode": "608060405234801561001057600080fd5b506108f2806100206000396000f3fe608060405234801561001057600080fd5b50600436106100365760003560e01c806347b339681461003b578063e82fa48c14610064575b600080fd5b61004e610049366004610658565b610086565b60405161005b91906106c6565b60405180910390f35b610077610072366004610658565b6101ee565b60405161005b939291906106e0565b6040516370a0823160e01b81526001600160a01b0382811660048301526060916000918516906370a0823190602401602060405180830381865afa1580156100d2573d6000803e3d6000fd5b505050506040513d601f19601f820116820180604052508101906100f691906107a2565b90508067ffffffffffffffff811115610111576101116107bb565b60405190808252806020026020018201604052801561013a578160200160208202803683370190505b50915060005b818110156101e657604051632f745c5960e01b81526001600160a01b03858116600483015260248201839052861690632f745c5990604401602060405180830381865afa158015610195573d6000803e3d6000fd5b505050506040513d601f19601f820116820180604052508101906101b991906107a2565b8382815181106101cb576101cb6107d1565b60209081029190910101526101df816107e7565b9050610140565b505092915050565b606080606060006101ff8686610086565b805190915060008167ffffffffffffffff81111561021f5761021f6107bb565b60405190808252806020026020018201604052801561027f57816020015b6040805160c08101825260008082526020808301829052928201819052606082018190526080820181905260a0820152825260001990920191018161023d5790505b5090506000805b83811015610415576000806000806000808f6001600160a01b03166346f960238c89815181106102b8576102b86107d1565b60200260200101516040518263ffffffff1660e01b81526004016102de91815260200190565b60c060405180830381865afa1580156102fb573d6000803e3d6000fd5b505050506040513d601f19601f8201168201806040525081019061031f9190610824565b955095509550955095509550600063ffffffff168463ffffffff16141561034b57505050505050610405565b8a878151811061035d5761035d6107d1565b60200260200101518b8981518110610377576103776107d1565b6020026020010181815250506040518060c00160405280876001600160601b03168152602001866affffffffffffffffffffff1681526020018563ffffffff1681526020018463ffffffff1681526020018360ff168152602001828152508989806103e1906107e7565b9a50815181106103f3576103f36107d1565b60200260200101819052505050505050505b61040e816107e7565b9050610286565b508067ffffffffffffffff81111561042f5761042f6107bb565b604051908082528060200260200182016040528015610458578160200160208202803683370190505b5096508067ffffffffffffffff811115610474576104746107bb565b6040519080825280602002602001820160405280156104d457816020015b6040805160c08101825260008082526020808301829052928201819052606082018190526080820181905260a082015282526000199092019101816104925790505b5095508067ffffffffffffffff8111156104f0576104f06107bb565b604051908082528060200260200182016040528015610519578160200160208202803683370190505b50945060005b8181101561063057828181518110610539576105396107d1565b6020026020010151878281518110610553576105536107d1565b6020026020010181905250896001600160a01b031663d1fdb3e886838151811061057f5761057f6107d1565b60200260200101518a8481518110610599576105996107d1565b60200260200101818152506040518263ffffffff1660e01b81526004016105c291815260200190565b602060405180830381865afa1580156105df573d6000803e3d6000fd5b505050506040513d601f19601f8201168201806040525081019061060391906107a2565b868281518110610615576106156107d1565b6020908102919091010152610629816107e7565b905061051f565b50505050509250925092565b80356001600160a01b038116811461065357600080fd5b919050565b6000806040838503121561066b57600080fd5b6106748361063c565b91506106826020840161063c565b90509250929050565b600081518084526020808501945080840160005b838110156106bb5781518752958201959082019060010161069f565b509495945050505050565b6020815260006106d9602083018461068b565b9392505050565b600060608083526106f38184018761068b565b83810360208581019190915286518083528782019282019060005b8181101561078157845180516001600160601b03168452848101516affffffffffffffffffffff168585015260408082015163ffffffff9081169186019190915287820151168785015260808082015160ff169085015260a090810151908401529383019360c09092019160010161070e565b50508581036040870152610795818861068b565b9998505050505050505050565b6000602082840312156107b457600080fd5b5051919050565b634e487b7160e01b600052604160045260246000fd5b634e487b7160e01b600052603260045260246000fd5b600060001982141561080957634e487b7160e01b600052601160045260246000fd5b5060010190565b805163ffffffff8116811461065357600080fd5b60008060008060008060c0878903121561083d57600080fd5b86516001600160601b038116811461085457600080fd5b60208801519096506affffffffffffffffffffff8116811461087557600080fd5b945061088360408801610810565b935061089160608801610810565b9250608087015160ff811681146108a757600080fd5b8092505060a08701519050929550929550929556fea2646970667358221220eeef50b66382832e530c767fe927b71e4f7254cc3b968995132c6bc51394786364736f6c634300080a0033",
    "sourcePath": "/home/joffrey/Documents/smartaudit/code4rena/xdefi-distribution-1.0.0-beta.0/contracts/XDEFIDistributionHelper.sol",
    "compiler": {
        "name": "solc",
        "version": "0.8.10+commit.fc410830"
    },
    "functionHashes": {
        "getAllLockedPositionsForAccount(address,address)": "e82fa48c",
        "getAllTokensForAccount(address,address)": "47b33968"
    },
    "gasEstimates": {
        "creation": {
            "codeDepositCost": "458000",
            "executionCost": "493",
            "totalCost": "458493"
        },
        "external": {
            "getAllLockedPositionsForAccount(address,address)": "infinite",
            "getAllTokensForAccount(address,address)": "infinite"
        }
    }
}