{
  "_format": "hh-sol-artifact-1",
  "contractName": "SherlockProtocolManagerTest",
  "sourceName": "contracts/test/SherlockProtocolManagerTest.sol",
  "abi": [
    {
      "inputs": [
        {
          "internalType": "contract IERC20",
          "name": "_token",
          "type": "address"
        }
      ],
      "stateMutability": "nonpayable",
      "type": "constructor"
    },
    {
      "inputs": [
        {
          "internalType": "bytes32",
          "name": "protocol",
          "type": "bytes32"
        }
      ],
      "name": "InsufficientBalance",
      "type": "error"
    },
    {
      "inputs": [],
      "name": "InvalidArgument",
      "type": "error"
    },
    {
      "inputs": [],
      "name": "InvalidConditions",
      "type": "error"
    },
    {
      "inputs": [],
      "name": "InvalidSender",
      "type": "error"
    },
    {
      "inputs": [
        {
          "internalType": "bytes32",
          "name": "protocol",
          "type": "bytes32"
        }
      ],
      "name": "ProtocolNotExists",
      "type": "error"
    },
    {
      "inputs": [],
      "name": "Unauthorized",
      "type": "error"
    },
    {
      "inputs": [],
      "name": "UnequalArrayLength",
      "type": "error"
    },
    {
      "inputs": [],
      "name": "ZeroArgument",
      "type": "error"
    },
    {
      "anonymous": false,
      "inputs": [
        {
          "indexed": true,
          "internalType": "bytes32",
          "name": "protocol",
          "type": "bytes32"
        },
        {
          "indexed": false,
          "internalType": "uint256",
          "name": "amount",
          "type": "uint256"
        },
        {
          "indexed": false,
          "internalType": "uint256",
          "name": "insufficientTokens",
          "type": "uint256"
        }
      ],
      "name": "AccountingError",
      "type": "event"
    },
    {
      "anonymous": false,
      "inputs": [
        {
          "indexed": false,
          "internalType": "uint256",
          "name": "previous",
          "type": "uint256"
        },
        {
          "indexed": false,
          "internalType": "uint256",
          "name": "current",
          "type": "uint256"
        }
      ],
      "name": "MinBalance",
      "type": "event"
    },
    {
      "anonymous": false,
      "inputs": [
        {
          "indexed": true,
          "internalType": "address",
          "name": "previousOwner",
          "type": "address"
        },
        {
          "indexed": true,
          "internalType": "address",
          "name": "newOwner",
          "type": "address"
        }
      ],
      "name": "OwnershipTransferred",
      "type": "event"
    },
    {
      "anonymous": false,
      "inputs": [
        {
          "indexed": false,
          "internalType": "address",
          "name": "account",
          "type": "address"
        }
      ],
      "name": "Paused",
      "type": "event"
    },
    {
      "anonymous": false,
      "inputs": [
        {
          "indexed": true,
          "internalType": "bytes32",
          "name": "protocol",
          "type": "bytes32"
        }
      ],
      "name": "ProtocolAdded",
      "type": "event"
    },
    {
      "anonymous": false,
      "inputs": [
        {
          "indexed": true,
          "internalType": "bytes32",
          "name": "protocol",
          "type": "bytes32"
        },
        {
          "indexed": false,
          "internalType": "address",
          "name": "from",
          "type": "address"
        },
        {
          "indexed": false,
          "internalType": "address",
          "name": "to",
          "type": "address"
        }
      ],
      "name": "ProtocolAgentTransfer",
      "type": "event"
    },
    {
      "anonymous": false,
      "inputs": [
        {
          "indexed": true,
          "internalType": "bytes32",
          "name": "protocol",
          "type": "bytes32"
        },
        {
          "indexed": false,
          "internalType": "uint256",
          "name": "amount",
          "type": "uint256"
        }
      ],
      "name": "ProtocolBalanceDeposited",
      "type": "event"
    },
    {
      "anonymous": false,
      "inputs": [
        {
          "indexed": true,
          "internalType": "bytes32",
          "name": "protocol",
          "type": "bytes32"
        },
        {
          "indexed": false,
          "internalType": "uint256",
          "name": "amount",
          "type": "uint256"
        }
      ],
      "name": "ProtocolBalanceWithdrawn",
      "type": "event"
    },
    {
      "anonymous": false,
      "inputs": [
        {
          "indexed": true,
          "internalType": "bytes32",
          "name": "protocol",
          "type": "bytes32"
        },
        {
          "indexed": false,
          "internalType": "uint256",
          "name": "oldPremium",
          "type": "uint256"
        },
        {
          "indexed": false,
          "internalType": "uint256",
          "name": "newPremium",
          "type": "uint256"
        }
      ],
      "name": "ProtocolPremiumChanged",
      "type": "event"
    },
    {
      "anonymous": false,
      "inputs": [
        {
          "indexed": true,
          "internalType": "bytes32",
          "name": "protocol",
          "type": "bytes32"
        }
      ],
      "name": "ProtocolRemoved",
      "type": "event"
    },
    {
      "anonymous": false,
      "inputs": [
        {
          "indexed": true,
          "internalType": "bytes32",
          "name": "protocol",
          "type": "bytes32"
        },
        {
          "indexed": false,
          "internalType": "address",
          "name": "arb",
          "type": "address"
        },
        {
          "indexed": false,
          "internalType": "uint256",
          "name": "profit",
          "type": "uint256"
        }
      ],
      "name": "ProtocolRemovedByArb",
      "type": "event"
    },
    {
      "anonymous": false,
      "inputs": [
        {
          "indexed": true,
          "internalType": "bytes32",
          "name": "protocol",
          "type": "bytes32"
        },
        {
          "indexed": false,
          "internalType": "bytes32",
          "name": "coverage",
          "type": "bytes32"
        },
        {
          "indexed": false,
          "internalType": "uint256",
          "name": "nonStakers",
          "type": "uint256"
        },
        {
          "indexed": false,
          "internalType": "uint256",
          "name": "coverageAmount",
          "type": "uint256"
        }
      ],
      "name": "ProtocolUpdated",
      "type": "event"
    },
    {
      "anonymous": false,
      "inputs": [
        {
          "indexed": false,
          "internalType": "contract ISherlock",
          "name": "sherlock",
          "type": "address"
        }
      ],
      "name": "SherlockCoreSet",
      "type": "event"
    },
    {
      "anonymous": false,
      "inputs": [
        {
          "indexed": false,
          "internalType": "address",
          "name": "account",
          "type": "address"
        }
      ],
      "name": "Unpaused",
      "type": "event"
    },
    {
      "inputs": [],
      "name": "MIN_BALANCE_SANITY_CEILING",
      "outputs": [
        {
          "internalType": "uint256",
          "name": "",
          "type": "uint256"
        }
      ],
      "stateMutability": "view",
      "type": "function"
    },
    {
      "inputs": [],
      "name": "MIN_SECONDS_LEFT",
      "outputs": [
        {
          "internalType": "uint256",
          "name": "",
          "type": "uint256"
        }
      ],
      "stateMutability": "view",
      "type": "function"
    },
    {
      "inputs": [],
      "name": "MIN_SECONDS_OF_COVERAGE",
      "outputs": [
        {
          "internalType": "uint256",
          "name": "",
          "type": "uint256"
        }
      ],
      "stateMutability": "view",
      "type": "function"
    },
    {
      "inputs": [],
      "name": "PROTOCOL_CLAIM_DEADLINE",
      "outputs": [
        {
          "internalType": "uint256",
          "name": "",
          "type": "uint256"
        }
      ],
      "stateMutability": "view",
      "type": "function"
    },
    {
      "inputs": [
        {
          "internalType": "bytes32",
          "name": "_protocol",
          "type": "bytes32"
        }
      ],
      "name": "activeBalance",
      "outputs": [
        {
          "internalType": "uint256",
          "name": "",
          "type": "uint256"
        }
      ],
      "stateMutability": "view",
      "type": "function"
    },
    {
      "inputs": [],
      "name": "claimPremiumsForStakers",
      "outputs": [],
      "stateMutability": "nonpayable",
      "type": "function"
    },
    {
      "inputs": [],
      "name": "claimablePremiums",
      "outputs": [
        {
          "internalType": "uint256",
          "name": "",
          "type": "uint256"
        }
      ],
      "stateMutability": "view",
      "type": "function"
    },
    {
      "inputs": [
        {
          "internalType": "bytes32",
          "name": "_protocol",
          "type": "bytes32"
        }
      ],
      "name": "coverageAmounts",
      "outputs": [
        {
          "internalType": "uint256",
          "name": "current",
          "type": "uint256"
        },
        {
          "internalType": "uint256",
          "name": "previous",
          "type": "uint256"
        }
      ],
      "stateMutability": "view",
      "type": "function"
    },
    {
      "inputs": [
        {
          "internalType": "bytes32",
          "name": "_protocol",
          "type": "bytes32"
        },
        {
          "internalType": "uint256",
          "name": "_amount",
          "type": "uint256"
        }
      ],
      "name": "depositToActiveBalance",
      "outputs": [],
      "stateMutability": "nonpayable",
      "type": "function"
    },
    {
      "inputs": [
        {
          "internalType": "bytes32",
          "name": "_protocol",
          "type": "bytes32"
        }
      ],
      "name": "forceRemoveByActiveBalance",
      "outputs": [],
      "stateMutability": "nonpayable",
      "type": "function"
    },
    {
      "inputs": [
        {
          "internalType": "bytes32",
          "name": "_protocol",
          "type": "bytes32"
        }
      ],
      "name": "forceRemoveBySecondsOfCoverage",
      "outputs": [],
      "stateMutability": "nonpayable",
      "type": "function"
    },
    {
      "inputs": [],
      "name": "isActive",
      "outputs": [
        {
          "internalType": "bool",
          "name": "",
          "type": "bool"
        }
      ],
      "stateMutability": "view",
      "type": "function"
    },
    {
      "inputs": [],
      "name": "minActiveBalance",
      "outputs": [
        {
          "internalType": "uint256",
          "name": "",
          "type": "uint256"
        }
      ],
      "stateMutability": "view",
      "type": "function"
    },
    {
      "inputs": [
        {
          "internalType": "bytes32",
          "name": "_protocol",
          "type": "bytes32"
        },
        {
          "internalType": "uint256",
          "name": "_amount",
          "type": "uint256"
        },
        {
          "internalType": "address",
          "name": "_receiver",
          "type": "address"
        }
      ],
      "name": "nonStakersClaim",
      "outputs": [],
      "stateMutability": "nonpayable",
      "type": "function"
    },
    {
      "inputs": [
        {
          "internalType": "bytes32",
          "name": "_protocol",
          "type": "bytes32"
        }
      ],
      "name": "nonStakersClaimable",
      "outputs": [
        {
          "internalType": "uint256",
          "name": "",
          "type": "uint256"
        }
      ],
      "stateMutability": "view",
      "type": "function"
    },
    {
      "inputs": [],
      "name": "owner",
      "outputs": [
        {
          "internalType": "address",
          "name": "",
          "type": "address"
        }
      ],
      "stateMutability": "view",
      "type": "function"
    },
    {
      "inputs": [],
      "name": "pause",
      "outputs": [],
      "stateMutability": "nonpayable",
      "type": "function"
    },
    {
      "inputs": [],
      "name": "paused",
      "outputs": [
        {
          "internalType": "bool",
          "name": "",
          "type": "bool"
        }
      ],
      "stateMutability": "view",
      "type": "function"
    },
    {
      "inputs": [
        {
          "internalType": "bytes32",
          "name": "_protocol",
          "type": "bytes32"
        }
      ],
      "name": "premium",
      "outputs": [
        {
          "internalType": "uint256",
          "name": "",
          "type": "uint256"
        }
      ],
      "stateMutability": "view",
      "type": "function"
    },
    {
      "inputs": [],
      "name": "privateSettleTotalDebt",
      "outputs": [],
      "stateMutability": "nonpayable",
      "type": "function"
    },
    {
      "inputs": [
        {
          "internalType": "uint256",
          "name": "_min",
          "type": "uint256"
        }
      ],
      "name": "privatesetMinActiveBalance",
      "outputs": [],
      "stateMutability": "nonpayable",
      "type": "function"
    },
    {
      "inputs": [
        {
          "internalType": "bytes32",
          "name": "_protocol",
          "type": "bytes32"
        },
        {
          "internalType": "address",
          "name": "_protocolAgent",
          "type": "address"
        },
        {
          "internalType": "bytes32",
          "name": "_coverage",
          "type": "bytes32"
        },
        {
          "internalType": "uint256",
          "name": "_nonStakers",
          "type": "uint256"
        },
        {
          "internalType": "uint256",
          "name": "_coverageAmount",
          "type": "uint256"
        }
      ],
      "name": "protocolAdd",
      "outputs": [],
      "stateMutability": "nonpayable",
      "type": "function"
    },
    {
      "inputs": [
        {
          "internalType": "bytes32",
          "name": "_protocol",
          "type": "bytes32"
        }
      ],
      "name": "protocolAgent",
      "outputs": [
        {
          "internalType": "address",
          "name": "",
          "type": "address"
        }
      ],
      "stateMutability": "view",
      "type": "function"
    },
    {
      "inputs": [
        {
          "internalType": "bytes32",
          "name": "_protocol",
          "type": "bytes32"
        }
      ],
      "name": "protocolRemove",
      "outputs": [],
      "stateMutability": "nonpayable",
      "type": "function"
    },
    {
      "inputs": [
        {
          "internalType": "bytes32",
          "name": "_protocol",
          "type": "bytes32"
        },
        {
          "internalType": "bytes32",
          "name": "_coverage",
          "type": "bytes32"
        },
        {
          "internalType": "uint256",
          "name": "_nonStakers",
          "type": "uint256"
        },
        {
          "internalType": "uint256",
          "name": "_coverageAmount",
          "type": "uint256"
        }
      ],
      "name": "protocolUpdate",
      "outputs": [],
      "stateMutability": "nonpayable",
      "type": "function"
    },
    {
      "inputs": [],
      "name": "renounceOwnership",
      "outputs": [],
      "stateMutability": "nonpayable",
      "type": "function"
    },
    {
      "inputs": [
        {
          "internalType": "bytes32",
          "name": "_protocol",
          "type": "bytes32"
        }
      ],
      "name": "secondsOfCoverageLeft",
      "outputs": [
        {
          "internalType": "uint256",
          "name": "",
          "type": "uint256"
        }
      ],
      "stateMutability": "view",
      "type": "function"
    },
    {
      "inputs": [
        {
          "internalType": "uint256",
          "name": "_minActiveBalance",
          "type": "uint256"
        }
      ],
      "name": "setMinActiveBalance",
      "outputs": [],
      "stateMutability": "nonpayable",
      "type": "function"
    },
    {
      "inputs": [
        {
          "internalType": "bytes32",
          "name": "_protocol",
          "type": "bytes32"
        },
        {
          "internalType": "uint256",
          "name": "_premium",
          "type": "uint256"
        }
      ],
      "name": "setProtocolPremium",
      "outputs": [],
      "stateMutability": "nonpayable",
      "type": "function"
    },
    {
      "inputs": [
        {
          "internalType": "bytes32[]",
          "name": "_protocol",
          "type": "bytes32[]"
        },
        {
          "internalType": "uint256[]",
          "name": "_premium",
          "type": "uint256[]"
        }
      ],
      "name": "setProtocolPremiums",
      "outputs": [],
      "stateMutability": "nonpayable",
      "type": "function"
    },
    {
      "inputs": [
        {
          "internalType": "contract ISherlock",
          "name": "_sherlock",
          "type": "address"
        }
      ],
      "name": "setSherlockCoreAddress",
      "outputs": [],
      "stateMutability": "nonpayable",
      "type": "function"
    },
    {
      "inputs": [
        {
          "internalType": "address",
          "name": "_receiver",
          "type": "address"
        },
        {
          "internalType": "contract IERC20[]",
          "name": "_extraTokens",
          "type": "address[]"
        }
      ],
      "name": "sweep",
      "outputs": [],
      "stateMutability": "nonpayable",
      "type": "function"
    },
    {
      "inputs": [],
      "name": "token",
      "outputs": [
        {
          "internalType": "contract IERC20",
          "name": "",
          "type": "address"
        }
      ],
      "stateMutability": "view",
      "type": "function"
    },
    {
      "inputs": [
        {
          "internalType": "address",
          "name": "newOwner",
          "type": "address"
        }
      ],
      "name": "transferOwnership",
      "outputs": [],
      "stateMutability": "nonpayable",
      "type": "function"
    },
    {
      "inputs": [
        {
          "internalType": "bytes32",
          "name": "_protocol",
          "type": "bytes32"
        },
        {
          "internalType": "address",
          "name": "_protocolAgent",
          "type": "address"
        }
      ],
      "name": "transferProtocolAgent",
      "outputs": [],
      "stateMutability": "nonpayable",
      "type": "function"
    },
    {
      "inputs": [],
      "name": "unpause",
      "outputs": [],
      "stateMutability": "nonpayable",
      "type": "function"
    },
    {
      "inputs": [
        {
          "internalType": "bytes32",
          "name": "_protocol",
          "type": "bytes32"
        }
      ],
      "name": "viewActiveBalance",
      "outputs": [
        {
          "internalType": "uint256",
          "name": "",
          "type": "uint256"
        }
      ],
      "stateMutability": "view",
      "type": "function"
    },
    {
      "inputs": [],
      "name": "viewAllPremiumsPerSecToStakers",
      "outputs": [
        {
          "internalType": "uint256",
          "name": "",
          "type": "uint256"
        }
      ],
      "stateMutability": "view",
      "type": "function"
    },
    {
      "inputs": [
        {
          "internalType": "bytes32",
          "name": "_protocol",
          "type": "bytes32"
        }
      ],
      "name": "viewCalcForceRemoveBySecondsOfCoverage",
      "outputs": [
        {
          "internalType": "uint256",
          "name": "",
          "type": "uint256"
        },
        {
          "internalType": "bool",
          "name": "",
          "type": "bool"
        }
      ],
      "stateMutability": "view",
      "type": "function"
    },
    {
      "inputs": [
        {
          "internalType": "bytes32",
          "name": "_protocol",
          "type": "bytes32"
        }
      ],
      "name": "viewCurrentCoverage",
      "outputs": [
        {
          "internalType": "uint256",
          "name": "",
          "type": "uint256"
        }
      ],
      "stateMutability": "view",
      "type": "function"
    },
    {
      "inputs": [
        {
          "internalType": "bytes32",
          "name": "_protocol",
          "type": "bytes32"
        }
      ],
      "name": "viewLastAccountedEachProtocol",
      "outputs": [
        {
          "internalType": "uint256",
          "name": "",
          "type": "uint256"
        }
      ],
      "stateMutability": "view",
      "type": "function"
    },
    {
      "inputs": [],
      "name": "viewLastAccountedGlobal",
      "outputs": [
        {
          "internalType": "uint256",
          "name": "",
          "type": "uint256"
        }
      ],
      "stateMutability": "view",
      "type": "function"
    },
    {
      "inputs": [],
      "name": "viewLastClaimablePremiumsForStakers",
      "outputs": [
        {
          "internalType": "uint256",
          "name": "",
          "type": "uint256"
        }
      ],
      "stateMutability": "view",
      "type": "function"
    },
    {
      "inputs": [],
      "name": "viewMinActiveBalance",
      "outputs": [
        {
          "internalType": "uint256",
          "name": "",
          "type": "uint256"
        }
      ],
      "stateMutability": "view",
      "type": "function"
    },
    {
      "inputs": [
        {
          "internalType": "bytes32",
          "name": "_protocol",
          "type": "bytes32"
        }
      ],
      "name": "viewNonStakersClaimableByProtocol",
      "outputs": [
        {
          "internalType": "uint256",
          "name": "",
          "type": "uint256"
        }
      ],
      "stateMutability": "view",
      "type": "function"
    },
    {
      "inputs": [
        {
          "internalType": "bytes32",
          "name": "_protocol",
          "type": "bytes32"
        }
      ],
      "name": "viewNonStakersPercentage",
      "outputs": [
        {
          "internalType": "uint256",
          "name": "",
          "type": "uint256"
        }
      ],
      "stateMutability": "view",
      "type": "function"
    },
    {
      "inputs": [
        {
          "internalType": "bytes32",
          "name": "_protocol",
          "type": "bytes32"
        }
      ],
      "name": "viewPremium",
      "outputs": [
        {
          "internalType": "uint256",
          "name": "",
          "type": "uint256"
        }
      ],
      "stateMutability": "view",
      "type": "function"
    },
    {
      "inputs": [
        {
          "internalType": "bytes32",
          "name": "_protocol",
          "type": "bytes32"
        }
      ],
      "name": "viewPreviousCoverage",
      "outputs": [
        {
          "internalType": "uint256",
          "name": "",
          "type": "uint256"
        }
      ],
      "stateMutability": "view",
      "type": "function"
    },
    {
      "inputs": [
        {
          "internalType": "bytes32",
          "name": "_protocol",
          "type": "bytes32"
        }
      ],
      "name": "viewProtocolAgent",
      "outputs": [
        {
          "internalType": "address",
          "name": "",
          "type": "address"
        }
      ],
      "stateMutability": "view",
      "type": "function"
    },
    {
      "inputs": [
        {
          "internalType": "bytes32",
          "name": "_protocol",
          "type": "bytes32"
        }
      ],
      "name": "viewRemovedProtocolAgent",
      "outputs": [
        {
          "internalType": "address",
          "name": "",
          "type": "address"
        }
      ],
      "stateMutability": "view",
      "type": "function"
    },
    {
      "inputs": [
        {
          "internalType": "bytes32",
          "name": "_protocol",
          "type": "bytes32"
        }
      ],
      "name": "viewRemovedProtocolClaimDeadline",
      "outputs": [
        {
          "internalType": "uint256",
          "name": "",
          "type": "uint256"
        }
      ],
      "stateMutability": "view",
      "type": "function"
    },
    {
      "inputs": [
        {
          "internalType": "bytes32",
          "name": "_protocol",
          "type": "bytes32"
        },
        {
          "internalType": "uint256",
          "name": "_amount",
          "type": "uint256"
        }
      ],
      "name": "withdrawActiveBalance",
      "outputs": [],
      "stateMutability": "nonpayable",
      "type": "function"
    }
  ],
  "bytecode": "0x60a06040523480156200001157600080fd5b50604051620039c9380380620039c98339810160408190526200003491620000d8565b80620000403362000088565b6000805460ff60a01b191690556001600160a01b038116620000755760405163b7852ebb60e01b815260040160405180910390fd5b6001600160a01b0316608052506200010a565b600080546001600160a01b038381166001600160a01b0319831681178455604051919092169283917f8be0079c531659141344cd1fd0a4f28419497f9722a3daafe3b4186f6b6457e09190a35050565b600060208284031215620000eb57600080fd5b81516001600160a01b03811681146200010357600080fd5b9392505050565b60805161387262000157600039600081816107a801528181610b3a01528181611433015281816116b501528181611b6901528181611d2501528181612135015261252e01526138726000f3fe608060405234801561001057600080fd5b506004361061034c5760003560e01c8063715018a6116101bd578063bc6bd757116100f9578063caef4f1b116100a2578063d38eace31161007c578063d38eace31461075d578063f2fde38b1461077d578063f702e8c914610790578063fc0c546a146107a357600080fd5b8063caef4f1b1461070d578063ce104f0814610735578063d35be1d11461073d57600080fd5b8063c46060d4116100d3578063c46060d4146106df578063ca70fb76146106f2578063ca98ebc81461070557600080fd5b8063bc6bd757146106a6578063c3741e34146106b9578063c3e31756146106cc57600080fd5b80638da5cb5b116101665780639e04991e116101405780639e04991e1461065d578063a15eea40146103eb578063a26f6fd414610666578063bba66ab91461068657600080fd5b80638da5cb5b14610617578063942c5cd7146106355780639703879c1461065557600080fd5b80638456cb59116101975780638456cb59146105d457806385c6d022146105dc5780638a179be41461060457600080fd5b8063715018a6146105b05780637f17b320146105b85780638204aa3f146105c157600080fd5b80632cc62d0d1161028c57806344c29d03116102355780634b84f2b01161020f5780634b84f2b01461056a57806351d794571461057d5780635c975abb1461058557806369b0a81a146105a857600080fd5b806344c29d031461052b578063457562b71461054b578063483e6f0c1461055e57600080fd5b806338a5f2d61161026657806338a5f2d6146105085780633a156cf1146105105780633f4ba83a1461052357600080fd5b80632cc62d0d146104cf5780632f3e56e3146104e257806330f5fecd146104f557600080fd5b806318c1b32d116102f957806322f3e2d4116102d357806322f3e2d41461044e57806323a1eceb1461046657806325ec70d71461047957806326b4f3651461049957600080fd5b806318c1b32d146104085780631f9793f31461041b57806320e03a421461043b57600080fd5b806311c5763e1161032a57806311c5763e146103d8578063144a74ec146103eb5780631623b05a146103f557600080fd5b806305176eea14610351578063088dbba6146103b157806309e52a54146103c6575b600080fd5b61038761035f3660046132cd565b6000908152600d602052604090205473ffffffffffffffffffffffffffffffffffffffff1690565b60405173ffffffffffffffffffffffffffffffffffffffff90911681526020015b60405180910390f35b6103c46103bf3660046132cd565b6107ca565b005b6008545b6040519081526020016103a8565b6103c46103e636600461332b565b61086b565b6103ca62093a8081565b6103c46104033660046132cd565b610a1b565b6103c4610416366004613397565b610ba2565b6103ca6104293660046132cd565b60009081526003602052604090205490565b6103ca6104493660046132cd565b610c37565b610456610cb0565b60405190151581526020016103a8565b6103c46104743660046133db565b610d76565b6103ca6104873660046132cd565b60009081526006602052604090205490565b6103876104a73660046132cd565b60009081526002602052604090205473ffffffffffffffffffffffffffffffffffffffff1690565b6103ca6104dd3660046132cd565b610f72565b6103ca6104f03660046132cd565b610f93565b6103c4610503366004613423565b610fb0565b6009546103ca565b6103c461051e366004613453565b61114a565b6103c4611460565b6103ca6105393660046132cd565b6000908152600c602052604090205490565b6103c46105593660046132cd565b600b55565b6103ca6406fc23ac0081565b6103c4610578366004613397565b6114bb565b600a546103ca565b60005474010000000000000000000000000000000000000000900460ff16610456565b600b546103ca565b6103c461170e565b6103ca600b5481565b6103c46105cf3660046132cd565b611799565b6103c46118d5565b6105ef6105ea3660046132cd565b61192e565b604080519283529015156020830152016103a8565b6103c46106123660046134c6565b611943565b60005473ffffffffffffffffffffffffffffffffffffffff16610387565b6103ca6106433660046132cd565b60009081526005602052604090205490565b6103ca611a5a565b6103ca61a8c081565b6103ca6106743660046132cd565b6000908152600f602052604090205490565b6103ca6106943660046132cd565b6000908152600e602052604090205490565b6103c46106b4366004613397565b611a89565b6103c46106c73660046132cd565b611bed565b6103ca6106da3660046132cd565b611d8d565b6103876106ed3660046132cd565b611da3565b6103c46107003660046135be565b611e48565b6103c4611fbb565b61072061071b3660046132cd565b611fc3565b604080519283526020830191909152016103a8565b6103c461202b565b6103ca61074b3660046132cd565b60009081526004602052604090205490565b6103ca61076b3660046132cd565b60009081526007602052604090205490565b6103c461078b3660046135be565b61215c565b6103c461079e3660046135db565b61228c565b6103877f000000000000000000000000000000000000000000000000000000000000000081565b60005473ffffffffffffffffffffffffffffffffffffffff163314610850576040517f08c379a000000000000000000000000000000000000000000000000000000000815260206004820181905260248201527f4f776e61626c653a2063616c6c6572206973206e6f7420746865206f776e657260448201526064015b60405180910390fd5b600061085b82612481565b905061086782826124e5565b5050565b60005473ffffffffffffffffffffffffffffffffffffffff1633146108ec576040517f08c379a000000000000000000000000000000000000000000000000000000000815260206004820181905260248201527f4f776e61626c653a2063616c6c6572206973206e6f7420746865206f776e65726044820152606401610847565b828114610925576040517ffd190f9e00000000000000000000000000000000000000000000000000000000815260040160405180910390fd5b8261095c576040517fa9cb9e0d00000000000000000000000000000000000000000000000000000000815260040160405180910390fd5b61096461268d565b60095460005b84811015610a11576109938686838181106109875761098761360d565b90506020020135612481565b506000806109d18888858181106109ac576109ac61360d565b905060200201358787868181106109c5576109c561360d565b905060200201356126c3565b915091506109fa828787868181106109eb576109eb61360d565b90506020020135838488612790565b935050508080610a099061366b565b91505061096a565b5060095550505050565b60005474010000000000000000000000000000000000000000900460ff1615610aa0576040517f08c379a000000000000000000000000000000000000000000000000000000000815260206004820152601060248201527f5061757361626c653a20706175736564000000000000000000000000000000006044820152606401610847565b6000610aab82612481565b9050610ab682612800565b50600082815260056020526040902054600b548110610b01576040517f3af36e0a00000000000000000000000000000000000000000000000000000000815260040160405180910390fd5b600083815260056020526040812055610b1a83836124e5565b8015610b6157610b6173ffffffffffffffffffffffffffffffffffffffff7f0000000000000000000000000000000000000000000000000000000000000000163383612963565b604080513381526020810183905284917f404adabef77f5c4ffaa593356bce7f97333765fdf261dde2dd26e508efb6e1e991015b60405180910390a2505050565b60005473ffffffffffffffffffffffffffffffffffffffff163314610c23576040517f08c379a000000000000000000000000000000000000000000000000000000000815260206004820181905260248201527f4f776e61626c653a2063616c6c6572206973206e6f7420746865206f776e65726044820152606401610847565b610c2c82612481565b506108678282612a3c565b600080610c4383612a6d565b60008481526005602052604090205490915080821115610c61578091505b600084815260036020526040902054670de0b6b3a764000090610c859084906136a4565b610c8f91906136e1565b600085815260076020526040902054610ca8919061371c565b949350505050565b60003073ffffffffffffffffffffffffffffffffffffffff16600160009054906101000a900473ffffffffffffffffffffffffffffffffffffffff1673ffffffffffffffffffffffffffffffffffffffff1663863a43d56040518163ffffffff1660e01b8152600401602060405180830381865afa158015610d36573d6000803e3d6000fd5b505050506040513d601f19601f82011682018060405250810190610d5a9190613734565b73ffffffffffffffffffffffffffffffffffffffff1614905090565b60005473ffffffffffffffffffffffffffffffffffffffff163314610df7576040517f08c379a000000000000000000000000000000000000000000000000000000000815260206004820181905260248201527f4f776e61626c653a2063616c6c6572206973206e6f7420746865206f776e65726044820152606401610847565b84610e2e576040517fb7852ebb00000000000000000000000000000000000000000000000000000000815260040160405180910390fd5b73ffffffffffffffffffffffffffffffffffffffff8416610e7b576040517fb7852ebb00000000000000000000000000000000000000000000000000000000815260040160405180910390fd5b60008581526002602052604090205473ffffffffffffffffffffffffffffffffffffffff1615610ed7576040517f3af36e0a00000000000000000000000000000000000000000000000000000000815260040160405180910390fd5b610ee385600086612aa1565b6000858152600c60209081526040808320839055600d825280832080547fffffffffffffffffffffffff0000000000000000000000000000000000000000169055600e8252808320839055600f9091528082208290555186917f4f470ec28d55f8bb3cc8f4880897ec808ff4fd664f00b62374dda835e86e32f191a2610f6b8584848461228c565b5050505050565b600081610f7e81612481565b50505060009081526004602052604090205490565b600081610f9f81612481565b50610fa983612b2d565b9392505050565b60005474010000000000000000000000000000000000000000900460ff1615611035576040517f08c379a000000000000000000000000000000000000000000000000000000000815260206004820152601060248201527f5061757361626c653a20706175736564000000000000000000000000000000006044820152606401610847565b73ffffffffffffffffffffffffffffffffffffffff8116611082576040517fb7852ebb00000000000000000000000000000000000000000000000000000000815260040160405180910390fd5b3373ffffffffffffffffffffffffffffffffffffffff821614156110d2576040517fa9cb9e0d00000000000000000000000000000000000000000000000000000000815260040160405180910390fd5b6110db82612481565b73ffffffffffffffffffffffffffffffffffffffff163373ffffffffffffffffffffffffffffffffffffffff161461113f576040517f82b4290000000000000000000000000000000000000000000000000000000000815260040160405180910390fd5b610867823383612aa1565b60005474010000000000000000000000000000000000000000900460ff16156111cf576040517f08c379a000000000000000000000000000000000000000000000000000000000815260206004820152601060248201527f5061757361626c653a20706175736564000000000000000000000000000000006044820152606401610847565b82611206576040517fb7852ebb00000000000000000000000000000000000000000000000000000000815260040160405180910390fd5b8161123d576040517fb7852ebb00000000000000000000000000000000000000000000000000000000815260040160405180910390fd5b73ffffffffffffffffffffffffffffffffffffffff811661128a576040517fb7852ebb00000000000000000000000000000000000000000000000000000000815260040160405180910390fd5b600160009054906101000a900473ffffffffffffffffffffffffffffffffffffffff1673ffffffffffffffffffffffffffffffffffffffff166396a7392d6040518163ffffffff1660e01b8152600401602060405180830381865afa1580156112f7573d6000803e3d6000fd5b505050506040513d601f19601f8201168201806040525081019061131b9190613734565b73ffffffffffffffffffffffffffffffffffffffff163373ffffffffffffffffffffffffffffffffffffffff161461137f576040517f82b4290000000000000000000000000000000000000000000000000000000000815260040160405180910390fd5b60008381526002602052604090205473ffffffffffffffffffffffffffffffffffffffff16156113b4576113b283612800565b505b60008381526007602052604090205480831115611400576040517fda6ed7e700000000000000000000000000000000000000000000000000000000815260048101859052602401610847565b61140a8382613751565b60008581526007602052604090205561145a73ffffffffffffffffffffffffffffffffffffffff7f0000000000000000000000000000000000000000000000000000000000000000168385612963565b50505050565b60015473ffffffffffffffffffffffffffffffffffffffff1633146114b1576040517fddb5de5e00000000000000000000000000000000000000000000000000000000815260040160405180910390fd5b6114b9612b67565b565b60005474010000000000000000000000000000000000000000900460ff1615611540576040517f08c379a000000000000000000000000000000000000000000000000000000000815260206004820152601060248201527f5061757361626c653a20706175736564000000000000000000000000000000006044820152606401610847565b80611577576040517fb7852ebb00000000000000000000000000000000000000000000000000000000815260040160405180910390fd5b61158082612481565b73ffffffffffffffffffffffffffffffffffffffff163373ffffffffffffffffffffffffffffffffffffffff16146115e4576040517f82b4290000000000000000000000000000000000000000000000000000000000815260040160405180910390fd5b6115ed82612800565b506000828152600560205260409020548082111561163a576040517fda6ed7e700000000000000000000000000000000000000000000000000000000815260048101849052602401610847565b6116448282613751565b60008481526005602052604090205562093a8061166084612c60565b101561169b576040517fda6ed7e700000000000000000000000000000000000000000000000000000000815260048101849052602401610847565b6116dc73ffffffffffffffffffffffffffffffffffffffff7f0000000000000000000000000000000000000000000000000000000000000000163384612963565b827f59b2b3bf2d66a1a145ea740e645a94e8d688f328eba6a1cf884eac065d41cc2783604051610b9591815260200190565b60005473ffffffffffffffffffffffffffffffffffffffff16331461178f576040517f08c379a000000000000000000000000000000000000000000000000000000000815260206004820181905260248201527f4f776e61626c653a2063616c6c6572206973206e6f7420746865206f776e65726044820152606401610847565b6114b96000612c91565b60005473ffffffffffffffffffffffffffffffffffffffff16331461181a576040517f08c379a000000000000000000000000000000000000000000000000000000000815260206004820181905260248201527f4f776e61626c653a2063616c6c6572206973206e6f7420746865206f776e65726044820152606401610847565b80600b541415611856576040517fa9cb9e0d00000000000000000000000000000000000000000000000000000000815260040160405180910390fd5b6406fc23ac008110611894576040517f3af36e0a00000000000000000000000000000000000000000000000000000000815260040160405180910390fd5b600b5460408051918252602082018390527fe8d1fbf917777b8c3e3ed28f63083c9b86e0810057608689343987f2c4aa2718910160405180910390a1600b55565b60015473ffffffffffffffffffffffffffffffffffffffff163314611926576040517fddb5de5e00000000000000000000000000000000000000000000000000000000815260040160405180910390fd5b6114b9612d06565b60008061193a83612df2565b91509150915091565b60005473ffffffffffffffffffffffffffffffffffffffff1633146119c4576040517f08c379a000000000000000000000000000000000000000000000000000000000815260206004820181905260248201527f4f776e61626c653a2063616c6c6572206973206e6f7420746865206f776e65726044820152606401610847565b73ffffffffffffffffffffffffffffffffffffffff8216611a11576040517fb7852ebb00000000000000000000000000000000000000000000000000000000815260040160405180910390fd5b611a19610cb0565b15611a50576040517f3af36e0a00000000000000000000000000000000000000000000000000000000815260040160405180910390fd5b6108678282612e88565b600060095460085442611a6d9190613751565b611a7791906136a4565b600a54611a84919061371c565b905090565b60005474010000000000000000000000000000000000000000900460ff1615611b0e576040517f08c379a000000000000000000000000000000000000000000000000000000000815260206004820152601060248201527f5061757361626c653a20706175736564000000000000000000000000000000006044820152606401610847565b80611b45576040517fb7852ebb00000000000000000000000000000000000000000000000000000000815260040160405180910390fd5b611b4e82612481565b50611b9173ffffffffffffffffffffffffffffffffffffffff7f000000000000000000000000000000000000000000000000000000000000000016333084613017565b60008281526005602052604081208054839290611baf90849061371c565b909155505060405181815282907f0fa0ea0b1118f18f6a93462970c06a4dd635c368593390a07d1ee58111ca7f8c9060200160405180910390a25050565b60005474010000000000000000000000000000000000000000900460ff1615611c72576040517f08c379a000000000000000000000000000000000000000000000000000000000815260206004820152601060248201527f5061757361626c653a20706175736564000000000000000000000000000000006044820152606401610847565b6000611c7d82612481565b9050611c8882612800565b50600080611c9584612df2565b909250905080611cd1576040517f3af36e0a00000000000000000000000000000000000000000000000000000000815260040160405180910390fd5b8115611cfb5760008481526005602052604081208054849290611cf5908490613751565b90915550505b611d0584846124e5565b8115611d4c57611d4c73ffffffffffffffffffffffffffffffffffffffff7f0000000000000000000000000000000000000000000000000000000000000000163384612963565b604080513381526020810184905285917f404adabef77f5c4ffaa593356bce7f97333765fdf261dde2dd26e508efb6e1e9910160405180910390a250505050565b600081611d9981612481565b50610fa983612c60565b60008181526002602052604081205473ffffffffffffffffffffffffffffffffffffffff168015611dd45792915050565b6000838152600c60205260409020544211611e135750506000908152600d602052604090205473ffffffffffffffffffffffffffffffffffffffff1690565b6040517fc08434a500000000000000000000000000000000000000000000000000000000815260048101849052602401610847565b73ffffffffffffffffffffffffffffffffffffffff8116611e95576040517fb7852ebb00000000000000000000000000000000000000000000000000000000815260040160405180910390fd5b46617a6914158015611ebb57503373adbb28c2fee078440b7088bbcd68dcfa63e5562514155b15611ef2576040517fddb5de5e00000000000000000000000000000000000000000000000000000000815260040160405180910390fd5b60015473ffffffffffffffffffffffffffffffffffffffff1615611f42576040517f3af36e0a00000000000000000000000000000000000000000000000000000000815260040160405180910390fd5b600180547fffffffffffffffffffffffff00000000000000000000000000000000000000001673ffffffffffffffffffffffffffffffffffffffff83169081179091556040519081527ff200116515c6d70d53a45299bb7eba08ef985ec08bfe0baf31ad73907308a3189060200160405180910390a150565b6114b961268d565b600081815260026020526040812054819073ffffffffffffffffffffffffffffffffffffffff1615158061200557506000838152600c60205260409020544211155b15611e135750506000908152600e6020908152604080832054600f909252909120549091565b60005474010000000000000000000000000000000000000000900460ff16156120b0576040517f08c379a000000000000000000000000000000000000000000000000000000000815260206004820152601060248201527f5061757361626c653a20706175736564000000000000000000000000000000006044820152606401610847565b60015473ffffffffffffffffffffffffffffffffffffffff1680612100576040517f3af36e0a00000000000000000000000000000000000000000000000000000000815260040160405180910390fd5b600061210a611a5a565b90508015610867576000600a554260085561086773ffffffffffffffffffffffffffffffffffffffff7f0000000000000000000000000000000000000000000000000000000000000000168383612963565b60005473ffffffffffffffffffffffffffffffffffffffff1633146121dd576040517f08c379a000000000000000000000000000000000000000000000000000000000815260206004820181905260248201527f4f776e61626c653a2063616c6c6572206973206e6f7420746865206f776e65726044820152606401610847565b73ffffffffffffffffffffffffffffffffffffffff8116612280576040517f08c379a000000000000000000000000000000000000000000000000000000000815260206004820152602660248201527f4f776e61626c653a206e6577206f776e657220697320746865207a65726f206160448201527f64647265737300000000000000000000000000000000000000000000000000006064820152608401610847565b61228981612c91565b50565b60005473ffffffffffffffffffffffffffffffffffffffff16331461230d576040517f08c379a000000000000000000000000000000000000000000000000000000000815260206004820181905260248201527f4f776e61626c653a2063616c6c6572206973206e6f7420746865206f776e65726044820152606401610847565b82612344576040517fb7852ebb00000000000000000000000000000000000000000000000000000000815260040160405180910390fd5b670de0b6b3a7640000821115612386576040517fa9cb9e0d00000000000000000000000000000000000000000000000000000000815260040160405180910390fd5b806123bd576040517fb7852ebb00000000000000000000000000000000000000000000000000000000815260040160405180910390fd5b6123c684612481565b506123d084612800565b506123d961268d565b6000848152600460209081526040808320546003909252909120546009546124079183918291908790612790565b6009556000858152600360209081526040808320869055600e8083528184208054600f85529483902094909455825291849055815186815290810185905290810183905285907f4c46769153c8f084608d2d5b96749d9ffaa4349b29e880af70fc0a7b4cc128379060600160405180910390a25050505050565b60008181526002602052604090205473ffffffffffffffffffffffffffffffffffffffff16806124e0576040517fc08434a500000000000000000000000000000000000000000000000000000000815260048101839052602401610847565b919050565b6124f0826000612a3c565b60008281526005602052604090205480156125905760008381526005602052604081205561255573ffffffffffffffffffffffffffffffffffffffff7f0000000000000000000000000000000000000000000000000000000000000000168383612963565b827f59b2b3bf2d66a1a145ea740e645a94e8d688f328eba6a1cf884eac065d41cc278260405161258791815260200190565b60405180910390a25b61259c83836000612aa1565b600083815260036020908152604080832083905560069091528120556125c562093a804261371c565b6000848152600c6020908152604080832093909355600d815282822080547fffffffffffffffffffffffff00000000000000000000000000000000000000001673ffffffffffffffffffffffffffffffffffffffff871617905582518281529081018290529182015283907f4c46769153c8f084608d2d5b96749d9ffaa4349b29e880af70fc0a7b4cc128379060600160405180910390a260405183907fe65ca781460f10eb08866a570fd15d9a654472bdab197bfd3a54f1a9211ed87a90600090a2505050565b60095460085461269d9042613751565b6126a791906136a4565b600a60008282546126b8919061371c565b909155505042600855565b6000806126cf84612800565b6000858152600460205260409020549250905082821461273757600084815260046020908152604091829020859055815184815290810185905285917fd08839b4c263db423387f61bf26b7e315e9dbbdd8eb1a0561180705a997417dd910160405180910390a25b821580159061274f575061a8c061274d85612c60565b105b15612789576040517fda6ed7e700000000000000000000000000000000000000000000000000000000815260048101859052602401610847565b9250929050565b6000670de0b6b3a7640000866127a68683613751565b6127b091906136a4565b6127ba91906136e1565b670de0b6b3a7640000866127ce8683613751565b6127d891906136a4565b6127e291906136e1565b6127ec908461371c565b6127f69190613751565b9695505050505050565b60008061280c83612a6d565b60008481526003602052604090205492509050801561294d57600083815260056020526040902054808211156128f25760006128488284613751565b905061285261268d565b600a546000670de0b6b3a76400008361286b8883613751565b61287591906136a4565b61287f91906136e1565b90506000828211156128a1576128958383613751565b6000600a5590506128af565b6128ab8284613751565b600a555b604080518381526020810183905289917fab2711c12277d6e8911542c33d7699762f127312443001b4342672ba70acdd19910160405180910390a2849550505050505b6128fc8282613751565b600085815260056020526040902055670de0b6b3a764000061291e83856136a4565b61292891906136e1565b6000858152600760205260408120805490919061294690849061371c565b9091555050505b5060009182526006602052604090912042905590565b60405173ffffffffffffffffffffffffffffffffffffffff8316602482015260448101829052612a379084907fa9059cbb00000000000000000000000000000000000000000000000000000000906064015b604080517fffffffffffffffffffffffffffffffffffffffffffffffffffffffffffffffe08184030181529190526020810180517bffffffffffffffffffffffffffffffffffffffffffffffffffffffff167fffffffff0000000000000000000000000000000000000000000000000000000090931692909217909152613075565b505050565b600080612a4984846126c3565b91509150612a5561268d565b612a6482848384600954612790565b60095550505050565b6000818152600460209081526040808320546006909252822054612a919042613751565b612a9b91906136a4565b92915050565b60008381526002602090815260409182902080547fffffffffffffffffffffffff00000000000000000000000000000000000000001673ffffffffffffffffffffffffffffffffffffffff858116918217909255835191861682529181019190915284917f039c809b024a991ab006bf5bca9a90f56673a0246482d4b7b201d6b7b18945c09101610b95565b600080612b3983612a6d565b60008481526005602052604090205490915080821115612b5d575060009392505050565b610ca88282613751565b60005474010000000000000000000000000000000000000000900460ff16612beb576040517f08c379a000000000000000000000000000000000000000000000000000000000815260206004820152601460248201527f5061757361626c653a206e6f74207061757365640000000000000000000000006044820152606401610847565b600080547fffffffffffffffffffffff00ffffffffffffffffffffffffffffffffffffffff1690557f5db9ee0a495bf2e6ff9c91a7834c1ba4fdd244a5e8aa4e537bd38aeae4b073aa335b60405173ffffffffffffffffffffffffffffffffffffffff909116815260200160405180910390a1565b60008181526004602052604081205480612c7d5750600092915050565b80612c8784612b2d565b610fa991906136e1565b6000805473ffffffffffffffffffffffffffffffffffffffff8381167fffffffffffffffffffffffff0000000000000000000000000000000000000000831681178455604051919092169283917f8be0079c531659141344cd1fd0a4f28419497f9722a3daafe3b4186f6b6457e09190a35050565b60005474010000000000000000000000000000000000000000900460ff1615612d8b576040517f08c379a000000000000000000000000000000000000000000000000000000000815260206004820152601060248201527f5061757361626c653a20706175736564000000000000000000000000000000006044820152606401610847565b600080547fffffffffffffffffffffff00ffffffffffffffffffffffffffffffffffffffff16740100000000000000000000000000000000000000001790557f62e78cea01bee320cd4e420270b5ea74000d11b0c9f74754ebdbfc544b05a258612c363390565b6000806000612e0084612c60565b905061a8c08110612e175750600093849350915050565b600061a8c0612e2e670de0b6b3a7640000846136a4565b612e3891906136e1565b612e4a90670de0b6b3a7640000613751565b60008681526005602052604090205460019450909150670de0b6b3a764000090612e759083906136a4565b612e7f91906136e1565b93505050915091565b60005b8151811015612f7b576000828281518110612ea857612ea861360d565b60209081029190910101516040517f70a08231000000000000000000000000000000000000000000000000000000008152306004820152909150612f6890859073ffffffffffffffffffffffffffffffffffffffff8416906370a0823190602401602060405180830381865afa158015612f26573d6000803e3d6000fd5b505050506040513d601f19601f82011682018060405250810190612f4a9190613768565b73ffffffffffffffffffffffffffffffffffffffff84169190612963565b5080612f738161366b565b915050612e8b565b5060008273ffffffffffffffffffffffffffffffffffffffff164760405160006040518083038185875af1925050503d8060008114612fd6576040519150601f19603f3d011682016040523d82523d6000602084013e612fdb565b606091505b509091505080612a37576040517f3af36e0a00000000000000000000000000000000000000000000000000000000815260040160405180910390fd5b60405173ffffffffffffffffffffffffffffffffffffffff8085166024830152831660448201526064810182905261145a9085907f23b872dd00000000000000000000000000000000000000000000000000000000906084016129b5565b60006130d7826040518060400160405280602081526020017f5361666545524332303a206c6f772d6c6576656c2063616c6c206661696c65648152508573ffffffffffffffffffffffffffffffffffffffff166131819092919063ffffffff16565b805190915015612a3757808060200190518101906130f59190613781565b612a37576040517f08c379a000000000000000000000000000000000000000000000000000000000815260206004820152602a60248201527f5361666545524332303a204552433230206f7065726174696f6e20646964206e60448201527f6f742073756363656564000000000000000000000000000000000000000000006064820152608401610847565b6060610ca8848460008585843b6131f4576040517f08c379a000000000000000000000000000000000000000000000000000000000815260206004820152601d60248201527f416464726573733a2063616c6c20746f206e6f6e2d636f6e74726163740000006044820152606401610847565b6000808673ffffffffffffffffffffffffffffffffffffffff16858760405161321d91906137cf565b60006040518083038185875af1925050503d806000811461325a576040519150601f19603f3d011682016040523d82523d6000602084013e61325f565b606091505b509150915061326f82828661327a565b979650505050505050565b60608315613289575081610fa9565b8251156132995782518084602001fd5b816040517f08c379a000000000000000000000000000000000000000000000000000000000815260040161084791906137eb565b6000602082840312156132df57600080fd5b5035919050565b60008083601f8401126132f857600080fd5b50813567ffffffffffffffff81111561331057600080fd5b6020830191508360208260051b850101111561278957600080fd5b6000806000806040858703121561334157600080fd5b843567ffffffffffffffff8082111561335957600080fd5b613365888389016132e6565b9096509450602087013591508082111561337e57600080fd5b5061338b878288016132e6565b95989497509550505050565b600080604083850312156133aa57600080fd5b50508035926020909101359150565b73ffffffffffffffffffffffffffffffffffffffff8116811461228957600080fd5b600080600080600060a086880312156133f357600080fd5b853594506020860135613405816133b9565b94979496505050506040830135926060810135926080909101359150565b6000806040838503121561343657600080fd5b823591506020830135613448816133b9565b809150509250929050565b60008060006060848603121561346857600080fd5b83359250602084013591506040840135613481816133b9565b809150509250925092565b7f4e487b7100000000000000000000000000000000000000000000000000000000600052604160045260246000fd5b80356124e0816133b9565b600080604083850312156134d957600080fd5b82356134e4816133b9565b915060208381013567ffffffffffffffff8082111561350257600080fd5b818601915086601f83011261351657600080fd5b8135818111156135285761352861348c565b8060051b6040517fffffffffffffffffffffffffffffffffffffffffffffffffffffffffffffffe0603f8301168101818110858211171561356b5761356b61348c565b60405291825284820192508381018501918983111561358957600080fd5b938501935b828510156135ae5761359f856134bb565b8452938501939285019261358e565b8096505050505050509250929050565b6000602082840312156135d057600080fd5b8135610fa9816133b9565b600080600080608085870312156135f157600080fd5b5050823594602084013594506040840135936060013592509050565b7f4e487b7100000000000000000000000000000000000000000000000000000000600052603260045260246000fd5b7f4e487b7100000000000000000000000000000000000000000000000000000000600052601160045260246000fd5b60007fffffffffffffffffffffffffffffffffffffffffffffffffffffffffffffffff82141561369d5761369d61363c565b5060010190565b6000817fffffffffffffffffffffffffffffffffffffffffffffffffffffffffffffffff04831182151516156136dc576136dc61363c565b500290565b600082613717577f4e487b7100000000000000000000000000000000000000000000000000000000600052601260045260246000fd5b500490565b6000821982111561372f5761372f61363c565b500190565b60006020828403121561374657600080fd5b8151610fa9816133b9565b6000828210156137635761376361363c565b500390565b60006020828403121561377a57600080fd5b5051919050565b60006020828403121561379357600080fd5b81518015158114610fa957600080fd5b60005b838110156137be5781810151838201526020016137a6565b8381111561145a5750506000910152565b600082516137e18184602087016137a3565b9190910192915050565b602081526000825180602084015261380a8160408501602087016137a3565b601f017fffffffffffffffffffffffffffffffffffffffffffffffffffffffffffffffe016919091016040019291505056fea264697066735822122034b5996c7bf70719e889e220a852361ccbf63e9cff767937871e9d3b9328fa3764736f6c634300080a0033",
  "linkReferences": {},
  "deployedLinkReferences": {}
}