{
  "_format": "hh-sol-artifact-1",
  "contractName": "CallbackMock",
  "sourceName": "contracts/util/CallbackMock.sol",
  "abi": [
    {
      "inputs": [
        {
          "internalType": "bytes32",
          "name": "_protocol",
          "type": "bytes32"
        },
        {
          "internalType": "uint256",
          "name": "_claimID",
          "type": "uint256"
        },
        {
          "internalType": "uint256",
          "name": "_amount",
          "type": "uint256"
        }
      ],
      "name": "PreCorePayoutCallback",
      "outputs": [],
      "stateMutability": "nonpayable",
      "type": "function"
    }
  ],
  "bytecode": "0x608060405234801561001057600080fd5b50610219806100206000396000f3fe608060405234801561001057600080fd5b506004361061002b5760003560e01c80631c45dde014610030575b600080fd5b61004361003e366004610175565b610045565b005b6040517f70a0823100000000000000000000000000000000000000000000000000000000815230600482015273a0b86991c6218b36c1d19d4a2e9eb0ce3606eb489063a9059cbb90339083906370a0823190602401602060405180830381865afa1580156100b7573d6000803e3d6000fd5b505050506040513d601f19601f820116820180604052508101906100db91906101a1565b6040517fffffffff0000000000000000000000000000000000000000000000000000000060e085901b16815273ffffffffffffffffffffffffffffffffffffffff909216600483015260248201526044016020604051808303816000875af115801561014b573d6000803e3d6000fd5b505050506040513d601f19601f8201168201806040525081019061016f91906101ba565b50505050565b60008060006060848603121561018a57600080fd5b505081359360208301359350604090920135919050565b6000602082840312156101b357600080fd5b5051919050565b6000602082840312156101cc57600080fd5b815180151581146101dc57600080fd5b939250505056fea26469706673582212204f39292edb259d0a99cf059164480484e627ef90de642e68790632cecdd009f064736f6c634300080a0033",
  "linkReferences": {},
  "deployedLinkReferences": {}
}